:020000040800F2
:10000000F8D500205902000881330008552B00085C
:100010007D330008BB030008635C0008000000009B
:100020000000000000000000000000009D0100082A
:100030007705000800000000F101000821350008E4
:1000400073020008730200087302000873020008BC
:1000500073020008730200087302000873020008AC
:10006000730200087302000873020008730200089C
:10007000730200087302000873020008730200088C
:10008000590400086904000873020008730200089C
:10009000730200087302000873020008730200086C
:1000A000730200087302000873020008730200085C
:1000B000730200087302000873020008730200084C
:1000C000730200087302000873020008730200083C
:1000D000730200084D3F00085D3F000873020008EE
:1000E000730200087302000873020008730200081C
:1000F000730200087302000873020008730200080C
:1001000073020008730200087302000873020008FB
:1001100073020008730200086D36000873020008BD
:1001200073020008730200087904000873020008D3
:1001300073020008730200087302000873020008CB
:10014000730200087302000873020008BD33000840
:100150007302000873020008890400087302000893
:10016000730200087302000873020008730200089B
:100170007302000873020008730200080000000008
:100180007302000873020008DFF80CD000F0D8F802
:1001900000480047ED5C0008F8D500202B4B19689B
:1001A0000868B0E8F04F80F30988BFF36F8F4FF015
:1001B000000080F3118870470000000006480068C6
:1001C000006880F3088862B661B6BFF34F8FBFF353
:1001D0006F8F00DF00BF00BF08ED00E0DFF80C000C
:1001E000016841F470010160704700BF88ED00E0D4
:1001F000EFF30980BFF36F8F144B1A681EF0100FD6
:1002000008BF20ED108A20E9F04F106008B44FF0CD
:10021000500080F31188BFF34F8FBFF36F8F06F04C
:100220003FFA4FF0000080F3118808BC1968086895
:10023000B0E8F04F1EF0100F08BFB0EC108A80F34A
:100240000988BFF36F8F704700BF00BF74000020A4
:10025000EFF30580704700000648804706480047D6
:10026000FEE7FEE7FEE7FEE7FEE7FEE7FEE7FEE766
:10027000FEE7FEE709360008890100082DE9F05F76
:100280000546002092469B46884606468146402405
:100290001BE0284641464746224600F041F85346B7
:1002A0005A46C01A914110D311461846224600F012
:1002B00028F82D1A67EB01084F462246012000213D
:1002C00000F01FF817EB00094E41201EA4F10104B5
:1002D000DFDC484631462A464346BDE8F09F40EA07
:1002E00001039B0703D009E008C9121F08C0042AB4
:1002F000FAD203E011F8013B00F8013B521EF9D29B
:100300007047202A04DB203A00FA02F100207047EF
:100310009140C2F1200320FA03F319439040704743
:10032000202A04DB203A21FA02F00021704721FA4A
:1003300002F3D040C2F120029140084319467047B1
:10034000064C074D06E0E06840F0010394E8070022
:1003500098471034AC42F6D3FFF71AFFD06B000871
:10036000F06B000870B58C1810F8015B15F00703EE
:1003700001D110F8013B2A1106D110F8012B03E03E
:1003800010F8016B01F8016B5B1EF9D12B0705D446
:100390000023521E0DD401F8013BFAE710F8013B8F
:1003A000CB1A921C03E013F8015B01F8015B521EAB
:1003B000F9D5A142D8D3002070BD00BFFEE70020D0
:1003C0007047002070470246002070477047704712
:1003D00010B52DED028BB0EE408A084890ED080A6A
:1003E000DFED070AB4EEE00AF1EE10FA03D820467A
:1003F000044909688847BDEC028B10BDA02D002080
:10040000CDCCCC3D4801002010B52DED028BB0EED7
:10041000408A044634B1012C09D0022C0CD0032CA4
:1004200014D10EE0B0EE480AFFF7D2FF0EE0B0EEB6
:10043000480A00F00FF809E0B0EE480AFFF7C7FFDE
:1004400004E0B0EE480AFFF7C1FF00BF00BFBDECFB
:10045000028B10BD7047000010B5024800F0A0F8F4
:1004600010BD0000F42F002010B5024800F098F8ED
:1004700010BD00005430002010B5024800F090F884
:1004800010BD0000342F002010B5024800F088F89D
:1004900010BD0000942F0020014608781038182362
:1004A000B0FBF3F20848805CC865032A05D90868E8
:1004B0006FF30900001D886503E008686FF3090009
:1004C0008865886D70470000A86B00080146002011
:1004D0008A6A8B69CBB932B1012A0DD0022A03D0C6
:1004E000032A10D10EE000BFCB6A03F08073B3F192
:1004F000807F00D1012007E0CB6AB3F1C07F00D13B
:10050000012001E000E000BF34E08B69B3F5005F3B
:100510001AD132B1012A07D0022A03D0032A11D1FD
:100520000AE000BF01200EE0CB6A03F08073B3F154
:10053000807F00D1012006E0CB6AB3F1C07F00D1FB
:10054000012000E000BF15E032B1012A05D0022AE7
:1005500004D0032A0CD103E000BF00BF012008E053
:10056000CB6A03F08073B3F1807F00D1012000E0FB
:1005700000BF00BF70477047014691F83500022860
:1005800003D08020486501207047052081F83500A0
:100590000868006820F001000A6810600020F3E796
:1005A000F8B50446002000908C4800684FF41651BE
:1005B000B0FBF1F7A56D2E6894F85C100820884018
:1005C000304098B12068006800F0040070B12068E5
:1005D000006820F004002168086094F85C1008208E
:1005E0008840A860606D40F00100606594F85C1080
:1005F00001208840304068B12068406900F08000E8
:1006000040B194F85C1001208840A860606D40F013
:100610000200606594F85C1004208840304068B1A6
:100620002068006800F0020040B194F85C100420DB
:100630008840A860606D40F00400606594F85C102C
:1006400010208840304078B32068006800F008002F
:1006500050B394F85C1010208840A86020680068AF
:1006600000F4802080B12068006800F4002028B9E0
:10067000206CC8B12046216C884715E0A06C98B169
:100680002046A16C88470FE02068006800F4807065
:1006900028B92068006820F0080021680860206CF4
:1006A00010B12046216C884794F85C1020208840C7
:1006B0003040002865D02068006800F01000002855
:1006C0005FD094F85C1020208840A86094F8350032
:1006D000052828D12068006820F0160021680860ED
:1006E0002068406920F0800021684861206C08B9CA
:1006F000A06C28B12068006820F00800216808601C
:1007000094F85C103F208840A86000BF002084F867
:10071000340000BF012084F83500206D10B1204660
:10072000216D8847F8BD2068006800F4802080B102
:100730002068006800F4002028B9606C10B12046E1
:10074000616C88471DE0E06BD8B12046E16B8847BB
:1007500017E02068006800F4807068B920680068BD
:1007600020F010002168086000BF002084F83400E9
:1007700000BF012084F83500E06B10B12046E16B2A
:100780008847606D38B3606D00F00100F0B105205E
:1007900084F835002068006820F0010021680860B6
:1007A00000BF0098401C0090B84200D905E02068C6
:1007B000006800F001000028F3D100BF00BF002056
:1007C00084F8340000BF012084F83500E06C10B1DB
:1007D0002046E16C884700BFA4E7000030010020FC
:1007E0002DE9F0410446002500F08EF9074614B9C2
:1007F0000120BDE8F081606A00B100BF00BF0020A9
:1008000084F8340000BF022084F8350020680068B6
:1008100020F00100216808600AE000F075F9C01BB3
:10082000052805D920206065032084F83500E0E71D
:100830002068006800F001000028EED120680568FB
:1008400021480540D4E901010843E16808432169D2
:10085000084361690843A1690843E1690843216AC3
:1008600008430543606A042803D1D4E90B01084317
:100870000543206805602068456925F00705606A22
:100880000543606A04280DD1A06A0543E06A48B1B7
:100890002046FFF71BFE28B140206065012084F848
:1008A0003500A6E7206845612046FFF7F5FD0646BE
:1008B00094F85C103F208840B06000206065012003
:1008C00084F83500002094E73F8010F070B50446AE
:1008D00000F01AF906462546681C10B10448007855
:1008E000054400BF00F010F9801BA842FAD370BD88
:1008F0003C010020F8B502460B46002500240020EC
:100900000021DCE0012606FA01F51E6806EA05046E
:10091000AC4273D15E68022E02D05E68122E13D1F3
:10092000CF0802F1200656F827004E07F70E0F26D3
:10093000BE40B0434F07FF0E1E69BE403043CF0894
:1009400002F1200646F8270010684F000326BE403B
:10095000B0431E7906F003064F00BE4030431060DE
:100960005E68012E08D05E68022E05D05E68112EEA
:1009700002D05E68122E13D190684F000326BE404D
:10098000B0434F00DE68BE4030439060506801269F
:100990008E40B0431E79C6F300168E40304350603F
:1009A000D0684F000326BE40B0434F009E68BE4053
:1009B0003043D0605E6806F08056B6F1805F7DD12E
:1009C00000BF00260096404E366846F480463E4FF3
:1009D0003E603E46366806F48046009600BF00BF83
:1009E0003A4E8F0856F827008E07370F0F26BE4065
:1009F000B043374EB24202D1002624E05EE0354ECD
:100A0000B24201D101261EE0334EB24201D102268C
:100A100019E0324EB24201D1032614E0304EB24208
:100A200001D104260FE02F4EB24201D105260AE083
:100A30002D4EB24201D1062605E02C4EB24201D124
:100A4000072600E008268F073F0FBE4030431F4EA9
:100A50008F0846F82700264E3068A0435E6806F4EB
:100A60008036B6F5803F00D12043214E3060361DE0
:100A70003068A0435E6806F40036B6F5003F00D14A
:100A800020431B4E361D3060361D3068A0435E6823
:100A900006F48016B6F5801F00D12043144E0836A8
:100AA0003060361D3068A0435E6806F40016B6F567
:100AB000001F00D120430E4E0C363060491C102917
:100AC000FFF420AFF8BD0000443802400838014070
:100AD000000002400004024000080240000C0240F6
:100AE000001002400014024000180240001C0240A6
:100AF000003C014042694A40426170470AB181614D
:100B000001E00B04836170470148006870470000F2
:100B1000340100200348006803490978084401496A
:100B200008607047340100203C01002010B50D48DA
:100B3000006840F400700B4908600846006840F403
:100B4000806008600846006840F4807008600320F8
:100B500000F0C6F8002000F007F800F04BF8002085
:100B600010BD0000003C024070B588B0044600256E
:100B7000002600222146362000F074F8362000F0CE
:100B800064F800BF002001901648006840F0100093
:100B9000144908600846006800F01000019000BF8A
:100BA00000BF02A903A800F0CBFF00F0F1FF450051
:100BB0000D48B5FBF0F0461E0C480D49086040F2A8
:100BC000E7310B48C160466000210161816001F09E
:100BD000DCFA20B9064801F0F3FA08B070BD012034
:100BE000FBE700004038024040420F000010004088
:100BF000C838002010B5032000F072F8002211461A
:100C00006FF00B0000F02EF8002211466FF00A0082
:100C100000F028F8002211466FF0090000F022F8D9
:100C200000221146501F00F01DF800221146101F2F
:100C300000F018F800220F21901E00F013F8002297
:100C40000F21501E00F00EF810BD00BF00F01F0273
:100C5000012191404209920002F1E022C2F8001104
:100C600000BF70472DE9F05F80460D46164600270D
:100C700002F088FB074639462A46334601F0070052
:100C8000C0F1070ABAF1040F02D94FF0040A01E0DB
:100C9000C0F1070AD14600F1040ABAF1070F02D2E7
:100CA0004FF0000A01E0A0F1030AD4464FF0010A18
:100CB0000AFA09FAAAF1010A0AEA020A0AFA0CFA7D
:100CC0004FF0010B0BFA0CFBABF1010B0BEA030B22
:100CD0004AEA0B042146404602F05CFBBDE8F09F67
:100CE00000BF00F00702064B19684FF6FF031940DA
:100CF000044B0B4343EA0221014B196000BF7047CC
:100D00000CED00E00000FA05024610684162002088
:100D10007047F0B503461446002500221868426A61
:100D200021B942EA04401E68B06219E01868806A7E
:100D300002EB1042002508E0186800F5827050F8B8
:100D4000250002EB1042681CC5B2481EA842F3DC25
:100D500042EA0447186800F582704E1E40F826707B
:100D60000020F0BD10B50446D4F8EC0303F06AFD92
:100D700010BD70B504460D46C5EBC50304F138013E
:100D800001EB8301CA682946D4F8EC0303F0AAFCFE
:100D900070BD70B504460D46C5EBC50304F5FC7186
:100DA00001EB8301CA682946D4F8EC0303F007FD80
:100DB00070BD10B50446D4F8EC0303F046FD10BD39
:100DC00070B504460D4605F08000802808D105F076
:100DD0007F00C0EBC00104F1380000EB810607E0A2
:100DE00005F07F00C0EBC00104F5FC7000EB81064C
:100DF00005F07F00307005F08000C009707000BF02
:100E000094F8B803012801D1022070BD012084F8B4
:100E1000B80300BF3146206804F0CCF900BF0020C1
:100E200084F8B80300BF00BFEFE770B504460D4675
:100E300005F08000802808D105F07F00C0EBC001DC
:100E400004F1380000EB810605E0C5EBC50104F5AF
:100E5000FC7000EB81060020B07005F07F00307060
:100E6000C5F3C010707000BF94F8B803012801D119
:100E7000022070BD012084F8B80300BF314620680D
:100E800004F00CFC00BF002084F8B80300BF00BFD2
:100E9000EFE72DE9F04705460E4690461F464FF016
:100EA000000906F08000802808D106F07F00C0EB22
:100EB000C00105F1380000EB810407E006F07F0077
:100EC000C0EBC00105F5FC7000EB810406F07F006B
:100ED000207006F08000C0096070C4F80880E770D8
:100EE000607808B12078E080022F01D100202071C5
:100EF00000BF95F8B803012802D10220BDE8F087B1
:100F0000012085F8B80300BF2146286804F070F876
:100F100000BF002085F8B80300BF4846EEE72DE982
:100F2000F04104460E461746984606F07F00C0EB97
:100F3000C00104F5FC7000EB8105EF60C5F814807A
:100F40000020A861687006F07F00287020690128E1
:100F500000D12F6106F07F0028B9227C2946206845
:100F600004F0A4FA04E0227C2946206804F020FC66
:100F70000020BDE8F08170B504460D4605F0800004
:100F8000802808D105F07F00C0EBC00104F13800D3
:100F900000EB810605E0C5EBC50104F5FC7000EB34
:100FA00081060120B07005F07F003070C5F3C010DD
:100FB000707000BF94F8B803012801D1022070BD01
:100FC000012084F8B80300BF3146206804F0AAFB72
:100FD00005F07F0028B9217C04F56F72206804F0C9
:100FE0003BFB00BF002084F8B80300BF00BFE6E76A
:100FF0002DE9F04104460E461746984606F07F005C
:10100000C0EBC00104F1380000EB8105EF60C5F8CA
:1010100014800020A8610120687006F07F0028700D
:101020002069012800D12F6106F07F0028B9227CB9
:101030002946206804F03AFA04E0227C2946206818
:1010400004F0B6FB0020BDE8F08100002DE9FC5F54
:10105000044626684FF0000B0020019081460025D1
:1010600000908046F74F206804F062FD00286CD1A4
:10107000206804F095FD08B9BDE8FC9F206804F0E5
:101080008FFD00F00200022805D12068406900F0C1
:10109000020021684861206804F082FD00F400200D
:1010A000B0F5002F7ED10025206804F04FFD01909F
:1010B00075E0019800F0010000286CD0E9B22068CA
:1010C00004F063FD814609F00100E8B3012106F553
:1010D000306000EB45108160206901282BD1C5EB01
:1010E000C50104F5FC7000EB8100816806F53060F5
:1010F00000EB45100069C0F31200091AC5EBC502E8
:1011000004F5FC7000EB82008161C5EBC50104F5BC
:10111000FC7000EB8100C5EBC502C16804F5FC70F2
:1011200000EB820080680144C5EBC50204F5FC7049
:1011300000EB8200C160E9B22046FFF72AFE206979
:10114000012811D105B901E00EE0B2E2C5EBC501FD
:1011500004F5FC7000EB8100406928B904F56F725A
:101160000121206804F078FA09F00800082808D165
:10117000204600F0E7FB082106F5306000EB451043
:10118000816009F01000102805D1102106F53060AB
:1011900000EB451081606D1C01984008019001989A
:1011A000002800E000E084D1206804F0F9FC00F49D
:1011B0008020B0F5802F7DD1206804F0BEFC019026
:1011C000002585E0019800F0010000287CD0E9B2FC
:1011D000206804F0C4FC814609F00100F0B301204E
:1011E000A840009040F6340080590099884340F6AA
:1011F00034018851012106F5106000EB4510816033
:101200002069012815D1C5EBC50104F1380000EBB8
:101210008100C5EBC502C16804F1380000EB820013
:1012200080680144C5EBC50204F1380000EB820080
:10123000C160E9B22046FFF79CFD2069012810D16A
:1012400065B9C5EBC50104F1380000EB81004069C8
:1012500020B904F56F720121206800E001E004F07C
:10126000FBF909F00800082805D1082106F51060EF
:1012700000EB4510816009F01000102805D1102105
:1012800006F5106000EB4510816009F04000402831
:1012900005D1402106F5106000EB4510816009F092
:1012A0000200022805D1022106F5106000EB45106E
:1012B000816001E010E007E009F08000802803D1A0
:1012C0002946204602F082F86D1C019840080190E2
:1012D000019800287FF476AF206804F061FC00F0EC
:1012E0000040B0F1004F10D140F60400805920F0CA
:1012F000010140F604008151204600F0FCFA20680C
:10130000406900F0004021684861206804F048FC12
:1013100000F40060B0F5006F0ED140F6080080596F
:1013200000F0010010B1204600F030FB2068406959
:1013300000F4006021684861206804F031FC00F48A
:101340008050B0F5805F5CD140F60400805920F0F9
:10135000010140F6040081511021206804F0AEFB29
:101360004FF0000B0CE0FF2106F5106000EB4B1076
:10137000816006F5306000EB4B1081600BF1010BD2
:1013800060685845EFD84FF0FF3140F618008151A2
:10139000001D805940F0011140F61C008151206B66
:1013A00070B1D6F8840840F00B01C6F8841840F6F6
:1013B0004400805940F00B0140F6440081510EE09A
:1013C00040F61400805940F00B0140F614008151A2
:1013D000001F805940F00B014FF401608151D6F895
:1013E000000820F4FE60C6F80008217C04F56F7246
:1013F000206804F031F92068406900F480502168C9
:101400004861206804F0CCFB00F40050B0F5005FA8
:101410006FD1206803F04EFE2068C06820F4705041
:101420002168C860206804F061FB68B90021E160B0
:101430004FF4007161612068C06840F41050216869
:10144000C86084E00095BA0A0321E160402161612F
:1014500000F098FB07469848874209D3974887428F
:1014600006D22068C06840F470502168C8606EE001
:101470009248874209D39248874206D22068C068C2
:1014800040F460502168C86061E08D48874209D30C
:101490008C48874206D22068C06840F450502168CA
:1014A000C86054E08748874209D38748874206D2FC
:1014B0002068C06840F440502168C86047E0824816
:1014C000874209D38148874206D22068C06840F429
:1014D00030502168C8603AE07C4887420AD37C4893
:1014E000874207D22068C06840F420502168C86055
:1014F0002DE035E07648874209D37648874206D208
:101500002068C06840F410502168C8601FE071482E
:10151000874209D37048874206D22068C06840F4E9
:1015200000502168C86012E06B48874209D36B48BD
:10153000874206D22068C06840F4E0502168C86045
:1015400005E02068C06840F4C0502168C8602046AB
:1015500000F0B8F92068406900F400502168486143
:10156000206804F01DFB00F01000102845D1206811
:10157000806920F0100021688861D6F8208008F08A
:101580000F00C0EBC00104F5FC7000EB810AC8F34A
:10159000434002281AD147F6F07008EA000030B341
:1015A000C8F30A123046DAF80C1004F0FFFAC8F358
:1015B0000A11DAF80C000844CAF80C00C8F30A1142
:1015C000DAF818000844CAF8180010E0C8F34340DD
:1015D00006280CD1082204F56F71304604F0E6FAB3
:1015E000C8F30A11DAF818000844CAF8180020688D
:1015F000806940F0100021688861206804F0D0FA0A
:1016000000F00800082808D1204600F07BF9206887
:10161000406900F0080021684861206804F0C0FAC1
:1016200000F48010B0F5801F09D1E9B2204600F027
:1016300057F82068406900F48010216848612068EC
:1016400004F0AEFA00F40010B0F5001F09D1E9B2C1
:10165000204600F04EF82068406900F40010216830
:101660004861206804F09CFA00F08040B0F1804F9F
:1016700008D12046FFF776FB2068406900F08040E3
:1016800021684861206804F08BFA00F00400042807
:101690000FD12068D0F8048008F00400042802D19B
:1016A0002046FFF786FB2068406840EA0800216872
:1016B000486000BFE0E40000C0ACD800C0E1E40036
:1016C0000024F40080730601A0491A01002D3101A5
:1016D00040A44C0100366E0120ABA6010048E80191
:1016E00070B504460D462946D4F8EC0303F01AF908
:1016F00070BD70B504460D462946D4F8EC0303F0DE
:1017000014F970BD30B58BB00446002514B9012022
:101710000BB030BD032084F8B903204600F094F8E4
:10172000206803F0BBFE282204F110016846FEF792
:10173000D6FD94E80F0003F0DFFC0021206804F0E0
:1017400046FA002530E00121C5EBC50204F138005E
:1017500000EB82004170C5EBC50204F1380000F8CF
:101760002250C5EBC50200EB8200C5800021C5EB0D
:10177000C50204F1380000EB8200C170C5EBC50260
:1017800004F1380000EB82008160C5EBC50204F172
:10179000380000EB8200C160C5EBC50204F13800DF
:1017A00000EB820041616D1C0F2DCCD3002536E08B
:1017B0000021C5EBC50204F5FC7000EB820041700E
:1017C000C5EBC50204F5FC7000F82250C5EBC5025C
:1017D00004F1380000EB8200C580C5EBC50204F5BA
:1017E000FC7000EB8200C170C5EBC50204F5FC7013
:1017F00000EB82008160C5EBC50204F5FC7000EBD4
:101800008200C160C5EBC50204F5FC7000EB8200EC
:101810004161206800F5827040F825106D1C0F2D85
:10182000C6D3282204F110016846FEF758FD94E85B
:101830000F0003F063FD012084F8B903206803F072
:101840004EFD002064E7000010B586B00446206815
:10185000B0F1A04F30D14FF4C0500190022002905F
:1018600000200390032004900A20059001A913484A
:10187000FFF740F800BF1248006840F080001049B0
:10188000086000BF002000900D481030006840F450
:1018900080400B49103108600846006800F4804021
:1018A000009000BF00BF00BF002205214320FFF7CA
:1018B000D9F94320FFF7C9F906B010BD0000024076
:1018C0003438024070B504460125E06810B10228A2
:1018D00004D101E0002503E0012501E0012500BF5E
:1018E00000BF2946D4F8EC0303F0BEF8D4F8EC03AB
:1018F00003F080F870BD10B50446D4F8EC0303F093
:101900009BF810BD10B50446D4F8EC0303F09BF827
:1019100010BD70B504460D4600BF94F8B803012809
:1019200001D1022070BD012084F8B80300BF294610
:10193000206804F064F900BF002084F8B80300BFF9
:1019400000BFEFE710B5044604F56F71D4F8EC035F
:1019500003F0B0F810BD10B5044600BF94F8B8030A
:10196000012801D1022010BD012084F8B80300BF76
:10197000206803F0A5FC206804F082F800BF002076
:1019800084F8B80300BF00BFEDE7000010B50446BF
:10199000D4F8EC0303F005F92068D0F8000E40F00D
:1019A00001002168C1F8000E206A28B103480068D0
:1019B00040F006000149086010BD000010ED00E095
:1019C00070B504460D460CB9012070BD584800683A
:1019D00000F00F00A84209D255490D700846006872
:1019E00000F00F00A84201D00120EEE7207800F0BF
:1019F000020002281DD1207800F00400042805D13F
:101A00004C48006840F4E0504A490860207800F0F3
:101A10000800082805D14748006840F4604045495F
:101A200008604448006820F0F000A168084341497C
:101A30000860207800F00100A8B36068012807D191
:101A40003C4808380068C0F34040B8B90120BCE702
:101A50006068022802D06068032807D1354808383A
:101A60000068C0F3406048B90120AEE7314808384B
:101A70000068C0F3400008B90120A6E72D480068BF
:101A800020F00300616808432A490860FFF73CF82A
:101A9000064609E0FFF738F8801B41F2883188429A
:101AA00002D9032091E707E02248006800F00C000B
:101AB0006168B0EB810FEDD11D48006800F00F00A8
:101AC000A84209D91A490D700846006800F00F00B5
:101AD000A84201D0012078E7207800F00400042813
:101AE00007D11448006820F4E050E1680843114928
:101AF0000860207800F00800082808D10D48006828
:101B000020F46040216940EAC1000A49086000F001
:101B10005FF808490968C1F30311074A515CC840DE
:101B2000064908600020FFF71FF800204DE700007D
:101B3000003C024008380240906B00083001002051
:101B40000F2202600D4A126802F0030242600B4A43
:101B5000126802F0F0028260084A126802F4E05251
:101B6000C260064A126802F46042D2080261044A66
:101B7000126802F00F020A60704700000838024045
:101B8000003C02400148006870470000300100201E
:101B900000B5FFF7F7FF04490968C1F38221034A42
:101BA000515CC84000BD000008380240A06B00082E
:101BB00000B5FFF7E7FF04490968C1F34231034A62
:101BC000515CC84000BD000008380240A06B00080E
:101BD0002DE9F047002400250026A146254800688D
:101BE00000F00C0020B1042805D008283AD105E007
:101BF000DFF8849039E0DFF8849036E01D48001F5C
:101C0000006800F03F041B48001F006800F48000DB
:101C100078B11A481749091F0968C1F38811A0FB58
:101C200001700146224600233846FEF727FB054691
:101C30000EE011480F49091F0968C1F38811A0FB84
:101C400001700146224600233846FEF717FB054681
:101C50000848001F0068C0F30140401C4600B5FB67
:101C6000F6F902E0DFF8109000BF00BF4846BDE87B
:101C7000F0870000083802400024F40000127A00C7
:101C8000F8B504460CB90120F8BD207800F0010039
:101C9000002874D0F948006800F00C0004280DD02A
:101CA000F648006800F00C00082813D1F348001F24
:101CB000006800F48000B0F5800F0BD1EF480838C1
:101CC0000068C0F34040002859D06068002856D111
:101CD0000120D9E700BF6068B0F5803F08D1E74830
:101CE0000838006840F48030E449083908601EE094
:101CF0006068B0F5A02F0DD1E0480838006840F4C6
:101D00008020DE49083908600846006840F48030C9
:101D100008600CE0D9480838006820F48030D749C2
:101D2000083908600846006820F48020086000BF79
:101D3000606890B1FEF7E8FE054606E0FEF7E4FEB7
:101D4000401B642801D903209EE7CC48083800686E
:101D5000C0F340400028F1D011E0FEF7D5FE054663
:101D600006E0FEF7D1FE401B642801D903208BE773
:101D7000C24808380068C0F340400028F1D12078FC
:101D800000F0020002285FD1BC48006800F00C009F
:101D900058B1BA48006800F00C0008281CD1B748B8
:101DA000001F006800F48000B0B9B448083800682B
:101DB000C0F3400020B1E068012801D0012063E7B2
:101DC000AE480838006820F0F800216940EAC100F8
:101DD000AA490839086037E0E06800B30120A84943
:101DE0000860FEF791FE054606E0FEF78DFE401BFB
:101DF000022801D9032047E7A04808380068C0F34B
:101E000040000028F1D09D480838006820F0F80014
:101E1000216940EAC10099490839086014E00020AE
:101E200097490860FEF770FE054606E0FEF76CFE77
:101E3000401B022801D9032026E790480838006893
:101E4000C0F340000028F1D1207800F008000828F5
:101E50002CD16069A8B101208A490860FEF754FEC0
:101E6000054606E0FEF750FE401B022801D903207C
:101E70000AE782486C300068C0F340000028F1D0C7
:101E800014E000207F490860FEF73EFE054606E0AC
:101E9000FEF73AFE401B022801D90320F4E67748FA
:101EA0006C300068C0F340000028F1D1207800F0C9
:101EB0000400042870D1002670483830006800F013
:101EC000805090B900BF002000906C483830006806
:101ED00040F080506949383108600846006800F0D9
:101EE0008050009000BF00BF01266748006800F4E2
:101EF0008070B0B96448006840F48070624908603E
:101F0000FEF702FE054606E0FEF7FEFD401B022836
:101F100001D90320B8E65C48006800F4807000280E
:101F2000F2D000BFA068012808D15448683000688A
:101F300040F001005149683108601DE0A0680528A3
:101F40000DD14E486830006840F004004B496831BC
:101F500008600846006840F0010008600CE047484F
:101F60006830006820F00100444968310860084684
:101F7000006820F00400086000BFA068A8B1FEF768
:101F8000C3FD054609E0FEF7BFFD401B41F2883165
:101F9000884202D9032077E626E038486830006896
:101FA000C0F340000028EED013E0FEF7ADFD05467B
:101FB00008E0FEF7A9FD401B41F28831884201D9B3
:101FC000032061E62D4868300068C0F34000002817
:101FD000EFD1012E07D129483830006820F0805019
:101FE00026493831086000BFA069B8B323480068AB
:101FF00000F00C0008285ED0A069022846D100201D
:102000001F490866FEF780FD054606E0FEF77CFDE9
:10201000401B022801D9032036E61848083800681A
:10202000C0F340600028F1D1D4E907010843616A98
:1020300040EA81110122A06AC2EB500041EA00414E
:102040002C20005D41EA00600C49091F0860012056
:102050000B490866FEF758FD054607E02DE0FEF740
:1020600053FD401B022801D903200DE60348083820
:102070000068C0F340600028F1D01EE0083802403C
:1020800000004742800E47420070004000200C498B
:102090000866FEF739FD054606E0FEF735FD401BF4
:1020A000022801D90320EFE506480068C0F340602C
:1020B0000028F2D101E00120E6E50020E4E500007F
:1020C0000000474200380240042808D14FF0E021C8
:1020D000096941F004014FF0E022116107E04FF07F
:1020E000E021096921F004014FF0E02211617047FD
:1020F00070B504462546681EB0F1807F01D30120EB
:102100000FE0681E4FF0E02148610F214FF0FF30D3
:1021100001F040F900204FF0E021886107200861BC
:10212000002070BD70477047024600BF92F838002B
:10213000012801D102207047012082F8380000BF39
:10214000022082F839001068406820F0700013689F
:102150005860106840680B6818431368586010682E
:10216000806820F0800013689860106880684B6871
:10217000184313689860012082F8390000BF0020DE
:1021800082F8380000BF00BFD5E710B504460CB98F
:10219000012010BD94F8390028B9002084F83800D7
:1021A000204600F00CF8022084F83900211D206838
:1021B00001F064FA012084F839000020E9E7704753
:1021C00001460868C06840F001000A68D0600868ED
:1021D000006840F001000A681060002070477047F6
:1021E0002DE9F04104460D46164600BF94F838002C
:1021F000012802D10220BDE8F081012084F83800D6
:1022000000BF022084F8390096B9EB68D5E90012C6
:10221000206801F093FB2068806920F00C002168A1
:10222000886120688069A9680843216888613DE069
:10223000042E13D1EB68D5E90012206801F0CAFB27
:102240002068806920F44060216888612068806986
:10225000A96840EA01202168886127E0082E12D190
:10226000EB68D5E90012206801F0D3FB2068C06953
:1022700020F00C002168C8612068C069A968084383
:102280002168C86112E0EB68D5E90012206801F00E
:10229000DEFB2068C06920F440602168C8612068C6
:1022A000C069A96840EA01202168C861012084F85A
:1022B000390000BF002084F8380000BF00BF9AE753
:1022C00010B504460CB9012010BD94F8390028B9A6
:1022D000002084F83800204600F00CF8022084F832
:1022E0003900211D206801F0C9F9012084F8390066
:1022F0000020E9E710B586B00446124920688842FC
:102300001DD100BF002000900F48006840F002007F
:102310000D4908600846006800F00200009000BF08
:1023200000BF4FF4707001900220029000200390D3
:1023300004900320059001A90448FEF7DBFA06B0DB
:1023400010BD000000040140443802400008024073
:1023500030B504460D4601222946206801F000FAF6
:102360002068006840F0010021680860002030BD4E
:1023700010B5044620680069C0F34000D8B1206859
:10238000C068C0F34000B0B16FF00200216808617E
:10239000012020762068806900F0030018B12046F3
:1023A000FFF71DFF05E0204600F0EEF8204600F0A4
:1023B000BBF90020207620680069C0F38000D8B106
:1023C0002068C068C0F38000B0B16FF004002168DD
:1023D0000861022020762068806900F4407018B1FE
:1023E0002046FFF7FCFE05E0204600F0CDF8204631
:1023F00000F09AF90020207620680069C0F3C00040
:10240000D8B12068C068C0F3C000B0B16FF0080058
:1024100021680861042020762068C06900F003006C
:1024200018B12046FFF7DBFE05E0204600F0ACF8CF
:10243000204600F079F90020207620680069C0F37A
:102440000010D8B12068C068C0F30010B0B16FF0C0
:10245000100021680861082020762068C06900F417
:10246000407018B12046FFF7BAFE05E0204600F0A4
:102470008BF8204600F058F900202076206800698B
:1024800000F0010058B12068C06800F0010030B1D0
:102490006FF0010021680861204600F06DF92068A6
:1024A0000069C0F3C01058B12068C068C0F3C01004
:1024B00030B16FF08000216808612046FFF732FEDE
:1024C00020680069C0F3801058B12068C068C0F36C
:1024D000801030B16FF0400021680861204600F0A4
:1024E00057F920680069C0F3401058B12068C068EF
:1024F000C0F3401030B16FF0200021680861204621
:10250000FFF711FE10BD000010B586B00446194952
:10251000206888421AD1C020019002200290002039
:10252000039004900220059001A91348FEF7E2F9F8
:1025300003200190022002900020039004900220CA
:10254000059001A90D48FEF7D5F911E00C49206866
:1025500088420DD14FF4704001900220029000207B
:10256000039004900220059001A90648FEF7C2F9E5
:1025700006B010BD0004004000000240000402400C
:1025800000080040000C0240704770B504460D463C
:10259000164600BF94F83800012801D1022070BD12
:1025A000012084F8380000BF022084F8390036B1D9
:1025B000042E1BD0082E31D00C2E5ED145E02946CA
:1025C000206801F0DBF82068806940F0080021688D
:1025D00088612068806920F0040021688861206893
:1025E0008069296908432168886147E02946206895
:1025F00001F0FCF82068806940F40060216888617F
:102600002068806920F48060216888612068806982
:10261000296940EA0120216888612FE02946206865
:1026200001F020F92068C06940F008002168C86105
:102630002068C06920F004002168C8612068C06972
:10264000296908432168C86118E02946206801F01B
:1026500045F92068C06940F400602168C8612068BD
:10266000C06920F480602168C8612068C069296958
:1026700040EA01202168C86100E000BF00BF0120DE
:1026800084F8390000BF002084F8380000BF00BF84
:1026900085E710B504460CB9012010BD94F8390047
:1026A00028B9002084F83800204600F00DF80220F8
:1026B00084F83900211D206800F0E0FF012084F833
:1026C00039000020E9E7000008B5144A016891428A
:1026D0000FD100BF002100911149096841F00201AA
:1026E0000F4A11601146096801F00201009100BF14
:1026F00013E00C4A016891420FD100BF0021009104
:102700000749096841F00401054A1160114609684A
:1027100001F00401009100BF00BF08BD00040040AB
:1027200040380240000800407047000030B50446C1
:102730000D4601222946206801F012F80C49206854
:10274000884203D00B492068884201D1012000E073
:10275000002028B12068406C40F4004021684864A3
:102760002068006840F0010021680860002030BD4A
:10277000000001400004014010B5044603492068F0
:10278000884201D1FEF7C6F910BD000000100040DC
:10279000704770472DE9F0470446206805682068B7
:1027A000C668206847694FF00008C14605F00F0869
:1027B000B8F1000F0AD105F0200038B106F0200072
:1027C00020B1204601F08DF9BDE8F087B8F1000F87
:1027D0006DD007F0010018B906F49070002866D09B
:1027E00005F0010030B106F4807018B1E06B40F0E4
:1027F0000100E06305F0040030B107F0010018B1FA
:10280000E06B40F00200E06305F0020030B107F039
:10281000010018B1E06B40F00400E06305F008002F
:1028200030B107F0010018B1E06B40F00800E06340
:10283000E06B68B305F0200028B106F0200010B16D
:10284000204601F04EF920684069C0F38019E06B22
:1028500000F0080010B9B9F1000F22D0204601F0B5
:1028600020F92068406900F04000B0B1206840695C
:1028700020F0400021684861606B50B11748616BDF
:102880000865606BFDF778FE10B1606B016D8847DD
:102890000CE02046FFF77DFF08E02046FFF779FFB8
:1028A00004E02046FFF775FF0020E0638CE705F0A9
:1028B000800030B106F0800018B1204601F012FB14
:1028C00082E705F0400030B106F0400018B1204624
:1028D00001F0F7F878E700BF76E700008F3A0008CC
:1028E00010B504460CB9012010BDA06900B100E08C
:1028F00000BF94F8390028B9002084F83800204639
:1029000000F028F8242084F839002068C06820F4FA
:1029100000502168C860204601F030F92068006945
:1029200020F49040216808612068406920F02A0066
:10293000216848612068C06840F400502168C86080
:102940000020E063202084F8390084F83A00002059
:10295000CAE7000010B586B004466E492068884278
:1029600067D100BF002000906B48006840F0100065
:10297000694908600846006800F01000009000BF38
:1029800000BF4FF4C060019002200290012003902C
:10299000032004900720059001A96048FDF7AAFFD5
:1029A0005F48604908604FF00060486000215D4862
:1029B0008160C1604FF480610161002141618161EA
:1029C000C16101624162FDF70BFF18B18F2156A072
:1029D00003F049F900BF53486063846300BF504867
:1029E0007830564908604FF00060486040215348F5
:1029F00081600021C1604FF480610161002141616B
:102A00008161C16101624162FDF7EAFE18B1A12155
:102A100045A003F028F900BF48482063846300BF45
:102A2000002205212520FEF71DF92520FEF70DF9CE
:102A30006EE04349206888426AD100BF00200090C0
:102A40003548001F006840F400303349091F086012
:102A50000846006800F40030009000BF00BF0C2062
:102A6000019002200290012003900320049007208F
:102A7000059001A92948FDF73DFF32483249086019
:102A80004FF00060486000212F488160C1604FF422
:102A9000806101610021416181614FF48071C161F8
:102AA000002101624162FDF79BFE18B1CE211EA0FC
:102AB00003F0D9F800BF24486063846300BF214855
:102AC0001830224908604FF00060486040211F48DC
:102AD00081600021C1604FF480610161002141618A
:102AE0008161C16101624162FDF77AFE18B1E021A6
:102AF0000DA003F0B8F800BF14482063846300BF42
:102B0000002205212620FEF7ADF82620FEF79DF8CD
:102B100006B010BD001001404438024000000240E1
:102B200040640240342F00202E2E2F436F72652FF9
:102B30005372632F75736172742E6300942F00209B
:102B40000044004088600240F42F002054300020F0
:102B50007047704700BFFEE710B5044634B1012C42
:102B600014D0022C18D0032C22D11BE001222021EA
:102B70001848FDF7C3FF012240211648FDF7BEFFAC
:102B8000012251031448FDF7B9FF21E00122202161
:102B90001048FDF7B3FF1BE0012240210D48FDF76F
:102BA000ADFF15E0012251030B48FDF7A7FF0FE031
:102BB000012220210748FDF7A1FF012240210548FD
:102BC000FDF79CFF012251030348FDF797FF00BF6B
:102BD00000BF10BD001002400008024010B50446BE
:102BE00034B1012C15D0022C19D0032C24D11CE0B7
:102BF000002220211A48FDF781FF002240211848B9
:102C0000FDF77CFF00224FF400511648FDF776FFD8
:102C100023E0002220211248FDF770FF1DE0002272
:102C200040210F48FDF76AFF17E000224FF40051E2
:102C30000C48FDF763FF10E0002220210848FDF753
:102C40005DFF002240210648FDF758FF00224FF4A7
:102C500000510448FDF752FF00BF00BF10BD000047
:102C6000001002400008024010B5044634B1012CA7
:102C700012D0022C15D0032C1ED117E020211648AB
:102C8000FDF738FF40211448FDF734FF4FF40051A1
:102C90001248FDF72FFF1DE020210F48FDF72AFF06
:102CA00018E040210C48FDF725FF13E04FF40051D8
:102CB0000A48FDF71FFF0DE020210748FDF71AFF26
:102CC00040210548FDF716FF4FF400510348FDF77A
:102CD00011FF00BF00BF10BD0010024000080240FD
:102CE00070B504460D46012D39D1052C35D2DFE8EB
:102CF00004F0031A20262D00002204213348FDF79A
:102D0000FDFE002280213248FDF7F8FE00224FF43C
:102D100080613048FDF7F2FE00224FF400612D483B
:102D2000FDF7ECFE1AE0002204212848FDF7E6FE3C
:102D300014E0002280212648FDF7E0FE0EE000228C
:102D40004FF480612348FDF7D9FE07E000224FF4DD
:102D500000612048FDF7D2FE00E000BF35E0052C01
:102D600031D2DFE804F003181E242A0001220421D6
:102D70001648FDF7C3FE012280211548FDF7BEFE6F
:102D8000012291021348FDF7B9FE0122D102114838
:102D9000FDF7B4FE18E0012204210C48FDF7AEFE59
:102DA00012E0012280210A48FDF7A8FE0CE0012272
:102DB00091020848FDF7A2FE06E00122D102054873
:102DC000FDF79CFE00E000BF00BF70BD00040240A4
:102DD00000100240000C024010B500224FF4807138
:102DE0000448FDF78BFE00224FF400710148FDF707
:102DF00085FE10BD0004024008B500BF0020009011
:102E00001E48006840F480001C49086008460068BD
:102E100000F48000009000BF00BF00BF00200090C1
:102E20000846006840F4001008600846006800F496
:102E30000010009000BF00BF002205211020FDF708
:102E400011FF1020FDF701FF002205211120FDF7E1
:102E500009FF1120FDF7F9FE002205213A20FDF7B8
:102E600001FF3A20FDF7F1FE002205214620FDF783
:102E7000F9FE4620FDF7E9FE08BD000030380240AB
:102E800000B58BB014220C4906A8FDF728FA0021E2
:102E900006A802F09AFF0949086014220649143175
:102EA00001A8FDF71CFA002101A802F08EFF0449D9
:102EB00008600BB000BD0000686B000848000020EF
:102EC0004C00002000B587B000BF002001905B4897
:102ED000006840F01000594908600846006800F09A
:102EE0001000019000BF00BF00BF00200190084605
:102EF000006840F0040008600846006800F0040024
:102F0000019000BF00BF00BF00200190084600688C
:102F100040F0800008600846006800F080000190E2
:102F200000BF00BF00BF002001900846006840F0CD
:102F3000010008600846006800F00100019000BF31
:102F400000BF00BF002001900846006840F002006A
:102F500008600846006800F00200019000BF00BF52
:102F600000BF002001900846006840F0080008609B
:102F70000846006800F00800019000BF00BF002272
:102F800060212F48FDF7BAFD00224FF400512D4873
:102F9000FDF7B4FD01224FF441712B48FDF7AEFD62
:102FA000012280212648FDF7A9FD01224FF440614E
:102FB0002648FDF7A3FDE0200290012003900020A9
:102FC0000490059002A91E48FDF794FC4FF40050B0
:102FD00002900120039000200490059002A9194856
:102FE000FDF788FC0120029000200390049002A9C4
:102FF0001748FDF77FFC4FF44170029001200390C9
:1030000000200490059002A90F48FDF773FC4FF4CF
:10301000406002900120039000200490059002A9D6
:103020000A48FDF767FC03200290002003900490FB
:1030300002A90348FDF75EFC07B000BD303802402E
:10304000001002400008024000040240000C024050
:103050000000024000B589B029482A490860532081
:10306000486000212748816040F2E731C1600021BB
:103070000161FFF70EFB18B14C2123A002F0F3FD14
:1030800000200790089007A91E48FFF74DF818B1D7
:1030900053211DA002F0E7FD602000900020019068
:1030A00002900490002269461648FFF76EFA18B1A4
:1030B0005C2115A002F0D7FD042269461148FFF7F4
:1030C00064FA18B1612110A002F0CDFD0822694612
:1030D0000C48FFF75AFA18B166210BA002F0C3FDA5
:1030E0000C2269460748FFF750FA18B16B2106A079
:1030F00002F0B9FD0348FFF707FA09B000BD000070
:1031000000040040002E00202E2E2F436F72652FEA
:103110005372632F74696D2E6300000000B589B08F
:1031200029482A49086053204860002127488160C7
:1031300040F2E731C16000210161FFF7AAFA18B13E
:103140007E2123A002F08FFD00200790089007A9A0
:103150001E48FEF7E9FF18B185211DA002F083FD8E
:1031600060200090002001900290049000226946A7
:103170001648FFF70AFA18B18E2115A002F073FD68
:10318000042269461148FFF700FA18B1932110A0F4
:1031900002F069FD082269460C48FFF7F6F918B1FC
:1031A00098210BA002F05FFD0C2269460748FFF74B
:1031B000ECF918B19D2106A002F055FD0348FFF778
:1031C000A3F909B000BD0000000800403C2E00201B
:1031D0002E2E2F436F72652F5372632F74696D2EDD
:1031E0006300000000B587B0284829490860A7207F
:1031F000486000212648816044F61F61C1600021BB
:1032000001614161FFF75CF818B1B12121A002F022
:103210002AFD00200590069005A91D48FEF784FFB1
:1032200018B1B8211BA002F01EFD00200190012062
:103230000290002003900490002201A91448FEF798
:10324000CFFF18B1C12113A002F00DFD042201A986
:103250000F48FEF7C5FF18B1C6210EA002F003FD0E
:10326000082201A90A48FEF7BBFF18B1CB2109A02B
:1032700002F0F9FC0C2201A90548FEF7B1FF18B1D4
:10328000D02104A002F0EFFC07B000BD0004014013
:10329000782E00202E2E2F436F72652F5372632FCE
:1032A00074696D2E6300000010B50C480C4908606D
:1032B0004FF4E1304860002109488160C16001613C
:1032C0000C21416100218161C161FFF709FB18B147
:1032D000522104A002F0C7FC10BD00000010014004
:1032E000B42E00202E2E2F436F72652F5372632F42
:1032F00075736172742E630010B50C480C49086038
:103300004FF4E1304860002109488160C1600161EB
:103310000C21416100218161C161FFF7E1FA18B11F
:10332000652104A002F09FFC10BD00000044004095
:10333000F42E00202E2E2F436F72652F5372632FB1
:1033400075736172742E630010B500220749084836
:1033500001F06BF90749064801F072FC0649044880
:1033600000F086FE024801F033FD10BD140000207D
:10337000B4300020B00000200400002000BFFEE7B1
:103380007047000002480068C0F302207047000048
:103390000CED00E010B5002807DA0A07140E054A04
:1033A00000F00F031B1FD45403E00A07130E024A58
:1033B000135410BD18ED00E000E400E010B5024821
:1033C000FDF744FE10BD0000D83400202DE9F84F71
:1033D00007460E46D7F800800025AA46C6EBC60170
:1033E00007F1380000EB8104D4E90501451AA06813
:1033F000A84200D2A568E81C4FEA900917E0D4E97A
:103400000501451AA068A84200D2A568E81C4FEA49
:103410009009387CABB2F2B200904046E16802F00D
:1034200008FCE0682844E060A0692844A06108F531
:10343000106000EB4610806980B2484506D9D4E997
:103440000510884202D260690028D8D165B90120F0
:1034500000FA06FA40F6340050F8080020EA0A00A4
:1034600040F6340141F808000020BDE8F88FFFF76E
:103470006BFF00BF4FF47A7002F08EFC0020FFF764
:10348000F3FB02F0BBFCF5E700212148FEF760FFEB
:1034900004211F48FEF75CFF08211D48FEF758FF76
:1034A0000C211B48FEF754FF00211A48FFF73EF994
:1034B00004211848FFF73AF908211648FFF736F9B2
:1034C0000C211448FFF732F900211348FFF72EF9B9
:1034D00004211148FFF72AF908210F48FFF726F9C0
:1034E0000C210D48FFF722F9FFF776FC0021084672
:1034F000FFF7F6FB00BF052002F04EFC0749B7EED0
:10350000000A0868FCF780FF02F078FCF3E700008F
:10351000782E0020002E00203C2E00206801002084
:1035200010B502F04AFC10BD10B592B000BF0020EB
:1035300000902E48006840F080502C4908600846F2
:10354000006800F08050009000BF00BF00BF002066
:1035500000902748006840F48040254908600846EC
:10356000006800F48040009000BF00BF012006907A
:103570000004079002200C9041050D9104210E914A
:10358000A8210F91022110910721119106A8FEF7A1
:1035900077FB18B1AD2117A002F065FB0F20019059
:1035A00002200290002003904FF4A05004904FF4AA
:1035B00080500590052101A8FEF702FA18B1BB2141
:1035C0000CA002F050FBFEF7DDFA4FF47A71B0FB6D
:1035D000F1F42046FEF78CFD0420FEF775FD002275
:1035E0000F21501EFDF73EFB12B010BD40380240C7
:1035F000007000402E2E2F436F72652F5372632F81
:103600006D61696E2E6300001448006840F470001C
:10361000124908601248006840F001001049086033
:1036200000200F49083108600D4800680D49084026
:103630000B4908600C48091D0860081F006820F449
:103640008020091F0860002005490C3108604FF0F8
:1036500000600249803908607047000088ED00E092
:1036600000380240FFFFF6FE1030002410B502487B
:10367000FEF77EFE10BD0000C83800200022026860
:103680002C4B98420ED0B0F1804F0BD02A4B984271
:1036900008D02A4B984205D0294B984202D0294B9A
:1036A000984201D1012300E000231BB122F07002F7
:1036B0004B681A431F4B984220D0B0F1804F1DD069
:1036C0001D4B98421AD01D4B984217D01C4B984264
:1036D00014D01C4B984211D01B4B98420ED01B4B60
:1036E00098420BD01A4B984208D01A4B984205D0FA
:1036F000194B984202D0194B984201D1012300E0A6
:1037000000231BB122F44072CB681A4302608B681D
:10371000C3620B688362074B984202D0094B984200
:1037200001D1012300E000230BB10B6903630123E6
:103730004361704700000140000400400008004061
:10374000000C0040000401400040014000440140E2
:103750000048014000180040001C004000200040CC
:1037600030B50023012404FA01F3046A9C43046287
:10377000046A02FA01F52C43046230BD30B500241E
:1037800000220023056A25F001050562026A4368EC
:10379000846924F0700424F003040D682C4322F0A3
:1037A00002028D682A430F4DA84202D00E4DA84256
:1037B00001D1012500E000256DB122F00802CD689D
:1037C0002A4322F0040223F4807323F400734D692A
:1037D0002B438D692B43436084614D6845630262CE
:1037E00030BD0000000001400004014030B500245D
:1037F00000220023056A25F010050562026A43686D
:10380000846924F4E04424F440740D6844EA0524F7
:1038100022F020028D6842EA0512104DA84202D023
:103820000F4DA84201D1012500E0002585B122F00D
:103830008002CD6842EA051222F0400223F4806340
:1038400023F400634D6943EA85038D6943EA8503E8
:10385000436084614D688563026230BD00000140B1
:103860000004014030B5002400220023056A25F43D
:1038700080750562026A4368C46924F0700424F00C
:1038800003040D682C4322F400728D6842EA05227D
:10389000104DA84202D0104DA84201D1012500E0F0
:1038A000002585B122F40062CD6842EA052222F4A7
:1038B000806223F4805323F400534D6943EA0513D7
:1038C0008D6943EA05134360C4614D68C5630262B4
:1038D00030BD0000000001400004014030B500226E
:1038E00000230024056A25F480550562036A4468B4
:1038F000C26922F4E04222F440720D6842EA0522D5
:1039000023F400538D6843EA05330A4DA84202D0E0
:10391000094DA84201D1012500E0002525B124F47C
:1039200080444D6944EA85144460C2614D68056471
:10393000036230BD000001400004014070B50C4638
:10394000154600210022066A26F0010606628169FA
:10395000026A194EB04214D0B0F1804F11D0174E08
:10396000B0420ED0164EB0420BD0164EB04208D028
:10397000154EB04205D0154EB04202D0144EB042A2
:1039800001D1012600E000261EB121F003012943E8
:1039900003E021F0030141F0010121F0F001F026E4
:1039A00006EA0316314322F00A0204F00A06324303
:1039B0008161026270BD000000000140000400400F
:1039C00000080040000C004000040140004001409D
:1039D0000018004070B50C46154600210022066A0A
:1039E00026F0100606628169026A21F4407141EAFC
:1039F000052121F470414FF4704606EA0336314345
:103A000022F0A002A02606EA041632438161026277
:103A100070BD70B50C46154600210022066A26F4DA
:103A200080760662C169026A21F00301294321F010
:103A3000F001F02606EA0316314322F420624FF427
:103A4000206606EA04263243C161026270BD70B589
:103A50000C46154600210022066A26F480560662AE
:103A6000C169026A21F4407141EA052121F47041E3
:103A70004FF4704606EA0336314322F420424FF4F5
:103A8000204606EA04363243C161026270BD70B559
:103A90000546AC6B0020E085E0842046FEF779FE09
:103AA00070BD0168C96821F490710268D160016835
:103AB000496921F0010102685161202180F83A1022
:103AC000704710B504462068C06820F040002168A7
:103AD000C860202084F839002046FFF73AF800201B
:103AE00010BD70B5044694F83A00222844D1A0686D
:103AF000B0F5805F13D1A56A206940B9206840689D
:103B0000C0F308002880A06A801CA06219E0206829
:103B10004068C0B22880A06A401CA06211E0206901
:103B200038B920684068C1B2A26A501CA062117006
:103B300007E02068406800F07F01A26A501CA06284
:103B40001170E08D401E80B2E08598B92068C06891
:103B500020F490702168C8602068406920F001005E
:103B600021684861202084F83A002046FEF7F0FFE3
:103B7000002070BD0020FCE70220FAE72DE9F041AB
:103B8000044600252068056925F44055E068054392
:103B9000206805612068C56849F20C608543216989
:103BA000A068084361690843E16908430543206848
:103BB000C5602068456925F44075A0690543206803
:103BC0004561E069B0F5004F7ED1C4492068884264
:103BD00003D0C349206888425DD1FDF7E9FF00EBBF
:103BE000C00101EB001061684900B0FBF1F06421F5
:103BF000B0FBF1F00601FDF7DBFF00EBC00101EBCC
:103C0000001061684900B0FBF1F7FDF7D1FF00EB50
:103C1000C00101EB001061684900B0FBF1F06421C4
:103C2000B0FBF1F000EBC00101EB0010A7EB80004E
:103C3000322101EBC0006421B0FBF1F000F0F8008C
:103C400006EB4006FDF7B4FF00EBC00101EB0010EE
:103C500061684900B0FBF1F7FDF7AAFF00EBC00176
:103C600001EB001061684900B0FBF1F06421B0FB8A
:103C7000F1F000EBC00101EB0010A7EB8000322156
:103C800001EBC0006421B0FBF1F000F0070030440C
:103C90002168886020E1FDF77BFF00EBC00101EBAC
:103CA000001061684900B0FBF1F06421B0FBF1F055
:103CB0000601FDF76DFF00EBC00101EB001061682C
:103CC0004900B0FBF1F700E045E0FDF761FF00EBD4
:103CD000C00101EB001061684900B0FBF1F0642104
:103CE000B0FBF1F000EBC00101EB0010A7EB80008E
:103CF000322101EBC0006421B0FBF1F000F0F800CC
:103D000006EB4006FDF744FF00EBC00101EB00109D
:103D100061684900B0FBF1F7FDF73AFF00EBC00125
:103D200001EB001061684900B0FBF1F06421B0FBC9
:103D3000F1F000EBC00101EB0010A7EB8000322195
:103D400001EBC0006421B0FBF1F000F0070030444B
:103D500021688860C0E061492068884203D06049DA
:103D6000206888425CD1FDF723FF00EBC00101EB26
:103D7000001061688900B0FBF1F6FDF719FF00EB58
:103D8000C00101EB001061688900B0FBF1F0642113
:103D9000B0FBF1F000EBC00101EB0010A6EB8000DE
:103DA000322101EB00106421B0FBF1F000F0F006CD
:103DB000FDF7FEFE00EBC00101EB00106168890019
:103DC000B0FBF1F06421B0FBF1F006EB0016FDF75B
:103DD000EFFE00EBC00101EB001061688900B0FB51
:103DE000F1F7FDF7E5FE00EBC00101EB00106168A3
:103DF0008900B0FBF1F06421B0FBF1F000EBC001F1
:103E000001EB0010A7EB8000322101EB00106421D0
:103E1000B0FBF1F000F00F003044216888605BE0F7
:103E2000FDF7B6FE00EBC00101EB001061688900F0
:103E3000B0FBF1F6FDF7ACFE00EBC00101EB0010AA
:103E400061688900B0FBF1F06421B0FBF1F000EB98
:103E5000C00101EB0010A6EB8000322101EB001045
:103E60006421B0FBF1F000F0F006FDF791FE00EBED
:103E7000C00101EB001061688900B0FBF1F0642122
:103E8000B0FBF1F006EB0016FDF782FE00EBC0017F
:103E900001EB001061688900B0FBF1F7FDF778FED7
:103EA00000EBC00101EB001061688900B0FBF1F08C
:103EB0006421B0FBF1F000EBC00101EB0010A7EBB7
:103EC0008000322101EB00106421B0FBF1F000F022
:103ED0000F00304421688860BDE8F0810010014087
:103EE00000140140014691F8390021282CD188683E
:103EF000B0F5805F0FD10A6A1088C0F308000B6824
:103F00005860086918B9086A801C086209E0086AE4
:103F1000401C086205E00B6A581C086218780B68A0
:103F20005860C88C401E80B2C88458B90868C06800
:103F300020F080000B68D8600868C06840F040003E
:103F40000B68D860002070470220FCE710B50248DB
:103F5000FEF720FC10BD0000B42E002010B5024872
:103F6000FEF718FC10BD0000F42E002002460020D1
:103F7000D2F818321875704770B504460E46D4F85A
:103F8000185269782878D4F81C32DA6890470223EE
:103F90002A460121204600F0FCFC002070BD70B5CF
:103FA00004460D468121204600F07AFB012120467F
:103FB00000F076FBD4F8180250B1D4F81C128868CF
:103FC0008047D4F8180201F069FE0020C4F81802F6
:103FD000002070BD70B50546D5F81842206901284B
:103FE00007D161782078D5F81C32DA689047002034
:103FF0002061002070BD0000014629200880014892
:1040000070470000EC00002001460A2008800148AB
:1040100070470000240100202DE9F04104460F46BE
:104020000026022303228121204600F081FC022386
:1040300003220121204600F07BFC182001F076FECF
:10404000C4F81802D4F8180208B901260DE0D4F813
:10405000185200202875D4F81C12486880470223A3
:104060002A460121204600F094FC3046BDE8F0814C
:104070000246022011B1C2F81C1200207047000055
:104080002DE9F04106460C460027B846D6F81852EE
:10409000207800F0600078B3202868D16078801E16
:1040A0000A2822D2DFE800F012082121212121195B
:1040B0000E05A078686020E00122291D304600F03E
:1040C000CDF81AE060880012A86016E0012205F120
:1040D0000801304600F0C2F80FE001202861A27903
:1040E0002946304600F099F807E02146304600F0B6
:1040F00088F80220BDE8F08101E000BF37E0607879
:10410000062804D00A2827D00B282FD12BE060885E
:104110002221B1EB202F0BD1E088022801DD022003
:1041200000E0E0880746D6F81C02D0F800800DE0D9
:1041300060882121B1EB202F08D1DFF83880E0889A
:10414000092801DD092000E0E08807463A4641469B
:10415000304600F083F809E0012205F10C013046F9
:1041600000F07CF802E0A078E86000BF00BF00BF6C
:104170000020BFE71801002070B504460D46D4F8B2
:1041800014022946426820469047002070BD70B551
:1041900004460D4694F8FC01022802D0032811D1F0
:1041A00000E000BF688801280BD10020C4F8040299
:1041B000D4F814022946826820469047204600F031
:1041C0005EF804E02946204600F01BF800BF00BF5F
:1041D00070BD70B506460C4615462B46224600219A
:1041E000304600F0D6FB002070BD70B506460C4688
:1041F00015462B4622460021304600F0DCFC00200C
:1042000070BD70B504460D468021204600F089FC43
:104210000021204600F085FC70BD70B504460E46B6
:1042200015460320C4F8F4014FF484700551001DB5
:1042300005512B4632460021204600F0AAFB002003
:1042400070BD10B504460520C4F8F40100231A46D9
:104250001946204600F09DFB002010BD70B50446B5
:104260000E4615460220C4F8F401A561E5612B460F
:1042700032460021204600F09EFC002070BD10B5A3
:1042800004460420C4F8F40100231A4619462046C7
:1042900000F091FC002010BD70B505460C462DB90C
:1042A0002246064906A000F097F904E02246034999
:1042B00003A000F091F9014870BD0000D832002041
:1042C000437573746F6D2048494420436F6E66696F
:1042D0006700000002461220088001487047000075
:1042E0003000002070B505460C462DB9224606491F
:1042F00006A000F071F904E02246034903A000F093
:104300006BF9014870BD0000D8320020437573740A
:104310006F6D2048494420496E746572666163651B
:104320000000000002460420088001487047000099
:104330004400002070B505460C462246024903A001
:1043400000F04AF9004870BDD832002053544D693E
:1043500063726F656C656374726F6E69637300007E
:1043600070B505460C462DB92246064906A000F058
:1043700033F904E02246034903A000F02DF9014877
:1043800070BD0000D832002053544D3332204375A5
:1043900073746F6D2048756D616E20696E746572FF
:1043A000666163650000000070B505460C462DB9D6
:1043B0002246064906A000F00FF904E02246034910
:1043C00003A000F009F9014870BD0000D8320020B8
:1043D000303030303030303030303141000000008B
:1043E00070B504460D46E888012804D029462046C9
:1043F000FFF707FF1BE094F8FC01022802D0032816
:104400000FD108E00020A060012204F1080120463D
:10441000FFF724FF0AE00122211D2046FFF71EFFBF
:1044200004E029462046FFF7ECFE00BF00BF70BD48
:10443000F8B504460E4670880012082872D2DFE8EC
:1044400000F082040C2082826372207CD4F8101267
:104450000A686946904705467AE0207C40B9D4F85E
:104460001402816A6846884705460221697007E0A0
:10447000D4F81402C16A684688470546022169706B
:1044800066E0B078062834D2DFE800F0030B131B97
:10449000232B207CD4F810124A68694690470546C1
:1044A00030E0207CD4F810128A68694690470546AF
:1044B00028E0207CD4F81012CA6869469047054667
:1044C00020E0207CD4F810120A696946904705461E
:1044D00018E0207CD4F810124A69694690470546D6
:1044E00010E0207CD4F810128A696946904705468E
:1044F00008E0B178D4F814026A46836B20469847E6
:10450000054600BF00BF23E0207C30B9D4F8140278
:10451000416B6846884705461AE031462046FFF75A
:1045200070FEF8BD0FE0207C40B9D4F81402016B96
:104530006846884705460721697009E031462046EC
:10454000FFF75FFEEDE731462046FFF75AFEE8E74A
:1045500000BFBDF8000088B1F08878B1F088BDF8E0
:104560000010884202DDBDF8000000E0F0880090F5
:10457000BDF8002029462046FFF770FE00BFD0E7B7
:104580000146002002E0421CD0B2491C0A78002AF1
:10459000F9D1704770B504460D4694F8FC01022825
:1045A00002D0032811D100E000BF0120E060D4F860
:1045B000040218B1E06840F00200E060022204F159
:1045C0000C012046FFF74AFE04E029462046FFF78B
:1045D00018FE00BF00BF70BD2DE9F04104460D4636
:1045E00017460026FCB12046FFF7CAFF022101EB67
:1045F000400038803A783046711CCEB22A540322EB
:104600003046711CCEB22A540AE014F8012B304611
:10461000711CCEB22A5400223046711CCEB22A54EC
:1046200020780028F1D1BDE8F08170B504460D4630
:1046300016460CB9022070BDD4F8140210B1002047
:10464000C4F814020DB1C4F81052012084F8FC0122
:104650002670204600F006F90020ECE72DE9F04135
:1046600004460D46002600272946D4F82002FCF710
:10467000DCFB064636B1012E06D0022E06D0032EF4
:1046800008D105E0002707E0022705E0012703E045
:10469000022701E0022700BF00BF3846BDE8F081D5
:1046A0002DE9F04104460D46002600272946D4F89E
:1046B0002002FCF785FB064636B1012E06D0022EFD
:1046C00006D0032E08D105E0002707E0022705E009
:1046D000012703E0022701E0022700BF00BF3846A0
:1046E000BDE8F0812DE9F04104460E461746002E44
:1046F00054D104F11405D4F8F401022843D1D5E9CA
:104700000201884210D9D5E90201401AA86028891F
:1047100082B239462046FFF768FD00231A46194643
:10472000204600F036F92EE0E9686868B0FBF1F247
:1047300001FB1200B8B9E9686868884213D3686859
:10474000D4F8F81188420ED2002211462046FFF715
:104750004CFD0020C4F8F80100231A4619462046F3
:1047600000F017F90FE0D4F81402C06840B194F8D3
:10477000FC01032804D1D4F81402C16820468847FC
:104780002046FFF75EFD94F80002012814D1204670
:1047900000F05EFA002084F800020DE0D4F8140264
:1047A000406948B194F8FC01032805D1D4F81402FB
:1047B00031464269204690470020BDE8F0812DE94E
:1047C000F04105460E4617465EBB05F58274D5F8E6
:1047D000F401032833D1D4E90201884210D9D4E985
:1047E0000201401AA060D4E90201884201D2A06807
:1047F00000E0E06882B239462846FFF7EAFC1EE096
:10480000D5F81402006940B195F8FC01032804D1E1
:10481000D5F814020169284688472846FFF72FFD7E
:104820000DE0D5F81402806948B195F8FC01032821
:1048300005D1D5F8140231468269284690470020F8
:10484000BDE8F08101460020704710B50446012004
:1048500084F8FC012179D4F814024268204690477C
:10486000002010BD10B50446207800282ED118482D
:10487000C0F8EC43C4F820024FF0A040144908608F
:104880000420486002211248C16000210161416199
:10489000022181610021C16101624162C162016343
:1048A000FCF730FF20B14FF4A5710AA001F0DBF94D
:1048B00080210748FCF728FA402200210448FCF731
:1048C00028FA802201210248FCF723FA002010BDBB
:1048D000D83400202E2E2F436F72652F5372632F12
:1048E000757362645F636F6E662E630010B5024677
:1048F000D2F8203201F08000802809D101F07F0039
:10490000C0EBC00403F1380000EB8400807810BDD8
:1049100001F07F00C0EBC00403F5FC7000EB8400E5
:104920008078F4E702460020704702460020704776
:104930002DE9F04704460F4615461E464FF0000885
:10494000C1462B4632463946D4F82002FCF7A1FA7C
:104950008046B8F1000F09D0B8F1010F09D0B8F1C5
:10496000020F09D0B8F1030F0CD108E04FF0000995
:104970000BE04FF0020908E04FF0010905E04FF0AD
:10498000020902E04FF0020900BF00BF4846BDE83F
:10499000F0872DE9F04704460D4616461F464FF0B6
:1049A0000008C1463B4632462946D4F82002FCF7AF
:1049B000B6FA8046B8F1000F09D0B8F1010F09D05E
:1049C000B8F1020F09D0B8F1030F0CD108E04FF095
:1049D00000090BE04FF0020908E04FF0010905E083
:1049E0004FF0020902E04FF0020900BF00BF484645
:1049F000BDE8F08710B5044640230022114620464A
:104A0000FFF796FF40214FF48870015140230022A8
:104A100080212046FFF78CFF40212162012084F88D
:104A2000FC01D4F8180228B12179D4F814024268A4
:104A300020469047002010BD014691F8FD0181F805
:104A4000FC010020704710B5044694F8FC010328CF
:104A500008D1D4F81402C06920B1D4F81402C16995
:104A600020468847002010BD024611740020704780
:104A70002DE9F04104460D46002600272946D4F8CA
:104A80002002FCF746FF064636B1012E06D0022E64
:104A900006D0032E08D105E0002707E0022705E035
:104AA000012703E0022701E0022700BF00BF3846CC
:104AB000BDE8F08170B504460D46294604F5027044
:104AC00000F0AAF80120C4F8F40140F20E20005BC7
:104AD000C4F8F80194F8080200F01F0020B1012882
:104AE00008D0022812D10BE004F50271204600F034
:104AF00076F913E004F50271204600F054FA0DE057
:104B000004F50271204600F0A3F907E094F80802CA
:104B100000F08001204600F004F800BF00BF002034
:104B200070BD2DE9F04104460D46002600272946B8
:104B3000D4F82002FCF71FFA064636B1012E06D043
:104B4000022E06D0032E08D105E0002707E0022739
:104B500005E0012703E0022701E0022700BF00BFB4
:104B60003846BDE8F08170B5044600250026D4F82B
:104B70002002FCF7F0FE054635B1012D06D0022DCE
:104B800006D0032D08D105E0002607E0022605E047
:104B9000012603E0022601E0022600BF00BF3046E6
:104BA00070BD014691F8FC0181F8FD01042081F8F7
:104BB000FC01002070472DE9F04704460D461646DB
:104BC0001F464FF00008C1463B4632462946D4F8FE
:104BD0002002FCF70DFA8046B8F1000F09D0B8F1B9
:104BE000010F09D0B8F1020F09D0B8F1030F0CD1B1
:104BF00008E04FF000090BE04FF0020908E04FF029
:104C0000010905E04FF0020902E04FF0020900BF80
:104C100000BF4846BDE8F0870A7802704A784270C3
:104C20008B78CA7803EB022242800B794A7903EB36
:104C3000022282808B79CA7903EB0222C2807047FC
:104C40000246002011B1C2F8141200E002207047A1
:104C500001460020704770B504460D46A888F8B993
:104C6000E888E8B9A87800F07F0694F8FC010328EA
:104C700004D129462046FFF7C4FA15E084F8FE6106
:104C800031462046FFF7F4FE2046FFF7F8FA1EB142
:104C9000022084F8FC0107E0012084F8FC0103E015
:104CA00029462046FFF7ADFA70BD70B504460D46A3
:104CB0000226D4F8140238B1D4F814022946026846
:104CC0002046904700B90026304670BD70B50446B6
:104CD0000D46A8783449087008460078012804DD9C
:104CE00029462046FFF78DFA5BE094F8FC01022884
:104CF00002D003284FD11CE02B480078A8B12A48E5
:104D000000786060032084F8FC0127480178204681
:104D1000FFF7CBFF022804D129462046FFF771FA9E
:104D200070BD2046FFF7ABFA02E02046FFF7A7FA76
:104D300036E01D48007870B9022084F8FC011A485A
:104D400000786060184801782046FFF715FA204681
:104D5000FFF795FA1EE0144909786068884216D07A
:104D600021792046FFF708FA0F48007860600E4866
:104D700001782046FFF799FF022804D129462046F2
:104D8000FFF73FFACCE72046FFF779FA02E020462A
:104D9000FFF775FA04E029462046FFF732FA00BF14
:104DA00000BF00BFBCE700002E01002070B5044624
:104DB0000D46688801280AD1C4F80402D4F8140208
:104DC00029468268204690472046FFF758FA70BD72
:104DD00010B504462046FFF7C6FE002010BD70B592
:104DE00005460C46002660780A2829D2DFE800F044
:104DF0001923281E280A0528140F21462846FFF7E4
:104E000017FB22E021462846FFF725FF1DE021463B
:104E10002846FFF75BFF18E021462846FFF7E0FA37
:104E200013E021462846FFF7B5FB0EE02146284651
:104E3000FFF7BCFF09E021462846FFF7A8F904E088
:104E400021462846FFF7DDF900BF00BF304670BDA0
:104E50002DE9F04105460E464FF0000834793078D0
:104E600000F06000202808D1D5F81402314682688D
:104E7000284690470020BDE8F0817078002855D082
:104E800001282AD003287AD195F8FC01022802D003
:104E900003281BD107E02CB1802C03D021462846E3
:104EA000FFF73FFE17E0708830B92CB1802C03D09B
:104EB00021462846FFF735FED5F8140231468268B0
:104EC000284690472846FFF7DAF904E0314628469D
:104ED000FFF797F900BF00BF62E095F8FC010228D8
:104EE00002D003281BD107E02CB1802C03D021462F
:104EF0002846FFF716FE17E0708878B904F07F00A7
:104F000048B121462846FFF7A9FBD5F814023146DF
:104F10008268284690472846FFF7B1F904E03146F9
:104F20002846FFF76EF900BF00BF39E095F8FC0195
:104F3000022802D003282BD107E004F07F0018B12B
:104F400021462846FFF7EDFD27E004F08000802889
:104F500006D104F07F0105F1140000EB011005E01B
:104F600004F07F0105F5827000EB01100746214631
:104F70002846FFF7BBFC18B10120386002E00EE0C4
:104F800000203860022239462846FFF767F904E01E
:104F900031462846FFF735F900BF00BF00E000BFEB
:104FA00000BF404667E770B504460D46002694F8FA
:104FB000FC01032814D1287901280CDCD4F8140250
:104FC0002946826820469047E88840B93EB9204685
:104FD000FFF755F903E029462046FFF712F904E0F0
:104FE00029462046FFF70DF900BF00BF002070BD25
:104FF00010B50246487801282BD140F61C00805895
:105000000C780123A3409BB2184340F61C03985030
:10501000087802F5106303EB4010006800F40040CC
:10502000F0BB0889C0F30A00CB7840EA83400B78D4
:1050300040EA835040F0805040F4004002F5106494
:1050400004EB43131B6818430B7804EB43131860FD
:105050002CE040F61C0080580C780123A340144C2F
:1050600004EA0343184340F61C039850087802F5FD
:10507000306303EB4010006800F4004080B90889F9
:10508000C0F30A00CB7840EA834040F0805040F4FF
:1050900000400B7802F5306404EB43131B6800E01A
:1050A00004E018430B7804EB43131860002010BD94
:1050B0000000FFFF01464FF410604058C20AD202C0
:1050C0004FF41060425040F60800405800F00600CF
:1050D000042807D14FF41060405840F003024FF409
:1050E0001060425040F60400405840F4807240F690
:1050F00004004250002070470FB410B504460898D1
:10510000012816D1A06B20F48030A063E068154917
:105110000840E060E06820F44010E0600F9801284B
:1051200003D1E06840F48010E060204600F01CF8F5
:1051300009E0E06840F04000E060204600F014F82C
:105140004FF48030A0630698012807D1A06840F092
:105150000600A060A06840F02000A060002010BC05
:105160005DF814FBBFFFBDFF0146002200BF501CCD
:1051700002460F4B984201D903207047086900F09E
:1051800000400028F3D00022086940F001000861C7
:1051900000BF501C0246064B984201D90320ECE7A1
:1051A000086900F001000028F3D100BFE5E7000026
:1051B000400D030070B504460D46002668780128AE
:1051C00039D1287804F5106101EB4010006820F413
:1051D0000042287801EB401002604FF0006228780E
:1051E00001EB40100260D200287801EB4010026011
:1051F00000BF701C06463049884201D9032070BDAB
:10520000287804F5106101EB4010806800F08040C0
:10521000B0F1804FEDD01021204600F04FFC40F659
:105220001C0000592A780121914089B2884340F638
:105230001C0108513DE0287804F5306101EB401075
:10524000006820F40042287801EB401002604FF023
:105250000062287801EB40100260D200287801EB50
:105260004010026000BF701C06461349884201D9F5
:105270000320C4E7287804F5306101EB4010806812
:1052800000F010001028EED040F60400005940F461
:10529000806140F60400015140F61C0000592A7854
:1052A00001219140054A02EA0141884340F61C0170
:1052B00008510020A3E70000400D03000000FFFF9D
:1052C00010B5044640F60400005920F0020140F6F3
:1052D000040001510320FBF7F9FA002010BD10B5BE
:1052E000044640F60400005940F0020140F6040074
:1052F00001510320FBF7EAFA002010BD0FB430B5CE
:10530000044600250E9820B9A06B40F40010A0635D
:1053100003E0A06B40F40020A0630020C4F8000E5E
:10532000D4F80008C4F80008099801280BD10698A1
:1053300020B90021204600F074FC08E0012120463D
:1053400000F06FFC03E00321204600F06AFC10210E
:10535000204600F0B3FB204600F09AFB00214FF4FA
:1053600001600151001D0151491E001D0151002124
:10537000001D0151002524E004F5106000EB4510EC
:10538000006800F00040B0F1004F07D14FF09041AD
:1053900004F5106000EB4510016005E0002104F504
:1053A000106000EB45100160002104F5106000EB77
:1053B00045100161FF2104F5106000EB451081608C
:1053C0006D1C0498A842D7D8002524E004F530606D
:1053D00000EB4510006800F00040B0F1004F07D12D
:1053E0004FF0904104F5306000EB4510016005E09E
:1053F000002104F5306000EB45100160002104F548
:10540000306000EB45100161FF2104F5306000EBD6
:10541000451081606D1C0498A842D7D84FF40160F4
:10542000005920F480714FF4016001510798012860
:105430000BD116494FF40360015100591449084338
:105440004FF403610851084605590020A0616FF030
:1054500080406061079818B9A06940F01000A06111
:10546000A0690C490843A0610A9818B1A06940F0EE
:105470000800A0610E98012803D1A06906490843DD
:10548000A061002030BC5DF814FB0000000180002A
:105490000300010000383C80040000400146886899
:1054A00020F00100886000207047000030B50346FE
:1054B0004878012871D1486918BB087803F5106451
:1054C00004EB40100069634C20400C7803F5106534
:1054D00005EB4414206108782C4604EB4010006969
:1054E00040F40025087804EB40100561087804EBCF
:1054F00040100069C50CED04087804EB401005610C
:1055000037E0087803F5106404EB40100069C50C1F
:10551000ED04087804EB40100561087804EB4010B6
:1055200000694C4C20400C7803F5106505EB4414E1
:1055300020618C684869A04201D988684861087870
:1055400003F5106404EB4010006940F4002508786E
:1055500004EB40100561087804EB401004694869C9
:10556000C0F312000443087803F5106505EB401002
:105570000461087803F5106404EB4010006840F003
:105580000445087804EB40100560012A06D108782C
:1055900004EB40100D69456159E00DE048690028B1
:1055A00055D040F63400C0580D780124AC4020435B
:1055B00040F63404E0504AE0087803F5306404EB28
:1055C00040100069C50CED04087804EB401005613B
:1055D000087804EB401004691E480440087803F57D
:1055E000306505EB40100461486908B1886848617E
:1055F000087803F5306404EB4010006940F400259E
:10560000087804EB40100561087804EB401000694D
:105610008C68C4F3120420430C7803F5306505EB65
:1056200044142061012A06D1087803F5306404EBA4
:105630004010CD684561087803F5306404EB4010F4
:10564000006840F00445087804EB40100560002035
:1056500030BD0000FFFF07E010B503460024C3F88B
:10566000104BD3F8100B40F40024C3F8104BD3F8C0
:10567000100B40F01804C3F8104BD3F8100B40F097
:10568000C044C3F8104B012906D1C3F8142B4FF0C6
:1056900080244FF43060C450002010BD10B5024685
:1056A000487801281ED1087802F5106303EB4010FA
:1056B000006820F40014087803EB40100460C878F8
:1056C000032802D0C87802282AD1087802F510638E
:1056D00003EB4010006840F08054087803EB401062
:1056E00004601DE0087802F5306303EB40100068A9
:1056F00020F40014087803EB40100460C8780328F5
:1057000002D0C87802280BD1087802F5306303EB89
:105710004010006840F08054087803EB40100460AB
:10572000002010BD10B50246487801281FD1087826
:1057300002F5106303EB4010006800F0004048B928
:10574000087803EB4010006820F08044087803EBF1
:1057500040100460087802F5106303EB4010006805
:1057600040F40014087803EB401004601EE0087851
:1057700002F5306303EB4010006800F0004048B9C8
:10578000087803EB4010006820F08044087803EBB1
:1057900040100460087802F5306303EB40100068A5
:1057A00040F40014087803EB40100460002010BDA2
:1057B000F8B505460C4616460027607801287DD1CD
:1057C000606918BB207805F5106101EB4010006995
:1057D000AA490840217805F5106202EB41110861E1
:1057E0002078114601EB4010006940F40022207837
:1057F00001EB40100261207801EB40100069C20CFF
:10580000D204207801EB401002614FE0207805F5CA
:10581000106101EB40100069C20CD204207801EB4A
:1058200040100261207801EB401000699349084064
:10583000217805F5106202EB41110861A1686069E9
:105840000844401EB0FBF1F08C49C94301EAC04056
:10585000217802EB411109690843217802EB4111DB
:1058600008612078114601EB401001696069C0F3BE
:1058700012000143207802EB40100161E07801281A
:1058800014D12078114601EB4010006920F0C0428D
:10589000207801EB40100261207801EB4010006994
:1058A00040F00052207801EB40100261012E09D136
:1058B000207805F5106101EB401000E04BE0226913
:1058C00042610EE0E07801280BD0606948B140F6F3
:1058D00034004059227801219140084340F63401B8
:1058E0004851E07801281ED140F60800405900F4E4
:1058F000807060B9207805F5106101EB40100068F8
:1059000040F00052207801EB401002600BE020785C
:1059100005F5106101EB4010006840F080522078DE
:1059200001EB40100260207805F5106101EB40109A
:10593000006840F00442207801EB40100260E078FB
:10594000012807D10096A08A83B222782846E16810
:1059500000F06FF98FE0207805F5306101EB401021
:105960000069C20CD204207801EB4010026120785B
:1059700001EB4010016941480140207805F5306293
:1059800002EB401001616069C0B92078114601EB5B
:1059900040100069A168C1F312010843217802EBAD
:1059A000411108612078114601EB4010006940F474
:1059B0000022207801EB4010026125E0A1686069B7
:1059C0000844401EB0FBF1F087B2207805F5306145
:1059D00001EB401000692949C94301EAC741084366
:1059E000217805F5306202EB4111086120781146FB
:1059F00001EB40100169A0687843C0F3120008432E
:105A0000217802EB41110861012E06D1207805F5BD
:105A1000306101EB4010E2684261E07801281ED15C
:105A200040F60800405900F4807060B9207805F510
:105A3000306101EB4010006840F00052207801EB2B
:105A4000401002600BE0207805F5306101EB40105A
:105A5000006840F08052207801EB4010026020780E
:105A600005F5306101EB4010006840F004422078F9
:105A700001EB401002600020F8BD0000FFFF07E0CE
:105A80000146886840F001008860002070470000EF
:105A9000014600221020086100BF501C0246064B40
:105AA000984201D903207047086900F010001028BF
:105AB000F3D00020F7E70000400D030010B50246C8
:105AC0000023202040EA8110106100BF581C0346CB
:105AD000054CA04201D9032010BD106900F0200040
