:020000040800F2
:10000000B062012059020008EF460008333B0008A7
:10001000ED4600087D0B0008295F00080000000085
:100020000000000000000000000000009D0100082A
:10003000CD15000800000000F1010008E1530008A0
:1000400073020008730200087302000873020008BC
:100050007302000873020008CF150008D5150008C8
:100060007302000873020008730200088D14000870
:1000700099140008A5140008B1140008BD14000864
:10008000C9140008D51400087302000873020008A0
:10009000730200087302000873020008730200086C
:1000A000730200087302000873020008730200085C
:1000B000730200087302000873020008730200084C
:1000C000730200087302000873020008730200083C
:1000D00073020008C95E0008E15E0008F95E0008CE
:1000E000730200087302000873020008730200081C
:1000F000730200087302000873020008E11400088C
:1001000073020008730200087302000873020008FB
:100110003158000849580008F554000873020008D7
:10012000ED140008F9140008051500087302000812
:1001300073020008730200087302000873020008CB
:1001400073020008730200087302000873020008BB
:1001500073020008111500081D150008115F000842
:10016000730200087302000873020008730200089B
:100170007302000873020008730200080000000008
:100180007302000873020008DFF80CD000F0B0FB27
:1001900000480047E16E0008B06201202B4B19684F
:1001A0000868B0E8F04F80F30988BFF36F8F4FF015
:1001B000000080F3118870470000000006480068C6
:1001C000006880F3088862B661B6BFF34F8FBFF353
:1001D0006F8F00DF00BF00BF08ED00E0DFF80C000C
:1001E000016841F470010160704700BF88ED00E0D4
:1001F000EFF30980BFF36F8F144B1A681EF0100FD6
:1002000008BF20ED108A20E9F04F106008B44FF0CD
:10021000500080F31188BFF34F8FBFF36F8F07F04B
:1002200085FD4FF0000080F3118808BC196808684C
:10023000B0E8F04F1EF0100F08BFB0EC108A80F34A
:100240000988BFF36F8F704700BF00BF24000020F4
:10025000EFF30580704700000648804706480047D6
:10026000FEE7FEE7FEE7FEE7FEE7FEE7FEE7FEE766
:10027000FEE7FEE7A1540008890100082DE9F05FC0
:100280000546002092469B46884606468146402405
:100290001BE0284641464746224600F022FA5346D4
:1002A0005A46C01A914110D311461846224600F012
:1002B00009FA2D1A67EB01084F462246012000215A
:1002C00000F000FA17EB00094E41201EA4F10104D2
:1002D000DFDC484631462A464346BDE8F09F40EA07
:1002E00001039B0703D009E008C9121F08C0042AB4
:1002F000FAD203E011F8013B00F8013B521EF9D29B
:1003000070472DE9FE4F804681EA0300C00F0C467E
:10031000009021F0004123F00045B8EB0200A94114
:1003200005D24046214690461C460B46024623F025
:100330000040104347D0270DC7F30A00C3F30A510A
:100340000290401A019040286BDAC3F3130040F486
:10035000801B0098924620B10023D2EB030A63EB86
:100360000B0B01985946C0F14002504600F0AAF923
:1003700006460D4650465946019A00F0C2F910EB68
:1003800008006141002487EA115284EAE7731A43A6
:1003900040D0009A62B3019A012A4FEA075215DC55
:1003A000001B61EB02014FF0004202EA0752CDE967
:1003B0000042001C41F5801132462B4600F0F9F94D
:1003C00003B0BDE8F08F40462146F9E7001B61EB22
:1003D0000201001C41F5801300185B412018A2F5B2
:1003E000001747EB030140EAD570B6196D4111E0E3
:1003F0006D084FEA360645EAC0754FEA0752001B02
:1004000061EB0201001C41F5801149084FEA300000
:100410000019514132462B4603B0BDE8F04F00F0C1
:10042000B9B90098012240000023D0EB020263EB2F
:10043000E073009821464FEAE074B8EB000061EBEE
:100440000401E9E783F000435BE781F0004158E7EE
:100450002DE9FE4F81EA030404F0004421F000413D
:1004600000944FF0000B23F0004350EA01045ED0EB
:1004700052EA03045BD0C3F30A54C1F30A552C4477
:10048000A4F2F3340194A0FB0254C1F3130141F42C
:100490008011C3F3130343F4801301FB024400FBF8
:1004A000034E840A970A44EA815447EA8357A4FB1F
:1004B000076802958D0A05FB07854FEA932C04FB1C
:1004C0000C542705029D4FEA065847EA1637B5EB4C
:1004D00008056EEB070C870E920E47EA811742EA79
:1004E0008312A7FB0201B6EB0B0164EB00042B0D9A
:1004F00043EA0C335E1844EB1C50DA465146E7FBE6
:100500000201C5F313044FEA0B3343EA14534FEAD5
:100510000432019C43EA0603A4F10C040294009CFB
:10052000CDE900B400F045F903B0BDE8F08F00203C
:100530000146F9E72DE9F04D81EA030404F0004B90
:1005400021F0004514464FF0000A23F0004150EA24
:10055000050220D054EA01021DD0C5F30A57024615
:10056000C5F31303C1F31300C1F30A5640F4801519
:1005700043F48013A7EB0608101BD64608F2FD389B
:1005800073EB050002D308F1010801E092185B410A
:10059000B8F1000F03DA00200146BDE8F08D00201D
:1005A0004FF48011064684460EE0171B73EB0507D7
:1005B00005D3121B63EB050306434CEA010C490803
:1005C0004FEA300092185B4150EA0107EDD152EA40
:1005D000030012D082EA040083EA0501084305D033
:1005E000101BAB4106D20122002306E000224FF08F
:1005F000004302E06FF0010253101AEB06004CEBCF
:10060000085110EB0A0041EB0B01BDE8F04D00F082
:10061000C1B80EB5C10F80EAE0700844CA070021D6
:1006200040F233438DE80E000A460B4600F0C1F855
:1006300003B000BD00F0004230F000400AD0C10D10
:1006400001F56071C0F3160042EA0151C20840078B
:1006500011437047002001467047000030B5041E6A
:1006600071F1000404DB4FF00044404264EB0101EF
:10067000141E73F1000405DB1C464FF00043524288
:1006800063EB04038B4208BF824230BD01F000439C
:1006900030B421F0004150EA010206D00A0DA2F563
:1006A0006072C1F31301002A02DC30BC00207047E5
:1006B000440F44EAC104C100E01830BC00EBC25052
:1006C00000F031B8202A04DB203A00FA02F10020C1
:1006D00070479140C2F1200320FA03F31943904080
:1006E0007047202A04DB203A21FA02F000217047EB
:1006F00021FA02F3D040C2F120029140084319468A
:100700007047202A06DBCB17203A41FA02F043EA71
:10071000E07306E041FA02F3D040C2F120029140BA
:100720000843194670470029A8BF7047401C49007C
:1007300008BF20F00100704710B4B0FA80FC00FA46
:100740000CF050EA010404BF10BC704749B1CCF171
:10075000200421FA04F411FA0CF118BF01212143FD
:100760000843A3EB0C01CB1D4FEA00614FEA1020B8
:1007700042BF002010BC704700EBC350104400295A
:10078000A4BF10BC7047401C490008BF20F0010006
:1007900010BC704710B5141E73F1000408DA401C39
:1007A00041F1000192185B411A4301D120F0010090
:1007B00010BD2DE9F04D92469B4611B1B1FA81F280
:1007C00002E0B0FA80F220329046FFF77BFF044649
:1007D0000F4640EA0A0041EA0B0153465A460843D5
:1007E00013D0114653EA010019D0C8F14002504617
:1007F000FFF777FF05460E46504659464246FFF73B
:1008000061FF084305D0012004E020463946BDE8D9
:10081000F08D0020054346EAE0762C4337430A98E2
:100820006305E40AA0EB08000022FD0A44EA4754ED
:100830000A3002D500200146E9E701051019694197
:10084000DDE9084500196941BDE8F04DA2E72DE951
:10085000F04D00231A461B1A8A4103DB0020014693
:10086000BDE8F08DC1F30A52C1F3130141F48015C4
:100870004FF0000BD10702D100186D41521E002726
:10088000044640F2FF11384601EB620A3E468046BC
:10089000024600204FF48011FFF723FFC219714177
:1008A000BB1846EB0100B4EB030C75EB000C04D352
:1008B000E41A65EB000517460E46241908F10100FD
:1008C0006D4180463428E3DDF91946EB0600091B2B
:1008D000A84103D24FF0FF32134601E00022134635
:1008E0001BEB070046EB0A51BDE8F04DFFF752BF86
:1008F000064C074D06E0E06840F0010394E807006D
:1009000098471034AC42F6D3FFF742FC4C890008FC
:100910006C8900080EB540F2334102910021CDE907
:1009200000110A460B46FFF744FF03B000BD70B547
:10093000C1F30A5201F000450024C1F3130140F253
:10094000FF3341F480119A4201DA002070BD40F279
:1009500033439A42A2F2334203DC5242FFF7C1FE14
:1009600000E090402C43F1D0404270BD10B50146EC
:10097000806B026C12F0500F05D0806BC26CBDE82A
:10098000104008461047016C41F400710164016891
:100990008A6812F0405F17D18269AAB9CA6A12F454
:1009A000700F02D08A6852050ED44A6822F02002E5
:1009B0004A60016C21F480710164016CC90403D4A4
:1009C000016C41F00101016401F044F910BD10B562
:1009D000806B40210164416C41F00401416401F0ED
:1009E0003BF910BD10B5806B01F035F910BD00006A
:1009F000454910B54A6822F440324A604A68436863
:100A00001A434A6001684A6822F480724A600168A9
:100A10004A68036942EA03224A6001684A6822F090
:100A200040724A6001684A6883681A434A600168F4
:100A30008A6822F400628A6001688A68C3681A437F
:100A40008A60816A6FF07062D14201688A6822F020
:100A500070628A6001688A680CD0836A1A438A606F
:100A600001688A6822F040528A6001688A68C36A15
:100A70001A4301E022F040528A6001688A6822F03D
:100A800002028A6001688A68836942EA43028A60D6
:100A9000016A002901684A680FD042F400624A6086
:100AA00001684A6822F460424A6001684A68174C4B
:100AB000436A04EB43331A4301E022F400624A60C4
:100AC0000168CA6A22F47002CA620168CA6A838B2A
:100AD0000F4C04EB03531A43CA6201688A6822F47C
:100AE00000728A6001688A68036B42EA43228A6066
:100AF00001688A6822F480628A6001688A684069B5
:100B000042EA8020886010BD0023014000E0FFFF22
:100B10000000F0FF7CB5174900250C68009526E021
:100B20002168814222D101680A68C2F30012002ABA
:100B30001BD00A6849680191217E012903D1C08D2B
:100B40002169081AA060606A00280ED0694606F084
:100B5000E9FF65620098002807D007494FF08050F0
:100B60000860BFF34F8FBFF36F8F7CBD246A002CEA
:100B7000D6D17CBD7400002004ED00E0FEE770B526
:100B80000646002048F2084402460EE0B35C584096
:100B9000002310F0010F4FEA500000D060405B1CB2
:100BA000DBB2082BF5D3521CD2B28A42EED370BD11
:100BB00042884A404280002192B212F0010F4FEA6F
:100BC0005202428002D003885A404280491CC9B276
:100BD0000829F1D3704770B5002402232546891EE9
:100BE00006E0C65C5B1C3444E4B22544EDB2DBB2E3
:100BF0008B42F6DB64F3070265F30F2290B270BDFF
:100C000004490220C1F828040348002180F8481D47
:100C10007047000010C00020101001202DE9F043A3
:100C20004D4E4FF001092DED028BB3B096F8481DE3
:100C3000F0EE408A9FED498AA6F5A04404F59B603A
:100C4000002704F5B8458046B9B104F5C040012934
:100C500054D002290CD190F89902012868D0C4F828
:100C6000287400BF84F8247485ED598A85ED5A8A6A
:100C700033B0BDEC028BBDE8F08338223849FFF772
:100C80002EFB572084F824043022364926A8FFF78B
:100C900026FB3822414618A8FFF721FB30493822AD
:100CA00070310C460AA8FFF71AFB2D49282248315B
:100CB0006846FFF714FB2A48F0EE480A3830B0EED9
:100CC000680A0FC800F0DCF8382241460AA81897D5
:100CD000FFF705FB282204F110016846FFF7FFFA31
:100CE0001F48B7EE000A70300FC800F041F8012825
:100CF000BED186F8489D85ED538AB9E790ED930AF9
:100D0000D0ED910AB4EEE00AF1EE10FA0DDB95EDAC
:100D1000530A154930EE280A10EE100A85ED530AE1
:100D200088429FDD022086F8480D85ED538A99E7B9
:100D3000C4F8289496F8400D012806D00B48008886
:100D4000C4F8D80486F8407D8CE705493822E031A4
:100D50004046FFF7C4FAF5E710100120000000003C
:100D600040C4002020220120000096430864002097
:100D70000FB42DED020B70B500242DED068BB0EEF7
:100D8000408A9DED1E0B289D9DED1CAB51EC100B78
:100D9000FFF77CFC09EE100A51EC1A0BFFF776FC0A
:100DA0009DED100B09EE900A51EC100BFFF76EFC55
:100DB0009DED0E0B08EE900A51EC100BFFF766FC50
:100DC00000EE100AF0EE491AB0EE691AF0EE680A69
:100DD00003F09EFC5DB1B4EEC80AF1EE10FA00DB40
:100DE0000124BDEC068B204670BC5DF81CFBB4EE04
:100DF000C80AF1EE10FAF3D9F3E700001B4810B56A
:100E0000D0ED930A90ED920A0222A0F5C041F4EED3
:100E1000C00AF1EE10FA01D8C1F8282490F89942DE
:100E20000023012C18D190ED911ADFED111AFF2447
:100E300031EE401A80F8994201EE210AB4EEE00A40
:100E4000F1EE10FA05DB0B48C1F8282480F8483D84
:100E500002E00120C1F8280408489FED070A81F844
:100E6000243480ED590A80ED5A0A10BD102001206B
:100E70009A99993E1010012000000000101C0120DA
:100E80000FB42DED020B2DE9F04FDFF83483CD4F79
:100E90002DED0E8B81B0F0EE408A9DED3E0ADDED2A
:100EA000300A9DED38BB9DED3ACB30EE600A9DEDEA
:100EB0002A9B9DED2CAB10EE100A9DED31DA4045DA
:100EC00002D9BAEE040A05E010EE100AB84201DDBC
:100ED000B2EE040ABC4EBD4CBD49D6ED0C0A20EE64
:100EE000200A84ED5F0AD6ED0D0A20EE201AD4ED1B
:100EF000600A41EE280A10EE900AC4ED600A8842AA
:100F000002D9DFEDB40A06E010EE900AB249884239
:100F100001DDDFEDB20A51EC1C0BC4ED600A30EECE
:100F2000200A84ED5E0AFFF7B1FB824608EE10AAA4
:100F300051EC1B0BFFF7AAFB81460DEE909A51EC8A
:100F40001A0BFFF7A3FB0EEE100A009051EC190BE1
:100F5000FFF79CFB834600EE10BAF0EE481AB0EEA5
:100F60006D1AF0EE4E0A03F0D3FB9D4D01EE90AAF0
:100F700001EE109A85ED000A009800EE10BA00EE1E
:100F8000900A03F019FC85ED020A9DED1E0B0DEE93
:100F900090AA08EE109A51EC100BFFF777FB9DED2D
:100FA0001C0B0EEE100A51EC100BFFF76FFB00EE5E
:100FB000100AF0EE6D1AB0EE481AF0EE4E0A03F089
:100FC000FBFB85ED030AD5ED020A30EE600A85EDE4
:100FD000040A04F015FC85ED040ADFED820A20EE18
:100FE000200A10EE100AFFF725FB41EC100B05F06C
:100FF00087FAB0EE40EAF0EE60EA2868FFF71AFBE5
:1010000053EC1E2BFFF724FAFFF740FB00EE900A8B
:1010100010EE900AC5ED050A404502D9FAEE040A21
:1010200005E010EE900AB84201DDF2EE040A96EDFA
:101030000F0A20EE800A84ED6B0AD6ED100A20EE2E
:10104000201AD4ED6C0A41EE280A10EE900AC4ED85
:101050006C0A9FED658A404502D9FAEE040A05E064
:1010600010EE900AB84201DDF2EE040AC4ED6C0AFB
:1010700030EE200A53EC1B2B51EC190B84ED6A0A5D
:10108000FFF7ECFA06D153EC1C2B51EC1A0BFFF7CF
:10109000E5FA0FD0009801EE90AA01EE109A00EE4A
:1010A000900A00EE10BA03F087FB3DEE400A85ED92
:1010B000010A03E085ED018AB0EE480A04F0A0FBC6
:1010C00010EE100A4949884202D9BBEE040A0FE02B
:1010D00095ED010A04F094FB10EE100A4449884291
:1010E00002DDB3EE040A03E095ED010A04F088FB8B
:1010F00085ED010A96ED131AD4ED660A21EE001A69
:1011000041EE280A10EE900AC4ED660A404502D965
:10111000FAEE040A05E010EE900AB84201DDF2EEA4
:10112000040A3448C4ED660AD6ED141A90ED091A83
:101130003148324921EE211A84ED671AD6ED121A90
:1011400041EE800A30EE810A84ED640AD4ED6A0A29
:1011500010EE902A824202D9FBEE0E0A05E010EE54
:10116000902A8A4201DDF3EE0E0A10EE102AC4ED39
:10117000590A824202D9BBEE0E0A05E010EE100AAF
:10118000884201DDB3EE0E0A84ED5A0A94ED5E0A40
:10119000B5EEC00AF1EE10FA09D310EE100A1849A4
:1011A000884202DD9FED178A01E0B0EE408A84EDAF
:1011B0005B8A01B0BDEC0E8BBDE8F00F5DF81CFB47
:1011C000000020C100002041C83E0020101C01206A
:1011D00000008CC200008CC200008C4200008C42D7
:1011E000AC0000202DFA8E3C000000000000A0C1E1
:1011F0000000A041B0B500200000F0C10000F041A7
:101200000000B4420000B44270B506462D482E4C92
:101210002E4D2DED048BB0EE409A90F8C81D04F8C9
:10122000581F90F8C90D607095ED788B51EC180B34
:10123000FFF72CFA606095ED743BA5F5B04184EDA5
:10124000023B95ED762B84ED042B95ED7B1A84ED16
:10125000071AD5ED7A0AC4ED060A81ED2E8B81EDD1
:101260002A3B81ED2C2B81ED311AC1ED300A6EB194
:10127000012E13D0022E19D0032E1FD1B0EE490A31
:10128000BDEC048BBDE87040FFF7BABCB0EE490A74
:10129000BDEC048BBDE87040FFF7B0BDB0EE490A6D
:1012A000BDEC048BBDE8704000F012B8B0EE490A06
:1012B000BDEC048BBDE87040FFF7B0BCBDEC048B07
:1012C00070BD000010100120C83E0020101C01203D
:1012D000F0B5674800222DED028BB3B0F0EE408AE6
:1012E0009FED648A644E90EC020A06F5946506F55B
:1012F0009B67F4EEC00AF1EE10FA29D8A0F5C96098
:101300005E4B90ED510A30EE280A10EE101A80ED77
:10131000510A99427EDB80ED518AA0F5406001219F
:1013200080F8401D0221C6F8281480F8482D382284
:10133000294606F5A260FEF7D2FF33B006F58661B6
:10134000BDEC028B3846BDE8F0403822FEF7C7BF3F
:101350001892382239460AA8FEF7C1FF282205F163
:1013600010016846FEF7BBFF4548B0EE080A0FC8FB
:10137000FFF7FEFC012858D1414CD6F8D804A03C18
:10138000C6F8680494ED3C0B3E4A84ED200B94EDC6
:10139000380B411C84ED1C0B94ED3A0B84ED1E0BB5
:1013A00094ED3E0A84ED220A94ED3F0A84ED230A6F
:1013B000926A914218D3D6F83004C6F8D80494ED56
:1013C000120B84ED3C0B94ED0E0B84ED380B94ED79
:1013D000100B84ED3A0B94ED140A84ED3E0A94ED63
:1013E000150A84ED3F0A20E0401C274900EB8000ED
:1013F00031F83020C6F8D82401EBC006B068FFF7FA
:1014000019F9E4E93C0196ED040B04ED040B96EDAB
:10141000060B00E028E004ED020B96ED080A84EDCF
:10142000020A96ED090A84ED030A1149302238397F
:1014300026A8FEF754FF3822394618A8FEF74FFFBA
:10144000382229460AA8FEF74AFF0D4928222839E2
:101450006846FEF744FF0A48F0EE480A3838B0EE16
:10146000680A0FC8FFF70CFD33B0BDEC028BF0BD6E
:10147000582201200000000010C00020000070422F
:10148000B0C40020C83E002008640020014800F0DD
:10149000EBBC000094BD0020014800F0E5BC00005A
:1014A000B4BE0020014800F0DFBC0000D4BC002026
:1014B000014800F0D9BC000054BE0020014800F0F3
:1014C000D3BC000034BD0020014800F0CDBC0000BA
:1014D00014BC0020014800F0C7BC000074BC002010
:1014E000014800F0C1BC0000F4BD0020014800F03C
:1014F000BBBC000038B60020014800F0B5BC0000BD
:1015000074BF0020014800F0AFBC000054BB0020B5
:10151000014800F0A9BC000014BF0020014800F001
:10152000A3BC0000B4BB002001681823CAB2103A63
:10153000B2FBF3F2054B6FF30901032A9B5CC36511
:1015400000D9091D81650846704700001C87000806
:1015500010B5014600208B698A6A4FF0C07453B100
:10156000B3F5005F15D072B1012A0CD0022A0AD05F
:10157000032A09D104E01AB1012A06D0022A03D1B4
:10158000C96AC90100D5012010BDC96AA142FAD0BB
:1015900010BD002AF7D0012AF2D0022AF3D0032A84
:1015A000F3D010BD30B50468256825F4802525608A
:1015B000046863608368402B036803D09960006807
:1015C000C26030BD9A600068C16030BD70470120C4
:1015D00000F07EBE022000F07BBE0000002229B198
:1015E00001291AD002291BD04FF440720E490B6812
:1015F00023F440730B600B6813430B600A6822F0FE
:10160000F8020A600A68022303EBC00002430A6082
:10161000086840F48030086070474FF48072E5E756
:101620004FF40072E2E70000103C024013480168EA
:1016300089050FD5016821F400710160016841F44A
:1016400000610160016821F400610160016841F4FA
:1016500000710160016849050FD5016821F48061BE
:101660000160016841F480510160016821F48051FA
:101670000160016841F4806101607047003C0240F4
:1016800008490A6822F440720A600A6842F00402BB
:101690000A600A684FF4803343EA002002430A607C
:1016A00070470000103C0240064A136823F4407360
:1016B000136013681360136843F001031360017033
:1016C00070470000103C0240084910B50C6824F433
:1016D00040740C600C6844F440740C600C6844F076
:1016E00001040C600260436010BD0000103C024029
:1016F000074A136823F440731360136843F480733C
:101700001360136843F00103136001807047000009
:10171000103C0240074A136823F4407313601368B7
:1017200043F400731360136843F001031360016016
:1017300070470000103C024017490868C20617486D
:1017400005D5C26942F01002C26110220A600A681F
:10175000920605D5C26942F00802C26120220A60E1
:101760000A68520605D5C26942F00402C2614022ED
:101770000A600A68120605D5C26942F00202C26117
:1017800080220A600A68920705D5C26942F02002E9
:10179000C2610220086070470C3C024028B2002061
:1017A00070B5114904460020C86100F07BFE064672
:1017B0000E4D09E0601C07D024B100F073FE801BC1
:1017C000A04201D9032070BD2868C003F2D4286864
:1017D000C00701D001202860286810F0F200F2D084
:1017E000FFF7AAFF012070BD28B200200C3C024088
:1017F00000B587B000F054FD0C49F32008600020CC
:101800000090022004900B20029001200190039090
:1018100005A9684600F0B0FC18B1322104A004F01C
:1018200084FB00F0F5FC07B000BD00000C3C02405A
:101830002E2E5C447269766572735C4253505C5321
:1018400072635C464C4153482E63000004E000BFC5
:1018500050F8023B21F8023B521EF9D270470000BB
:101860002DE9F04116460D46074600F019FD0A49DC
:10187000F3200860002407E035F8022B3919002313
:10188000012000F0CFFCA41CB4EB460FF4D3BDE85C
:10189000F04100F0BDBC00000C3C024010B5827865
:1018A0004949152A2DD0252A58D0452A28D1027910
:1018B0004379120212B21A4300EE102AF8EEC00A5F
:1018C0009FED420A80EE801A81ED0A1A8279C3796F
:1018D000120212B21A4300EE902AF8EEE00A80EEED
:1018E000801A81ED0B1A027A407A120212B2024378
:1018F00000EE902AF8EEE00A80EE801A81ED0C1AD4
:1019000010BD02794379120212B21A430A80837918
:10191000C4791B0200EE102A1BB223434B80F8EE61
:10192000C00A047A9FED2A0A2402407A24B260EEAB
:10193000800A04438C80C1ED020A00EE903AF8EE72
:10194000E00A60EE800AC1ED030A00EE904AF8EE6C
:10195000E00A20EE800A81ED040A10BD0279437985
:10196000120212B21A438A82837900EE102A1B02F5
:101970001CB2B8EEC00AC379DFED160A1C43CC8254
:1019800020EE201A037A9FED140A1B02407A1BB244
:1019900021EE001A03430B8381ED071A01EE104A72
:1019A000B8EEC11A21EE201A21EE001A81ED081AB4
:1019B00001EE103AB8EEC11A61EE200A20EE800A5C
:1019C00081ED090A10BD0000B0B500200000C8423A
:1019D000000080380000FA440000003810B51520DF
:1019E00000F07EF8252000F07BF8452000F078F824
:1019F000A52000F075F8AA2000F072F8152000F07C
:101A00006FF8BDE81040252000F06AB870B5264C8C
:101A1000244A002521785054491C217062782349BA
:101A2000052A01F503733AD2DFE802F00309151B1A
:101A300024005A281DD10870A070012018E05A28EF
:101A400003D0D86B401CD86329E04870A0785A3086
:101A5000A07002200CE08870A1780844A0700320D8
:101A600006E0E070C870A1780844A07025710420D9
:101A7000607070BD2279E6781144B2420871A17895
:101A800004D20844A070521C227170BD814203D15F
:101A90000648FFF703FF02E0586B401C586365706F
:101AA00070BD0000ADB4002098000020A4B3002059
:101AB00008B500208DF80000084803F077FF28B92A
:101AC00008BD00BF9DF80000FFF7A0FF694603486E
:101AD00003F049FF0028F5D108BD0000A0B70020A1
:101AE00008B507A10322096800918DF80100A5300F
:101AF0008DF802006946034804F087F908BD00002C
:101B0000A5000000CCB7002078B50024009490F820
:101B10003C20012A19D0012280F83C200A680723C2
:101B20000568092A13D9EE680A3A02EB420293408B
:101B30009E43EE600B788A680A3B03EB43039A40AE
:101B40000368DD682A43DA6010E0022078BD2E6960
:101B500002EB420293409E432E610B788A6803EBAE
:101B600043039A4003681D692A431A614A681F2388
:101B7000072A13D205686E6B521E02EB8202934055
:101B80009E436E630B790A885B1E92B203EB83035C
:101B90009A4003685D6B2A435A6327E005680D2A63
:101BA00012D22E6BD21F02EB820293409E432E6311
:101BB0000B790A88DB1F92B203EB83039A40036818
:101BC0001D6B2A431A6311E0EE6A0D3A02EB8202A2
:101BD00093409E43EE620B790A880D3B92B203EB71
:101BE00083039A400368DD6A2A43DA62164B05686C
:101BF000144A9D4206D10D68122D03D1556845F453
:101C00008005556005689D4218D10B68102B01D0E6
:101C1000112B13D1536843F4000353600968102952
:101C20000CD10A490A4A0968B1FBF2F101EB8101C2
:101C3000490000E0491E00910029FBD180F83C409A
:101C4000002078BD00230140002001407C000020DE
:101C500040420F0070477047704770B504004FF066
:101C6000000503D0206C002610B107E0012070BDF4
:101C7000666484F83C60204600F01AF8206CC006C8
:101C800010D4206C20F4885040F0020020642046DC
:101C9000FEF7AEFE6664206C20F0020040F001000A
:101CA000206400E0012584F83C60284670BD0000F7
:101CB00070B506460068194986B088422CD118488C
:101CC0000025016841F4807101600068694600F4F4
:101CD000807005900F2000900320CDE90105114888
:101CE00000F002FB114C1048C4E900050015A56086
:101CF000C4E90350400060618000A0614011C4E964
:101D000007052046656200F07FF918B1882108A018
:101D100004F00BF9B463A66306B070BD0020014067
:101D200044380240000802401064024038B60020E7
:101D30002E2E2F436F72652F5372632F6164632EB3
:101D400063000000F8B50E4600210446009190F8AB
:101D50003C00012807D0012084F83C0020688368FB
:101D6000DB0702D011E00220F8BD836843F00103D5
:101D700083602D482D4B0068B0FBF3F000EB400072
:101D800000E0401E00900028FBD120688368DB073C
:101D900048D0236C40F20165AB4343F48073236465
:101DA0004068400505D5206C20F4005040F4805078
:101DB0002064206CC00404D5606C20F006006064D0
:101DC00000E0616484F83C10A16B1A48184DC863A8
:101DD000A16B19480864A16B1848C86421686FF0AA
:101DE000220008602068416841F0806141602068FD
:101DF000816841F4807181602168134632464C311C
:101E0000A06B00F06BF96868C006206802D00C492E
:101E1000884207D1816811F0405F03D1816841F0A9
:101E2000804181600020F8BD7C00002040420F000E
:101E3000002301406D090008E5090008CF090008EA
:101E40000020014090F83510022903D0802141651F
:101E500001207047052180F835100068016821F0E5
:101E600001010160002070472DE9F84304464FF05E
:101E70000009CDF8009063484FF41651A56D006835
:101E8000B0FBF1F72E6894F85C10082000FA01F11D
:101E900031420FD021680A6852070BD50A6822F038
:101EA00004020A6094F85C108840A860606D40F0FD
:101EB0000100606594F85C104FF0010808FA01F029
:101EC000304208D021684969090604D5A860606DD0
:101ED00040F00200606594F85C10042088403042B5
:101EE00008D021680968890704D5A860606D40F0B2
:101EF0000400606594F85C1010208840304218D0CF
:101F000021680968090714D5A86020680168490399
:101F100004D50068000308D5A16C07E00168C90575
:101F200003D4016821F008010160216C09B1204649
:101F3000884794F85C1020208840304231D02168D6
:101F40000968C9062DD5A86094F8350005282068D1
:101F5000016806D0490347D5006800031DD4616CB1
:101F60001CE021F0160101602068416921F0800128
:101F70004161206C08B9A06C20B12068016821F093
:101F80000801016094F85C103F208840A86084F844
:101F9000349084F83580216D1FE0E16B09B1204653
:101FA0008847606D00282BD0606DC00714D00520D5
:101FB00084F835002068016821F001010160009873
:101FC000401C0090B84203D820680068C007F6D1D2
:101FD00084F8349084F83580E16C002910D001B089
:101FE0002046BDE8F04308470168C905D5D401681B
:101FF00021F01001016084F8349084F83580CCE73A
:10200000BDE8F8837C0000202DE9F041044600F093
:1020100049FA06465CB1002584F83450022084F861
:1020200035002068016821F0010101600DE0012008
:10203000BDE8F08100F036FA801B052805D9202084
:102040006065032084F83500F2E720680068C00767
:10205000F0D12268116820480140D4E901031843F7
:10206000D4E903363343184363691843A36918431B
:10207000E3691843236A18430843616A042903D1BA
:10208000D4E90B1319430843106020684069666A5D
:1020900020F0070130460E43012704280CD1A06A26
:1020A0000643E06A40B12046FFF752FA20B14020D3
:1020B000606584F83570BAE7206846612046FFF70E
:1020C00033FA94F85C203F2191408160656584F883
:1020D00035700020ACE700003F8010F02DE9F041A2
:1020E0000446866D90F83400002501280DD00120AB
:1020F00084F8340094F835700020012F07D084F85C
:10210000340002252846BDE8F0810220FBE70227C3
:1021100084F8357060652046FFF744FA94F85C1047
:102120003F208840B0602068016841F016010160DE
:102130002068416941F080014161206C20B1206834
:10214000016841F0080101602068016841F0010167
:102150000160D7E770B5044600F0A4F90546601C9D
:1021600002D004480078044400F09CF9401BA042CF
:10217000FAD370BD800000202DE9F04704462248C4
:102180000F46017E01290AD00121804601764CF2DA
:1021900050394846FFF704FB020003D02FE002202D
:1021A000BDE8F0874FF0FF3038602068174D0128F8
:1021B00001D0A6681CE0207C6168FFF761FA484600
:1021C000FFF7EEFA0246286820F00400286014E0C9
:1021D000217C3046FFF702FA4846FFF7E1FA020099
:1021E000286820F0FA00286001D03E6005E0761CE7
:1021F000D4E902100844B042EAD8FFF717FA0021E8
:1022000088F818101046CBE728B20020103C024096
:102210000348016841F00041016000207047000060
:10222000103C02402DE9F0471B4E05461446307E17
:102230001F468946012808D0012030764CF25038DC
:102240004046FFF7ADFA18B114E00220BDE8F08770
:102250009DB1012D16D0022D19D022463B4648468D
:10226000FFF732FA4046FFF79BFA0C490A6822F062
:1022700001020A6000213176E8E7E1B24846FFF743
:1022800013FAEFE7A1B24846FFF732FAEAE7214630
:102290004846FFF73FFAE5E728B20020103C02402D
:1022A000074900200A68002A09DA054A054B0C3A5A
:1022B0001360054B13600968002900DA012070479C
:1022C000103C024023016745AB89EFCD7047000009
:1022D000044910B50A68024202D00860FFF7F6FF11
:1022E00010BD0000143C01402DE9F84FDFF87CB12F
:1022F00000224FF001084FF0030A4FF00F090BF1D5
:10230000040E00BF0B6808FA02F42340A3426ED10A
:102310004D68022D01D0122D0ED1D50800EB850C91
:10232000DCF820505607F70E09FA07F6B5430E6998
:10233000BE402E43CCF82060066855000F790AFA9B
:1023400005FC07F0030726EA0C06AF403743076099
:102350004E68012E05D0022E03D0112E01D0122E70
:102360000ED18668CF6826EA0C06AF4037438760F7
:102370004668A6430C79C4F3001494403443446087
:10238000C6688C6826EA0C06AC403443C4604C68CE
:10239000E40065D5364C256845F480452560246801
:1023A00022F0030504F480440094324C2E19D6F830
:1023B000084895072F0F09FA07F5AC432E4DA842A0
:1023C00001D1002524E02D4DA84201D101251FE0B7
:1023D0002B4DA84201D102251AE02A4DA84201D175
:1023E000032515E0284DA84202D1042510E037E06E
:1023F000264DA84201D105250AE0254DA84201D16C
:10240000062505E0234DA84201D1072500E0082557
:10241000BD402543C6F80858DBF800405D464E68CD
:102420009C43F60300D51C432C60DEF80040754643
:102430004E689C43B60300D51C432C600B4D0835F9
:102440002C684E689C43F60200D51C432C60074D57
:102450000C352C684E689C43B60200D51C432C609A
:10246000521C102AFFF44EAFBDE8F88F003C01402B
:1024700044380240003001400000024000040240A5
:1024800000080240000C024000100240001402400C
:1024900000180240001C02400AB181617047090423
:1024A000FBE70000014880687047000080000020C2
:1024B00002488168027811448160704780000020E2
:1024C0000B4810B5016841F400710160016841F4E6
:1024D00080610160016841F480710160032000F0B7
:1024E000B1F8002000F006F800F03EF8002010BD22
:1024F000003C024010B5014688B00022362000F0B2
:1025000081F8362000F072F813480024016841F089
:1025100010010160006805A900F0100006906846EF
:1025200000F03AF900F05EF90C494000B0FBF1F11F
:102530000C480B4A491E026040F2E732C0E903240E
:10254000C0E9011400F0A3FB10B1012008B010BDD8
:10255000044800F0B8FBF9E74038024040420F0061
:1025600000100040D4BF00201F4808B5016841F4A6
:1025700080410160006800F4804000901A48001F0C
:10258000016841F080510160006800F080500090C7
:10259000032000F057F8002211466FF00B0000F006
:1025A00031F8002211466FF00A0000F02BF80022EB
:1025B00011466FF0090000F025F800221146501F67
:1025C00000F020F800221146101F00F01BF8002236
:1025D0000F21901E00F016F800220F21BDE80840E0
:1025E000501E00F00FB800004438024000F01F02F7
:1025F000012191404009800000F1E020C0F8001165
:1026000070470000F0B40E4B1B680C46C3F3022366
:10261000C3F10705042D00D90425191D072901D28E
:10262000002300E0DB1E012606FA05F1491E2140C9
:1026300099409E40761E16403143F0BC02F058B8D7
:102640000CED00E0064900F0070208684FF6FF03B2
:10265000184040EA0220034A104308607047000017
:102660000CED00E00000FA052DE9F0470E460500EC
:1026700065D0DFF81481D8F80000F7B200F00F0041
:10268000B04207D288F80070D8F8000000F00F00C0
:10269000B04254D128683D4C810712D5400703D57C
:1026A000206840F4E05020602878000703D52068B7
:1026B00040F4604020602068A96820F0F0000843E2
:1026C00020602878C0072DD0304968680839012873
:1026D00012D0022813D0032811D0096889070029D5
:1026E0002DDA216821F0030101432160FFF7DAFEB2
:1026F000814641F2883A0EE009688903EFE70968EC
:102700008901ECE7FFF7CEFEA0EB0901514502D9A4
:102710000320BDE8F0872068696800F00C00B0EB8A
:10272000810FEFD1D8F80010404601F00F01B142FF
:1027300007D90770006800F00F00B04201D00120F7
:10274000E7E72878400705D52068E96820F4E050DD
:10275000084320602878000706D52068296920F4FE
:10276000604040EAC100206000F05CF82168084A3F
:10277000C1F30311515CC840064908600020FFF70F
:10278000B9FE0020C5E70000003C024008380240C6
:10279000048700087C0000200F2202600C4A1368A6
:1027A00003F003034360136803F0F00383601368CE
:1027B00003F4E053C36012684FF4E05303EAD2021B
:1027C00002610448006800F00F00086070470000D4
:1027D00008380240003C0240014800687047000091
:1027E0007C0000200448054900680968044AC1F3D8
:1027F0008221515CC84070477C00002008380240AC
:10280000148700080448054900680968044AC1F3B0
:102810004231515CC84070477C00002008380240BB
:1028200014870008154810B5006810F00C02144811
:1028300013D04110042A0FD0082A0ED10F4C241FA8
:102840002268236802F03F025B0207D52068C0F3CC
:102850008810A0FB010106E0084610BD2168C1F305
:102860008811A1FB00010023FDF708FD2168C1F3D9
:102870000141491C4900B0FBF1F010BD083802408D
:102880000024F4002DE9F84F050076D02878DFF811
:10289000F8B2BE4CC00749D0DBF800105846C1F36F
:1028A0008101012908D00068C0F3810002280AD103
:1028B000201D0068400206D52068800336D5686870
:1028C0000028E2D032E06868B0F5803F10D0B0F563
:1028D000A02F206810D020F480302060206820F4E1
:1028E000802020606868A0B1FFF7DCFD06460CE0A0
:1028F000206840F48030F4E740F480202060F7E75F
:10290000FFF7D0FD801B642873D820688003F7D5BB
:102910000CE0FFF7C7FD064605E000BFFFF7C2FD6C
:10292000801B6428F0D820688003F7D42878DFF86B
:10293000608280074FF000093ED5DBF80010584652
:1029400011F00C0F09D00068C0F3810002280BD1F0
:102950008D48001F0068400206D42068800715D506
:10296000E868012809D111E0E868B8B10120C8F889
:102970000000FFF797FD064605E002E1FFF792FD34
:10298000801B0228C0D820688007F7D520682969F5
:1029900020F0F80040EAC10020600DE0C8F8009087
:1029A000FFF780FD064604E0FFF77CFD801B022850
:1029B0001FD820688007F7D42878000722D5724EE8
:1029C000744869696C3671B101210160FFF76AFDD5
:1029D000074604E0FFF766FDC01B022809D83068EF
:1029E0008007F7D50EE0C0F80090FFF75BFD0746C3
:1029F00005E083E0FFF756FDC01B02287ED8306853
:102A00008007F7D42878400768D5DFF87CA1002735
:102A10000AF1380ADAF80000C0000BD4DAF8001026
:102A200041F08051CAF80010DAF80000012700F0E8
:102A300080500090584E3068C00510D4306840F483
:102A400080703060FFF72EFD009005E0FFF72AFD53
:102A50000099401A022851D83068C005F6D54A4E70
:102A6000A868683601280FD00528306810D020F0FB
:102A700001003060306820F004003060A868B8B110
:102A8000FFF710FD00900FE0306840F00100F4E720
:102A900040F004003060F7E7FFF704FD0099411AA9
:102AA00041F28830814264D830688007F4D50EE066
:102AB000FFF7F8FC009007E0FFF7F4FC0099411ADB
:102AC00041F28830814254D830688007F4D42FB165
:102AD000DAF8001021F08051CAF80010A869C0B3DC
:102AE000DBF80010C1F3810102294AD002284846D0
:102AF00007D0C8F86000FFF7D5FC00E039E00546D4
:102B00003AE04746C8F86000FFF7CCFC064604E010
:102B1000FFF7C8FC801B02282BD820688001F7D45F
:102B2000D5E907010843A96A1C4A490802EB01419B
:102B30006A6A41EA8211084395F82C1040EA016163
:102B40001148001F016001203866FFF7ABFC054605
:102B500005E014E0FFF7A6FC401B022809D8206816
:102B60008001F7D50BE000BFFFF79CFC401B02285B
:102B700002D90320BDE8F88F20688001F4D400203A
:102B8000F8E70120F6E7000008380240003802406C
:102B900000004742800E4742007000400000FFFFE7
:102BA0004FF0E0210428086903D020F004000861F8
:102BB000704740F00400FAE710B5401EB0F1807F86
:102BC00001D3012010BD4FF0E02460610F21601798
:102BD00001F08EFD0020A06107202061002010BDC3
:102BE0007047704710B590F83820012A25D001228F
:102BF00080F83820CA688C6822F4407222434C68FE
:102C000022F4806222430C6822F4006222430C69A1
:102C100022F4805222434C6922F4005222438C69F0
:102C200022F48042224322F400410268002321431F
:102C3000516480F83830002010BD022010BD30B53E
:102C400090F83820012A20D0012280F83820022371
:102C500080F8393003685C6824F070045C600368B5
:102C60005C680D682C435C6003689C6824F08004F9
:102C70009C6003689C6849680C439C6080F839201C
:102C8000002180F83810084630BD022030BD10B554
:102C9000040003D094F8390010B107E0012010BD02
:102CA000002084F83800204600F00CF8022084F858
:102CB0003900211D206802F023FC012084F839002E
:102CC000002010BD70470168CA6842F00102CA6066
:102CD0000068016841F00101016000207047704701
:102CE0002DE9F041044690F838000D4601283DD00A
:102CF000012684F83860022084F83900AAB3042A37
:102D000046D02068082A55D0D5E90027E968036A2B
:102D100023F480530362D0F81CC0036A2CF4407C77
:102D20004CEA07274FF6FF7C27F470470CEA013185
:102D300039434FF4204723F4204307EA02321A4371
:102D4000C16102622068C16921F44061C1612068EB
:102D5000C169AA6841EA0221C0F81C1084F83960F0
:102D6000002084F83800BDE8F08101E00220FAE795
:102D7000D5E90012EB68206802F0E4FC2068816964
:102D800021F00C01816120688169AA6811430FE07C
:102D9000D5E90012EB68206802F016FD2068816911
:102DA00021F44061816120688169AA6841EA0221B9
:102DB0008161D3E7D5E9002C2F7B016A21F4807172
:102DC0000162C169036A21F0030141EA0C0121F0AB
:102DD000F00C39074FF420674CEA116123F42063AB
:102DE00007EA02221A43C16102622068C16921F028
:102DF0000C01C1612068C169AA681143ACE710B534
:102E0000040003D094F8390010B107E0012010BD90
:102E1000002084F83800204600F00CF8022084F8E6
:102E20003900211D206802F06BFB012084F8390075
:102E3000002010BD30B500681C490025022487B071
:102E4000884212D11A48016841F00101016000680E
:102E5000694600F0010005904FF4D4408DE8310040
:102E60000120CDE9035013481CE0134988421BD1CF
:102E70000F48001F016841F00201016000686946C7
:102E800000F002000590C0208DE83100CDE9035428
:102E90000A48FFF729FA03208DE83100CDE90354F1
:102EA00069460748FFF720FA07B030BD000001402F
:102EB000443802400010024000040040000002407C
:102EC0000004024010B504460068012202F078FBBD
:102ED0002068016841F001010160002010BD70B55B
:102EE0000446006801694FF00005C943890715D4FD
:102EF000C168C943890711D4E91E01610120207608
:102F0000206880698007204602D0FFF7E8FE04E0D1
:102F100000F0DCF8204600F08BF925762068016986
:102F2000C943490717D4C168C943490713D46FF08F
:102F300004010161022020762068806910F4407F3E
:102F4000204602D0FFF7CBFE04E000F0BFF8204699
:102F500000F06EF9257620680169C943090716D487
:102F6000C168C943090712D46FF008010161042048
:102F700020762068C0698007204602D0FFF7AFFEA8
:102F800004E000F0A3F8204600F052F9257620680E
:102F90000169C943C90617D4C168C943C90613D416
:102FA0006FF010010161082020762068C06910F4DC
:102FB000407F204602D0FFF792FE04E000F086F842
:102FC000204600F035F9257620680169C943C90714
:102FD00008D1C168C943C90704D1891E01612046CF
:102FE00000F044F920680169C943090609D4C168A1
:102FF000C943090605D46FF0800101612046FFF73F
:10300000EFFD20680169C943490609D4C168C94375
:10301000490605D46FF040010161204600F030F907
:1030200020680169C94389060BD4C168C943890670
:1030300007D46FF0200101612046BDE87040FFF722
:10304000D0BD70BD70B500680025022486B0B0F117
:10305000804F0FD0174988421ED14FF470408DE841
:103060003100CDE903541448694600BFFFF73CF92D
:1030700006B070BD20208DE831000126CDE9035651
:1030800069460E48FFF730F908208DE83100CDE998
:10309000035669460A48E9E70A498842E8D14FF4ED
:1030A00040708DE831000320CDE9035069460648A1
:1030B000DCE7000000080040000C02400000024075
:1030C000000402400004014000080240704770B54F
:1030D000044690F838000D4601280DD0012684F8EA
:1030E0003860022084F8390042B1042A18D0082A36
:1030F0002AD00C2A4DD139E0022070BD206802F0A0
:103100006BFA2068816941F008018161206881695A
:1031100021F004018161206881692A69114311E06D
:10312000206802F085FA2068816941F400618161BC
:103130002068816921F480618161206881692A6940
:1031400041EA0221816124E0206802F0A3FA2068AC
:10315000C16941F00801C1612068C16921F0040121
:10316000C1612068C1692A69114311E0206802F039
:10317000C1FA2068C16941F40061C1612068C16978
:1031800021F48061C1612068C1692A6941EA022194
:10319000C16184F83960002084F8380070BD10B532
:1031A000040003D094F8390010B107E0012010BDED
:1031B000002084F83800204600F00CF8022084F843
:1031C0003900211D206802F09BF9012084F83900A4
:1031D000002010BD08B501681248B1F1804F0BD036
:1031E000114A914210D1016841F004010160006868
:1031F00000F00400009008BD016841F00101016089
:10320000006800F00100F5E708488142F3D1054865
:10321000001D016841F002010160006800F0020039
:10322000E8E7000040380240000800400004014088
:103230007047000010B504460068012202F0C0F992
:1032400008492068884202D00749884203D1416C6E
:1032500041F4004141642068016841F001010160CE
:10326000002010BD00000140000401400068034937
:10327000884201D1FFF71CB97047000000100040E0
:10328000704700002DE9F0410646C06B164F00253F
:10329000E0B13C6818E02068B04214D1207EE560BF
:1032A00050B1A560208A616882B2304600F094FB7C
:1032B000E069401CE06109E0208A616882B2304622
:1032C00000F03EFBF4E7246A002CE4D1796807E0C3
:1032D0000868B04203D181F82050BDE8F081496A06
:1032E0000029F5D1F9E700007400002070B50268EC
:1032F00004461068D168536910F00F0F51D003F0E5
:10330000010501F4907635435DD0C20705D0CA05AA
:1033100003D5E26B42F00102E263420705D5DA070A
:1033200003D0E26B42F00202E263820705D5DA07BE
:1033300003D0E26B42F00402E263020705D5DA072C
:1033400003D0E26B42F00802E263E26B002A34D061
:10335000800604D5880602D5204602F075FB206859
:103360004069E16BC0F3801001F008010143204681
:1033700024D002F0E1FA2068416949061AD5416972
:1033800021F040014161606BA0B11B490165606B98
:10339000FEF758FD002810D0606B016DBDE870404D
:1033A000084783060FD58B060DD52046BDE8704033
:1033B00002F04ABB2046FFF765FF70BDFFF762FFD2
:1033C0000020E06370BD030606D50B0604D5204639
:1033D000BDE8704002F047BD4006F3D54806F1D580
:1033E000D168204621F04001D160202184F83910B5
:1033F00000F08EFB70BD00006158000870B504003D
:1034000004D094F83900002510B106E0012070BD09
:1034100084F83850204600F023F8242084F839003E
:103420002068C16821F40051C160204602F052FBBF
:103430002068016921F4904101612068416921F00F
:103440002A0141612068C16841F40051C160E5630F
:10345000202084F8390084F83A00002070BD000074
:103460002DE9F04FF7490446F54A03680227032087
:1034700000250E1587B04FF001084FF0080E4FF4ED
:1034800080794FF0400A4FF0006B934256D10A68A2
:1034900042F400220A600968009701F400210591B6
:1034A0000121CDE902100820049001976946E64801
:1034B000FEF71AFF01200096CDE90170032003906A
:1034C00008200490B0466946E048FEF70DFFE14849
:1034D000DF495F460160C0E901B5C0E903564561B7
:1034E000C0E9065905624562FEF78EFD20B14FF432
:1034F000B671D9A002F019FDD6486063D54E846339
:103500006036D348C6E903587561B561F561356227
:103510003030756286E881043046FEF775FD20B1D3
:103520004FF4BF71CCA002F000FD266300220521FC
:103530003420B463FFF766F8342064E0CB4A93424A
:1035400066D10A68002542F480120A6009680320E7
:1035500001F480110591991400910221CDE901181F
:10356000CDE9030E77466946B848FEF7BDFE042054
:1035700000900220CDE901080320CDE90307694648
:10358000BB48FEF7B1FEDFF8CC82B14908F1C008B4
:1035900030394046C8F80010C0E901B5C0E903560B
:1035A000C8F81450C0E90659C8F820505F46C8F85A
:1035B0002450FEF729FD20B14FF4D971A6A002F0E6
:1035C000B4FCA348AB4DC4F834807830C8F8384018
:1035D00085E881040020C5E903066861A861E86107
:1035E000286268622846FEF70FFD20B14FF4E271B1
:1035F00099A002F09AFC2563002205213520AC63D6
:10360000FFF700F83520FEF7F1FF07B0BDE8F08FB7
:103610008C4ADFF864C2121D634554D1116800253D
:1036200041F0100111601168CDE9028001F0100134
:1036300005914FF4C061CDE9001707200490694659
:103640008148FEF751FEDFF838828C4940465F46DC
:10365000C0E90356C8F81450C8F81850C8F81C50F0
:10366000C8F8205088E88204C8F82450FEF7CCFC43
:1036700020B140F2F11178A002F057FC804D7F4854
:10368000C4F83080603D7838C8F83840C5E9000794
:103690000020A860C5E903066861C5E9060928623B
:1036A00068622846FEF7B0FC20B140F203216AA010
:1036B00002F03BFC6563002205212520AC63FEF788
:1036C000A1FF25209FE7DFF8BCC163455CD10A68F4
:1036D00042F400320A600968CDE9028001F4003149
:1036E00005910C21CDE90017072004906946564842
:1036F000FEF7FAFDDFF85C815549A8F16008404605
:103700006031C0E90356C8F81450C8F81850C8F81A
:103710001C505F46C8F8205088E88204C8F824503E
:10372000FEF772FC20B14FF40C714BA002F0FDFBD0
:10373000C4F83080C8F83840DFF84481444908F1C3
:10374000600848314046C8F80010C0E90175C0E97A
:103750000356C8F81450C0E90659C8F82050C8F8F4
:103760002450FEF751FC20B140F242213AA002F071
:10377000DCFBC4F83480002205212620C8F838403C
:10378000FEF740FF26203EE7DFF8FCC063457FD10F
:103790000A68002542F480220A600968CDE90280A7
:1037A00001F4802105914FF44061CDE90017072015
:1037B000049069463548FEF797FDDFF8B880244944
:1037C00008F1600840461831C0E90356C8F81450A3
:1037D000C8F81850C8F81C505F46C8F8205088E850
:1037E0008204C8F82450FEF70FFC20B140F26F218C
:1037F00019A002F09AFB1F4D1548C4F83080C0355F
:103800001838C8F83840C5E900070020A860C5E9A5
:1038100003066861C5E90609286268622846FEF762
:10382000F3FB20B140F281210BA002F07EFB656327
:10383000002205212720AC63FEF7E4FE2720E2E604
:10384000004C0040403802400000024000080240A6
:1038500040600240D4BC00202E2E2F436F72652F93
:103860005372632F75736172742E630000500040B1
:10387000000C0240F4BD002000100140B86402407A
:10388000B4BB002000440040004800400004024057
:10389000FFE727498B427FF4B8AE116841F0200161
:1038A0001160116801F020010591C0218DE88201AD
:1038B000CDE9030E69461F48FEF716FD1F4F1E484F
:1038C0004FF02068C7E903567D61BD61FD613D622F
:1038D0007D6287E801053846FEF796FB28B140F285
:1038E000AE21AFF28C0002F020FB2763BC63134FC4
:1038F0001148603778383860C7E90185C7E9035651
:103900007D61C7E906593D6238467D62FEF77CFB62
:1039100028B14FF43071AFF2C00002F006FB6763CC
:10392000002205214720BC63FEF76CFE47206AE6B3
:103930000014014000080240A064024014BF0020AF
:10394000F8B5044690F83A0020283CD1C1B3BAB388
:1039500094F83800012836D0012084F83800A1629C
:10396000A2850025E563222084F83A00636B17489E
:10397000D863636B16481864636B1648D864606B31
:10398000134605650846666B216802463046091DE8
:10399000FEF7A4FB206801684168009184F8385064
:1039A000C16841F48071C1602068416941F0010142
:1039B00041612068416941F0400141610020F8BD4A
:1039C000FFE70120FBE70220F9E70000BB580008F1
:1039D000F75800087158000890F83A30202B1DD194
:1039E000D1B1CAB190F83830012B17D081628285ED
:1039F000C2850021C163222280F83A2080F8381065
:103A000001684A6942F001024A610068C16841F4F4
:103A10009071C160002070470120704702207047FC
:103A2000094909680DE00A68824209D10A7E012A23
:103A300009D100228A600A8A496892B2FFF7CCBF96
:103A4000096A0029EFD17047740000207047000018
:103A500070B5044690F83900202830D169B362B3BC
:103A600094F8380001282AD0012084F83800216217
:103A7000A284E2840025E563212084F83900236BC9
:103A80001048D863236B10481864236B0F48D86420
:103A9000206B134605652668206B321DFEF71EFB62
:103AA00021686FF04000086084F838502068416950
:103AB00041F080014161002070BD012070BD0220F5
:103AC00070BD0000015900082F5900087158000806
:103AD00090F83930202B18D1A9B1A2B190F8383024
:103AE000012B12D001628284C2840021C163212291
:103AF00080F8392080F838100068C16841F08001F2
:103B0000C16000207047012070470220704700000C
:103B100001460648406805E002688A4201D102F089
:103B20004FB9406A0028F7D17047000074000020A8
:103B30007047FEE770B501001048114E4FF4005574
:103B400005D0012914D0022915D0032909D001225A
:103B500020210446FEF7A0FC012240212046FEF76A
:103B60009BFC012229463046BDE87040FEF794BC1C
:103B700001222021F8E701224021F5E70010024050
:103B80000008024070B501001048114E4FF4005576
:103B900005D0012914D0022915D0032909D000220B
:103BA00020210446FEF778FC002240212046FEF743
:103BB00073FC002229463046BDE87040FEF76CBC1D
:103BC00000222021F8E700224021F5E70010024002
:103BD000000802402DE9F041274B284D1E15284CC6
:103BE000DF14012906D0052844D2DFE800F0233590
:103BF0003940320005283DD2DFE800F003141618E2
:103C00001200002204211846FEF746FC0022802103
:103C10002846FEF741FC002231462046FEF73CFCD8
:103C2000002217E0002218E000221AE000221FE024
:103C3000204618E0012204211846FEF72DFC01223F
:103C400080212846FEF728FC012231462046FEF757
:103C500023FC01223946EBE701220421184602E049
:103C6000012280212846BDE8F041FEF715BC012263
:103C70003146DDE7BDE8F08100040240001002405B
:103C8000000C024010B5074C00224FF48071204612
:103C9000FEF702FC002261152046BDE81040FEF749
:103CA000FBBB0000000402407FB515481349002407
:103CB00001604FF48031C0E901140461846111494D
:103CC0000462C0E90A140125C460C561456104634A
:103CD000FDF7C3FF18B154210BA002F026F90A200A
:103CE000CDE90005694602940548FDF70DFF00285F
:103CF00003D05E2104A002F018F97FBD002001402E
:103D0000F0B500200100000F2E2E2F436F72652F9B
:103D10005372632F6164632E630000003D4808B551
:103D2000016841F400110160016801F40011009183
:103D3000016841F4800101600068002200F4800005
:103D4000009005210B20FEF75DFC0B20FEF74EFCDA
:103D5000002205210C20FEF755FC0C20FEF746FC46
:103D6000002205210D20FEF74DFC0D20FEF73EFC44
:103D7000002205210E20FEF745FC0E20FEF736FC42
:103D8000002205210F20FEF73DFC0F20FEF72EFC40
:103D9000002205211020FEF735FC1020FEF726FC3E
:103DA000002205211120FEF72DFC1120FEF71EFC3C
:103DB000002205212F20FEF725FC2F20FEF716FC00
:103DC000002205213820FEF71DFC3820FEF70EFCEE
:103DD000002205213920FEF715FC3920FEF706FCEC
:103DE000002205213A20FEF70DFC3A20FEF7FEFBEB
:103DF000002205214520FEF705FC4520FEF7F6FBD5
:103E0000002205214620FEF7FDFBBDE808404620C4
:103E1000FEF7ECBB3038024010B594B010220FA969
:103E20005D48FDF78FFF00215C48FFF74BF8042148
:103E30005A48FFF747F808215848FFF743F80C2184
:103E40005648FFF73FF800215548FFF73BF804219B
:103E50005348FFF737F808215148FFF733F80C2192
:103E60004F48FFF72FF800214E48FFF7E3F90421F0
:103E70004C48FFF7DFF900214B48FFF7DBF904213D
:103E80004948FFF7D7F908214748FFF7D3F90C2134
:103E90004548FFF7CFF908214448FFF7CBF90C213B
:103EA0004248FFF7C7F9002364224149414801F025
:103EB0008CFD4048002364223D492C3001F060FF16
:103EC0003C48002364223C49583001F07EFD3948CB
:103ED000002364223849843001F052FF3548002322
:103EE00064223649B03001F070FD3248002364226C
:103EF0003249DC3001F044FF00236422304931486C
:103F000001F063FD2F48002364222D492C3001F07D
:103F100037FF2C48002364222B49583001F055FD0F
:103F20002848002364222849843001F029FF2548CD
:103F3000002364222549B03001F047FD21480023C9
:103F400064222249DC3001F01BFFFDF747FD03F03E
:103F500045FB14221E496846FCF7C1F9002168465A
:103F600003F05EF81B4C1A4914222060143105A896
:103F7000FCF7B5F9002105A803F052F81449606078
:103F8000142228310AA8FCF7AAF900210AA803F094
:103F900047F8A06014B010BDF0B50020A8B800200C
:103FA00020B90020E4B800205CB9002098B90020B6
:103FB00014BA002098B6002094BA0020D4BA002089
:103FC000D4B90020A0B7002054BA002014BB0020B0
:103FD00024870008A00000202DE9F04F5A4887B040
:103FE0000024016841F010010160016801F0100136
:103FF0000591016841F004010160016801F00401CC
:104000000591016841F080010160016801F08001C3
:104010000591016841F001010160016801F00101B1
:104020000591016841F002010160016801F002019F
:104030000591016841F0080101600068002200F06C
:104040000800059060214148FEF726FADFF800914C
:104050004FF40057002239464846FEF71DFADFF8B4
:10406000F4A001224FF441715046FEF715FA0122E7
:1040700080213648FEF710FADFF8DCB04FF44076C6
:10408000002231465846FEF707FA4FF440680122F5
:1040900041465846FEF700FA0125E020CDE900052B
:1040A000CDE9025469462948FEF71EF90097CDE98B
:1040B0000154694648460394FEF716F9CDE90054C9
:1040C000694626480294FEF70FF90420022703945C
:1040D0008DE8A10069465046FEF706F9CDE9027465
:1040E000CDE9006569465846FEF7FEF8CDF8008038
:1040F000CDE90154694658460394FEF7F5F8009659
:10410000CDE90154694650460394FEF7EDF80320CB
:1041100000901348CDE9010569460C48FEF7E4F824
:10412000002205210620FEF76DFA0620FEF75EFA52
:10413000002205210720FEF765FA0720FEF756FA50
:1041400007B0BDE8F08F0000303802400010024098
:104150000008024000040240000C0240000002403F
:104160000000111010B5284886B026490160A7212B
:104170000024C0E901144FF6FF71C0E90314446143
:10418000FEF73DFE18B14F2120A001F0CEFE0494B1
:1041900004A91D480594FEF752FD18B156211BA035
:1041A00001F0C3FE0120CDE90040029400226946DF
:1041B00015480394FEF794FD18B15F2113A001F098
:1041C000B4FE042269461048FEF78AFD18B1642146
:1041D0000EA001F0AAFE082269460B48FEF780FDFA
:1041E00018B1692109A001F0A0FE0C226946064819
:1041F000FEF776FD002803D06E2104A001F095FEA5
:1042000006B010BD00000140A8B800202E2E2F439C
:104210006F72652F5372632F74696D2E63000000F7
:1042200010B51E488AB04FF0804101605321002430
:10423000C0E9011440F2E731C0E90314FEF7AFFF13
:1042400018B17F2116A001F070FE079407A913484A
:104250000894FEF7F4FC18B1862111A001F065FE68
:104260006020CDE900040294002269460B480494C2
:10427000FEF72DFF18B18F2109A001F056FE042290
:1042800069460648FEF723FF18B1942104A001F007
:104290004CFE0248FEF7D6FE0AB010BDE4B800207E
:1042A0002E2E2F436F72652F5372632F74696D2EFC
:1042B0006300000010B5284886B0264901605321EC
:1042C0000024C0E901144FF6FF71C0E90314FEF7A2
:1042D00096FD18B1A72121A001F027FE049404A99E
:1042E0001D480594FEF7ABFC18B1AE211BA001F0F0
:1042F0001CFE0120CDE900400294002269461648C8
:104300000394FEF7EDFC18B1B72114A001F00DFEE7
:10431000042269461048FEF7E3FC18B1BC210FA047
:1043200001F003FE082269460B48FEF7D9FC18B1DC
:10433000C1210AA001F0F9FD0C2269460648FEF7EA
:10434000CFFC002803D0C62104A001F0EEFD06B08A
:1043500010BD00000004004020B900202E2E2F4385
:104360006F72652F5372632F74696D2E63000000A6
:1043700010B529488AB02749016053210024C0E9BB
:10438000011440F2E731C0E90314FEF708FF18B149
:10439000D72122A001F0C9FD079407A91E4808945F
:1043A000FEF74DFC18B1DE211CA001F0BEFD60201F
:1043B000CDE9000402940022694617480494FEF7F0
:1043C00086FE18B1E72115A001F0AFFD0422694671
:1043D0001148FEF77CFE18B1EC2110A001F0A5FDFC
:1043E000082269460C48FEF772FE18B1F1210BA0B5
:1043F00001F09BFD0C2269460748FEF768FE18B1E4
:10440000F62106A001F091FD0348FEF71BFE0AB05D
:1044100010BD0000000800405CB900202E2E2F4384
:104420006F72652F5372632F74696D2E63000000E5
:1044300010B52C4890B02A490160A7210024C0E99A
:10444000011440F2E731C0E903144461FEF7A7FE0E
:1044500020B140F20B1124A001F067FD0E940EA9CB
:1044600020480F94FEF7EBFB20B14FF489711EA09A
:1044700001F05BFD6020CDE90004029403940494F4
:1044800005940822694617480694FEF720FE20B1DD
:104490004FF48F7114A001F048FD0C2269461148B9
:1044A000FEF715FE20B140F223110FA001F03DFDF3
:1044B0000794089409944FF400500A94CDE90B40F6
:1044C00007A908480D94FEF78DFB20B140F22F118B
:1044D00005A001F02AFD0348FEF7B4FD10B010BDA1
:1044E0000004014098B900202E2E2F436F72652FD3
:1044F0005372632F74696D2E630000000D4810B570
:104500000B4901604FF416514160002181600C227B
:10451000C160C0E904128161C161FEF76FFF00282C
:1045200005D0BDE81040DD2103A001F0FEBC10BDA8
:10453000004C0040D4B900202E2E2F436F72652FFF
:104540005372632F75736172742E63000D4810B53A
:104550000B4901604FF4E1314160002181600C2280
:10456000C160C0E904128161C161FEF747FF002804
:1045700005D0BDE81040EF2103A001F0D6BC10BD6E
:104580000050004014BA00202E2E2F436F72652F6A
:104590005372632F75736172742E63000E4810B5E9
:1045A0000C4901604FF4E1314160002181600C222F
:1045B000C160C0E904128161C161FEF71FFF0028DC
:1045C00006D0BDE810404FF4817104A001F0ADBCED
:1045D00010BD00000010014054BA00202E2E2F43C1
:1045E0006F72652F5372632F75736172742E63003F
:1045F0000E4810B50C4901604FF41651416000217E
:1046000081600C22C160C0E904128161C161FEF7C2
:10461000F5FE002806D0BDE8104040F2151104A0B8
:1046200001F083BC10BD00000044004094BA00209B
:104630002E2E2F436F72652F5372632F7573617225
:10464000742E63000E4810B50C4901604FF41651EA
:104650004160002181600C22C160C0E904128161C7
:10466000C161FEF7CBFE002806D0BDE810404FF434
:10467000947104A001F059BC10BD00000048004036
:10468000D4BA00202E2E2F436F72652F5372632FE2
:1046900075736172742E63000E4810B50C49016089
:1046A0004FF416514160002181600C22C160C0E9C5
:1046B00004128161C161FEF7A1FE002806D0BDE8A9
:1046C000104040F23B1104A001F02FBC10BD0000CF
:1046D0000014014014BB00202E2E2F436F72652F53
:1046E0005372632F75736172742E6300FEE7704717
:1046F0000907090E002806DA00F00F0000F1E0209B
:1047000080F8141D704700F1E02080F80014704715
:1047100010B52DED068BB0EE609AF0EE618A71EE69
:10472000400ADFED211A31EE000A20EEA18AF6EEF2
:10473000000A20EE200ADFED1D0A20EE200A10EE0E
:10474000100AFBF777FF41EC100B01F075FEB0EE9D
:1047500040AA38EEC90AF0EE60AA10EE100AFBF784
:1047600069FF53EC1A2BFBF773FE9FED111B53EC03
:10477000112BFBF76DFEFBF789FF68EE080A00EED0
:10478000100A40EE000A10EE900AFBF753FF41ECCE
:10479000100B01F019FF51EC100BFBF777FFBDEC8C
:1047A000068B00EE100A10BD00B1D84735FA8E3CDA
:1047B00000000000602DFB4010B5B4EE410A2DED65
:1047C000068BB0EE618AF0EE608AF1EE10FA07D146
:1047D000F4EE488AF1EE10FA02D19FED2B0A47E081
:1047E00031EE409A31EE000AF6EE000A20EE200A81
:1047F000DFED260A20EE200A10EE100AFBF71AFF62
:1048000041EC100B01F018FEB0EE40AA38EE680A39
:10481000F0EE60AA10EE100AFBF70CFF53EC1A2B17
:10482000FBF716FEFBF732FFFBF704FF41EC180B1A
:10483000B1EE490A10EE100AFBF7FCFE41EC100B3A
:10484000B0EE481AF0EE681A01F0FEFC9FED101B66
:1048500051EC100B53EC112BFBF7FAFD9FED0E1BE7
:1048600053EC112BFBF74DFDFBF710FF00EE100A88
:10487000B5EEC00AF1EE10FA03D2DFED090A30EE10
:10488000200ABDEC068B10BD0000000035FA8E3CFE
:1048900000000020DCA54C400000000000805640D5
:1048A0000000B44300B5E5B0122269460448FCF7A5
:1048B000CDFF242269460348FBF711FD65B000BD1A
:1048C00000100E08F83E002000B5E5B0242205498E
:1048D0006846FBF704FD122269460348FCF7C0FF57
:1048E00065B000BDF83E002000100E082DE9F04133
:1048F0000446444E14F8060F60F30705607860F331
:104900000F25A07860F31745E07860F31F653560E8
:10491000207960F30705607960F30F25A07960F3D3
:104920001745E07960F31F6528467560FBF771FE57
:104930009FED351B53EC112BFBF78AFD344FC7E974
:104940000201207A60F30705607A60F30F25A07AF0
:1049500060F31745E07A60F31F652846B560FBF702
:1049600058FE9FED291B53EC112BFBF771FDC7E996
:104970000001207B60F30705607B60F30F25A07BBF
:1049800060F31745E07B60F31F652846F560FBF791
:1049900040FE9FED201B53EC112BFBF759FDC7E99F
:1049A0000401207C60F30705607C60F30F25A07C88
:1049B00060F31745E07C60F31F6500EE105A17485E
:1049C0003561B8EEC00A80ED020A207D60F307056C
:1049D000607D60F30F25A07D60F31745E07D60F3F7
:1049E0001F657561207E60F30705607E60F30F250B
:1049F000A07E60F31745E07E60F31F65B561BDE8FA
:104A0000F081000088B3002048AFBC9AF2D77A3E0C
:104A1000E01D0120FCA9F1D24D62503F8C00002026
:104A200010B582791C4C62F30701C27962F30F2141
:104A3000027A62F31741427A62F31F61154A1160EC
:104A4000837A536084F8C83DC37A9360037BD36054
:104A5000437B1361827B62F30701C27B62F30F2108
:104A6000027C62F31741427C62F31F61094A243AD7
:104A70005161827C62F30701C27C62F30F21027DE7
:104A8000407D62F3174160F31F6102482438816161
:104A900010BD00006CB30020101001202DE9F04182
:104AA00004462DED028B14F8061F5D4D61F30700DF
:104AB000617861F30F20A17861F31740E17861F329
:104AC0001F60584928604860217961F307006179C7
:104AD00061F30F20A17961F31740E17961F31F6061
:104AE00000EE100AB8EEC00ADFED4F0A4F4E20EE7E
:104AF000200ABDEEC00A85ED010AB8EEC00A86EDB7
:104B0000020A14F8081F61F30700617861F30F20AF
:104B1000A17861F31740E17861F31F600746A86050
:104B2000FBF777FD9FED428B53EC182BFBF790FCC6
:104B3000FBF7ACFDF0602079E17960F3070760795D
:104B400060F30F27A07960F31747384661F31F60C1
:104B50000746E860FBF75DFD53EC182BFBF778FC8C
:104B6000FBF794FD3061217A384661F30700617AE2
:104B700061F30F20A17A61F31740E17A61F31F60BE
:104B800007462861FBF745FD53EC182BFBF760FC4B
:104B9000FBF77CFD3060207B60F30707607B60F3F0
:104BA0000F27A07B60F31747E07B60F31F676F61FF
:104BB000217C384661F30700617C61F30F20A17C02
:104BC00061F31740E17C61F31F600746A861FBF7C2
:104BD00020FD9FED191B53EC112BFBF739FCFBF764
:104BE00055FD7060207D60F30707607D60F30F273F
:104BF000A07D60F31747E07D60F31F67EF61207EC3
:104C000060F30707607E60F30F27A07E60F317470D
:104C1000E07E60F31F672F62BDEC028BBDE8F08180
:104C200048B300208C0000200AD7233CF81D012047
:104C30007B14AE47E17A843FF168E388B5F8E43E3F
:104C40002DE9F041C179C37A61F30702017A6A4C18
:104C500061F30F22417A674E61F31742817A94ED36
:104C60002E3B61F31F62114663F30701037B94ED52
:104C70002A2B63F30F21437B807B63F3174160F39F
:104C80001F610020012394ED2C1BD4ED300A94ED1C
:104C9000310AA6F51555402A7AD01EDC052A38D0EF
:104CA000062A18D1A4F580624FF0570C02F5C047D0
:104CB000052933D0062963D007290CD195F8C610F1
:104CC000002908D185F8C73082F824C487F89A02F1
:104CD0000320C2F82804BDE8F081412A7CD0602A74
:104CE000F9D1E1B30129F6D194ED3C0B84ED2E0B03
:104CF00094ED380B84ED2A0B94ED3A0B84ED2C0BDC
:104D000094ED3F0A84ED310A94ED3E0A84ED300AB9
:104D1000E1E7A929DFD185F8C430DCE705F8C53F14
:104D2000687082F824C487F89A02C2F82834C2F85E
:104D3000300484ED123B84ED0E2B84ED101BC4ED8A
:104D4000140A84ED150A3088C2F8D8047834B068A3
:104D5000FBF770FCC4E91E0196ED040B00E03EE099
:104D600084ED1A0B96ED060B84ED1C0B96ED080AEC
:104D700084ED200A96ED090A84ED210AABE707E0ED
:104D800005F8C50F6D216B70A87087F89A12A0E71F
:104D9000072905D008299ED1286285F8C8009AE71E
:104DA000AA6A296A91420ED201EB810006EBC0018A
:104DB00085F8C83028221148FBF791FA286A401C70
:104DC000286288E708E085F8C8002862BDE8F0415D
:104DD0000821402000F0DAB8C5E909017BE784ED3D
:104DE000123B84ED0E2B84ED101B84ED150AC4EDEF
:104DF000140A70E70864002010C40020503F00200F
:104E000010B5C11D24220448FBF769FA03480121AB
:104E100080F8981210BD0000F83E002010200120FC
:104E20002DE9F041374C054600272178364E04F134
:104E30000E00092964D2DFE801F0050D16191C1FC8
:104E400022334500EB2D29D148F2084101804780EB
:104E500035701BE0902D53D12A4829460E30FBF7C0
:104E6000A7FE757017E0E570B5700FE02571F5705D
:104E70000CE06571357109E06570757105E0A5702C
:104E8000607800EB05206081B57127811D482946B7
:104E90000E30FBF78DFE2078401C2070BDE8F081BD
:104EA0002089618988420AD230442946C571154853
:104EB0000E30FBF77DFE2089401C2081EEE7A571B6
:104EC0000820EAE7A179408801EB0521884217D143
:104ED000E078217900EB012080B2A081052804D080
:104EE000102806D040280BD107E00748FFF7A8FE9E
:104EF00006E00548FFF784FF02E0034800F006F8EB
:104F00002770CBE760000020B83D002070B5C11DC0
:104F10000D4828220546FBF7E2F90B4C2822883C75
:104F200004F51551B4F8880000EB800001EBC000D7
:104F30002946FBF7D4F9606A0721401C6062BDE88E
:104F40007040402000F022B8503F002008B50020FB
:104F50008DF80000084800F029FD28B908BD00BF01
:104F60009DF80000FFF75CFF6946034800F0FBFC7A
:104F70000028F5D108BD0000F8B700200A46014618
:104F8000014800F042BF000024B8002000B5194BD2
:104F900099B0002283F8C420EB228DF800209022E3
:104FA0008DF8012004228DF80220002203F58053A1
:104FB0008DF8032093F8262F8DF80420521C83F8D7
:104FC000262F08228DF8052000228DF80620CDF826
:104FD0000700CDF80B100F216846FBF7D0FD8DF8C8
:104FE0000F00000A8DF8100011216846FFF7C6FF78
:104FF00019B000BDC83E00201B4910B5CA699AB05F
:105000001044C861C8282DD30020C861EB218DF859
:10501000001090218DF801102021144B8DF8021002
:1050200000248DF8034093F8262F8DF80420521C9D
:1050300083F8262F8DF8051068460A468DF806403D
:10504000A3F6A871C01DFBF74AF927216846FBF7B4
:1050500096FD8DF82700000A8DF828002921684662
:10506000FFF78CFF1AB010BDC83E0020C84E0020CC
:1050700000B51C4899B090F8C410002930D0002128
:1050800080F8C410EB218DF8001090218DF80110EC
:1050900010218DF80210144A00218DF8031092F8A7
:1050A000261F8DF80410491C82F8261F24218DF834
:1050B000051000218DF806100A4968462422303177
:1050C000C01DFBF70CF92B216846FBF758FD8DF846
:1050D0002B00000A8DF82C002D216846FFF74EFFAB
:1050E00019B000BDC83E0020C84E00201D4900B5C3
:1050F0008A6999B010448861B0F57A7F2FD3002077
:105100008861EB218DF8001090218DF8011050215D
:105110008DF80210144A00218DF8031092F8261F12
:105120008DF80410491C82F8261F14218DF80510F3
:1051300000218DF806100B4968461422B031C01DBD
:10514000FBF7CDF81B216846FBF719FD8DF81B0016
:10515000000A8DF81C001D216846FFF70FFF19B0EB
:1051600000BD0000C83E0020C84E002000B51C480D
:1051700099B090F8C810002930D0002180F8C810EC
:10518000EB218DF8001090218DF8011040218DF851
:105190000210144A00218DF8031092F8261F8DF892
:1051A0000410491C82F8261F28218DF805100021C3
:1051B0008DF806100A49684628228831C01DFBF781
:1051C0008EF82F216846FBF7DAFC8DF82F00000AD5
:1051D0008DF8300031216846FFF7D0FE19B000BDD0
:1051E000C83E0020C84E0020054A116809B905E0F4
:1051F00011460A6A002AFBD10862704710607047A6
:1052000074000020054A516809B905E011464A6A50
:10521000002AFBD14862704750607047740000203C
:10522000FFF740FB104C00250A2001F084FEFFF739
:105230001FFFFFF79BFF0A20FFF758FF0A20FFF729
:10524000DBFEFFF783FE94F89802012805D184F86D
:105250009852FCF7CDFAFFF737FBFCF729FC02F078
:10526000F9FA01F0F5FEDFE7102001202DED048BA7
:10527000DFED4E0A4E4DB1EE0C1AB2EE000AC5ED4E
:10528000910A85ED921A05F513754A48A5EC030AB3
:10529000A5EC030AA5EC030A85ED000A80ED2D0AB2
:1052A00080ED2E0A80ED2F0A80ED300AA5F51C75E1
:1052B000FEF7E8FC01210020FEF78CFC3F489FED43
:1052C0003E8ADFF80891DFED3E8AA0F58066DFF8C0
:1052D000F4B09FED3D9A80ED088A00244FF080489D
:1052E00009F1040A06F5B847142001F024FEB0EED7
:1052F000680AD6F82804FBF787FF95F89A026D280C
:1053000004D096F82404572813D003E0C6F82844A4
:1053100086F82444C8F83440C8F838402C48046063
:10532000001D0460001D0460001D0460C9F80040F9
:1053300037E097ED5B2AD7ED591A97ED5A1A32EEFE
:10534000210A70EE010AF5EEC00AF1EE10FA02D25F
:10535000F0EE480A05E010EE900A584501DDF0EE47
:10536000490ABCEEE00A10EE101AC8F83410C8F86A
:10537000384032EE610A70EE410AF5EEC00AF1EEF5
:1053800010FA02D2F0EE480A05E010EE900A5845F5
:1053900001DDF0EE490ABCEEE00A10EE101AC9F881
:1053A0000010CAF8004001F053FE9DE76666064112
:1053B00010200120C83E00200000000010C4002082
:1053C0000AD7A33C00007A4400007A443C04014020
:1053D000340800400A2001F0AEFD01F039FEF9E783
:1053E00001F014BE30B5274893B00025016841F0A4
:1053F00080510160006800F08050119022480168DF
:1054000041F4804101600068022400F48040119062
:1054100001200090000401908001CDE906400420A5
:105420000890A820CDE9090407200B906846FDF7F5
:1054300029FA08B1B4210FE00CA90F2081E831004E
:105440004FF4A0500F904FF48050109005210CA8FD
:10545000FDF70AF918B1C2210CA000F066FDFDF7B6
:10546000BBF94FF47A71B0FBF1F0FDF7A5FB042016
:10547000FDF796FB00220F21501EFDF7C3F813B075
:1054800030BD000040380240007000402E2E2F43F7
:105490006F72652F5372632F6D61696E2E6300000A
:1054A0001048016841F4700101600F48016841F043
:1054B000010101600C4A00210832116002680B4BA7
:1054C0001A400260031D0A4A1A60026822F4802210
:1054D000026005480C3001600249580680390860B6
:1054E0007047000088ED00E000380240FFFFF6FE44
:1054F000103000240148FDF7F2BC0000D4BF0020AA
:10550000F0B50268234B244D244E254F254C4FF017
:10551000804C984209D0604507D0A84205D0B042DF
:1055200003D0B84201D0A04204D122F0700E4A68E4
:1055300042EA0E0298421BD0604519D0A84217D00B
:10554000B04215D0B84213D0A04211D0164DA84297
:105550000ED0164DA8420BD0154DA84208D0154DBF
:10556000A84205D0144DA84202D0144DA84203D140
:1055700022F44075CA682A4302608A68C2620A68D7
:105580008262984201D0A04201D1096901630121E0
:105590004161F0BD000001400004004000080040EF
:1055A000000C004000040140004001400044014064
:1055B0000048014000180040001C0040002000404E
:1055C00010B50123046A8B409C430462036A8A403D
:1055D0001343036210BD000030B5026A22F00102DD
:1055E0000262026A436884690D6824F073042543EB
:1055F00022F002048A6822430B4CA04202D00B4CDA
:10560000A0420BD122F00804CA6823F4407322435D
:105610004C6922F004021C438B692343436085617B
:1056200049684163026230BD00000140000401404E
:1056300030B5026A22F010020262026A436884698D
:105640000D6824F4E64444EA05248D6822F0200223
:1056500042EA05120D4DA84202D00D4DA8420ED1CE
:10566000CD6822F0800242EA05124D6923F44063BE
:1056700043EA85038D6922F0400243EA85034360D3
:10568000846149688163026230BD0000000001400E
:105690000004014030B5026A22F480720262036A9B
:1056A0004268C46923F4007324F073050C682C432A
:1056B0008D6843EA05230D4DA84202D00C4DA84247
:1056C0000ED1CD6823F4006343EA05234D6922F42B
:1056D000405242EA05128D6923F4806342EA0512C2
:1056E0004260C4614968C163036230BD000001408B
:1056F0000004014030B5026A22F480520262046A5A
:105700004268C3690D6823F4E64343EA05238D68C4
:1057100024F4005444EA0534084DA84202D0084D50
:10572000A84204D14D6922F4804242EA85124260C7
:10573000C36149680164046230BD0000000001409B
:105740000004014070B5046A24F001040462846915
:10575000056A164EB04214D0B0F1804F11D0144EED
:10576000B0420ED0134EB0420BD0134EB04208D010
:10577000124EB04205D0124EB04202D0114EB0428D
:1057800003D124F00304144303E024F0030242F0A5
:1057900001041A0724F0F00444EA126225F00A0317
:1057A00001F00A0119438261016270BD00000140ED
:1057B0000004004000080040000C004000040140CC
:1057C000004001400018004030B5046A24F0100485
:1057D00004628469056A24F4407444EA022222F4D3
:1057E00070444FF6FF7202EA03322243A02425F0F0
:1057F000A00304EA011119438261016230BD000077
:1058000010EE100A0749DFED080A884202DD30EE8B
:10581000600A704710EE100A04498842F9D930EE48
:10582000200A7047000034430000B443000034C332
:1058300010B50448FBF76EF9BDE810400148FDF7CC
:1058400055BD0000D4B9002010B50448FBF762F93B
:10585000BDE810400148FDF749BD000014BA002022
:1058600010B5806B0021C185C184FDF70BFD10BD13
:1058700070B5846B2068406994F83910C0F3C0108B
:105880000025212904D118B1E584204600F062F8F2
:105890002068406994F83A10C0F38010222904D19E
:1058A00018B1E585204600F047F8E06B40F01000A5
:1058B000E0632046FDF7E6FC70BD10B50146806B45
:1058C00009680968C90513D40021C1850168CA683F
:1058D00022F48072CA6001684A6922F001024A61BA
:1058E00001684A6922F040024A61202180F83A109A
:1058F000FEF796F810BD10B5806BFEF7A7F810BD47
:1059000010B50146806B09680968C9050CD40021EF
:10591000C18401684A6922F080024A610068C16856
:1059200041F04001C16010BDFEF7F2F810BD10B5A6
:10593000806BFEF7FDF810BD0168CA6822F4907212
:10594000CA6001684A6922F001024A61202180F898
:105950003A1070470168CA6822F0C002CA6020216C
:1059600080F83910704770B50D46044600F013F802
:105970000246E068904201D1002070BD6268411C7F
:10598000E160105C2870D4E90301884201D3002053
:10599000E060012070BD017E09B180687047016937
:1059A0000068406B00684068081A704710B50446EC
:1059B000FFF7F1FFE168814201D922691044401AE2
:1059C0006169814200D2606110BD2DE9F84304464F
:1059D00000250160C4E90425C56116464562994663
:1059E0000F46304601F06CFD4FF0FF38606000B3A9
:1059F000A560E56025626846009501F0A8FAA062FE
:105A00002046FFF7F1FB3868C16841F01001C16022
:105A1000B9F1000F07D001202076B2B23846616894
:105A2000FDF7DAFF0EE0786B18B1C069B0F5807F42
:105A300002D04046BDE8F8832576B2B238466168A8
:105A4000FDF77EFF0020F5E710B590F83A10222907
:105A500001D0022010BD8168B1F5805F11D00169CD
:105A6000002901681FD0496801F07F03816A4A1C40
:105A700082620B70C18D491E0904090CC18518D0C2
:105A800026E00269816A002A0268526805D0D2B213
:105A90000A80816A491C8162ECE7C2F308020A802D
:105AA000816A891CF7E74A68816A4B1C83620A7025
:105AB000E0E70168CA6822F49072CA6001684A6926
:105AC00022F001024A61202180F83A10FDF7A8FF78
:105AD000002010BD2DE9F04104460068016921F461
