:020000040800F2
:10000000C8B10020590200089F2E00089B27000855
:100010009D2E00083D0900082D3D0008000000004D
:100020000000000000000000000000009D0100082A
:100030000D0F000800000000F1010008AD340008B9
:1000400073020008730200087302000873020008BC
:1000500073020008730200080F0F0008150F000854
:10006000730200087302000873020008730200089C
:100070007302000873020008390E000873020008BA
:1000800073020008450E000873020008730200089E
:10009000730200087302000873020008730200086C
:1000A000730200087302000873020008730200085C
:1000B000730200087302000873020008730200084C
:1000C000730200087302000873020008730200083C
:1000D00073020008FD3C0008093D0008153D0008BA
:1000E000730200087302000873020008730200081C
:1000F000730200087302000873020008730200080C
:1001000073020008730200087302000873020008FB
:10011000413800084D380008C13500087302000856
:1001200073020008730200087302000873020008DB
:1001300073020008730200087302000873020008CB
:1001400073020008730200087302000873020008BB
:1001500073020008510E00085D0E0008213D0008E2
:10016000730200087302000873020008730200089B
:100170007302000873020008730200080000000008
:100180007302000873020008DFF80CD000F098FB3F
:1001900000480047A54C0008C8B100202B4B196847
:1001A0000868B0E8F04F80F30988BFF36F8F4FF015
:1001B000000080F3118870470000000006480068C6
:1001C000006880F3088862B661B6BFF34F8FBFF353
:1001D0006F8F00DF00BF00BF08ED00E0DFF80C000C
:1001E000016841F470010160704700BF88ED00E0D4
:1001F000EFF30980BFF36F8F144B1A681EF0100FD6
:1002000008BF20ED108A20E9F04F106008B44FF0CD
:10021000500080F31188BFF34F8FBFF36F8F05F04D
:1002200065FA4FF0000080F3118808BC196808686F
:10023000B0E8F04F1EF0100F08BFB0EC108A80F34A
:100240000988BFF36F8F704700BF00BF2C000020EC
:10025000EFF30580704700000648804706480047D6
:10026000FEE7FEE7FEE7FEE7FEE7FEE7FEE7FEE766
:10027000FEE7FEE76D350008890100082DE9F05F13
:100280000546002092469B46884606468146402405
:100290001BE0284641464746224600F009FA5346ED
:1002A0005A46C01A914110D311461846224600F012
:1002B000F0F92D1A67EB01084F4622460120002174
:1002C00000F0E7F917EB00094E41201EA4F10104EC
:1002D000DFDC484631462A464346BDE8F09F40EA07
:1002E00001039B0703D009E008C9121F08C0042AB4
:1002F000FAD203E011F8013B00F8013B521EF9D29B
:1003000070472DE9FE4F804681EA0300C00F0C467E
:10031000009021F0004123F00045B8EB0200A94114
:1003200005D24046214690461C460B46024623F025
:100330000040104347D0270DC7F30A00C3F30A510A
:100340000290401A019040286BDAC3F3130040F486
:10035000801B0098924620B10023D2EB030A63EB86
:100360000B0B01985946C0F14002504600F091F93C
:1003700006460D4650465946019A00F0A9F910EB81
:1003800008006141002487EA115284EAE7731A43A6
:1003900040D0009A62B3019A012A4FEA075215DC55
:1003A000001B61EB02014FF0004202EA0752CDE967
:1003B0000042001C41F5801132462B4600F0E0F966
:1003C00003B0BDE8F08F40462146F9E7001B61EB22
:1003D0000201001C41F5801300185B412018A2F5B2
:1003E000001747EB030140EAD570B6196D4111E0E3
:1003F0006D084FEA360645EAC0754FEA0752001B02
:1004000061EB0201001C41F5801149084FEA300000
:100410000019514132462B4603B0BDE8F04F00F0C1
:10042000A0B90098012240000023D0EB020263EB48
:10043000E073009821464FEAE074B8EB000061EBEE
:100440000401E9E783F000435BE781F0004158E7EE
:100450002DE9FE4F81EA030404F0004421F000413D
:1004600000944FF0000B23F0004350EA01045ED0EB
:1004700052EA03045BD0C3F30A54C1F30A552C4477
:10048000A4F2F3340194A0FB0254C1F3130141F42C
:100490008011C3F3130343F4801301FB024400FBF8
:1004A000034E840A970A44EA815447EA8357A4FB1F
:1004B000076802958D0A05FB07854FEA932C04FB1C
:1004C0000C542705029D4FEA065847EA1637B5EB4C
:1004D00008056EEB070C870E920E47EA811742EA79
:1004E0008312A7FB0201B6EB0B0164EB00042B0D9A
:1004F00043EA0C335E1844EB1C50DA465146E7FBE6
:100500000201C5F313044FEA0B3343EA14534FEAD5
:100510000432019C43EA0603A4F10C040294009CFB
:10052000CDE900B400F02CF903B0BDE8F08F002055
:100530000146F9E72DE9F04D81EA030404F0004B90
:1005400021F0004514464FF0000A23F0004150EA24
:10055000050220D054EA01021DD0C5F30A57024615
:10056000C5F31303C1F31300C1F30A5640F4801519
:1005700043F48013A7EB0608101BD64608F2FD389B
:1005800073EB050002D308F1010801E092185B410A
:10059000B8F1000F03DA00200146BDE8F08D00201D
:1005A0004FF48011064684460EE0171B73EB0507D7
:1005B00005D3121B63EB050306434CEA010C490803
:1005C0004FEA300092185B4150EA0107EDD152EA40
:1005D000030012D082EA040083EA0501084305D033
:1005E000101BAB4106D20122002306E000224FF08F
:1005F000004302E06FF0010253101AEB06004CEBCF
:10060000085110EB0A0041EB0B01BDE8F04D00F082
:10061000A8B80EB5C10F80EAE0700844CA070021EF
:1006200040F233438DE80E000A460B4600F0A8F86E
:1006300003B000BD00F0004230F000400AD0C10D10
:1006400001F56071C0F3160042EA0151C20840078B
:100650001143704700200146704701F0004330B459
:1006600021F0004150EA010206D00A0DA2F56072A5
:10067000C1F31301002A02DC30BC00207047440F94
:1006800044EAC104C100E01830BC00EBC25000F0E5
:1006900031B8202A04DB203A00FA02F1002070472A
:1006A0009140C2F1200320FA03F3194390407047B0
:1006B000202A04DB203A21FA02F00021704721FAB7
:1006C00002F3D040C2F1200291400843194670471E
:1006D000202A06DBCB17203A41FA02F043EAE07306
:1006E00006E041FA02F3D040C2F1200291400843F3
:1006F000194670470029A8BF7047401C490008BF31
:1007000020F00100704710B4B0FA80FC00FA0CF041
:1007100050EA010404BF10BC704749B1CCF1200479
:1007200021FA04F411FA0CF118BF01212143084306
:10073000A3EB0C01CB1D4FEA00614FEA102042BF32
:10074000002010BC704700EBC35010440029A4BF28
:1007500010BC7047401C490008BF20F0010010BCCD
:10076000704710B5141E73F1000408DA401C41F103
:10077000000192185B411A4301D120F0010010BD25
:100780002DE9F04D92469B4611B1B1FA81F202E09B
:10079000B0FA80F220329046FFF77BFF04460F4606
:1007A00040EA0A0041EA0B0153465A46084313D077
:1007B000114653EA010019D0C8F140025046FFF734
:1007C00077FF05460E46504659464246FFF761FF01
:1007D000084305D0012004E020463946BDE8F08DED
:1007E0000020054346EAE0762C4337430A98630528
:1007F000E40AA0EB08000022FD0A44EA47540A304C
:1008000002D500200146E9E7010510196941DDE93B
:10081000084500196941BDE8F04DA2E72DE9F04D0A
:1008200000231A461B1A8A4103DB00200146BDE85B
:10083000F08DC1F30A52C1F3130141F480154FF05A
:10084000000BD10702D100186D41521E002704464B
:1008500040F2FF11384601EB620A3E4680460246EE
:1008600000204FF48011FFF723FFC2197141BB181C
:1008700046EB0100B4EB030C75EB000C04D3E41A57
:1008800065EB000517460E46241908F101006D417D
:1008900080463428E3DDF91946EB0600091BA84120
:1008A00003D24FF0FF32134601E0002213461BEB48
:1008B000070046EB0A51BDE8F04DFFF752BF0000BC
:1008C000064C074D06E0E06840F0010394E807009D
:1008D00098471034AC42F6D3FFF75AFC805C00080E
:1008E000A05C00080EB540F2334102910021CDE931
:1008F00000110A460B46FFF743FF03B000BD70B579
:10090000C1F30A5201F000450024C1F3130140F283
:10091000FF3341F480119A4201DA002070BD40F2A9
:1009200033439A42A2F2334203DC5242FFF7C0FE45
:1009300000E090402C43F1D0404270BDFEE770B51E
:10094000002402232546891E06E0C65C5B1C344455
:10095000E4B22544EDB2DBB28B42F6DB64F307026E
:1009600065F30F2290B270BD03490220086103486D
:10097000002180F8FC1C7047C8000020C82000201F
:100980002DE9F0474C4D00262DED028B9EB095F8D9
:10099000FC1CF0EE408A4FF001089FED488AA5F557
:1009A000005000F5305400F1C00791B1012952D038
:1009B000022909D195F8BC1D012966D0C0F8106044
:1009C00084ED438A84ED448A1EB0BDEC028BBDE801
:1009D000F08738223A493846FFF781FC1822394916
:1009E00018A8FFF77CFC382239460AA8FFF777FCE5
:1009F0003349282280318A466846FFF770FCDFF8C9
:100A0000C090F0EE480A09F1680909F10C00B0EE57
:100A1000680A90E80E00D9F8080000F0D5F83822EE
:100A200039460AA81896FFF75AFC2822514668460C
:100A3000FFF755FC09F10C00B7EE000A90E80E0034
:100A4000D9F8080000F042F80128BDD185F8FC8CE7
:100A500084ED408AB8E794ED610AD4ED5F0AB4EE04
:100A6000E00AF1EE10FA0DDB94ED400A164930EE83
:100A7000280A10EE100A84ED400A8842A0DD022008
:100A800085F8FC0C84ED408A9AE7C0F8108095F850
:100A9000F40C0B4901284FF03802A1F11801384637
:100AA00007D001F5B47100BFFFF719FC85F8F46CAD
:100AB00086E7F831F8E70000C820002000000000B9
:100AC000E0000020282E0020000096430FB42DEDFA
:100AD000020B70B500242DED068BB0EE408A9DED23
:100AE0001E0B289D9DED1CAB51EC100BFFF7B5FDC7
:100AF00009EE100A51EC1A0BFFF7AFFD9DED100B3C
:100B000009EE900A51EC100BFFF7A7FD9DED0E0BBF
:100B100008EE900A51EC100BFFF79FFD00EE100A53
:100B2000F0EE491AB0EE691AF0EE680A02F0C8F960
:100B30005DB1B4EEC80AF1EE10FA00DB0124BDECA1
:100B4000068B204670BC5DF81CFBB4EEC80AF1EEC3
:100B500010FAF3D9F3E70000174810B5D0ED610A99
:100B600090ED600A0223A0F53052F4EEC00AF1EED7
:100B700010FA00D81361114991F8BC4D012C13D122
:100B800090ED5F1A31EE400A9FED0D1A20EE010A3A
:100B9000B4EEE00AF1EE10FA06DBFF2481F8BC4D5A
:100BA0001361002281F8FC2C9FED060A80ED430AB8
:100BB00080ED440A10BD0000C82C0020C820002091
:100BC0009A99993E000000000FB42DED020B2DE91B
:100BD000F05F2DED0A8BB0EE408ADDE934B9DDF827
:100BE000C8A09DED33AADDED379A9DED26CB9DED96
:100BF000280B9FED5C9A002451EC100BFFF72DFDA4
:100C000080460BEE108A51EC1C0BFFF726FD0746C1
:100C10009DED1A0B0AEE907A51EC100BFFF71DFDBB
:100C200006469DED180B08EE906A51EC100BFFF78D
:100C300014FD054600EE105AF0EE4B1AB0EE6A1A9B
:100C4000F0EE680A02F03CF9F0EE408A01EE908A7C
:100C500001EE107A00EE906A00EE105A02F084F96C
:100C6000DDED1F0A30EE600A02F0D2FD0AF0FF004F
:100C70003D49012804D11AEE100A884200DC042400
:100C80000BF0FF00012804D1894502DC44F002008A
:100C900001E004F0FD00369AD2B2012A06D119EE25
:100CA000902A8A4202DC40F0010001E000F0FE00E0
:100CB000DFED2E0AFAEE041AB2EE041A082818D252
:100CC000DFE800F017040707040A112708EE210ADD
:100CD0000FE0F0EE498A0AE079EECA0A60EE810A76
:100CE00000EE880A05E0DFED220AF0EE498A08EE00
:100CF000200A68EE810A9DED1E2AF0EE001A1D49B9
:100D000042EE610A10EE900A884207D9DFED1A0A16
:100D10000BE0F0EE498ADFED190AE8E710EE900AE1
:100D20001749884201DDDFED170A20EE010A164857
:100D3000164A10EE101AC0ED430A914202D99FEDF7
:100D4000140A06E010EE101A124A914201DD9FEDDE
:100D5000120A80ED440ABDEC0A8BBDE8F01F5DF875
:100D60001CFB000000000000CDCC4C3E000034C253
:100D70000000344200007AC400007AC4000034C38A
:100D800000007A4400007A44C82C00200000FAC316
:100D90000000FAC30000FA430000FA4338B101280A
:100DA00007D0022807D0032807D1FFF7DDBDFFF7E2
:100DB000D3BE00F003B8FFF7E3BD70471A4810B583
:100DC00090ED611AD0ED600AB4EEE01AF1EE10FA7F
:100DD00029D8D0ED3E0A154A30EE800A10EE101ADE
:100DE00080ED3E0A91421EDB01219FED110A80ED4C
:100DF0003E0AA0F54060A0F5005280F8F41C0221E4
:100E00001161002180F8FC1C0A49382201F17000B0
:100E1000FFF765FA074938227039BDE8104001F143
:100E2000A800FFF75CBA10BDC82C0020000070427B
:100E30000000000050010020014800F0A9B80000A7
:100E40007C310020014800F0A3B800001C310020D4
:100E5000014800F09DB80000DC310020014800F09E
:100E600097B80000BC30002001681823CAB2103ABD
:100E7000B2FBF3F2054B6FF30901032A9B5CC365D8
:100E800000D9091D8165084670470000945A000882
:100E900010B5014600208B698A6A4FF0C07453B1C7
:100EA000B3F5005F15D072B1012A0CD0022A0AD026
:100EB000032A09D104E01AB1012A06D0022A03D17B
:100EC000C96AC90100D5012010BDC96AA142FAD082
:100ED00010BD002AF7D0012AF2D0022AF3D0032A4B
:100EE000F3D010BD30B50468256825F48025256051
:100EF000046863608368402B036803D099600068CE
:100F0000C26030BD9A600068C16030BD704701208A
:100F100000F0C8B9022000F0C5B900000D4910B5B5
:100F20000B4AC1E90020002088600C22C860C1E99A
:100F300004028861C861084601F050F9002805D014
:100F4000BDE81040B12104A002F0F1BE10BD0000C8
:100F5000001401407C3000202E2E2F436F72652F2D
:100F60005372632F75736172742E630090F835109D
:100F7000022903D08021416501207047052180F8B6
:100F800035100068016821F0010101600020704700
:100F90002DE9F84304464FF00009CDF8009063486E
:100FA0004FF41651A56D0068B0FBF1F72E6894F868
:100FB0005C10082000FA01F131420FD021680A6864
:100FC00052070BD50A6822F004020A6094F85C10FC
:100FD0008840A860606D40F00100606594F85C1086
:100FE0004FF0010808FA01F0304208D02168496941
:100FF000090604D5A860606D40F00200606594F8B1
:101000005C1004208840304208D0216809688907B4
:1010100004D5A860606D40F00400606594F85C1031
:1010200010208840304218D021680968090714D57B
:10103000A86020680168490304D50068000308D54A
:10104000A16C07E00168C90503D4016821F008011B
:101050000160216C09B12046884794F85C1020207B
:101060008840304231D021680968C9062DD5A86072
:1010700094F8350005282068016806D0490347D553
:10108000006800031DD4616C1CE021F016010160B2
:101090002068416921F080014161206C08B9A06C91
:1010A00020B12068016821F00801016094F85C100B
:1010B0003F208840A86084F8349084F83580216D02
:1010C0001FE0E16B09B120468847606D00282BD0F6
:1010D000606DC00714D0052084F8350020680168D1
:1010E00021F0010101600098401C0090B84203D833
:1010F00020680068C007F6D184F8349084F8358001
:10110000E16C002910D001B02046BDE8F04308474B
:101110000168C905D5D4016821F01001016084F887
:10112000349084F83580CCE7BDE8F883680000206F
:101130002DE9F041044600F0A3F906465CB1002514
:1011400084F83450022084F835002068016821F0CA
:10115000010101600DE00120BDE8F08100F090F98F
:10116000801B052805D920206065032084F8350000
:10117000F2E720680068C007F0D1226811682048B3
:101180000140D4E901031843D4E90336334318433B
:1011900063691843A3691843E3691843236A184332
:1011A0000843616A042903D1D4E90B1319430843A6
:1011B000106020684069666A20F0070130460E43DF
:1011C000012704280CD1A06A0643E06A40B12046FA
:1011D000FFF75EFE20B14020606584F83570BAE705
:1011E000206846612046FFF73FFE94F85C203F21CF
:1011F00091408160656584F835700020ACE700009F
:101200003F8010F02DE9F0410446866D90F83400DF
:10121000002501280DD0012084F8340094F83570A1
:101220000020012F07D084F8340002252846BDE8AD
:10123000F0810220FBE7022784F8357060652046C4
:10124000FFF750FE94F85C103F208840B0602068A3
:10125000016841F0160101602068416941F0800198
:101260004161206C20B12068016841F008010160F3
:101270002068016841F001010160D7E770B50446BC
:1012800000F0FEF80546601C02D0044800780444D3
:1012900000F0F6F8401BA042FAD370BD6C000020AD
:1012A00070470000044910B50A68024202D0086085
:1012B000FFF7F6FF10BD0000143C01402DE9F84F88
:1012C000DFF87CB100224FF001084FF0030A4FF025
:1012D0000F090BF1040E00BF0B6808FA02F423405B
:1012E000A3426ED14D68022D01D0122D0ED1D5082A
:1012F00000EB850CDCF820505607F70E09FA07F6CC
:10130000B5430E69BE402E43CCF8206006685500F8
:101310000F790AFA05FC07F0030726EA0C06AF402E
:10132000374307604E68012E05D0022E03D0112EE0
:1013300001D0122E0ED18668CF6826EA0C06AF4087
:10134000374387604668A6430C79C4F30014944081
:1013500034434460C6688C6826EA0C06AC403443CB
:10136000C4604C68E40065D5364C256845F480457A
:101370002560246822F0030504F480440094324C74
:101380002E19D6F8084895072F0F09FA07F5AC4330
:101390002E4DA84201D1002524E02D4DA84201D1B7
:1013A00001251FE02B4DA84201D102251AE02A4D4C
:1013B000A84201D1032515E0284DA84202D10425F9
:1013C00010E037E0264DA84201D105250AE0254D61
:1013D000A84201D1062505E0234DA84201D10725E9
:1013E00000E00825BD402543C6F80858DBF800405A
:1013F0005D464E689C43F60300D51C432C60DEF826
:10140000004075464E689C43B60300D51C432C60D3
:101410000B4D08352C684E689C43F60200D51C43E2
:101420002C60074D0C352C684E689C43B60200D5E5
:101430001C432C60521C102AFFF44EAFBDE8F88FFD
:10144000003C0140443802400030014000000240AE
:101450000004024000080240000C0240001002405C
:101460000014024000180240001C024042694A4039
:10147000426170470AB1816170470904FBE70000CF
:1014800001488068704700006C00002002488168B5
:1014900002781144816070476C0000200B4810B541
:1014A000016841F400710160016841F480610160EC
:1014B000016841F480710160032000F0B1F8002060
:1014C00000F006F800F03EF8002010BD003C02409D
:1014D00010B5014688B00022362000F081F8362091
:1014E00000F072F813480024016841F01001016017
:1014F000006805A900F010000690684600F03AF96F
:1015000000F05EF90C494000B0FBF1F10C480B4AC9
:10151000491E026040F2E732C0E90324C0E9011429
:1015200000F076FB10B1012008B010BD044800F0B7
:101530008BFBF9E74038024040420F0000100040AA
:101540003C3200201F4808B5016841F48041016029
:10155000006800F4804000901A48001F016841F0C4
:1015600080510160006800F080500090032000F07E
:1015700057F8002211466FF00B0000F031F80022FE
:1015800011466FF00A0000F02BF8002211466FF0B0
:10159000090000F025F800221146501F00F020F845
:1015A00000221146101F00F01BF800220F21901E90
:1015B00000F016F800220F21BDE80840501E00F090
:1015C0000FB800004438024000F01F020121914092
:1015D0004009800000F1E020C0F8001170470000D1
:1015E000F0B40E4B1B680C46C3F30223C3F107058E
:1015F000042D00D90425191D072901D2002300E07C
:10160000DB1E012606FA05F1491E214099409E4045
:10161000761E16403143F0BC01F042BC0CED00E0F8
:10162000064900F0070208684FF6FF03184040EA39
:101630000220034A10430860704700000CED00E0F0
:101640000000FA052DE9F0470E46050065D0DFF8E9
:101650001481D8F80000F7B200F00F00B04207D2B2
:1016600088F80070D8F8000000F00F00B04254D1A4
:1016700028683D4C810712D5400703D5206840F407
:10168000E05020602878000703D5206840F46040CF
:1016900020602068A96820F0F000084320602878C6
:1016A000C0072DD0304968680839012812D00228B7
:1016B00013D0032811D00968890700292DDA216881
:1016C00021F0030101432160FFF7DAFE814641F278
:1016D000883A0EE009688903EFE709688901ECE7B9
:1016E000FFF7CEFEA0EB0901514502D90320BDE86A
:1016F000F0872068696800F00C00B0EB810FEFD133
:10170000D8F80010404601F00F01B14207D9077028
:10171000006800F00F00B04201D00120E7E7287810
:10172000400705D52068E96820F4E05008432060B0
:101730002878000706D52068296920F4604040EA2F
:10174000C100206000F05CF82168084AC1F3031171
:10175000515CC840064908600020FFF7B9FE002030
:10176000C5E70000003C0240083802407C5A0008EF
:10177000680000200F2202600C4A136803F0030384
:101780004360136803F0F0038360136803F4E053CD
:10179000C36012684FF4E05303EAD20202610448C6
:1017A000006800F00F000860704700000838024031
:1017B000003C0240014800687047000068000020BB
:1017C0000448054900680968044AC1F38221515C54
:1017D000C840704768000020083802408C5A000852
:1017E0000448054900680968044AC1F34231515C64
:1017F000C840704768000020083802408C5A000832
:10180000154810B5006810F00C02144813D04110B0
:10181000042A0FD0082A0ED10F4C241F22682368F7
:1018200002F03F025B0207D52068C0F38810A0FBDE
:10183000010106E0084610BD2168C1F38811A1FB33
:1018400000010023FEF71AFD2168C1F30141491C84
:101850004900B0FBF1F010BD083802400024F4004C
:101860002DE9F84F050076D02878DFF8F8B2BE4CA5
:10187000C00749D0DBF800105846C1F381010129A7
:1018800008D00068C0F3810002280AD1201D00683A
:10189000400206D52068800336D568680028E2D06B
:1018A00032E06868B0F5803F10D0B0F5A02F206816
:1018B00010D020F480302060206820F48020206048
:1018C0006868A0B1FFF7DCFD06460CE0206840F434
:1018D0008030F4E740F480202060F7E7FFF7D0FD88
:1018E000801B642873D820688003F7D50CE0FFF7CD
:1018F000C7FD064605E000BFFFF7C2FD801B642858
:10190000F0D820688003F7D42878DFF86082800759
:101910004FF000093ED5DBF80010584611F00C0FCF
:1019200009D00068C0F3810002280BD18D48001F48
:101930000068400206D42068800715D5E8680128B1
:1019400009D111E0E868B8B10120C8F80000FFF73C
:1019500097FD064605E002E1FFF792FD801B022895
:10196000C0D820688007F7D52068296920F0F800E2
:1019700040EAC10020600DE0C8F80090FFF780FD4C
:10198000064604E0FFF77CFD801B02281FD8206874
:101990008007F7D42878000722D5724E7448696909
:1019A0006C3671B101210160FFF76AFD074604E062
:1019B000FFF766FDC01B022809D830688007F7D5FD
:1019C0000EE0C0F80090FFF75BFD074605E083E0FE
:1019D000FFF756FDC01B02287ED830688007F7D479
:1019E0002878400768D5DFF87CA100270AF1380A7B
:1019F000DAF80000C0000BD4DAF8001041F0805192
:101A0000CAF80010DAF80000012700F080500090BA
:101A1000584E3068C00510D4306840F48070306093
:101A2000FFF72EFD009005E0FFF72AFD0099401A10
:101A3000022851D83068C005F6D54A4EA8686836E5
:101A400001280FD00528306810D020F00100306048
:101A5000306820F004003060A868B8B1FFF710FDCE
:101A600000900FE0306840F00100F4E740F004001F
:101A70003060F7E7FFF704FD0099411A41F2883022
:101A8000814264D830688007F4D50EE0FFF7F8FC97
:101A9000009007E0FFF7F4FC0099411A41F288300A
:101AA000814254D830688007F4D42FB1DAF800109E
:101AB00021F08051CAF80010A869C0B3DBF800100B
:101AC000C1F3810102294AD00228484607D0C8F84C
:101AD0006000FFF7D5FC00E039E005463AE04746F4
:101AE000C8F86000FFF7CCFC064604E0FFF7C8FC2E
:101AF000801B02282BD820688001F7D4D5E9070184
:101B00000843A96A1C4A490802EB01416A6A41EA92
:101B10008211084395F82C1040EA01611148001F1A
:101B2000016001203866FFF7ABFC054605E014E0D4
:101B3000FFF7A6FC401B022809D820688001F7D5D2
:101B40000BE000BFFFF79CFC401B022802D90320DA
:101B5000BDE8F88F20688001F4D40020F8E7012068
:101B6000F6E7000008380240003802400000474213
:101B7000800E4742007000400000FFFF4FF0E02160
:101B80000428086903D020F004000861704740F081
:101B90000400FAE710B5401EB0F1807F01D30120A8
:101BA00010BD4FF0E02460610F21601701F078F95B
:101BB0000020A06107202061002010BD7047704701
:101BC00030B590F83820012A20D0012280F8382042
:101BD000022380F8393003685C6824F070045C608C
:101BE00003685C680D682C435C6003689C6824F0A3
:101BF00080049C6003689C6849680C439C6080F882
:101C00003920002180F83810084630BD022030BD50
:101C100010B5040003D094F8390010B107E001209A
:101C200010BD002084F83800204600F00CF8022097
:101C300084F83900211D206801F0C8FC012084F8D7
:101C40003900002010BD70470168CA6842F00102E7
:101C5000CA600068016841F001010160002070471E
:101C60002DE9F0410D46040003D094F8390018B175
:101C700008E00120BDE8F081002084F8380020460B
:101C800000F03AF8022084F839002068816821F0D9
:101C900007018160211D206801F098FC226890688E
:101CA0009169166A2B68AF69034340F203308143A0
:101CB00041EA0721A868EF6908434FF6FC418843D1
:101CC000E96840EA0720014328692F6A000140EAD9
:101CD0000730084369686D6926F0AA0646EA0515CB
:101CE000294393602268906120680162012084F892
:101CF00039000020BEE7000000B500680E4987B03B
:101D0000884216D10D480021026842F001020260AB
:101D1000006800F0010005904FF420600090022060
:101D2000CDE9010101200390049069460448FFF7C2
:101D3000C5FA07B000BD0000000001404438024071
:101D400000100240704710B504460068012201F0FF
:101D50009DFC2068016841F001010160002010BD78
:101D600070B50446006801694FF00005C943890752
:101D700015D4C168C943890711D4E91E0161012046
:101D80002076206880698007204602D0FFF7DAFFBE
:101D900004E000F0CDF8204600F06EF925762068CA
:101DA0000169C943490717D4C168C943490713D416
:101DB0006FF004010161022020762068806910F430
:101DC000407F204602D0FFF7BDFF04E000F0B0F8EE
:101DD000204600F051F9257620680169C9430907BA
:101DE00016D4C168C943090712D46FF00801016114
:101DF000042020762068C0698007204602D0FFF7C3
:101E0000A1FF04E000F094F8204600F035F92576B3
:101E100020680169C943C90617D4C168C943C90606
:101E200013D46FF010010161082020762068C0698A
:101E300010F4407F204602D0FFF784FF04E000F05A
:101E400077F8204600F018F9257620680169C94323
:101E5000C90708D1C168C943C90704D1891E0161F6
:101E6000204600F027F920680169C943090609D412
:101E7000C168C943090605D46FF08001016120469D
:101E8000FFF79CFE20680169C943490609D4C1686F
:101E9000C943490605D46FF040010161204600F0B6
:101EA00013F920680169C94389060BD4C168C94385
:101EB000890607D46FF0200101612046BDE870401B
:101EC000FFF77DBE70BD000030B5006813490024E7
:101ED000022585B0884210D1C0200090CDE9015480
:101EE00069460F48CDE90345FFF7E8F90320009064
:101EF000CDE9015469460B4809E00B4988420AD1F3
:101F00004FF470400090CDE9015408486946CDE98E
:101F10000345FFF7D3F905B030BD000000040040D1
:101F2000000002400004024000080040000C024093
:101F3000704770B5044690F838000D4601280DD062
:101F4000012684F83860022084F8390042B1042A5E
:101F500018D0082A2AD00C2A4DD139E0022070BDB1
:101F6000206801F09FFB2068816941F008018161D0
:101F70002068816921F004018161206881692A69F2
:101F8000114311E0206801F0B9FB2068816941F438
:101F9000006181612068816921F48061816120682C
:101FA00081692A6941EA0221816124E0206801F007
:101FB000D7FB2068C16941F00801C1612068C1698F
:101FC00021F00401C1612068C1692A69114311E04F
:101FD000206801F0F5FB2068C16941F40061C1612E
:101FE0002068C16921F48061C1612068C1692A69E2
:101FF00041EA0221C16184F83960002084F8380088
:1020000070BD10B5040003D094F8390010B107E09A
:10201000012010BD002084F83800204600F00CF8A4
:10202000022084F83900211D206801F0CFFA012038
:1020300084F83900002010BD08B50C4A01680C482E
:10204000914207D1016841F002010160006800F08F
:10205000020009E0074A914207D1016841F00401FA
:102060000160006800F00400009008BD000400401A
:1020700040380240000800407047000010B5044698
:102080000068012201F002FB08492068884202D062
:102090000749884203D1416C41F400414164206802
:1020A000016841F001010160002010BD0000014005
:1020B0000004014000680349884201D1FFF7E6B9F6
:1020C00070470000001000407047704770B502680C
:1020D00004461068D168536910F00F0F51D003F017
:1020E000010501F4907635435DD0C20705D0CA05DD
:1020F00003D5E26B42F00102E263420705D5DA073D
:1021000003D0E26B42F00202E263820705D5DA07F0
:1021100003D0E26B42F00402E263020705D5DA075E
:1021200003D0E26B42F00802E263E26B002A34D093
:10213000800604D5880602D5204601F010FC2068F0
:102140004069E16BC0F3801001F0080101432046B3
:1021500024D001F0EDFB2068416949061AD5416998
:1021600021F040014161606BA0B11B490165606BCA
:10217000FEF7FCFE002810D0606B016DBDE87040DA
:10218000084783060FD58B060DD52046BDE8704065
:1021900001F0E5BB2046FFF798FF70BDFFF795FF04
:1021A0000020E06370BD030606D50B0604D520466B
:1021B000BDE8704001F070BD4006F3D54806F1D58A
:1021C000D168204621F04001D160202184F83910E7
:1021D00000F0CEFA70BD00005938000870B5040058
:1021E00004D094F83900002510B106E0012070BD3C
:1021F00084F83850204600F023F8242084F8390071
:102200002068C16821F40051C160204601F0EEFB56
:102210002068016921F4904101612068416921F041
:102220002A0141612068C16841F40051C160E56341
:10223000202084F8390084F83A00002070BD0000A6
:102240002DE9F04F05460168AE48AD4A0024082349
:10225000DFF8B4E2061587B04FF002084FF0010A2C
:102260004FF00309914222D1016841F4002101603D
:102270000068CDF8008000F40020CDE90430CDF8EE
:102280000C90CDE9018A1C4669467046FFF716F8A6
:10229000CDE903948DE8400569469C48FFF70EF8A8
:1022A000002205213420FFF79BF9342023E0984ACF
:1022B000914225D1016841F48011016000681C46FB
:1022C00000F48010059090148DE80105CDE903938A
:1022D00069468E48FEF7F2FF04208DE80105CDE93E
:1022E000039469468B48FEF7E9FF0022052135205B
:1022F000FFF776F93520FFF767F907B0BDE8F08FF3
:10230000854A40274FF0070C4FF4003B91423AD1E9
:102310007C48001D016841F01001016000686946B9
:1023200000F0100005904FF4C0608DE80105CDE984
:10233000039C7046FEF7C2FFDFF8E4817749404610
:10234000C8F80010C0E903467905C8F81440C0E990
:102350000117C914C8F820B0C8E90641C8F82440DC
:10236000FEF7E6FE20B140F29B116EA001F0DFFC0B
:10237000C5F83080002205212520C8F83850FFF725
:102380002FF92520B7E76C4A91423AD1016841F410
:10239000003101600068694600F4003005900C20AF
:1023A0008DE80105CDE9039C7046FEF787FFDFF855
:1023B0007081624908F160084046C8F80010C0E921
:1023C00003464FF00061C8F81440C0E90117C91472
:1023D000C8F820B0C8E90641C8F82440FEF7A8FEB6
:1023E00020B14FF4E4714FA001F0A1FCC5F830809A
:1023F000002205212620C8F83850FFF7F1F82620E2
:1024000079E74F4A91423CD1016841F48021016053
:102410000068694600F4802005904FF440608DE824
:102420000105CDE9039C4748FEF748FFDFF8F0803F
:10243000424908F1C00848394046C8F80010C0E9D0
:1024400003464FF00061C8F81440C0E90117C914F1
:10245000C8F820B0C8E90641C8F82440FEF768FE75
:1024600020B140F2F5112FA001F061FCC5F83080D9
:10247000002205212720C8F83850FFF7B1F827209F
:1024800039E7314881427FF438AF1E48001D0168AA
:1024900041F0200101600068694600F020000590CD
:1024A000C0208DE80105CDE903931848FEF706FF2B
:1024B0001A49DFF8988018394046C8F80010C0E97A
:1024C0000346C8F814404FF02061C8F81840C0E92E
:1024D0000117C8E9074BC8F82440FEF729FE20B1D0
:1024E00040F222210FA001F022FCC5F8308000222A
:1024F00005214720C8F83850FFF772F84720FAE660
:10250000004C0040403802400000024000080240F9
:1025100000500040000C024000100140B86402402E
:10252000BC3000202E2E2F436F72652F5372632F05
:1025300075736172742E630000440040A060024015
:10254000004800400004024000140140DC3100203B
:10255000F8B5044690F83A0020283CD1C1B3BAB38C
:1025600094F83800012836D0012084F83800A162A0
:10257000A2850025E563222084F83A00636B1748A2
:10258000D863636B16481864636B1648D864606B35
:10259000134605650846666B216802463046091DEC
:1025A000FEF730FE206801684168009184F83850D9
:1025B000C16841F48071C1602068416941F0010146
:1025C00041612068416941F0400141610020F8BD4E
:1025D000FFE70120FBE70220F9E70000B33800081D
:1025E000EF3800086938000890F83A30202B1DD1E8
:1025F000D1B1CAB190F83830012B17D081628285F1
:10260000C2850021C163222280F83A2080F8381068
:1026100001684A6942F001024A610068C16841F4F8
:102620009071C16000207047012070470220704700
:1026300010B5244A0168914209D102222249234857
:10264000FFF786FFBDE810401F4802F0D7BA204AC6
:1026500091420BD11C490222891C1E48FFF778FFCA
:102660001948BDE81040801C02F0E0BA1A4A9142B5
:102670000BD115490222091D1848FFF769FF1248BE
:10268000BDE81040001D02F0E9BA154A914206D19A
:102690000D490122BDE81040891EFFF7A5BF114A70
:1026A00091420ED0104A91420BD107490122491E96
:1026B000FFF79AFF0448801E4078BDE8104002F002
:1026C0003BBE10BD001001407A000020BC2F00204E
:1026D00000440040FC2F0020004800403C30002017
:1026E000004C0040005000400014014070470000C2
:1026F00070B5044690F83900202830D169B362B330
:1027000094F8380001282AD0012084F8380021628A
:10271000A284E2840025E563212084F83900236B3C
:102720001048D863236B10481864236B0F48D86493
:10273000206B134605652668206B321DFEF762FD8F
:1027400021686FF04000086084F8385020684169C3
:1027500041F080014161002070BD012070BD022068
:1027600070BD0000F93800082739000869380008F2
:1027700000680649884205D00549884202D00549CB
:10278000884201D100F00EBE7047000000100140E9
:1027900000440040004800407047FEE770B501006B
:1027A0001048114E4FF4005505D0012914D00229CC
:1027B00015D0032909D0012220210446FEF75AFE34
:1027C000012240212046FEF755FE012229463046CF
:1027D000BDE87040FEF74EBE01222021F8E701223D
:1027E0004021F5E7001002400008024070B50100EA
:1027F0001048114E4FF4005505D0012914D002297C
:1028000015D0032909D0002220210446FEF732FE0C
:10281000002240212046FEF72DFE002229463046A8
:10282000BDE87040FEF726BE00222021F8E7002216
:102830004021F5E7001002400008024070B5010099
:102840000E480F4E4FF4005505D0012911D0022932
:1028500011D0032907D020210446FEF707FE4021AE
:102860002046FEF703FE29463046BDE87040FEF7DD
:10287000FDBD2021F9E74021F7E7000000100240EC
:1028800000080240194808B5016841F400110160D0
:10289000016801F400110091016841F480010160B8
:1028A0000068002200F48000009005210E20FEF751
:1028B00097FE0E20FEF788FE002205211120FEF76C
:1028C0008FFE1120FEF780FE002205214520FEF735
:1028D00087FE4520FEF778FE002205214620FEF700
:1028E0007FFEBDE808404620FEF76EBE303802404D
:1028F00010B58AB014220B496846FDF7F0FC0021A0
:10290000684602F00AFA084C064914222060143185
:1029100005A8FDF7E4FC002105A802F0FEF96060BF
:102920000AB010BD545A0008000000202DE9F04FF5
:102930005A4887B00024016841F010010160016825
:1029400001F010010591016841F004010160016886
:1029500001F004010591016841F080010160016806
:1029600001F080010591016841F0010101600168F9
:1029700001F001010591016841F002010160016867
:1029800001F002010591016841F008010160006851
:10299000002200F00800059060214148FEF76AFD22
:1029A000DFF800914FF40057002239464846FEF701
:1029B00061FDDFF8F4A001224FF441715046FEF7AB
:1029C00059FD012280213648FEF754FDDFF8DCB0C6
:1029D0004FF44076002231465846FEF74BFD4FF447
:1029E0004068012241465846FEF744FD0125E0209B
:1029F000CDE90005CDE9025469462948FEF75EFCA1
:102A00000097CDE90154694648460394FEF756FC09
:102A1000CDE90054694626480294FEF74FFC042095
:102A2000022703948DE8A10069465046FEF746FC54
:102A3000CDE90274CDE9006569465846FEF73EFCD3
:102A4000CDF80080CDE90154694658460394FEF75D
:102A500035FC0096CDE90154694650460394FEF7D3
:102A60002DFC032000901348CDE9010569460C4870
:102A7000FEF724FC002205210620FEF7B1FD06200A
:102A8000FEF7A2FD002205210720FEF7A9FD072081
:102A9000FEF79AFD07B0BDE8F08F00003038024025
:102AA000001002400008024000040240000C0240F6
:102AB000000002400000111010B518488CB01649F3
:102AC000016001210024C0E9011441F28832C0E90B
:102AD00003244461CDE9001403200291CDE90340B1
:102AE000CDE90541079469460C480894FFF7B8F80A
:102AF00018B156210AA001F01AF9099409A907484A
:102B00000A94FFF75DF8002803D05D2104A001F0CE
:102B10000EF90CB010BD000000000140882E00200E
:102B20002E2E2F436F72652F5372632F74696D2E93
:102B30006300000010B528488AB026490160A7212B
:102B40000024C0E901146421C0E90314FFF759FA15
:102B500018B16E2121A001F0EAF8079407A91E48D8
:102B60000894FFF72DF818B175211CA001F0DFF8CB
:102B70006020CDE9000402940022694616480494BE
:102B8000FFF7D7F918B17E2114A001F0D0F8042284
:102B900069461148FFF7CDF918B183210FA001F064
:102BA000C6F8082269460C48FFF7C3F918B1882116
:102BB0000AA001F0BCF80C2269460748FFF7B9F9F2
:102BC00018B18D2105A001F0B2F80348FFF77CF998
:102BD0000AB010BD00040040C42E00202E2E2F434A
:102BE0006F72652F5372632F74696D2E630000003E
:102BF00010B529488AB02749016053210024C0E953
:102C0000011440F2E731C0E90314FFF7FAF918B1F3
:102C1000A02122A001F08BF8079407A91E48089470
:102C2000FEF7CEFF18B1A7211CA001F080F86020AC
:102C3000CDE9000402940022694617480494FFF786
:102C400078F918B1B02115A001F071F80422694695
:102C50001148FFF76EF918B1B52110A001F067F81F
:102C6000082269460C48FFF764F918B1BA210BA095
:102C700001F05DF80C2269460748FFF75AF918B1D0
:102C8000BF2106A001F053F80348FFF71DF90AB071
:102C900010BD000000080040002F00202E2E2F4302
:102CA0006F72652F5372632F74696D2E630000007D
:102CB0000D4810B50B4901604FF4E131416000212E
:102CC00081600C22C160C0E904128161C161FFF71B
:102CD00085FA002805D0BDE81040D12103A001F0FD
:102CE00026B810BD004C00403C2F00202E2E2F4354
:102CF0006F72652F5372632F75736172742E630048
:102D00000D4810B50B4901604FF4E13141600021DD
:102D100081600C22C160C0E904128161C161FFF7CA
:102D20005DFA002805D0BDE81040E32103A000F0C3
:102D3000FEBF10BD005000407C2F00202E2E2F43E0
:102D40006F72652F5372632F75736172742E6300F7
:102D50000D4810B50B4901604FF416514160002138
:102D600081600C22C160C0E904128161C161FFF77A
:102D700035FA002805D0BDE81040F62103A000F088
:102D8000D6BF10BD00100140BC2F00202E2E2F43B7
:102D90006F72652F5372632F75736172742E6300A7
:102DA0000E4810B50C4901604FF4165141600021E6
:102DB00081600C22C160C0E904128161C161FFF72A
:102DC0000DFA002806D0BDE8104040F2091104A019
:102DD00000F0ADBF10BD000000440040FC2F0020FB
:102DE0002E2E2F436F72652F5372632F757361728E
:102DF000742E63000E4810B50C4901604FF4165153
:102E00004160002181600C22C160C0E9041281612F
:102E1000C161FFF7E3F9002806D0BDE810404FF488
:102E20008E7104A000F083BF10BD00000048004078
:102E30003C3000202E2E2F436F72652F5372632F6C
:102E400075736172742E63000E4810B50C490160F1
:102E50004FF416514160002181600C22C160C0E92D
:102E600004128161C161FFF7B9F9002806D0BDE8FD
:102E7000104040F22F1104A000F059BF10BD000017
:102E8000001401407C3000202E2E2F436F72652FDE
:102E90005372632F75736172742E6300FEE770477F
:102EA0000907090E002806DA00F00F0000F1E02003
:102EB00080F8141D704700F1E02080F8001470477E
:102EC00010B52DED068BB0EE609AF0EE618A71EED2
:102ED000400ADFED211A31EE000A20EEA18AF6EE5B
:102EE000000A20EE200ADFED1D0A20EE200A10EE77
:102EF000100AFDF79FFB41EC100B01F0A1F9B0EEB9
:102F000040AA38EEC90AF0EE60AA10EE100AFDF7EA
:102F100091FB53EC1A2BFDF79BFA9FED111B53EC21
:102F2000112BFDF795FAFDF798FB68EE080A00EE05
:102F3000100A40EE000A10EE900AFDF77BFB41EC10
:102F4000100B01F0E1F951EC100BFDF786FBBDEC25
:102F5000068B00EE100A10BD00B1D84735FA8E3C42
:102F600000000000602DFB4010B52DED068B31EE0A
:102F7000409A31EE000AF0EE608AF6EE000AB0EEFA
:102F8000618A20EE200ADFED260A20EE200A10EEEC
:102F9000100AFDF74FFB41EC100B01F051F9B0EEB8
:102FA00040AA38EE680AF0EE60AA10EE100AFDF7AB
:102FB00041FB53EC1A2BFDF74BFAFDF74EFBFDF7E7
:102FC00039FB41EC180BB1EE490A10EE100AFDF77F
:102FD00031FB41EC100BB0EE481AF0EE681A01F02C
:102FE00037F89FED101B51EC100B53EC112BFDF734
:102FF0002FFA9FED0E1B53EC112BFDF782F9FDF715
:103000002CFB00EE100AB5EEC00AF1EE10FA03D266
:10301000DFED080A30EE200ABDEC068B10BD000083
:1030200035FA8E3C00000020DCA54C40000000007A
:10303000008056400000B4432DE9F0410446454D60
:1030400014F8061F61F30700617861F30F20A1787F
:1030500061F31740E17861F31F602860217961F323
:103060000700617961F30F20A17961F31740E179DD
:1030700061F31F6007466860FDF7CBFA9FED361BD2
:1030800053EC112BFDF7E4F9FDF7E7FA344EB0618C
:10309000217A384661F30700617A61F30F20A17A43
:1030A00061F31740E17A61F31F600746A860FDF7FE
:1030B000B0FA9FED291B53EC112BFDF7C9F9FDF771
:1030C000CCFAF061207B60F30707607B60F30F2789
:1030D000A07B60F31747E07B60F31F673846EF6023
:1030E000FDF797FA9FED1F1B53EC112BFDF7B0F97D
:1030F000FDF7B3FA3062207C60F30707607C60F371
:103100000F27A07C60F31747E07C60F31F6700EE99
:10311000107A2F61B8EEC00A86ED090A207D60F3AF
:103120000707607D60F30F27A07D60F31747E07D00
:1031300060F31F676F61207E60F30707607E60F3B6
:103140000F27A07E60F31747E07E60F31F67AF6133
:10315000BDE8F081A871002048AFBC9AF2D77A3E52
:1031600080000020FCA9F1D24D62503F827962F3C9
:103170000701C27962F30F21027A62F31741427AA2
:1031800062F31F61144A1160837A5360C37A9360BB
:10319000037BD360437B1361827B62F30701C27BB5
:1031A00062F30F21027C62F31741427C62F31F61DC
:1031B000094A243A5161827C62F30701C27C62F3BE
:1031C0000F21027D407D62F3174160F31F610248C9
:1031D00024388161704700008C7100202DE9F04196
:1031E00004462DED028B14F8061F584E61F30700BC
:1031F0006178574F61F30F20A17861F31740E178B0
:1032000061F31F6030607861217961F307006179B3
:1032100061F30F20A17961F31740E17961F31F6039
:1032200000EE100AB8EEC00ADFED4A0A20EE200ACE
:10323000BDEEC00A86ED010AB8EEC00A87ED010AAC
:10324000217A61F30700617A61F30F20A17A61F3BB
:103250001740E17A61F31F600546B060FDF7D9F9C8
:103260009FED3D8B53EC182BFDF7F2F8FDF7F5F9C8
:10327000B860207B617B60F30705284661F30F206F
:10328000A17B61F31740E17B61F31F600546F060AD
:10329000FDF7BFF953EC182BFDF7DAF8FDF7DDF970
:1032A000F860207C60F30705607C60F30F25A07C4C
:1032B00060F31745E07C60F31F653561207D60F3A6
:1032C0000705607D60F30F25A07D60F31745E07D65
:1032D00060F31F657561207E60F30705607E60F313
:1032E0000F25A07E60F31745E07E60F31F6528463A
:1032F000B561FDF78EF99FED1A1B53EC112BFDF70D
:10330000A7F8FDF7AAF93861207F60F30705607F11
:1033100060F30F25A07F60F31745E07F60F31F6522
:10332000F56194F8200060F3070594F8210060F33C
:103330000F2594F8220060F3174594F8230060F3FA
:103340001F653562BDEC028BBDE8F081687100201D
:10335000800000200AD7233C7B14AE47E17A843FEB
:10336000F168E388B5F8E43E10B50C4600230A493D
:1033700003E0C25CCA545B1C9BB2A342F9D3224651
:1033800005490648FFF7B4F92246BDE81040024956
:103390000348FFF7ADB90000686F0020BC2F002084
:1033A0007C30002008B555208DF8000001216846CA
:1033B000FFF7DAFF08BDFA2001F099FC0020FFF7C3
:1033C0003DFAFA2001F093FCFA2001F090FCFA207B
:1033D00001F08DFC01F0B8FCEDE700002DED028B53
:1033E00000212A48FEF7AFFC04212848FEF7ABFC79
:1033F00008212648FEF7A7FC0C212448FEF7A3FC71
:1034000000212348FEF73AFE04212148FEF736FE4C
:1034100008211F48FEF732FE0C211D48FEF72EFE44
:1034200000211C48FEF72AFE04211A48FEF726FE5A
:1034300008211848FEF722FE0C211648FEF71EFE52
:103440001548FFF7F5F81448FFF792F91348FFF70E
:10345000EFF81248FFF78CF91148FFF7E9F8104828
:10346000FFF786F94FF41650FDF758FD01F098FE6E
:103470000C4C9FED0D8A142001F039FCB0EE480A87
:103480002069FDF78BFC01F05FFCF4E7882E00203B
:10349000C42E0020002F0020BC2F0020FC2F002075
:1034A0003C300020C80000200AD7A33C01F02BBC10
:1034B00030B5274893B00025016841F08051016084
:1034C000006800F0805011902248016841F480416A
:1034D00001600068022400F48040119001200090F7
:1034E000000401908001CDE9064004200890A82046
:1034F000CDE9090407200B906846FEF7B1F908B141
:10350000B0210FE00CA90F2081E831004FF4A0504A
:103510000F904FF48050109005210CA8FEF792F800
:1035200018B1BE210CA000F002FCFEF743F94FF4E5
:103530007A71B0FBF1F0FEF72DFB0420FEF71EFBC5
:1035400000220F21501EFEF74BF813B030BD0000D3
:1035500040380240007000402E2E2F436F72652FBE
:103560005372632F6D61696E2E630000104801680D
:1035700041F4700101600F48016841F001010160F0
:103580000C4A00210832116002680B4B1A4002609D
:10359000031D0A4A1A60026822F48022026005486C
:1035A0000C300160024958068039086070470000FD
:1035B00088ED00E000380240FFFFF6FE10300024E6
:1035C0000148FEF7CDBB00003C320020F0B5026898
:1035D000234B244D244E254F254C4FF0804C9842D0
:1035E00009D0604507D0A84205D0B04203D0B84208
:1035F00001D0A04204D122F0700E4A6842EA0E02C5
:1036000098421BD0604519D0A84217D0B04215D0BF
:10361000B84213D0A04211D0164DA8420ED0164D7C
:10362000A8420BD0154DA84208D0154DA84205D090
:10363000144DA84202D0144DA84203D122F4407583
:10364000CA682A4302608A68C2620A688262984233
:1036500001D0A04201D10969016301214161F0BD9E
:10366000000001400004004000080040000C004041
:103670000004014000400140004401400048014076
:1036800000180040001C00400020004010B501233D
:10369000046A8B409C430462036A8A4013430362BA
:1036A00010BD000030B5026A22F001020262026A17
:1036B000436884690D6824F07304254322F00204F2
:1036C0008A6822430B4CA04202D00B4CA0420BD183
:1036D00022F00804CA6823F4407322434C6922F0A4
:1036E00004021C438B69234343608561496841633D
:1036F000026230BD000001400004014030B5026AA2
:1037000022F010020262026A436884690D6824F4A0
:10371000E64444EA05248D6822F0200242EA0512BC
:103720000D4DA84202D00D4DA8420ED1CD6822F019
:10373000800242EA05124D6923F4406343EA85039F
:103740008D6922F0400243EA850343608461496841
:103750008163026230BD00000000014000040140AE
:1037600030B5026A22F480720262036A4268C46958
:1037700023F4007324F073050C682C438D6843EA2E
:1037800005230D4DA84202D00C4DA8420ED1CD68A4
:1037900023F4006343EA05234D6922F4405242EAD0
:1037A00005128D6923F4806342EA05124260C46108
:1037B0004968C163036230BD00000140000401405C
:1037C00030B5026A22F480520262046A4268C36918
:1037D0000D6823F4E64343EA05238D6824F400547E
:1037E00044EA0534084DA84202D0084DA84204D14D
:1037F0004D6922F4804242EA85124260C361496801
:103800000164046230BD000000000140000401407A
:1038100010EE100A0749DFED080A884202DD30EE9B
:10382000600A704710EE100A04498842F9D930EE58
:10383000200A7047000034430000B443000034C342
:103840000148FEF743BC00003C2F00200148FEF772
:103850003DBC00007C2F002010B5806B0021C1858D
:10386000C184FEF732FC10BD70B5846B20684069DE
:1038700094F83910C0F3C0100025212904D118B1E3
:10388000E584204600F062F82068406994F83A1018
:10389000C0F38010222904D118B1E585204600F03C
:1038A00047F8E06B40F01000E0632046FEF70DFCA7
:1038B00070BD10B50146806B09680968C90513D44D
:1038C0000021C1850168CA6822F48072CA6001685B
:1038D0004A6922F001024A6101684A6922F0400205
:1038E0004A61202180F83A10FEF7A2FE10BD10B503
:1038F000806BFEF7FBFE10BD10B50146806B0968BA
:103900000968C9050CD40021C18401684A6922F004
:1039100080024A610068C16841F04001C16010BD89
:10392000FEF726FF10BD10B5806BFEF735FF10BD0A
:103930000168CA6822F49072CA6001684A6922F07C
:1039400001024A61202180F83A1070470168CA6874
:1039500022F0C002CA60202180F83910704710B5EB
:1039600090F83A10222901D0022010BD8168B1F5EB
:10397000805F11D00169002901681FD0496801F0FA
:103980007F03816A4A1C82620B70C18D491E090443
:10399000090CC18518D026E00269816A002A0268F4
:1039A000526805D0D2B20A80816A491C8162ECE774
:1039B000C2F308020A80816A891CF7E74A68816AB3
:1039C0004B1C83620A70E0E70168CA6822F49072B7
:1039D000CA6001684A6922F001024A61202180F828
:1039E0003A10FEF725FE002010BD00002DE9F04141
:1039F00004460068016921F44052E1681143016105
:103A00002168C86849F20C6290432369A268E5699D
:103A10001A4363692B431A430243CA602168486909
:103A200020F44072A06910434861E1696425B1F552
:103A3000004F9748974A21684FF032083FD0914293
:103A400001D081427CD1FDF7CBFE00EBC00101EB40
:103A5000001061688900B0FBF1F6FDF7C1FE00EBD4
:103A6000C00101EB001061688900B0FBF1F0B0FB10
:103A7000F5F06FF01801484306EB800108EB0110E8
:103A8000B0FBF5F000F0F006FDF7AAFE00EBC00178
:103A900001EB001061688900B0FBF1F0B0FBF5F0BC
:103AA00006EB0016FDF79CFE00EBC00101EB0010D9
:103AB00061688900B0FBF1F7FDF792FED2E0914218
:103AC00001D081423DD1FDF78BFE00EBC00101EB3F
:103AD000001061684900B0FBF1F0B0FBF5F00601A1
:103AE000FDF77EFE00EBC00101EB001061684900AC
:103AF000B0FBF1F7FDF774FE00EBC00101EB001025
:103B000061684900B0FBF1F0B0FBF5F06FF018010F
:103B1000484307EB800108EBC100B0FBF5F000F073
:103B2000F80006EB4006FDF75BFE00EBC00101EB81
:103B3000001061684900B0FBF1F7FDF751FE3CE071
:103B400055E0FDF73DFE00EBC00101EB00106168A0
:103B50004900B0FBF1F0B0FBF5F00601FDF730FED7
:103B600000EBC00101EB001061684900B0FBF1F708
:103B7000FDF726FE00EBC00101EB00106168490073
:103B8000B0FBF1F0B0FBF5F06FF01801484307EB24
:103B9000800108EBC100B0FBF5F000F0F80006EB87
:103BA0004006FDF70DFE00EBC00101EB001061685F
:103BB0004900B0FBF1F7FDF703FE00EBC00101EB9C
:103BC000001061684900B0FBF1F0B0FBF5F06FF058
:103BD0001801484307EB800108EBC100B0FBF5F08A
:103BE00000F00700216830448860BDE8F081FDF7EF
:103BF000E7FD00EBC00101EB001061688900B0FB3C
:103C0000F1F6FDF7DDFD00EBC00101EB001061688E
:103C10008900B0FBF1F0B0FBF5F06FF018014843FC
:103C200006EB800108EB0110B0FBF5F000F0F006A8
:103C3000FDF7C6FD00EBC00101EB001061688900D3
:103C4000B0FBF1F0B0FBF5F006EB0016FDF7B8FDA8
:103C500000EBC00101EB001061688900B0FBF1F7D7
:103C6000FDF7AEFD00EBC00101EB001061688900BB
:103C7000B0FBF1F0B0FBF5F06FF01801484307EB33
:103C8000800108EB0110B0FBF5F000F00F00A9E790
:103C9000001401400010014090F83910212901D092
:103CA000022070478168B1F5805F016A0BD04A1C21
:103CB0000262026809785160C18C491E0904090C2E
:103CC000C1840ED017E009880268C1F30801516071
:103CD00001690029016A02D0491C0162ECE7891CD4
:103CE000FBE70168CA6822F08002CA600068C16808
:103CF00041F04001C1600020704700000148FEF71C
:103D0000E5B90000BC2F00200148FEF7DFB9000034
:103D1000FC2F00200148FEF7D9B900003C300020FC
:103D20000148FEF7D3B900007C300020FEE70120F7
:103D3000FEF734FD0220FEF759FD0320FEF72EFDAD
:103D4000F5E703B401984100009850EAC12018BF7C
:103D500004204A0D18BF40F0010040F2FF72B2EBA0
:103D6000515F08BF40F00200012808BF052002B0E3
:103D7000704700000000000070B59B482DED020B5D
:103D80002DED068B079D25F00044A04218DC9748D6
:103D9000844202DC0AD1069840B19DED060BBDECD1
:103DA000068B02B0BDE8704000F0D6BE002DCCBF3F
:103DB0009FED8F0B9FED900BBDEC068B02B070BD9D
:103DC0008F48A04215DD8F48A042D8BF4FF0FF3486
:103DD00058DD9DED060B51EC100BFFF7B2FF0428E8
:103DE00008BF00F0DDFE9DED060BBDEC068B02B0BA
:103DF00070BD9DED060B51EC100B00F047FFCDE9B7
:103E0000060181489FED828BA0423CDD8248A042A2
:103E10001FDD00249FED82AB9DED060B53EC1A2BAA
:103E200051EC100BFCF76DFA9DED060B41EC190BF4
:103E300053EC1A2B51EC100BFCF70AFB53EC182B2C
:103E4000FCF700FB53EC192BFCF774FBCDE90601E2
:103E500049E09DED060B012453EC182B51EC100B9F
:103E6000FCF74FFA9DED060B41EC190B53EC182BA8
:103E700051EC100BFCF7E6FA53EC192BFCF75AFB4C
:103E8000CDE906012FE06848A0421FDD02249FED26
:103E9000689B9DED060B53EC192B51EC100BFCF7B6
:103EA000D7FA53EC182BFCF72CFA9DED060B41ECDE
:103EB000180B53EC192B51EC100BFCF7C3FA53EC15
:103EC000182BFCF737FBCDE906010CE09DED060B46
:103ED000032453EC102B9FED580B51EC100BFCF707
:103EE00029FBCDE906019DED060B53EC102B51EC9F
:103EF000100BFCF7ADFA41EC180B53EC182BFCF748
:103F0000A7FA41EC190B4E480621B0EE490AF0EE33
:103F1000690A784400F00CFD53EC182B51EC100B9F
:103F2000FCF796FA41EC180B4648B0EE490AF0EE61
:103F3000690A0521784400F0FBFC53EC192B51EC85
:103F4000100BFCF785FA41EC100B51EC180B53ECFD
:103F5000102B002C0EDAFCF7D4F99DED061B53EC68
:103F6000112BFCF775FA9DED061B53EC112BFCF79A
:103F70006CFA35E0FCF7C5F99DED061B53EC112BEF
:103F8000FCF766FA41EC100B2F48784400EBC400B4
:103F900090ED001B51EC100B53EC112BFCF752FA77
:103FA0009DED061B53EC112BFCF74CFA41EC100B6A
:103FB0002648784400EBC40090ED001B51EC100B38
:103FC00053EC112BFCF741FA41EC100B002DA2BF72
:103FD000BDEC068B02B070BD51EC100B81F00041BE
:103FE00041EC100B01E70000000010440000F07FDE
:103FF000182D4454FB21F93F182D4454FB21F9BFDF
:104000000000DC3F0000203E0000F33F0000000005
:10401000000000000000F03F0000E63F000000004C
:10402000000000000000004000800340000000008D
:10403000000000000000F83F000000000000F0BF9A
:10404000F21B0000A81B0000321B0000EA1A00004F
:1040500070B56B4E2DED040B2DED028B82B0DDF8AB
:104060001CC0DDE905235C422CF000411C4341EA01
:10407000D474049D22F00040B44205D86C422C4315
:1040800040EAD474B4420BD99DED061B9DED040BA0
:1040900002B0BDEC028B04B0BDE8704000F066BD1C
:1040A000ACF14054A4F17F641C430BD0022404EA19
:1040B000AC7444EAD27405439FED538B9FED542BAF
:1040C00007D015E09DED040B51EC100B00F08EFDB8
:1040D00042E0002C11BF012C9DED040B02B0BDECA1
:1040E000028B04BF04B070BD022C38D0032C3BD02F
:1040F0000B439FED491B9FED4A0B0AD0B14218D1EB
:10410000B04209D121F0804120F080400791059014
:104110000FE0002A15DA10E0434B7B44002C08BF67
:1041200093ED000B0DD0012C10D0022C17D0032CD6
:104130001AD0B0421DD1002A03DAB0EE410AF0EEE7
:10414000610A02B0BDEC028B04B070BD93ED000BB0
:1041500051EC100B81F0004141EC100BF1E7B0EE97
:10416000480AF0EE680AECE7B0EE420AF0EE620AA6
:10417000E7E7401A00153C28C8BF8DED000B19DC9D
:10418000BCF1000FBEBF10F13C0F9FED290B8DED70
:10419000000B0FDB9DED060B53EC102B9DED040B7C
:1041A00051EC100BFCF7C6F900F070FD00F01EFD9D
:1041B000CDE90001002C08BF9DED000BC1D0012C02
:1041C00010D0022C9FED1C0B53EC102B9DED000B1F
:1041D00051EC100B0DD0FCF735F953EC182BFCF714
:1041E00031F9B9E7019880F0004001909DED000B96
:1041F000A7E7FCF727F953EC182BFCF726F9ABE7F8
:104200000000F07F00000000182D4454FB210940FD
:10421000182D4454FB2109C0182D4454FB21F9BF2B
:10422000182D4454FB21F93F4A1A000000000000F9
:104230000000000000000000075C143326A6A13C2B
:1042400010B52F499FED2C1B2DED020B84B0059866
:1042500020F000408842D8BF9DED040B2DDD294998
:10426000884209D1049840B94FF0010000F0B8FC31
:1042700000F086FC06B010BD05DB9DED040B00F0E0
:104280006BFC06B010BD68469DED040B00F07CF899
:1042900010F0030004BF9DED021B9DED000B0CD040
:1042A00001280ED09DED021B9DED000B022817D0BA
:1042B000012000F0B9FB06B010BD00F081FA06B095
:1042C00010BD9DED021B9DED000B012000F0ACFB2D
:1042D00051EC100B81F0004106B041EC100B10BD09
:1042E00000F06EFA51EC100B81F0004106B041EC89
:1042F000100B10BD000000000000000000000000D6
:10430000FB21E93F0000F07F00B52DED048BB0EEFE
:10431000409AF0EE609A83B051EC190BFCF77EFAEC
:1043200041EC180B18EE100A18EE901A8DED008B68
:10433000002818BF0120084320F00040C0F17F6032
:1043400000F1E040C00F14D019EE101A19EE900AD7
:104350008DED009B002918BF0121084320F000408B
:10436000C0F17F6000F1E040C00F04BF012000F009
:1043700037FCB0EE480A03B0F0EE680ABDEC048BDF
:1043800000BD0000000000002DE9F14F04462DEDB6
:10439000020B2DED088B8AB09FEDE70B80ED020B31
:1043A000139EE74826F0004585420ADC9DED120B7E
:1043B000002084ED000B0AB0BDEC088B03B0BDE813
:1043C000F08FE0489FEDE0AB9FEDE1BBA84247DDF9
:1043D000E14F9FEDE39B9FEDE48B9DED120B53ECC2
:1043E0001A2B51EC100B002E1CDDFCF72BF841ECC6
:1043F000100BBD4208D053EC1B2B51EC100BFCF7FB
:1044000021F8C4E900010BE053EC192B51EC100B1F
:10441000FCF718F853EC182BFCF714F8C4E900016A
:104420000120C8E7FBF76DFF41EC100BBD4208D03F
:1044300053EC1B2B51EC100BFBF763FFC4E900019D
:104440000BE053EC192B51EC100BFBF75AFF53EC1C
:10445000182BFBF756FFC4E900014FF0FF30AAE725
:10446000C348A84279DB9DED120B51EC100B00F014
:104470000DFC41EC180B9FEDC00B53EC102BFBF720
:10448000E7FF9FEDBF1B53EC112BFBF73AFFFCF747
:1044900036FA0746FCF7BDF841EC190B53EC1A2B22
:1044A000FBF7D6FF53EC182BFBF7CFFF41EC180BB3
:1044B00053EC1B2B51EC190BFBF7CAFFDFF8C8A21A
:1044C00041EC100B4FEA15580125FA4453EC102B20
:1044D00051EC180BFBF7B6FF032DC4E900013DD0EA
:1044E000C1F30A5005EB4511A8EB000011398142D8
:1044F00034DA0AEB051BB0EE48AA9BED000BF0EE98
:1045000068AA53EC102B51EC190BFBF7A1FF41ECFF
:104510001B0B51EC1A0B53EC1B2BFBF793FF41ECDD
:10452000180B51EC1A0B53EC182BFBF78BFF53ECC9
:104530001B2BFBF787FF9BED020B41EC1A0B53EC97
:10454000102B51EC190BFBF783FF53EC1A2BFBF7E5
:1045500079FF41EC100B6D1CB8E70EE0002EA8BFF0
:104560003846BFF628AF94ED000B51EC100B81F0EC
:104570000041C4E9000178421DE7C6F3130040F48E
:10458000801EC6F30A50A0F2F530471100F01F0557
:10459000C5F12000DDF848B0089000200690079093
:1045A0000520EC467949002D07EB0002794408BF4D
:1045B00051F8221009D051F8223001EB8201AB40B2
:1045C0004A68089922FA01F11943A1FB0E26A1FBC2
:1045D0000B131A449A4234BF0123002303EB06084D
:1045E0000CEB8003D3E901A60E448E4234BF0121B7
:1045F000002192448A4411B1924502D903E09245C8
:1046000001D2012100E00021C3E901A641444CF898
:104610002010011EA0F10100C4DC029800F100503E
:10462000850F0298DDE903678000DDF81480FBF751
:10463000F0FF41EC1A0B3046FCF754F99FED541B88
:1046400053EC112BFBF704FF41EC1B0B3846FCF736
:1046500049F99FED511B53EC112BFBF7F9FE41EC8F
:10466000180B4046FCF73EF99FED4D1B53EC112B08
:10467000FBF7EEFE41EC190B51EC180B53EC192B28
:10468000FBF73FFE53EC1B2BFBF73BFE53EC1A2BC7
:10469000FBF737FECDE90801002008909DED080BDF
:1046A00053EC1A2B51EC100BFBF7CCFE53EC1B2BED
:1046B000FBF7C8FE53EC182BFBF7C4FE53EC192B89
:1046C000FBF7C3FE9FED381B53EC112BFBF7C0FE2D
:1046D0009FED370B41EC180B53EC102B9DED080BA5
:1046E00051EC100BFBF7B4FE53EC182BFBF709FE53
:1046F0009FED310B41EC180B53EC102B9DED080B8B
:1047000051EC100BFBF7A4FE53EC182BFBF7F9FD53
:1047100041EC100B139810F0004F06D06D4251EC95
:10472000100B81F0004141EC100B284684ED000B8A
:1047300041E6000000000000000000000000000052
:10474000FB21E93F7CD9024000004054FB21F93FA6
:104750003163621A61B4D03DFB21F93F00000000D3
:104760000000601A61B4D03D7370032E8A19A33B18
:10477000FB2139410000000083C8C96D305FE43F70
:10478000000000000000E03FA2160000F01500004D
:10479000000000000000103E000000000000103C7F
:1047A000000000000000103A182D4454FB21F93D90
:1047B0003326A611460B113C00000054FB21F93DA5
:1047C00010B52DED040B2DED088B82B0B0EE419AA3
:1047D000F0EE619A0B9820F000449FED4BABB4F1E2
:1047E000795F11DA9DED0A0B51EC100BFCF787F89D
:1047F000002801BFB0EE4A0AF0EE6A0A02B0BDEC32
:10480000088B04BF04B010BD9DED0A0B53EC102BB8
:1048100051EC100BFBF71CFE41EC180B3C48062139
:10482000B0EE480AF0EE680A784400F081F853ECE4
:10483000182B51EC100BFBF70BFE9DED0A0B41EC16
:104840001B0B53EC192B51EC100BFBF701FE41EC49
:10485000190B53EC1B2B51EC180BFBF7F9FD53EC28
:10486000192BFBF7EFFD9FED2C0B41EC190B53ECD3
:10487000102B51EC180BFBF7EBFD41EC100B28480B
:10488000844210DA53EC192B51EC100BFBF7DAFDD4
:1048900053EC1A2BFBF7D9FD41EC100B02B0BDEC29
:1048A000088B04B010BD1F48A042BCBF9FED1E1B6B
:1048B0008DED001B06DBA4F5001001900020009098
:1048C0009DED001B51EC100B53EC112BFBF7BAFDC7
:1048D0009DED000B41EC180B53EC102B51EC1A0B17
:1048E000FBF7B0FD41EC1A0B53EC192B51EC180BF4
:1048F000FBF7A8FD53EC1A2BFBF7A7FD41EC100BBF
:10490000CCE7000000000000000000000000F03FC5
:104910000C13000000000000000000000000E03F59
:104920003333D33F0000E93F000000000000D23FD6
:1049300070B504462DED028B4D1E00EBC500B0EEA8
:10494000408AF0EE608A90ED000B35F0060017D03B
:1049500053EC182B51EC100BFBF77AFD41EC100BCC
:104960006D1E04EBC50090ED001B51EC100B53ECD9
:10497000112BFBF7C6FC41EC100B35F00600E7D11C
:10498000022D36D0042D1CD0062D1CBFBDEC028B91
:1049900070BD53EC182B51EC100BFBF759FD94ED47
:1049A0000A1B53EC112BFBF7ACFC53EC182BFBF759
:1049B0004FFD94ED081B53EC112BFBF7A2FC41ECCF
:1049C000100B53EC182B51EC100BFBF741FD94ED41
:1049D000061B53EC112BFBF794FC53EC182BFBF745
:1049E00037FD94ED040B53EC102BFBF78AFC41ECE4
:1049F000100B53EC182B51EC100BFBF729FD94ED29
:104A0000021B53EC112BFBF77CFC53EC182BFBF730
:104A10001FFD94ED001B53EC112BFBF772FCBDEC5A
:104A2000028B41EC100B70BD31B504462DED040B2B
:104A30002DED0A8BB0EE41BAF0EE61BA0B989DED08
:104A40000A0B20F00040B0F1795F0DDA51EC100B49
:104A5000FFF777F9042808BF00F0A2F89DED0A0BD4
:104A6000BDEC0A8B05B030BD53EC102B51EC100B94
:104A7000FBF7EEFC41EC180B9DED0A0B53EC182BE9
:104A800051EC100BFBF7E4FC41EC190B2C48B0EE99
:104A9000480AF0EE680A05217844FFF749FF9FEDC8
:104AA0002ACBB0EE40AAF0EE60AA9CB353EC1C2BCC
:104AB00051EC190BFBF7CCFC41EC1C0B53EC1A2B03
:104AC00051EC190BFBF7C4FC9FED210B41EC190BCA
:104AD00053EC102B51EC1B0BFBF7BAFC53EC192BCE
:104AE000FBF7B0FC53EC182BFBF7B2FC53EC1B2B81
:104AF000FBF7A8FC53EC1C2BFBF7A4FC9DED0A1B59
:104B000053EC112BFBF7A1FCBDEC0A8B05B041EC7B
:104B1000100B30BDFFE753EC1A2B51EC180BFBF7D1
:104B200097FC53EC1C2BFBF7ECFB53EC192BFBF71E
:104B30008FFC9DED0A1B53EC112BFBF7E2FBE3E727
:104B40009C11000000000000495555555555C5BF42
:104B5000000000000000E03F10B553EC102B51ECBA
:104B6000100BFBF7CEFB41EC100B10BD10B553EC56
:104B7000112B51EC100BFBF7C4FB41EC100B10BDDB
:104B80009FED050B10B553EC102B51EC100BFBF700
:104B9000D1FC41EC100B10BD000000000000000033
:104BA0009FED050B10B553EC102B51EC100BFBF7E0
:104BB0004FFC41EC100B10BD000000000000001085
:104BC00002E008C8121F08C1002AFAD170477047D6
:104BD000002001E001C1121F002AFBD17047000034
:104BE0000149086070470000C000002010B541EC8A
:104BF000100BFFF7C1F851EC100B10BD0278417893
:104C0000094842F20E730270417001EB022189B231
:104C10008A1E41819A4202D20182012101E00021D3
:104C20000182817170470000A8000020027841785D
:104C3000094842F20E738270C17001EB022189B201
:104C40008A1E81819A4202D24182012101E0002123
:104C50004182C17170470000A800002002784178AD
:104C6000094842F20E730271417101EB022189B2CF
:104C7000C1814289921E9A4202D28182012101E0C1
:104C80000021818201727047A800002082B0CDE926
:104C9000000121F0004001909DED000B02B051ECAD
:104CA000100B7047FCF7FAFBFEF702FCFDF73EFE27
:104CB000FDF7E8FDFEF74CF8FEF772F8FDF7F8FF98
:104CC000FEF71EF8FEF796F8FDF7F6FEFDF732FF49
:104CD000FDF78EFFFEF7B8F8FDF70AFE00F00EF8BC
:104CE000FEE701460020842900D0C81C704710B59B
:104CF00000B9012000F098FC002010BD10B500F0B4
:104D0000B9FC002010BD10B500F0D0FD012803D083
:104D1000BDE8104000F088BD10BD3EB504460D460C
:104D2000B0F90800FFF7DDFF02A9CDE90001208AF4
:104D30002B4682B2D4E9001000F08CFD012801D08E
:104D400000203EBD02983EBD04494FF080500860EF
:104D5000BFF34F8FBFF36F8F0020704704ED00E06B
:104D60002DE9F041184C0F460546E6682068001D05
:104D700000F0A4FB38B9206890F82C10012088407E
:104D8000216981432161681C07D137B12168BDE8E1
:104D9000F0410E48091D00F0C9BB20683544B542FA
:104DA0004560216805D2A06BBDE8F041091D00F007
:104DB000A5BB606B091D00F0A1FBA06A854200D273
:104DC000A562BDE8F08100002C000020546F002097
:104DD0002DE9F041054600F0B5FB2E4CA068401CC3
:104DE000A06020682C4F10B1606940B32DE02560B1
:104DF000A068012829D1002606EB860007EB800079
:104E000000F06EFB761C072EF6D323488C3000F0A2
:104E100067FB2148A03000F063FB1F48B43000F06E
:104E20005FFB1D48C83000F05BFB1B48DC3000F026
:104E300057FB19488C3060631430A06305E020688C
:104E4000E96AC06A884200D82560606A401C6062D6
:104E5000E96A0120226988401043206101EB81004A
:104E600007EB8000291D00F061FB00F08BFB6069FF
:104E700000280CD02068E96AC06A884207D2074936
:104E80004FF080500860BFF34F8FBFF36F8FBDE8C6
:104E9000F08100002C000020786E002004ED00E07E
:104EA00070B5114E114C17E000F018FC3068B8B125
:104EB00000F06EFD00F046FBF068C568281D00F0AC
:104EC000FDFAA068401EA0606068401E606000F0AF
:104ED00059FB284600F00CF860680028E4D170BD4A
:104EE00000F056FDF8E70000406F00202C00002085
:104EF00010B50446006B00F059FB2046BDE8104099
:104F000000F054BB10484FF47051420706D0C01D4A
:104F10000D4920F00700411AC1F570510B4A0023DA
:104F20000144C2E900030839103A21F00701116079
:104F30004B600B600B1AC0E9001393604FF0004008
:104F40005360D060704700007832002018000020C5
:104F5000074C4FF08056074DFFF7A2FF206801284D
:104F6000FAD92E60BFF34F8FBFF36F8FF4E70000C5
:104F7000786E002004ED00E02DE9F0479A46DDE967
:104F8000098481466FF00303206B03EB8202104417
:104F9000089D20F00706700707D0502080F3118885
:104FA000BFF34F8FBFF36F8FFEE723180A5C83F8C0
:104FB00034200A5C12B1401C1028F6D3002784F874
:104FC0004370072D00D30625E562C4E91157201D63
:104FD00000F091FA04F1180000F08DFA2461C5F197
:104FE00007006462A061E76484F850705246494645
:104FF000304600F0BFF82060B8F1000F01D0C8F8CB
:105000000040BDE8F087000030B5114900E01146CE
:105010000A688242FBD34B685C18844203D1406823
:1050200018444860084643681C18944209D1084C4B
:10503000103C2468A24209D052681A4442600A68AF
:1050400012680260814200D0086030BD0460F9E758
:10505000180000200648416B096829B1416BC968F6
:10506000C9684968816270474FF0FF31FAE7000074
:105070002C00002008484068401C4FF0500080F38E
:10508000118804D0BFF34F8FBFF36F8FFEE7BFF3DC
:105090004F8FBFF36F8FFEE7200000202DE9F04116
:1050A0000546002700F01AFB314E306808B9FFF7BB
:1050B00029FFF06805424BD1C5B3083568070ED00B
:1050C00005F00700C0F108000544680707D050202C
:1050D00080F31188BFF34F8FBFF36F8FFEE72DB3BF
:1050E0007068854234D82248103001460C6801E0CF
:1050F00020460C466168A94202D221680029F7D1F6
:1051000031688C4224D007682168016060680837E4
:10511000411B10290FD96019420708D0502080F395
:105120001188BFF34F8FBFF36F8FFEE710E0416030
:105130006560FFF769FF61687068401A7060B26867
:10514000904200D2B060F06801430020C4E9000141
:1051500000F01EFC780707D0502080F31188BFF3C1
:105160004F8FBFF36F8FFEE73846BDE8F081000038
:105170000800002010B5031F4FF080741C601B1F37
:1051800021F001011960191F044B0B6014390A60EA
:10519000091F6FF0020244380A6010BD7550000804
:1051A00010B54FF47A70FCF769F8012211464FF4FC
:1051B000165000F01EF86420FCF760F84FF4FA7007
:1051C00000F07DF86420FCF759F80221012000F07E
:1051D00039F96420FCF752F81221012000F032F96D
:1051E0006420FCF74BF80321BDE81040012000F0DB
:1051F00029B9F0B599B0002414278DF80470012660
:105200008DF805408DF806608DF808408DF809404E
:10521000C0268DF80A6008268DF80C408DF80B60CA
:105220008DF80D408DF80E00060A8DF80F60060C03
:10523000B5238DF810608DF80030060E62238DF8CE
:10524000013061F30F0006238DF811608DF80230F4
:105250008DF81200010A62F30F008DF803408DF8FB
:1052600013108DF81400010A23468DF8074014220C
:105270008DF8183062F30F008DF815108DF8193085
:105280008DF80400000A8DF816301A218DF80500FB
:1052900025468DF8173002206A46135C401C2344D3
:1052A000DCB22B19C0B2DDB28842F6D35454491C8B
:1052B00010465554491C00F0B1F819B0F0BDF0B5D6
:1052C00099B0B521062660F30F028DF80010622117
:1052D0008DF80620100A002301278DF801108DF8A3
:1052E000070066F30F028DF8026008218DF8087040
:1052F0008DF803108DF809308DF80420100A8DF810
:105300000A700C218DF805001C466D468DF80B3097
:1053100002202A5C401C1A44D3B2E218C0B2D4B2B4
:105320008842F6D36B54491C28466C54491C00F043
:1053300075F819B0F0BD00002DE9F041354C364E3E
:10534000002723788BB1012B16D0022B1AD0042111
:10535000032B1DD0042B1ED021464A78511CC9B204
:10536000052B1DD0062B28D046E0B52844D10121BD
:1053700021703070BDE8F08162283DD1022121709A
:105380007070F7E7012837D103212170B070F1E781
:105390002170F070EEE70521217030716170E9E74E
:1053A00006232370B0546170307960F3070570797B
:1053B00060F30F25AD1C6580DCE763885B1E1B0472
:1053C0001B0C6380B0546170D4D11348FBF7B7FA5B
:1053D0006178314411F8022D497862F3070561F3D1
:1053E0000F25A9B2884207D1F07802280ED00328F1
:1053F00008D0122802D027702770BBE70648FDF7B7
:10540000EDFEF9E70448FDF7B1FEF5E70248FDF7C8
:1054100013FEF1E7800000206870002030B4002304
:10542000064A03E0C45CD4545B1C9BB28B42F9D3A4
:105430000A4630BC01490248FDF75AB9686F00209E
:105440007C30002070B59AB0B5258DF806008DF837
:1054500000508DF8071000230125002162268DF8E9
:1054600008308DF8016008208DF8095006268DF867
:105470000A108DF80C108DF804008DF80B108DF8C3
:105480000D1000208DF802600E218DF805001C46DD
:105490006A468DF803500220155C401C2B44DBB299
:1054A0001C44C0B2E4B28842F6D35354491C10469F
:1054B0005454491CFFF7B2FF1AB070BDD0E9013255
:1054C00001699A60D0E901235A604A68824201D199
:1054D00082684A60002202610868401E08607047C6
:1054E00000F108014FF0FF32C0E90112C160016113
:1054F00000210160704700210161704730B50B68E1
:105500005A1C02D000F1080202E0026904E02246BF
:10551000546825689D42FAD953684B6099608A6047
:10552000516008610168491C016030BD42684A60F1
:1055300093688B6093685960916008610168491CA9
:1055400001607047502080F31188BFF34F8FBFF385
:105550006F8F0A494868401C486001280CD10848F0
:10556000006810F0FF0F07D0502080F31188BFF3C0
:105570004F8FBFF36F8FFEE77047000020000020C1
:1055800004ED00E00849486828B1401E486001D198
:1055900080F311887047502080F31188BFF34F8F3C
:1055A000BFF36F8FFEE700002000002070B50028D9
:1055B00027D0144DA0F108046168E868014207D1C2
:1055C000502080F31188BFF34F8FBFF36F8FFEE73A
:1055D00022683AB1502080F31188BFF34F8FBFF398
:1055E0006F8FFEE78143616000F078F8606869685A
:1055F000084468602046FFF707FDBDE8704000F0F2
:10560000C7B970BD0800002006484FF47A710068E1
:10561000B0FBF1F14FF0E020491E4161072101612B
:10562000704700006800002010B5020014D00F4839
:10563000006B38B1502080F31188BFF34F8FBFF358
:105640006F8FFEE700F04AF800211046FFF788FB55
:1056500000F09EF9002807D105494FF080500860FE
:10566000BFF34F8FBFF36F8F10BD00002C000020E1
:1056700004ED00E01CB515480024CDE900402346A8
:10568000802213A1144800F0E5F8012809D0401C3D
:105690001AD1502080F31188BFF34F8FBFF36F8F63
:1056A000FEE7502080F31188BFF34F8FBFF36F8F59
:1056B00006484FF0FF312C38816201214161C460FE
:1056C000BDE81C4000F040B81CBD000058000020A0
:1056D00049444C4500000000514F00080248016B4E
:1056E000491C0163704700002C0000201448016B26
:1056F00011B10121C16170470021C1610169B1FA95
:1057000081F1C1F11F0101EB81020E4951F82230F4
:105710006BB101EB820101F108034A6852684A60EB
:105720009A4201D152684A60D168016070475020A6
:1057300080F31188BFF34F8FBFF36F8FFEE7000038
:105740002C000020786E00201CB532480168324AD7
:10575000914207D1502080F31188BFF34F8FBFF3E0
:105760006F8FFEE700682C49491E884207D1502000
:1057700080F31188BFF34F8FBFF36F8FFEE7274988
:1057800008780190FF20087008788DF800009DF8D7
:1057900000009DF8002000F0F000904207D050205B
:1057A00080F31188BFF34F8FBFF36F8FFEE79DF833
:1057B00000001B4A00F0500010700720906005E0C8
:1057C0009DF800305B008DF80030401E9DF80030E1
:1057D0001B06F5D4000200F4E060906001980870A8
:1057E0000C482030016841F470010160016841F00B
:1057F00070410160FFF708FF00205060FAF7EEFCEF
:105800000848016841F040410160FAF7D7FC0020E8
:105810001CBD000000ED00E071C20F4100E400E09B
:105820002000002034EF00E010B5502080F31188F4
:10583000BFF34F8FBFF36F8F00F046F818B10449E4
:105840004FF080500860002080F3118810BD0000E8
:1058500004ED00E02DE9FF5F8346DDE90E87994600
:1058600016468A469000FFF719FC05001AD054200E
:10587000FFF714FC040012D025630021CDE902419A
:10588000CDE900874B46324651465846FFF774FB38
:105890002046FFF79DFA012004B0BDE8F09F28469E
:1058A000FFF784FE4FF0FF30F6E70000054841693E
:1058B00019B1006B18B10020704701207047022019
:1058C000704700002C0000202DE9F0412E4C0027ED
:1058D000206B40B1A069401CA061E06900B10127C4
:1058E0003846BDE8F081E668761CE66013D1606B4F
:1058F000006838B1502080F31188BFF34F8FBFF399
:105900006F8FFEE7606BA16B6163A063206A401C30
:105910002062FFF79FFBA06ADFF87080864209D300
:10592000606B006880B1606BC068C568686886425B
:105930000DD2A0622068C06A00EB800158F82100F7
:105940000128CAD90127C8E74FF0FF30F1E7281D29
:10595000FFF7B4FDA86A18B105F11800FFF7AEFD16
:10596000E86A0121226981401143216100EB800135
:1059700008EB8100291DFFF7D9FDE86A2168C96A93
:105980008842CDD30127CBE72C000020786E002081
:105990002DE9F0472C4D00242746286B38B1FFF73E
:1059A000D1FD286B401E2863286B40B146E0502093
:1059B00080F31188BFF34F8FBFF36F8FFEE7A968A5
:1059C000224E0120D1B3A6F1B40980463068E8B177
:1059D000F068C46804F11800FFF770FD201DFFF7A0
:1059E0006DFDE06A2A6908FA00F11143296100EBB4
:1059F000800109EB8100211DFFF798FDE06A29680D
:105A0000C96A8842E2D3C5F81C80DFE70CB1FFF712
:105A100021FBAC6944B14646FFF756FF00B1EE6189
:105A2000641EF9D10020A861E86938B1084901274E
:105A300038070860BFF34F8FBFF36F8FFFF7A2FDEA
:105A40003846BDE8F08700002C0000202C6F0020B5
:105A500004ED00E0705C0008B733000800000000AF
:105A60000000000000010000605C0008DD33000859
:105A70000000000000000000000100000000000025
:105A800000000000010203040607080900000000EE
:105A900001020304000610160006101600000000A4
:105AA0004FBB610567ACDD3F182D4454FB21E93F36
:105AB0009BF681D20B73EF3F182D4454FB21F93F25
:105AC000E2652F227F2B7A3C075C143326A6813CAB
:105AD000BDCBF07A8807703C075C143326A6913C56
