:020000040800F2
:1000000028F0012059020008BB370008832E0008A1
:10001000B9370008090A0008E94E0008000000008E
:100020000000000000000000000000009D0100082A
:10003000E912000800000000F10100083145000845
:1000400073020008730200087302000873020008BC
:100050007302000873020008EB120008F112000896
:10006000730200087302000873020008B51100084B
:10007000C1110008CD110008D9110008E5110008D0
:10008000F1110008FD110008730200087302000856
:10009000730200087302000873020008730200086C
:1000A000730200087302000873020008730200085C
:1000B000730200087302000873020008730200084C
:1000C000730200087302000873020008730200083C
:1000D00073020008654E0008714E00087D4E00084E
:1000E000730200087302000873020008730200081C
:1000F0007302000873020008730200080912000866
:1001000073020008730200087302000873020008FB
:10011000814900088D49000845460008730200081F
:10012000730200081512000821120008730200086B
:1001300073020008730200087302000873020008CB
:1001400073020008730200087302000873020008BB
:10015000730200082D12000839120008894E0008A9
:10016000730200087302000873020008730200089B
:100170007302000873020008730200080000000008
:100180007302000873020008DFF80CD000F0EEFBE9
:10019000004800479D5F000828F001202B4B19689C
:1001A0000868B0E8F04F80F30988BFF36F8F4FF015
:1001B000000080F3118870470000000006480068C6
:1001C000006880F3088862B661B6BFF34F8FBFF353
:1001D0006F8F00DF00BF00BF08ED00E0DFF80C000C
:1001E000016841F470010160704700BF88ED00E0D4
:1001F000EFF30980BFF36F8F144B1A681EF0100FD6
:1002000008BF20ED108A20E9F04F106008B44FF0CD
:10021000500080F31188BFF34F8FBFF36F8F06F04C
:10022000E3FB4FF0000080F3118808BC19680868F0
:10023000B0E8F04F1EF0100F08BFB0EC108A80F34A
:100240000988BFF36F8F704700BF00BF30000020E8
:10025000EFF30580704700000648804706480047D6
:10026000FEE7FEE7FEE7FEE7FEE7FEE7FEE7FEE766
:10027000FEE7FEE7F1450008890100082DE9F05F7F
:100280000546002092469B46884606468146402405
:100290001BE0284641464746224600F060FA534696
:1002A0005A46C01A914110D311461846224600F012
:1002B00047FA2D1A67EB01084F462246012000211C
:1002C00000F03EFA17EB00094E41201EA4F1010494
:1002D000DFDC484631462A464346BDE8F09F40EA07
:1002E00001039B0703D009E008C9121F08C0042AB4
:1002F000FAD203E011F8013B00F8013B521EF9D29B
:1003000070472DE9FE4F804681EA0300C00F0C467E
:10031000009021F0004123F00045B8EB0200A94114
:1003200005D24046214690461C460B46024623F025
:100330000040104347D0270DC7F30A00C3F30A510A
:100340000290401A019040286BDAC3F3130040F486
:10035000801B0098924620B10023D2EB030A63EB86
:100360000B0B01985946C0F14002504600F0E8F9E5
:1003700006460D4650465946019A00F000FA10EB29
:1003800008006141002487EA115284EAE7731A43A6
:1003900040D0009A62B3019A012A4FEA075215DC55
:1003A000001B61EB02014FF0004202EA0752CDE967
:1003B0000042001C41F5801132462B4600F037FA0E
:1003C00003B0BDE8F08F40462146F9E7001B61EB22
:1003D0000201001C41F5801300185B412018A2F5B2
:1003E000001747EB030140EAD570B6196D4111E0E3
:1003F0006D084FEA360645EAC0754FEA0752001B02
:1004000061EB0201001C41F5801149084FEA300000
:100410000019514132462B4603B0BDE8F04F00F0C1
:10042000F7B90098012240000023D0EB020263EBF1
:10043000E073009821464FEAE074B8EB000061EBEE
:100440000401E9E783F000435BE781F0004158E7EE
:100450002DE9FE4F81EA030404F0004421F000413D
:1004600000944FF0000B23F0004350EA01045ED0EB
:1004700052EA03045BD0C3F30A54C1F30A552C4477
:10048000A4F2F3340194A0FB0254C1F3130141F42C
:100490008011C3F3130343F4801301FB024400FBF8
:1004A000034E840A970A44EA815447EA8357A4FB1F
:1004B000076802958D0A05FB07854FEA932C04FB1C
:1004C0000C542705029D4FEA065847EA1637B5EB4C
:1004D00008056EEB070C870E920E47EA811742EA79
:1004E0008312A7FB0201B6EB0B0164EB00042B0D9A
:1004F00043EA0C335E1844EB1C50DA465146E7FBE6
:100500000201C5F313044FEA0B3343EA14534FEAD5
:100510000432019C43EA0603A4F10C040294009CFB
:10052000CDE900B400F083F903B0BDE8F08F0020FE
:100530000146F9E72DE9F04D81EA030404F0004B90
:1005400021F0004514464FF0000A23F0004150EA24
:10055000050220D054EA01021DD0C5F30A57024615
:10056000C5F31303C1F31300C1F30A5640F4801519
:1005700043F48013A7EB0608101BD64608F2FD389B
:1005800073EB050002D308F1010801E092185B410A
:10059000B8F1000F03DA00200146BDE8F08D00201D
:1005A0004FF48011064684460EE0171B73EB0507D7
:1005B00005D3121B63EB050306434CEA010C490803
:1005C0004FEA300092185B4150EA0107EDD152EA40
:1005D000030012D082EA040083EA0501084305D033
:1005E000101BAB4106D20122002306E000224FF08F
:1005F000004302E06FF0010253101AEB06004CEBCF
:10060000085110EB0A0041EB0B01BDE8F04D00F082
:10061000FFB80EB5C10F80EAE0700844CA07002198
:1006200040F233438DE80E000A460B4600F0FFF817
:1006300003B000BD0EB540F2334102910021CDE977
:1006400000110A460B4600F0F2F803B000BDC1F3FA
:100650000A5210B5C1F3130140F2FF3341F4801187
:100660009A4201DA002010BD40F233439A42A2F2CE
:10067000334203DC524200F072F810BD904010BDCE
:1006800000F0004230F000400AD0C10D01F5607169
:10069000C0F3160042EA0151C208400711437047F7
:1006A000002001467047000030B5041E71F10004BF
:1006B00004DB4FF00044404264EB0101141E73F16F
:1006C000000405DB1C464FF00043524263EB040379
:1006D0008B4208BF824230BD30B5041E71F1000468
:1006E00004DB4FF00044404264EB0101141E73F13F
:1006F000000405DB1C464FF00043524263EB040349
:10070000994208BF904230BD01F0004330B421F05F
:10071000004150EA010206D00A0DA2F56072C1F351
:100720001301002A02DC30BC00207047440F44EA69
:10073000C104C100E01830BC00EBC25000F031B879
:10074000202A04DB203A00FA02F100207047914091
:10075000C2F1200320FA03F3194390407047202A86
:1007600004DB203A21FA02F00021704721FA02F35B
:10077000D040C2F120029140084319467047202A18
:1007800006DBCB17203A41FA02F043EAE07306E0B9
:1007900041FA02F3D040C2F12002914008431946C9
:1007A00070470029A8BF7047401C490008BF20F0CF
:1007B0000100704710B4B0FA80FC00FA0CF050EA67
:1007C000010404BF10BC704749B1CCF1200421FAE8
:1007D00004F411FA0CF118BF012121430843A3EBE3
:1007E0000C01CB1D4FEA00614FEA102042BF0020F0
:1007F00010BC704700EBC35010440029A4BF10BCCC
:100800007047401C490008BF20F0010010BC704731
:1008100010B5141E73F1000408DA401C41F1000108
:1008200092185B411A4301D120F0010010BD2DE95F
:10083000F04D92469B4611B1B1FA81F202E0B0FA56
:1008400080F220329046FFF77BFF04460F4640EAD5
:100850000A0041EA0B0153465A46084313D0114699
:1008600053EA010019D0C8F140025046FFF777FF64
:1008700005460E46504659464246FFF761FF08437B
:1008800005D0012004E020463946BDE8F08D002067
:10089000054346EAE0762C4337430A986305E40AA9
:1008A000A0EB08000022FD0A44EA47540A3002D5B2
:1008B00000200146E9E7010510196941DDE9084515
:1008C00000196941BDE8F04DA2E72DE9F04D002384
:1008D0001A461B1A8A4103DB00200146BDE8F08D51
:1008E000C1F30A52C1F3130141F480154FF0000B1C
:1008F000D10702D100186D41521E0027044640F274
:10090000FF11384601EB620A3E468046024600204F
:100910004FF48011FFF723FFC2197141BB1846EB5A
:100920000100B4EB030C75EB000C04D3E41A65EB87
:10093000000517460E46241908F101006D41804656
:100940003428E3DDF91946EB0600091BA84103D260
:100950004FF0FF32134601E0002213461BEB070065
:1009600046EB0A51BDE8F04DFFF752BF064C074D6C
:1009700006E0E06840F0010394E80700984710346F
:10098000AC42F6D3FFF704FC9C6F0008BC6F000874
:1009900070B5C1F30A5201F000450024C1F3130100
:1009A00040F2FF3341F480119A4201DA002070BD19
:1009B00040F233439A42A2F2334203DC5242FFF741
:1009C000CEFE00E090402C43F1D0404270BD30B5E7
:1009D0008C1810F8012B12F00F0301D110F8013B15
:1009E000120906D110F8012B03E010F8015B01F8A1
:1009F000015B5B1EF9D101E001F8013B521EFBD106
:100A0000A142E6D3002030BDFEE770B500240223EA
:100A10002546891E06E0C65C5B1C3444E4B22544CE
:100A2000EDB2DBB28B42F6DB64F3070265F30F2213
:100A300090B270BD04490220C1F82008034800218B
:100A400080F8401170470000B0020020B062002022
:100A50002DE9F041484C00252DED028BB2B094F801
:100A60004001F0EE408A01279FED448A444EA0B138
:100A7000012852D002280BD194F82C1AA4F5C040BA
:100A8000012965D0C0F8205884ED548A84ED558A38
:100A900032B0BDEC028BBDE8F08139493822A8396B
:100AA0003046FFF71CFC3022364926A8FFF717FC1A
:100AB0003822314618A8FFF712FC3149382238395C
:100AC00088460AA8FFF70BFC2D49282260396846A2
:100AD000FFF705FC2A48F0EE480A7038B0EE680AC5
:100AE0000FC800F06DF9382231460AA81895FFF7B3
:100AF000F6FB282208F110016846FFF7F0FB2048BA
:100B0000B7EE000A38380FC800F044F80128BFD10A
:100B100084F8407184ED518ABAE71B4890ED7D0A54
:100B2000D0ED7B0AB4EEE00AF1EE10FA0DDB94EDA5
:100B3000510A164930EE280A10EE100A84ED510AC7
:100B40008842A1DD022084F8400184ED518A9BE7B0
:100B5000C0F8207894F838010D4901284FF0380288
:100B6000304606D001F6E811FFF7B9FB84F838519A
:100B70008AE701F60811F7E7B062002000000000E4
:100B8000800B0020686C0020B06A002000009643B3
:100B9000B00200200FB42DED020B70B500242DED36
:100BA000068BB0EE408A9DED1E0B289D9DED1CAB83
:100BB00051EC100BFFF7A8FD09EE100A51EC1A0BCF
:100BC000FFF7A2FD9DED100B09EE900A51EC100B02
:100BD000FFF79AFD9DED0E0B08EE900A51EC100BFD
:100BE000FFF792FD00EE100AF0EE491AB0EE691A16
:100BF000F0EE680A02F0F2FD5DB1B4EEC80AF1EE63
:100C000010FA00DB0124BDEC068B204670BC5DF8B9
:100C10001CFBB4EEC80AF1EE10FAF3D9F3E70000BA
:100C2000184910B5D1ED7D0A91ED7C0A0223A1F59A
:100C3000D042F4EEC00AF1EE10FA01D8C2F8203822
:100C4000114890F82C4A012C14D191ED7B1A31EE09
:100C5000400A9FED0E1A20EE010AB4EEE00AF1EE12
:100C600010FA07DBFF2180F82C1A0021C2F8203887
:100C700080F840119FED060A80ED540A80ED550A78
:100C800010BD0000B06A0020B06200209A99993E21
:100C9000000000000FB42DE9F05F00272DED0A8B56
:100CA0003E46DDE92285DDF89090032D06D2002036
:100CB000BDEC0A8BBDE8F01F5DF814FB00249DED30
:100CC000168B6BE0681E8442C4EBC40108EBC100C4
:100CD00090ED04BB90ED029B04D198ED04CB98ED10
:100CE00002AB03E090ED12CB90ED10AB53EC192B5F
:100CF00051EC180BFFF7F0FC06D853EC1A2B51EC13
:100D0000180BFFF7D1FC0DD353EC1A2B51EC180B39
:100D1000FFF7E2FC40D853EC192B51EC180BFFF70E
:100D2000C3FC39D253EC1A2B51EC190BFFF78AFB99
:100D30008B4682464BEC100B04F0C2FB9FED1E1B52
:100D400051EC100B53EC112BFFF7C6FC24D24BECEB
:100D50001AAB53EC182B51EC190BFFF773FB41EC5A
:100D6000190B53EC1C2B51EC1B0BFFF76BFB53ECDB
:100D7000192BFFF76DFB53EC1A2BFFF7DBFB53EC42
:100D80001B2BFFF762FB9DED181B53EC112BFFF79C
:100D90008BFC01D2761CB6B2641CA4B2AC4291D3D7
:100DA000F00703D0B9F1000F03D003E0B9F1010F50
:100DB00000D1012738467BE700000000000000005A
:100DC0000FB42DED020B2DE9F05F2DED0E8BB0EE83
:100DD00060DAB0EE409ADDE949B9DDF814A1DDED45
:100DE00046AA9DED4EAA9DED388B9DED3A0B9DEDEB
:100DF0002ABB9DED2CCBDDED30DADDED31EADFED08
:100E00007C9A002751EC100BFFF77EFC05460EEE96
:100E1000105A51EC180BFFF777FC044608EE904A85
:100E200051EC1C0BFFF770FC804608EE108A51EC69
:100E30001B0BFFF769FC064600EE106AF0EE4E1A37
:100E4000B0EE681AF0EE480A02F0C8FCF0EE408AF4
:100E500001EE905A01EE104A00EE908A00EE106A00
:100E600002F010FDB0EE40BA3BEE6E0A03F070FDEA
:100E7000B0EE408A9DED1E0B0CEE905A0CEE104A1F
:100E800051EC100BFFF740FC9DED1C0B0BEE900A94
:100E900051EC100BFFF738FC00EE100AF0EE6C1A64
:100EA000B0EE4C1AF0EE6B0A02F0ECFCF0EE400AE9
:100EB00030EECB0A03F04CFDDFED4E0A20EE200AA7
:100EC00010EE100AFFF7DCFB41EC100B04F004FB02
:100ED000B0EE40BAF0EE60BA18EE900AFFF7D0FB21
:100EE00053EC1B2BFFF7B4FAFFF70EFC01EE100AD0
:100EF0000AF0FF004049012804D11AEE900A884206
:100F000000DC04270BF0FF00012804D1894502DC36
:100F100047F0020001E007F0FD004D9AD2B2012A2D
:100F200006D11AEE102A8A4202DC40F0010001E0EC
:100F300000F0FE00DFED311ABAEE040AF2EE040A08
:100F4000082813D2DFE800F012040707040C252A52
:100F500009EE008A0AE009EE218AF0EE698A05E0CE
:100F60003AEE6A0A20EE200A00EE098A28EEA00A6C
:100F7000F0EE001A22489FED232A0DEEE10A224AE4
:100F8000DFED221A10EE101A81420CD9B0EE420A9F
:100F90000FE0F0EE698A9FED1E0AD9E7F0EE698A4C
:100FA0009FED1C0AD4E710EE101A914201DDB0EE5D
:100FB000610A194931EE4D1A81ED540A28EE200AD2
:100FC00001EE200A10EE103A834202D9B0EE420A36
:100FD00005E010EE100A904201DDB0EE610A81EDED
:100FE000550ABDEC0E8BBDE8F01F5DF81CFB000040
:100FF000000000002DFA8E3CCDCC4C3E000034C2E7
:1010000000007AC400007AC400007A4400007A44E8
:1010100000003442000034C3B0620020134AA2F53D
:10102000B04192ED621B81ED2C1B92ED5E1B81EDB8
:10103000281B92ED601B81ED2A1BD2ED650AC1EDE4
:101040002F0AD2ED640AC1ED2E0A38B1012807D06B
:10105000022807D0032807D1FFF7ECBCFFF7E0BD5B
:1010600000F006B8FFF7F4BC70470000B062002043
:1010700070B53E4801222DED028BF0EE408A9FEDC7
:101080003C8AB2B090EC020A3A4800F50D6500F6D1
:101090009804F4EEC00A00F5C040F1EE10FA25D82D
:1010A00090ED4F0A344B30EE280A10EE101A80ED06
:1010B0004F0A994255DB80ED4F8A80F838212D4A3E
:1010C0000221C2F82018002180F840113822214660
:1010D0002A48FFF704F932B02846BDEC028B3822CB
:1010E000BDE870402549E039FFF7F9B82349B0F869
:1010F0003001A8310A9180B2CDE90B02282204F117
:1011000010016846FFF7EBF81C4870380FC8FFF76E
:10111000C1FD1A4EA83E012804D13822214630468E
:10112000FFF7DDF811493022383926A8FFF7D7F844
:101130003822294618A8FFF7D2F8382221460AA8F3
:10114000FFF7CDF8282206F110016846FFF7C7F82F
:101150000A48F0EE480AA838B0EE680A0FC8FFF750
:101160002FFE32B0BDEC028B70BD0000A06C0020E1
:1011700000000000B002002000007042B80B002008
:10118000F0B502460020D1784FF6FF76C91CCBB2ED
:101190000146074F08E0050A06EA0024505C684053
:1011A00037F810006040491C5B1EDBB2F3D2F0BD83
:1011B000AC000020014800F0D9B80000CC7100203C
:1011C000014800F0D3B80000EC720020014800F0A4
:1011D000CDB800000C710020014800F0C7B8000035
:1011E0008C720020014800F0C1B800006C71002032
:1011F000014800F0BBB800004C700020014800F02E
:10120000B5B80000AC700020014800F0AFB8000095
:101210002C720020014800F0A9B80000AC73002037
:10122000014800F0A3B800008C6F0020014800F0D6
:101230009DB800004C730020014800F097B80000F2
:10124000EC6F002001681823CAB2103AB2FBF3F227
:10125000054B6FF30901032A9B5CC36500D9091D87
:101260008165084670470000A46D000810B501466E
:1012700000208B698A6A4FF0C07453B1B3F5005FE8
:1012800015D072B1012A0CD0022A0AD0032A09D142
:1012900004E01AB1012A06D0022A03D1C96AC901A1
:1012A00000D5012010BDC96AA142FAD010BD002AA4
:1012B000F7D0012AF2D0022AF3D0032AF3D010BDCE
:1012C00030B50468256825F48025256004686360CE
:1012D0008368402B036803D099600068C26030BD0A
:1012E0009A600068C16030BD7047012000F0C8B945
:1012F000022000F0C5B900000D4910B50B4AC1E944
:101300000020002088600C22C860C1E904028861C6
:10131000C861084601F01AFA002805D0BDE810405F
:10132000B12104A003F0E1BD10BD00000014014094
:101330004C6F00202E2E2F436F72652F5372632F38
:1013400075736172742E630090F83510022903D012
:101350008021416501207047052180F83510006823
:10136000016821F001010160002070472DE9F84378
:1013700004464FF00009CDF8009063484FF4165131
:10138000A56D0068B0FBF1F72E6894F85C1008209A
:1013900000FA01F131420FD021680A6852070BD5DB
:1013A0000A6822F004020A6094F85C108840A86081
:1013B000606D40F00100606594F85C104FF001082A
:1013C00008FA01F0304208D021684969090604D5BD
:1013D000A860606D40F00200606594F85C10042025
:1013E0008840304208D021680968890704D5A86080
:1013F000606D40F00400606594F85C101020884037
:10140000304218D021680968090714D5A8602068FF
:101410000168490304D50068000308D5A16C07E002
:101420000168C90503D4016821F008010160216C3D
:1014300009B12046884794F85C102020884030424B
:1014400031D021680968C9062DD5A86094F8350007
:1014500005282068016806D0490347D500680003C5
:101460001DD4616C1CE021F0160101602068416907
:1014700021F080014161206C08B9A06C20B1206886
:10148000016821F00801016094F85C103F20884059
:10149000A86084F8349084F83580216D1FE0E16BFA
:1014A00009B120468847606D00282BD0606DC007C9
:1014B00014D0052084F835002068016821F001016E
:1014C00001600098401C0090B84203D82068006872
:1014D000C007F6D184F8349084F83580E16C002997
:1014E00010D001B02046BDE8F04308470168C905A7
:1014F000D5D4016821F01001016084F8349084F89B
:101500003580CCE7BDE8F8836C0000202DE9F04180
:10151000044600F0A3F906465CB1002584F8345077
:10152000022084F835002068016821F00101016083
:101530000DE00120BDE8F08100F090F9801B052846
:1015400005D920206065032084F83500F2E7206883
:101550000068C007F0D12268116820480140D4E932
:1015600001031843D4E9033633431843636918432E
:10157000A3691843E3691843236A18430843616A5F
:10158000042903D1D4E90B131943084310602068E0
:101590004069666A20F0070130460E43012704289F
:1015A0000CD1A06A0643E06A40B12046FFF75EFE18
:1015B00020B14020606584F83570BAE72068466144
:1015C0002046FFF73FFE94F85C203F219140816068
:1015D000656584F835700020ACE700003F8010F0AE
:1015E0002DE9F0410446866D90F83400002501286D
:1015F0000DD0012084F8340094F835700020012FBC
:1016000007D084F8340002252846BDE8F081022086
:10161000FBE7022784F8357060652046FFF750FE2F
:1016200094F85C103F208840B0602068016841F069
:10163000160101602068416941F080014161206C20
:1016400020B12068016841F008010160206801684C
:1016500041F001010160D7E770B5044600F0FEF8E3
:101660000546601C02D004480078044400F0F6F8F7
:10167000401BA042FAD370BD7000002070470000EC
:10168000044910B50A68024202D00860FFF7F6FF6D
:1016900010BD0000143C01402DE9F84FDFF87CB18B
:1016A00000224FF001084FF0030A4FF00F090BF131
:1016B000040E00BF0B6808FA02F42340A3426ED167
:1016C0004D68022D01D0122D0ED1D50800EB850CEE
:1016D000DCF820505607F70E09FA07F6B5430E69F5
:1016E000BE402E43CCF82060066855000F790AFAF8
:1016F00005FC07F0030726EA0C06AF4037430760F6
:101700004E68012E05D0022E03D0112E01D0122ECC
:101710000ED18668CF6826EA0C06AF403743876053
:101720004668A6430C79C4F30014944034434460E3
:10173000C6688C6826EA0C06AC403443C4604C682A
:10174000E40065D5364C256845F48045256024685D
:1017500022F0030504F480440094324C2E19D6F88C
:10176000084895072F0F09FA07F5AC432E4DA842FC
:1017700001D1002524E02D4DA84201D101251FE013
:101780002B4DA84201D102251AE02A4DA84201D1D1
:10179000032515E0284DA84202D1042510E037E0CA
:1017A000264DA84201D105250AE0254DA84201D1C8
:1017B000062505E0234DA84201D1072500E00825B4
:1017C000BD402543C6F80858DBF800405D464E682A
:1017D0009C43F60300D51C432C60DEF800407546A0
:1017E0004E689C43B60300D51C432C600B4D083556
:1017F0002C684E689C43F60200D51C432C60074DB4
:101800000C352C684E689C43B60200D51C432C60F6
:10181000521C102AFFF44EAFBDE8F88F003C014087
:101820004438024000300140000002400004024001
:1018300000080240000C0240001002400014024068
:1018400000180240001C024042694A404261704751
:101850000AB1816170470904FBE700000148806814
:10186000704700007000002002488168027811442F
:1018700081607047700000200B4810B5016841F48A
:1018800000710160016841F480610160016841F408
:1018900080710160032000F0B1F8002000F006F82C
:1018A00000F03EF8002010BD003C024010B501469B
:1018B00088B00022362000F081F8362000F072F85F
:1018C00013480024016841F010010160006805A977
:1018D00000F010000690684600F03AF900F05EF95A
:1018E0000C494000B0FBF1F10C480B4A491E026064
:1018F00040F2E732C0E90324C0E9011400F0A3FB81
:1019000010B1012008B010BD044800F0B8FBF9E7A1
:101910004038024040420F00001000400C7400208C
:101920001F4808B5016841F480410160006800F477
:10193000804000901A48001F016841F0805101600A
:10194000006800F080500090032000F057F800225B
:1019500011466FF00B0000F031F8002211466FF0D5
:101960000A0000F02BF8002211466FF0090000F089
:1019700025F800221146501F00F020F800221146E1
:10198000101F00F01BF800220F21901E00F016F827
:1019900000220F21BDE80840501E00F00FB80000E3
:1019A0004438024000F01F020121914040098000AC
:1019B00000F1E020C0F8001170470000F0B40E4BB9
:1019C0001B680C46C3F30223C3F10705042D00D99D
:1019D0000425191D072901D2002300E0DB1E012682
:1019E00006FA05F1491E214099409E40761E164098
:1019F0003143F0BC01F0E2BE0CED00E0064900F01E
:101A0000070208684FF6FF03184040EA0220034A25
:101A100010430860704700000CED00E00000FA057C
:101A20002DE9F0470E46050065D0DFF81481D8F89F
:101A30000000F7B200F00F00B04207D288F8007043
:101A4000D8F8000000F00F00B04254D128683D4C97
:101A5000810712D5400703D5206840F4E05020608C
:101A60002878000703D5206840F460402060206893
:101A7000A96820F0F000084320602878C0072DD026
:101A8000304968680839012812D0022813D0032889
:101A900011D00968890700292DDA216821F0030196
:101AA00001432160FFF7DAFE814641F2883A0EE0F9
:101AB00009688903EFE709688901ECE7FFF7CEFEC3
:101AC000A0EB0901514502D90320BDE8F087206849
:101AD000696800F00C00B0EB810FEFD1D8F800106E
:101AE000404601F00F01B14207D90770006800F0CD
:101AF0000F00B04201D00120E7E72878400705D564
:101B00002068E96820F4E050084320602878000746
:101B100006D52068296920F4604040EAC1002060B1
:101B200000F05CF82168084AC1F30311515CC84019
:101B3000064908600020FFF7B9FE0020C5E7000055
:101B4000003C0240083802408C6D00086C00002008
:101B50000F2202600C4A136803F00303436013680A
:101B600003F0F0038360136803F4E053C36012686A
:101B70004FF4E05303EAD20202610448006800F027
:101B80000F0008607047000008380240003C024027
:101B900001480068704700006C00002004480549B7
:101BA00000680968044AC1F38221515CC84070474B
:101BB0006C000020083802409C6D0008044805496C
:101BC00000680968044AC1F34231515CC84070475B
:101BD0006C000020083802409C6D0008154810B5C4
:101BE000006810F00C02144813D04110042A0FD0E2
:101BF000082A0ED10F4C241F2268236802F03F02EE
:101C00005B0207D52068C0F38810A0FB010106E045
:101C1000084610BD2168C1F38811A1FB0001002313
:101C2000FEF72CFB2168C1F30141491C4900B0FBC0
:101C3000F1F010BD083802400024F4002DE9F84FFF
:101C4000050076D02878DFF8F8B2BE4CC00749D03E
:101C5000DBF800105846C1F38101012908D0006863
:101C6000C0F3810002280AD1201D0068400206D579
:101C70002068800336D568680028E2D032E06868C2
:101C8000B0F5803F10D0B0F5A02F206810D020F420
:101C900080302060206820F4802020606868A0B137
:101CA000FFF7DCFD06460CE0206840F48030F4E7E6
:101CB00040F480202060F7E7FFF7D0FD801B642808
:101CC00073D820688003F7D50CE0FFF7C7FD064600
:101CD00005E000BFFFF7C2FD801B6428F0D8206834
:101CE0008003F7D42878DFF8608280074FF000097E
:101CF0003ED5DBF80010584611F00C0F09D00068F3
:101D0000C0F3810002280BD18D48001F00684002FB
:101D100006D42068800715D5E868012809D111E0AC
:101D2000E868B8B10120C8F80000FFF797FD064643
:101D300005E002E1FFF792FD801B0228C0D8206871
:101D40008007F7D52068296920F0F80040EAC10033
:101D500020600DE0C8F80090FFF780FD064604E023
:101D6000FFF77CFD801B02281FD820688007F7D46E
:101D70002878000722D5724E744869696C3671B1B3
:101D800001210160FFF76AFD074604E0FFF766FDE9
:101D9000C01B022809D830688007F7D50EE0C0F8CC
:101DA0000090FFF75BFD074605E083E0FFF756FD77
:101DB000C01B02287ED830688007F7D428784007F7
:101DC00068D5DFF87CA100270AF1380ADAF80000AC
:101DD000C0000BD4DAF8001041F08051CAF80010AE
:101DE000DAF80000012700F080500090584E30686B
:101DF000C00510D4306840F480703060FFF72EFDCD
:101E0000009005E0FFF72AFD0099401A022851D8FA
:101E10003068C005F6D54A4EA868683601280FD04C
:101E20000528306810D020F001003060306820F0C4
:101E300004003060A868B8B1FFF710FD00900FE013
:101E4000306840F00100F4E740F004003060F7E74C
:101E5000FFF704FD0099411A41F28830814264D8AD
:101E600030688007F4D50EE0FFF7F8FC009007E03B
:101E7000FFF7F4FC0099411A41F28830814254D8AE
:101E800030688007F4D42FB1DAF8001021F08051C7
:101E9000CAF80010A869C0B3DBF80010C1F38101D3
:101EA00002294AD00228484607D0C8F86000FFF748
:101EB000D5FC00E039E005463AE04746C8F8600046
:101EC000FFF7CCFC064604E0FFF7C8FC801B0228A5
:101ED0002BD820688001F7D4D5E907010843A96A07
:101EE0001C4A490802EB01416A6A41EA821108432F
:101EF00095F82C1040EA01611148001F0160012093
:101F00003866FFF7ABFC054605E014E0FFF7A6FCDA
:101F1000401B022809D820688001F7D50BE000BFDC
:101F2000FFF79CFC401B022802D90320BDE8F88F74
:101F300020688001F4D40020F8E70120F6E70000D3
:101F4000083802400038024000004742800E4742F5
:101F5000007000400000FFFF4FF0E02104280869F6
:101F600003D020F004000861704740F00400FAE755
:101F700010B5401EB0F1807F01D3012010BD4FF09D
:101F8000E02460610F21601701F018FC0020A061BF
:101F900007202061002010BD7047704710B590F8F1
:101FA0003820012A25D0012280F83820CA688C68A0
:101FB00022F4407222434C6822F4806222430C686F
:101FC00022F4006222430C6922F4805222434C69BD
:101FD00022F4005222438C6922F48042224322F4EC
:101FE0000041026800232143516480F8383000200A
:101FF00010BD022010BD30B590F83820012A20D045
:10200000012280F83820022380F8393003685C68A8
:1020100024F070045C6003685C680D682C435C60AD
:1020200003689C6824F080049C6003689C6849688D
:102030000C439C6080F83920002180F83810084655
:1020400030BD022030BD10B5040003D094F8390033
:1020500010B107E0012010BD002084F838002046B0
:1020600000F00CF8022084F83900211D206802F0ED
:10207000EFFA012084F83900002010BD7047016894
:10208000CA6842F00102CA600068016841F00101BB
:1020900001600020704770472DE9F041044690F838
:1020A00038000D4601283DD0012684F83860022012
:1020B00084F83900AAB3042A46D02068082A55D0EB
:1020C000D5E90027E968036A23F480530362D0F856
:1020D0001CC0036A2CF4407C4CEA07274FF6FF7CB7
:1020E00027F470470CEA013139434FF4204723F4B9
:1020F000204307EA02321A43C16102622068C169C3
:1021000021F44061C1612068C169AA6841EA0221E5
:10211000C0F81C1084F83960002084F83800BDE84D
:10212000F08101E00220FAE7D5E90012EB682068AF
:1021300002F0B0FB2068816921F00C018161206808
:102140008169AA6811430FE0D5E90012EB682068A5
:1021500002F0E2FB2068816921F44061816120681E
:102160008169AA6841EA02218161D3E7D5E9002C9F
:102170002F7B016A21F480710162C169036A21F039
:10218000030141EA0C0121F0F00C39074FF42067FC
:102190004CEA116123F4206307EA02221A43C16169
:1021A00002622068C16921F00C01C1612068C16927
:1021B000AA681143ACE710B5040003D094F83900C5
:1021C00010B107E0012010BD002084F8380020463F
:1021D00000F00CF8022084F83900211D206802F07C
:1021E00037FA012084F83900002010BD30B50068AE
:1021F0001C490025022487B0884212D11A48016880
:1022000041F0010101600068694600F0010005909D
:102210004FF4D4408DE831000120CDE9035013483C
:102220001CE0134988421BD10F48001F016841F090
:10223000020101600068694600F002000590C020BC
:102240008DE83100CDE903540A48FFF725FA032051
:102250008DE83100CDE9035469460748FFF71CFAC1
:1022600007B030BD00000140443802400010024079
:1022700000040040000002400004024010B5044683
:102280000068012202F044FA2068016841F001016F
:102290000160002010BD70B50446006801694FF070
:1022A0000005C943890715D4C168C943890711D4FA
:1022B000E91E0161012020762068806980072046A0
:1022C00002D0FFF7E8FE04E000F0DCF8204600F062
:1022D0008BF9257620680169C943490717D4C1687D
:1022E000C943490713D46FF004010161022020762D
:1022F0002068806910F4407F204602D0FFF7CBFEB3
:1023000004E000F0BFF8204600F06EF92576206862
:102310000169C943090716D4C168C943090712D422
:102320006FF008010161042020762068C0698007F1
:10233000204602D0FFF7AFFE04E000F0A3F82046ED
:1023400000F052F9257620680169C943C90617D4FF
:10235000C168C943C90613D46FF010010161082098
:1023600020762068C06910F4407F204602D0FFF735
:1023700092FE04E000F086F8204600F035F925765C
:1023800020680169C943C90708D1C168C943C907A1
:1023900004D1891E0161204600F044F920680169DA
:1023A000C943090609D4C168C943090605D46FF0B9
:1023B000800101612046FFF7EFFD20680169C943F4
:1023C000490609D4C168C943490605D46FF04001E4
:1023D0000161204600F030F920680169C94389068F
:1023E0000BD4C168C943890607D46FF0200101618D
:1023F0002046BDE87040FFF7D0BD70BD70B50068E5
:102400000025022486B0B0F1804F0FD017498842D2
:102410001ED14FF470408DE83100CDE903541448CB
:10242000694600BFFFF738F906B070BD20208DE87F
:1024300031000126CDE9035669460E48FFF72CF915
:1024400008208DE83100CDE9035669460A48E9E7DE
:102450000A498842E8D14FF440708DE831000320EA
:10246000CDE9035069460648DCE70000000800405B
:10247000000C024000000240000402400004014041
:1024800000080240704770B5044690F838000D46C9
:1024900001280DD0012684F83860022084F8390024
:1024A00042B1042A18D0082A2AD00C2A4DD139E08A
:1024B000022070BD206802F037F92068816941F080
:1024C000080181612068816921F00401816120682F
:1024D00081692A69114311E0206802F051F92068EE
:1024E000816941F4006181612068816921F4806122
:1024F0008161206881692A6941EA0221816124E0C1
:10250000206802F06FF92068C16941F00801C161DB
:102510002068C16921F00401C1612068C1692A698C
:10252000114311E0206802F08DF92068C16941F47F
:102530000061C1612068C16921F48061C1612068C6
:10254000C1692A6941EA0221C16184F83960002029
:1025500084F8380070BD10B5040003D094F8390039
:1025600010B107E0012010BD002084F8380020469B
:1025700000F00CF8022084F83900211D206802F0D8
:1025800067F8012084F83900002010BD08B5016803
:102590001248B1F1804F0BD0114A914210D101681D
:1025A00041F004010160006800F00400009008BDE3
:1025B000016841F001010160006800F00100F5E7E9
:1025C00008488142F3D10548001D016841F002012D
:1025D0000160006800F00200E8E7000040380240B7
:1025E00000080040000401407047000010B5044698
:1025F0000068012202F08CF808492068884202D065
:102600000749884203D1416C41F40041416420688C
:10261000016841F001010160002010BD000001408F
:102620000004014000680349884201D1FFF71CB94A
:1026300070470000001000407047704770B5026896
:1026400004461068D168536910F00F0F50D003F0A2
:10265000010501F4907635435DD0C20705D0CA0567
:1026600003D5E26B42F00102E263420705D5DA07C7
:1026700003D0E26B42F00202E263820705D5DA077B
:1026800003D0E26B42F00402E263020705D5DA07E9
:1026900003D0E26B42F00802E263E26B002A33D01F
:1026A000800604D5880602D5204602F00CFA206880
:1026B0004069E16BC0F38010090700D428B32046BD
:1026C00002F0EAF92068416949061AD5416921F00A
:1026D00040014161606BA0B11B490165606BFEF771
:1026E00033FE002810D0606B016DBDE870400847D4
:1026F000830610D58B060ED52046BDE8704002F04B
:10270000E2B92046FFF799FF70BD2046FFF795FF1D
:102710000020E06370BD030606D50B0604D52046F5
:10272000BDE8704002F06CBB4006F3D54806F1D519
:10273000D168204621F04001D160202184F8391071
:1027400000F098FB70BD0000C149000870B504009E
:1027500004D094F83900002510B106E0012070BDC6
:1027600084F83850204600F023F8242084F83900FB
:102770002068C16821F40051C160204602F0EAF9E6
:102780002068016921F4904101612068416921F0CC
:102790002A0141612068C16841F40051C160E563CC
:1027A000202084F8390084F83A00002070BD000031
:1027B0002DE9F04FF7490446F54A03680227032044
:1027C00000250E1587B04FF001084FF0080E4FF4AA
:1027D00080794FF0400A4FF0006B934256D10A685F
:1027E00042F400220A600968009701F40021059173
:1027F0000121CDE902100820049001976946E648BE
:10280000FEF74AFF01200096CDE9017003200390F6
:1028100008200490B0466946E048FEF73DFFE148D5
:10282000DF495F460160C0E901B5C0E90356456173
:10283000C0E9065905624562FEF768FE20B14FF413
:10284000B471D9A002F051FBD6486063D54E8463C1
:102850006036D348C6E903587561B561F5613562E4
:102860003030756286E881043046FEF74FFE20B1B5
:102870004FF4BD71CCA002F038FB26630022052185
:102880003420B463FFF79AF8342064E0CB4A9342D3
:1028900066D10A68002542F480120A6009680320A4
:1028A00001F480110591991400910221CDE90118DC
:1028B000CDE9030E77466946B848FEF7EDFE0420E1
:1028C00000900220CDE901080320CDE90307694605
:1028D000BB48FEF7E1FEDFF8CC82B14908F1C00841
:1028E00030394046C8F80010C0E901B5C0E90356C8
:1028F000C8F81450C0E90659C8F820505F46C8F817
:102900002450FEF703FE20B14FF4D771A6A002F0C9
:10291000ECFAA348AB4DC4F834807830C8F838409E
:1029200085E881040020C5E903066861A861E861C3
:10293000286268622846FEF7E9FD20B14FF4E07195
:1029400099A002F0D2FA2563002205213520AC635C
:10295000FFF734F83520FFF725F807B0BDE8F08F12
:102960008C4ADFF864C2121D634554D111680025FA
:1029700041F0100111601168CDE9028001F01001F1
:1029800005914FF4C061CDE9001707200490694616
:102990008148FEF781FEDFF838828C4940465F4669
:1029A000C0E90356C8F81450C8F81850C8F81C50AD
:1029B000C8F8205088E88204C8F82450FEF7A6FD25
:1029C00020B140F2ED1178A002F08FFA804D7F48DF
:1029D000C4F83080603D7838C8F83840C5E9000751
:1029E0000020A860C5E903066861C5E906092862F8
:1029F00068622846FEF78AFD20B140F2FF116AA006
:102A000002F073FA6563002205212520AC63FEF70E
:102A1000D5FF25209FE7DFF8BCC163455CD10A687C
:102A200042F400320A600968CDE9028001F4003105
:102A300005910C21CDE900170720049069465648FE
:102A4000FEF72AFEDFF85C815549A8F16008404690
:102A50006031C0E90356C8F81450C8F81850C8F8D7
:102A60001C505F46C8F8205088E88204C8F82450FB
:102A7000FEF74CFD20B14FF40B714BA002F035FA7C
:102A8000C4F83080C8F83840DFF84481444908F180
:102A9000600848314046C8F80010C0E90175C0E937
:102AA0000356C8F81450C0E90659C8F82050C8F8B1
:102AB0002450FEF72BFD20B140F23E213AA002F057
:102AC00014FAC4F83480002205212620C8F83840C2
:102AD000FEF774FF26203EE7DFF8FCC063457FD198
:102AE0000A68002542F480220A600968CDE9028064
:102AF00001F4802105914FF44061CDE900170720D2
:102B0000049069463548FEF7C7FDDFF8B8802449D0
:102B100008F1600840461831C0E90356C8F814505F
:102B2000C8F81850C8F81C505F46C8F8205088E80C
:102B30008204C8F82450FEF7E9FC20B140F26B2172
:102B400019A002F0D2F91F4D1548C4F83080C035E5
:102B50001838C8F83840C5E900070020A860C5E962
:102B600003066861C5E90609286268622846FEF71F
:102B7000CDFC20B140F27D210BA002F0B6F96563D7
:102B8000002205212720AC63FEF718FF2720E2E68C
:102B9000004C004040380240000002400008024063
:102BA000406002400C7100202E2E2F436F72652F63
:102BB0005372632F75736172742E6300005000406E
:102BC000000C02402C72002000100140B86402404A
:102BD000EC6F002000440040004800400004024028
:102BE000FFE727498B427FF4B8AE116841F020011E
:102BF0001160116801F020010591C0218DE882016A
:102C0000CDE9030E69461F48FEF746FD1F4F1E48DB
:102C10004FF02068C7E903567D61BD61FD613D62EB
:102C20007D6287E801053846FEF770FC28B140F266
:102C3000AA21AFF28C0002F058F92763BC63134F4E
:102C40001148603778383860C7E90185C7E903560D
:102C50007D61C7E906593D6238467D62FEF756FC44
:102C600028B14FF42F71AFF2C00002F03EF9676354
:102C7000002205214720BC63FEF7A0FE47206AE63C
:102C80000014014000080240A06402404C73002080
:102C9000F8B5044690F83A0020283CD1C1B3BAB345
:102CA00094F83800012836D0012084F83800A16259
:102CB000A2850025E563222084F83A00636B17485B
:102CC000D863636B16481864636B1648D864606BEE
:102CD000134605650846666B216802463046091DA5
:102CE000FEF77EFC206801684168009184F8385046
:102CF000C16841F48071C1602068416941F00101FF
:102D000041612068416941F0400141610020F8BD06
:102D1000FFE70120FBE70220F9E700001B4A00085B
:102D2000574A0008D1490008F0B5294B0268012133
:102D300028489A4202D180F8D419F0BD264B9A4215
:102D400002D180F8C419F0BD244B9A4202D180F818
:102D5000E419F0BD22498A42FBD0224D22492C15AC
:102D60000023AA4216D1002001F21A420D18B1F830
:102D70001C682D7CB554B1F81C586D1CADB2A1F87F
:102D80001C58A54201D3A1F81C38401C80B20A2867
:102D9000ECD3F0BD154DAA42FBD146F2AE55002250
:102DA0000D448E1806F5C046B0F8B07996F8A461C7
:102DB0007E55B0F8B069761CB6B2A0F8B069A642EC
:102DC00001D3A0F8B039521C92B20A2AE9D3F0BD5F
:102DD00000100140B0620020004400400048004064
:102DE000004C004000500040B002002000140140A0
:102DF0007047000070B5044690F83900202830D1A3
:102E000069B362B394F8380001282AD0012084F80D
:102E100038002162A284E2840025E563212084F841
:102E20003900236B1048D863236B10481864236B58
:102E30000F48D864206B134605652668206B321D49
:102E4000FEF7CEFB21686FF04000086084F8385030
:102E50002068416941F080014161002070BD01207E
:102E600070BD022070BD0000614A00088F4A000852
:102E7000D149000800680149704700000010014076
:102E80007047FEE770B501001048114E4FF4005531
:102E900005D0012914D0022915D0032909D0012217
:102EA00020210446FEF7D4FC012240212046FEF7F3
:102EB000CFFC012229463046BDE87040FEF7C8BC71
:102EC00001222021F8E701224021F5E7001002400D
:102ED0000008024070B501001048114E4FF4005533
:102EE00005D0012914D0022915D0032909D00022C8
:102EF00020210446FEF7ACFC002240212046FEF7CC
:102F0000A7FC002229463046BDE87040FEF7A0BC71
:102F100000222021F8E700224021F5E700100240BE
:102F20000008024070B501000E480F4E4FF40055E6
:102F300005D0012911D0022911D0032907D0202161
:102F40000446FEF781FC40212046FEF77DFC294621
:102F50003046BDE87040FEF777BC2021F9E74021FC
:102F6000F7E700000010024000080240394808B5A9
:102F7000016841F480010160016801F48001009161
:102F8000016841F4001101600068002200F40010A3
:102F9000009005210B20FEF711FD0B20FEF702FD2E
:102FA000002205210C20FEF709FD0C20FEF7FAFC9B
:102FB000002205210D20FEF701FD0D20FEF7F2FC99
:102FC000002205210E20FEF7F9FC0E20FEF7EAFC98
:102FD000002205210F20FEF7F1FC0F20FEF7E2FC96
:102FE000002205211020FEF7E9FC1020FEF7DAFC94
:102FF000002205211120FEF7E1FC1120FEF7D2FC92
:10300000002205212F20FEF7D9FC2F20FEF7CAFC55
:10301000002205213920FEF7D1FC3920FEF7C2FC41
:10302000002205213A20FEF7C9FC3A20FEF7BAFC3F
:10303000002205214520FEF7C1FC4520FEF7B2FC29
:10304000002205214620FEF7B9FCBDE808404620D5
:10305000FEF7A8BC3038024010B590B014221149D8
:103060006846FDF73CF90021684602F0D6FF0E4C99
:103070000C4914222060143105A8FDF730F9002115
:1030800005A802F0CAFF07496060142228310AA887
:10309000FDF725F900210AA802F0BFFFA06010B0DB
:1030A00010BD0000506D0008000000202DE9F04F19
:1030B0005A4887B00024016841F01001016001689E
:1030C00001F010010591016841F0040101600168FF
:1030D00001F004010591016841F08001016001687F
:1030E00001F080010591016841F001010160016872
:1030F00001F001010591016841F0020101600168E0
:1031000001F002010591016841F0080101600068C9
:10311000002200F00800059060214148FEF798FB6E
:10312000DFF800914FF40057002239464846FEF779
:103130008FFBDFF8F4A001224FF441715046FEF7F7
:1031400087FB012280213648FEF782FBDFF8DCB0E6
:103150004FF44076002231465846FEF779FB4FF493
:103160004068012241465846FEF772FB0125E020E7
:10317000CDE90005CDE9025469462948FEF78CFAED
:103180000097CDE90154694648460394FEF784FA56
:10319000CDE90054694626480294FEF77DFA0420E2
:1031A000022703948DE8A10069465046FEF774FAA1
:1031B000CDE90274CDE9006569465846FEF76CFA20
:1031C000CDF80080CDE90154694658460394FEF7D6
:1031D00063FA0096CDE90154694650460394FEF720
:1031E0005BFA032000901348CDE9010569460C48BD
:1031F000FEF752FA002205210620FEF7DFFB06202B
:10320000FEF7D0FB002205210720FEF7D7FB0720A1
:10321000FEF7C8FB07B0BDE8F08F00003038024071
:10322000001002400008024000040240000C02406E
:10323000000002400000111010B5284886B0264951
:103240000160A7210024C0E901144FF6FF71C0E915
:1032500003144461FEF7AFFF18B14F2120A001F025
:1032600044FE049404A91D480594FEF7C4FE18B159
:1032700056211BA001F039FE0120CDE90040029447
:103280000022694615480394FEF706FF18B15F2136
:1032900013A001F02AFE042269461048FEF7FCFE46
:1032A00018B164210EA001F020FE082269460B48E7
:1032B000FEF7F2FE18B1692109A001F016FE0C22FA
:1032C00069460648FEF7E8FE002803D06E2104A0F8
:1032D00001F00BFE06B010BD00000140E06C0020C4
:1032E0002E2E2F436F72652F5372632F74696D2ECC
:1032F0006300000010B51E488AB04FF080410160A5
:1033000053210024C0E901146321C0E90314FFF72D
:1033100022F918B17F2117A001F0E7FD079407A952
:1033200013480894FEF767FE18B1862111A001F03A
:10333000DCFD6020CDE900040294002269460C48BF
:103340000494FFF7A0F818B18F210AA001F0CDFD79
:10335000042269460648FFF796F818B1942105A0A3
:1033600001F0C3FD0248FFF749F80AB010BD0000A4
:103370001C6D00202E2E2F436F72652F5372632F0A
:1033800074696D2E6300000010B5284886B0264988
:10339000016053210024C0E901144FF6FF71C0E918
:1033A0000314FEF708FF18B1A72121A001F09DFD2D
:1033B000049404A91D480594FEF71DFE18B1AE2122
:1033C0001BA001F092FD0120CDE9004002940022F3
:1033D000694616480394FEF75FFE18B1B72114A0A2
:1033E00001F083FD042269461048FEF755FE18B12E
:1033F000BC210FA001F079FD082269460B48FEF7B9
:103400004BFE18B1C1210AA001F06FFD0C226946E4
:103410000648FEF741FE002803D0C62104A001F0B3
:1034200064FD06B010BD000000040040586D00208F
:103430002E2E2F436F72652F5372632F74696D2E7A
:103440006300000010B528488AB026490160532166
:103450000024C0E901146321C0E90314FFF77BF8DD
:1034600018B1D72121A001F040FD079407A91E48FB
:103470000894FEF7C0FD18B1DE211CA001F035FD57
:103480006020CDE9000402940022694616480494A5
:10349000FEF7F9FF18B1E72114A001F026FD042280
:1034A00069461148FEF7EFFF18B1EC210FA001F0BB
:1034B0001CFD082269460C48FEF7E5FF18B1F12112
:1034C0000AA001F012FD0C2269460748FEF7DBFF57
:1034D00018B1F62105A001F008FD0348FEF78EFFA4
:1034E0000AB010BD00080040946D00202E2E2F431E
:1034F0006F72652F5372632F74696D2E6300000025
:1035000010B52C4890B02A490160A7210024C0E9D9
:1035100001146321C0E903144461FFF71CF820B1D2
:1035200040F20B1124A001F0E0FC0E940EA92148FA
:103530000F94FEF760FD20B14FF489711EA001F0D9
:10354000D4FC6020CDE90004029403940494059413
:103550000822694617480694FEF795FF20B14FF4FC
:103560008F7115A001F0C1FC0C2269461148FEF7CD
:103570008AFF20B140F223110FA001F0B6FC07949E
:10358000089409944FF400500A94CDE90B4007A920
:1035900008480D94FEF702FD20B140F22F1106A05D
:1035A00001F0A3FC0348FEF729FF10B010BD000096
:1035B00000040140D06D00202E2E2F436F72652F26
:1035C0005372632F74696D2E630000000D4810B5AF
:1035D0000B4901604FF4E1314160002181600C2210
:1035E000C160C0E904128161C161FFF7AFF8002832
:1035F00005D0BDE81040D92103A001F076BC10BD74
:10360000004C00400C6E00202E2E2F436F72652F51
:103610005372632F75736172742E63000D4810B579
:103620000B4901604FF4E1314160002181600C22BF
:10363000C160C0E904128161C161FFF787F8002809
:1036400005D0BDE81040EB2103A001F04EBC10BD39
:10365000005000404C6E00202E2E2F436F72652FBD
:103660005372632F75736172742E63000D4810B529
:103670000B4901604FF416514160002181600C221A
:10368000C160C0E904128161C161FFF75FF80028E1
:1036900005D0BDE81040FE2103A001F026BC10BDFE
:1036A000001001408C6E00202E2E2F436F72652F6C
:1036B0005372632F75736172742E63000E4810B5D8
:1036C0000C4901604FF416514160002181600C22C9
:1036D000C160C0E904128161C161FFF737F80028B9
:1036E00006D0BDE8104040F2111104A001F0FDBB6E
:1036F00010BD000000440040CC6E00202E2E2F4351
:103700006F72652F5372632F75736172742E63002D
:103710000E4810B50C4901604FF41651416000216C
:1037200081600C22C160C0E904128161C161FFF7B0
:103730000DF8002806D0BDE810404FF4927104A0A7
:1037400001F0D3BB10BD0000004800400C6F00200A
:103750002E2E2F436F72652F5372632F7573617214
:10376000742E63000E4810B50C4901604FF41651D9
:103770004160002181600C22C160C0E904128161B6
:10378000C161FEF7E3FF002806D0BDE8104040F21B
:10379000371104A001F0A9BB10BD000000140140C6
:1037A0004C6F00202E2E2F436F72652F5372632FA4
:1037B00075736172742E6300FEE770470907090E86
:1037C000002806DA00F00F0000F1E02080F8141D58
:1037D000704700F1E02080F80014704710B52DED1F
:1037E000068BB0EE609AF0EE618A71EE400ADFED72
:1037F000211A31EE000A20EEA18AF6EE000A20EE30
:10380000200ADFED1D0A20EE200A10EE100AFCF758
:1038100037FF41EC100B01F0EFFDB0EE40AA38EE9F
:10382000C90AF0EE60AA10EE100AFCF729FF53EC6B
:103830001A2BFCF70DFE9FED111B53EC112BFCF71F
:1038400007FEFCF761FF68EE080A00EE100A40EE82
:10385000000A10EE900AFCF713FF41EC100B01F088
:103860009FFE51EC100BFCF74FFFBDEC068B00EEFA
:10387000100A10BD00B1D84735FA8E3C0000000098
:10388000602DFB4010B52DED068B31EE409A31EEE8
:10389000000AF0EE608AF6EE000AB0EE618A20EED1
:1038A000200ADFED260A20EE200A10EE100AFCF7AF
:1038B000E7FE41EC100B01F09FFDB0EE40AA38EEA0
:1038C000680AF0EE60AA10EE100AFCF7D9FE53EC7D
:1038D0001A2BFCF7BDFDFCF717FFFCF7D1FE41ECFE
:1038E000180BB1EE490A10EE100AFCF7C9FE41ECC4
:1038F000100BB0EE481AF0EE681A01F085FC9FED4F
:10390000101B51EC100B53EC112BFCF7A1FD9FED9C
:103910000E1B53EC112BFCF7F4FCFCF7F5FE00EE4C
:10392000100AB5EEC00AF1EE10FA03D2DFED080A74
:1039300030EE200ABDEC068B10BD000035FA8E3C3F
:1039400000000020DCA54C40000000000080564034
:103950000000B443F0B50D4A002302F11A044FF4FD
:10396000806C1D460FE0B2F81E78C65C3E55B2F87A
:103970001E68761CB6B2A2F81E68664501D3A2F88E
:103980001E585B1C9BB28B42EDD3F0BDB0020020F1
:103990002DE9F0410446444E14F8060F60F3070584
:1039A000607860F30F25A07860F31745E07860F346
:1039B0001F653560207960F30705607960F30F2596
:1039C000A07960F31745E07960F31F6528467560BC
:1039D000FCF71FFE9FED351B53EC112BFCF738FD58
:1039E000344FC7E90201207A60F30705607A60F37B
:1039F0000F25A07A60F31745E07A60F31F6528462B
:103A0000B560FCF706FE9FED291B53EC112BFCF76C
:103A10001FFDC7E90001207B60F30705607B60F3B1
:103A20000F25A07B60F31745E07B60F31F652846F8
:103A3000F560FCF7EEFD9FED201B53EC112BFCF71E
:103A400007FDC7E90401207C60F30705607C60F393
:103A50000F25A07C60F31745E07C60F31F6500EE46
:103A6000105A17483561B8EEC00A80ED020A207D71
:103A700060F30705607D60F30F25A07D60F31745B7
:103A8000E07D60F31F657561207E60F30705607E51
:103A900060F30F25A07E60F31745E07E60F31F659D
:103AA000B561BDE8F081000078B3002048AFBC9A52
:103AB000F2D77A3E28640020FCA9F1D24D62503F33
:103AC0007C00002010B582791C4C62F30701C2799A
:103AD00062F30F21027A62F31741427A62F31F61A7
:103AE000154A1160837A536084F87031C37A936009
:103AF000037BD360437B1361827B62F30701C27B4C
:103B000062F30F21027C62F31741427C62F31F6172
:103B1000094A243A5161827C62F30701C27C62F354
:103B20000F21027D407D62F3174160F31F6102485F
:103B30002438816110BD00005CB30020B062002019
:103B40002DE9F04104462DED028B14F8061F5D4D62
:103B500061F30700617861F30F20A17861F31740EA
:103B6000E17861F31F60584928604860217961F36A
:103B70000700617961F30F20A17961F31740E179C2
:103B800061F31F6000EE100AB8EEC00ADFED4F0AC5
:103B90004F4E20EE200ABDEEC00A85ED010AB8EEB8
:103BA000C00A86ED020A14F8081F61F30700617865
:103BB00061F30F20A17861F31740E17861F31F6092
:103BC0000746A860FCF725FD9FED428B53EC182BB0
:103BD000FCF73EFCFCF798FDF0602079E17960F39A
:103BE0000707607960F30F27A07960F3174738461D
:103BF00061F31F600746E860FCF70BFD53EC182BE0
:103C0000FCF726FCFCF780FDF060217A384661F372
:103C10000700617A61F30F20A17A61F31740E17A1E
:103C200061F31F6007462861FCF7F3FC53EC182B87
:103C3000FCF70EFCFCF768FD3060207B60F30707A3
:103C4000607B60F30F27A07B60F31747E07B60F396
:103C50001F676F61217C384661F30700617C61F367
:103C60000F20A17C61F31740E17C61F31F600746E0
:103C7000A861FCF7CEFC9FED191B53EC112BFCF750
:103C8000E7FBFCF741FD7060207D60F30707607D76
:103C900060F30F27A07D60F31747E07D60F31F6797
:103CA000EF61207E60F30707607E60F30F27A07E40
:103CB00060F31747E07E60F31F672F62BDEC028B55
:103CC000BDE8F08138B300207C0000200AD7233CF7
:103CD000406400207B14AE47E17A843FF168E388BA
:103CE000B5F8E43E2DE9F041314C32490025227807
:103CF00042B1012A0DD0022A11D0032A13D0042A7E
:103D000018D04DE0EB284BD1012222700870BDE89D
:103D1000F081902844D1022222704870F7E70322F4
:103D200022708870F3E7421CA2700422E2702270B5
:103D3000C870ECE7A2786AB3521E12F0FF03A370BA
:103D4000E278885402F10102D7B2E770DFD18B78B4
:103D5000412B29D0DFF85CC0002630469CF80320B8
:103D6000121D05E01CF800E0401C7644B6B2C0B25B
:103D70008242F7D8CA19F0B212F8012C904211D140
:103D8000082B0CD2DFE803F0040707070707070733
:103D90004879207104E0074800F00EF800E0257033
:103DA0002570B4E7412BB2D1024800F019F8F7E7CB
:103DB000A000002024AF012082784179042A0CD190
:103DC0000648CA0706D00122027749084177C18B0D
:103DD000491C01E000210177C183704798AD0120A3
:103DE0002DE9F04704462DED068B82B0FDF7C8F9AA
:103DF000E178E21C8A5C8DF80020221D895C8DF838
:103E00000110BDF8001081427ED114F8050F94F81E
:103E100001A0A1788DF80010E1788DF80110BDF8AF
:103E2000008021798DF8001061798DF80110BDF8BE
:103E30000050A1798DF80010E1798DF80110217AF8
:103E40008DF80210617A8DF80310A17A8DF80410B4
:103E5000E17A8DF80510217B8DF80610617B8DF8D5
:103E600007109DED00ABA17B8DF80010E17B8DF874
:103E70000110217C8DF80210617C8DF80310A17C6B
:103E80008DF80410E17C8DF80510217D8DF8061069
:103E9000617D8DF807109DED009BA17D8DF80010D0
:103EA000E17D8DF80110BDF9001000EE101AB8EE9A
:103EB000C00ADFED3B0A217E8DF80010617E8DF88F
:103EC0000110BDF80070A17E8DF80010E17E8DF824
:103ED0000110BDF80060217F8DF80010617F8DF822
:103EE000011020EE208ABDF80090FCF7A3FB0AEB3E
:103EF000CA032C4A03EB0A1302EB432202EB85149C
:103F0000C4E90001404600E044E0FCF793FBC4E94B
:103F1000020184ED04AB84ED069B18EE100AFCF759
:103F2000AFFBC4E908013846FCF784FBC4E90A0189
:103F30003046FCF77FFBC4E90C014846FCF77AFBEE
:103F4000C4E90E011848C5EBC501C0F83081A0F5E1
:103F5000C04000EBC10418EE100AC4F8B05904F5D3
:103F6000006484ED70AB84ED6E9BFCF789FB00EE82
:103F7000107AC4E972010D48B8EE400A012184EDBF
:103F8000740A00EE106AB8EE400A84ED750A80F8F3
:103F90002410C58402B0BDEC068BBDE8F08700009C
:103FA000CDCCCC3D98B30020B062002098AD01206C
:103FB000F0B58DB012AF97E87000AA278DF80870A1
:103FC0008DF8097041278DF80A7000278DF80C7064
:103FD0008DF80D00ADF800208DF80E109DF8000052
:103FE0008DF80F009DF801008DF81000ADF800303D
:103FF0009DF800008DF811009DF801008DF80B7000
:104000008DF812008DED000B9DF800008DF8130067
:104010009DF801008DF814009DF802008DF8150040
:104020009DF803008DF816009DF804008DF8170028
:104030009DF805008DF818009DF806008DF8190010
:104040009DF807008DF81A008DED001B9DF800000B
:104050008DF81B009DF801008DF81C009DF80200F2
:104060008DF81D009DF803008DF81E00B2EE040AC5
:104070009DF804008DF81F0022EE000A9DF805004F
:104080008DF820009DF806008DF82100BDEEC00AD5
:104090009DF807008DF8220010EE100AADF8000020
:1040A0009DF800008DF823009DF801008DF8240094
:1040B000ADF800409DF800008DF825009DF8010046
:1040C0008DF82600ADF800509DF800008DF827000F
:1040D0009DF801008DF82800ADF800609DF8000003
:1040E0008DF829009DF801008DF82A0020208DF818
:1040F0000B0002A8FDF744F8ADF800009DF80000A1
:104100008DF82B009DF801008DF82C00252102A8C8
:10411000FFF720FC0DB0F0BD2DE9F0438DB014ACDD
:104120004FF0AA0894E8E0128DF800808DF8018025
:104130008DF8020000208DF804008DF805108DF830
:1041400006208DF8085009208DF809600D218DF8A2
:104150000A708DF8030000226C468DF807308DF848
:104160000B908DF80CC01046235C401C1A44C0B262
:10417000D2B28842F8D362542046491CFFF7EAFBCA
:104180000DB0BDE8F08300002DE9F04F5248534DCB
:104190002DED048B85B0D0ED020A70EE800AC0EDE3
:1041A000020A287F00287FD0D5ED080A30EE800A69
:1041B00010EE100A85ED080A9FED498AA5F57A44AC
:1041C0009FED489BB0F17C5F6EDB85ED088A687FD0
:1041D00053EC192B00EBC00101EB0010E98B04EB51
:1041E000402000EB811090ED020B51EC100BFCF71E
:1041F0005BFA11D10020B0EE490AF0EE690A009096
:104200000190B0EE482AB0EE401AF0EE601A034674
:1042100002460146029043E0687F834600EBC001FE
:1042200001EB001004EB4021E88B01EB8014824687
:1042300094ED0E0B51EC100BFCF709FA94ED0C0BFE
:104240001FFA80F951EC100BFCF701FA94ED0A0B00
:104250001FFA80F851EC100BFCF7F9F994ED080BFC
:1042600087B251EC100BFCF74FFA94ED020B08EEFD
:10427000100A51EC100BFCF7EAF994ED000B86B232
:1042800051EC100BFCF7E3F98DE88003C0B294ED1C
:10429000061B94ED040BB0EE482A534632465946AD
:1042A00000E001E0FFF784FE95F8240000280ED01E
:1042B000E98C002085F8240001900290039004907E
:1042C0000B0ACAB2009007210420FFF725FF05B0B2
:1042D000BDEC048BBDE8F08FA000002098AD01205C
:1042E0000000000000000000000000002DED028B27
:1042F00000214648FDF7C2FF04214448FDF7BEFFF8
:1043000008214248FDF7BAFF0C214048FDF7B6FFEF
:1043100000213F48FDF7B2FF04213D48FDF7AEFF05
:1043200008213B48FDF7AAFF0C213948FDF7A6FFFD
:1043300000213848FEF75AF904213648FEF756F9AD
:1043400000213548FEF752F904213348FEF74EF9B3
:1043500008213148FEF74AF90C212F48FEF746F9AB
:1043600008212E48FEF742F90C212C48FEF73EF9B1
:1043700002222B492B48FEF78BFC294902221039D7
:104380002948FEF785FC2649022210312748FEF70E
:104390007FFC0A2226492748FEF77AFC4FF4165084
:1043A000FCF7AAFF0A2224492448FEF771FC02F018
:1043B00077F81F4C9FED228A103C04F21A454FF407
:1043C00080670026642001F012FE0020FEF7AAFD9F
:1043D000B0EE480AFFF7D8FE00F0DEFA0CE0405DD0
:1043E000FFF780FCB4F81A08401C80B2A4F81A0841
:1043F000B84201D3A4F81A68B4F81A08B4F81C1823
:104400008842ECD101F020FEDCE70000E06C0020E7
:10441000586D00201C6D0020946D0020D06D002090
:10442000856C00208C6E0020CC6E00200C6F00206C
:10443000C00200204C6E0020546400204C6F00200D
:10444000CDCCCC3D2DED028B074C9FED088A14207E
:1044500001F0CDFDB0EE480AD4F82008FCF7DEFDEF
:1044600001F0F2FDF3E70000B00200200AD7A33C00
:1044700000252C4C40F2EE292E460A2001F0B7FD13
:104480000A35ADB2FA2D08D0B5F5FA7F0BD04D45FF
:1044900012D194F8E40960B10EE094F8D40970B92F
:1044A00000F0F8FC08E094F8C40928B900F000FD19
:1044B00002E000F00BFD002594F8D40920B184F847
:1044C000D469194801F0E6FC94F8C40928B11648EB
:1044D00084F8C469103801F005FD94F8E40928B1A6
:1044E000114884F8E469103001F024FD0F4F4FF4B7
:1044F000806800BFB4F8AE09B4F8B01988420DD096
:10450000C05D02F097F8B4F8AE09401C80B2A4F880
:10451000AE094045EED3A4F8AE69EBE701F094FD97
:10452000ABE70000B0620020856C00205E680020D0
:1045300001F069BD30B5274893B00025016841F00E
:1045400080510160006800F080501190224801689D
:1045500041F4804101600068022400F48040119021
:1045600001200090000401908001CDE90640042064
:104570000890A820CDE9090407200B906846FDF7B4
:104580005DFB08B1B2210FE00CA90F2081E83100DA
:104590004FF4A0500F904FF48050109005210CA8BC
:1045A000FDF73EFA18B1C0210CA000F09EFCFDF70B
:1045B000EFFA4FF47A71B0FBF1F0FDF7D9FC04206B
:1045C000FDF7CAFC00220F21501EFDF7F7F913B0CA
:1045D00030BD000040380240007000402E2E2F43B6
:1045E0006F72652F5372632F6D61696E2E630000C9
:1045F0001048016841F4700101600F48016841F002
:10460000010101600C4A00210832116002680B4B65
:104610001A400260031D0A4A1A60026822F48022CE
:10462000026005480C300160024958068039086074
:104630007047000088ED00E000380240FFFFF6FE02
:10464000103000240148FDF726BE00000C74002045
:10465000F0B50268234B244D244E254F254C4FF0D6
:10466000804C984209D0604507D0A84205D0B0429E
:1046700003D0B84201D0A04204D122F0700E4A68A3
:1046800042EA0E0298421BD0604519D0A84217D0CA
:10469000B04215D0B84213D0A04211D0164DA84256
:1046A0000ED0164DA8420BD0154DA84208D0154D7E
:1046B000A84205D0144DA84202D0144DA84203D1FF
:1046C00022F44075CA682A4302608A68C2620A6896
:1046D0008262984201D0A04201D10969016301219F
:1046E0004161F0BD000001400004004000080040AE
:1046F000000C004000040140004001400044014023
:104700000048014000180040001C0040002000400C
:1047100010B50123046A8B409C430462036A8A40FB
:104720001343036210BD000030B5026A22F001029B
:104730000262026A436884690D6824F073042543A9
:1047400022F002048A6822430B4CA04202D00B4C98
:10475000A0420BD122F00804CA6823F4407322431C
:104760004C6922F004021C438B692343436085613A
:1047700049684163026230BD00000140000401400D
:1047800030B5026A22F010020262026A436884694C
:104790000D6824F4E64444EA05248D6822F02002E2
:1047A00042EA05120D4DA84202D00D4DA8420ED18D
:1047B000CD6822F0800242EA05124D6923F440637D
:1047C00043EA85038D6922F0400243EA8503436092
:1047D000846149688163026230BD000000000140CD
:1047E0000004014030B5026A22F480720262036A5A
:1047F0004268C46923F4007324F073050C682C43E9
:104800008D6843EA05230D4DA84202D00C4DA84205
:104810000ED1CD6823F4006343EA05234D6922F4E9
:10482000405242EA05128D6923F4806342EA051280
:104830004260C4614968C163036230BD0000014049
:104840000004014030B5026A22F480520262046A18
:104850004268C3690D6823F4E64343EA05238D6883
:1048600024F4005444EA0534084DA84202D0084D0F
:10487000A84204D14D6922F4804242EA8512426086
:10488000C36149680164046230BD0000000001405A
:104890000004014070B5046A24F0010404628469D4
:1048A000056A164EB04214D0B0F1804F11D0144EAC
:1048B000B0420ED0134EB0420BD0134EB04208D0CF
:1048C000124EB04205D0124EB04202D0114EB0424C
:1048D00003D124F00304144303E024F0030242F064
:1048E00001041A0724F0F00444EA126225F00A03D6
:1048F00001F00A0119438261016270BD00000140AC
:104900000004004000080040000C0040000401408A
:10491000004001400018004030B5046A24F0100443
:1049200004628469056A24F4407444EA022222F491
:1049300070444FF6FF7202EA03322243A02425F0AE
:10494000A00304EA011119438261016230BD000035
:1049500010EE100A0749DFED080A884202DD30EE4A
:10496000600A704710EE100A04498842F9D930EE07
:10497000200A7047000034430000B443000034C3F1
:104980000148FDF75BBE00000C6E00200148FDF7FA
:1049900055BE00004C6E002010B5074CB4F81E2820
:1049A000002A08D004F11A010448FEF723FA00286F
:1049B00001D1A4F81E0810BDB00200204C6E0020EA
:1049C00010B5806B0021C185C184FDF736FE10BD96
:1049D00070B5846B2068406994F83910C0F3C0103A
:1049E0000025212904D118B1E584204600F062F8A1
:1049F0002068406994F83A10C0F38010222904D14D
:104A000018B1E585204600F047F8E06B40F0100053
:104A1000E0632046FDF711FE70BD10B50146806BC6
:104A200009680968C90513D40021C1850168CA68ED
:104A300022F48072CA6001684A6922F001024A6168
:104A400001684A6922F040024A61202180F83A1048
:104A5000FEF76AF910BD10B5806BFEF7C9F910BDFD
:104A600010B50146806B09680968C9050CD400219E
:104A7000C18401684A6922F080024A610068C16805
:104A800041F04001C16010BDFEF7F4F910BD10B552
:104A9000806BFEF7F5F910BD0168CA6822F49072C8
:104AA000CA6001684A6922F001024A61202180F847
:104AB0003A1070470168CA6822F0C002CA6020211B
:104AC00080F83910704710B590F83A10222901D0BB
:104AD000022010BD8168B1F5805F11D00169002905
:104AE00001681FD0496801F07F03816A4A1C826215
:104AF0000B70C18D491E0904090CC18518D026E030
:104B00000269816A002A0268526805D0D2B20A801E
:104B1000816A491C8162ECE7C2F308020A80816A5B
:104B2000891CF7E74A68816A4B1C83620A70E0E7D8
:104B30000168CA6822F49072CA6001684A6922F06A
:104B400001024A61202180F83A10FEF7EDF80020BA
:104B500010BD00002DE9F04104460068016921F410
:104B60004052E168114301612168C86849F20C6252
:104B700090432369A268E5691A4363692B431A438A
:104B80000243CA602168486920F44072A06910435A
:104B90004861E1696425B1F5004F9748974A21685B
:104BA0004FF032083FD0914201D081427CD1FDF7D5
:104BB00005F800EBC00101EB001061688900B0FB53
:104BC000F1F6FCF7FBFF00EBC00101EB00106168A0
:104BD0008900B0FBF1F0B0FBF5F06FF0180148432D
:104BE00006EB800108EB0110B0FBF5F000F0F006D9
:104BF000FCF7E4FF00EBC00101EB001061688900E5
:104C0000B0FBF1F0B0FBF5F006EB0016FCF7D6FFB9
:104C100000EBC00101EB001061688900B0FBF1F707
:104C2000FCF7CCFFD2E0914201D081423DD1FCF7AC
:104C3000C5FF00EBC00101EB001061684900B0FB4B
:104C4000F1F0B0FBF5F00601FCF7B8FF00EBC00196
:104C500001EB001061684900B0FBF1F7FCF7AEFF13
:104C600000EBC00101EB001061684900B0FBF1F0FE
:104C7000B0FBF5F06FF01801484307EB800108EB3B
:104C8000C100B0FBF5F000F0F80006EB4006FCF7C1
:104C900095FF00EBC00101EB001061684900B0FB1B
:104CA000F1F7FCF78BFF3CE055E0FCF777FF00EBFA
:104CB000C00101EB001061684900B0FBF1F0B0FBEE
:104CC000F5F00601FCF76AFF00EBC00101EB0010F4
:104CD00061684900B0FBF1F7FCF760FF00EBC00131
:104CE00001EB001061684900B0FBF1F0B0FBF5F09A
:104CF0006FF01801484307EB800108EBC100B0FBDF
:104D0000F5F000F0F80006EB4006FCF747FF00EB7B
:104D1000C00101EB001061684900B0FBF1F7FCF73E
:104D20003DFF00EBC00101EB001061684900B0FBE2
:104D3000F1F0B0FBF5F06FF01801484307EB80018C
:104D400008EBC100B0FBF5F000F00700216830442B
:104D50008860BDE8F081FCF721FF00EBC00101EBAA
:104D6000001061688900B0FBF1F6FCF717FF00EB5B
:104D7000C00101EB001061688900B0FBF1F0B0FBED
:104D8000F5F06FF01801484306EB800108EB0110C5
:104D9000B0FBF5F000F0F006FCF700FF00EBC001FF
:104DA00001EB001061688900B0FBF1F0B0FBF5F099
:104DB00006EB0016FCF7F2FE00EBC00101EB001061
:104DC00061688900B0FBF1F7FCF7E8FE00EBC00179
:104DD00001EB001061688900B0FBF1F0B0FBF5F069
:104DE0006FF01801484307EB800108EB0110B0FB9E
:104DF000F5F000F00F00A9E7001401400010014099
:104E000090F83910212901D0022070478168B1F54E
:104E1000805F016A0BD04A1C026202680978516007
:104E2000C18C491E0904090CC1840ED017E0098801
:104E30000268C1F30801516001690029016A02D0CA
:104E4000491C0162ECE7891CFBE70168CA6822F093
:104E50008002CA600068C16841F04001C160002062
:104E6000704700000148FDF7E9BB00008C6E002090
:104E70000148FDF7E3BB0000CC6E00200148FDF7C0
:104E8000DDBB00000C6F00200148FDF7D7BB000020
:104E90004C6F002004485521012280F8D71900F6F4
:104EA000D7110248FDF7A6BFB06200208C6E00202B
:104EB00004485521012280F8C71900F6C71102489D
:104EC000FDF798BFB0620020CC6E00200448552149
:104ED000012280F8E71900F6E7110248FDF78ABFC2
:104EE000B06200200C6F0020FEE70120FDF7CAFF32
:104EF0000220FDF7EFFF0320FDF7C4FFF5E703B441
:104F000001984100009850EAC12018BF04204A0DC2
:104F100018BF40F0010040F2FF72B2EB515F08BFD2
:104F200040F00200012808BF052002B070470000D1
:104F300070B59B482DED020B2DED068B079D25F0DE
:104F40000044A04218DC9748844202DC0AD106984B
:104F500040B19DED060BBDEC068B02B0BDE8704084
:104F600000F046BF002DCCBF9FED8F0B9FED900B47
:104F7000BDEC068B02B070BD8F48A04215DD8F4896
:104F8000A042D8BF4FF0FF3458DD9DED060B51EC29
:104F9000100BFFF7B4FF042808BF00F04DFF9DED94
:104FA000060BBDEC068B02B070BD9DED060B51ECFF
:104FB000100B00F0E7FFCDE9060181489FED828BE1
:104FC000A0423CDD8248A0421FDD00249FED82AB61
:104FD0009DED060B53EC1A2B51EC100BFBF791F9DE
:104FE0009DED060B41EC190B53EC1A2B51EC100BF9
:104FF000FBF72EFA53EC182BFBF724FA53EC192B82
:10500000FBF798FACDE9060149E09DED060B012476
:1050100053EC182B51EC100BFBF773F99DED060BBD
:1050200041EC190B53EC182B51EC100BFBF70AFA5F
:1050300053EC192BFBF77EFACDE906012FE0684807
:10504000A0421FDD02249FED689B9DED060B53ECF3
:10505000192B51EC100BFBF7FBF953EC182BFBF75A
:1050600050F99DED060B41EC180B53EC192B51EC4C
:10507000100BFBF7E7F953EC182BFBF75BFACDE9C4
:1050800006010CE09DED060B032453EC102B9FED65
:10509000580B51EC100BFBF74DFACDE906019DEDD5
:1050A000060B53EC102B51EC100BFBF7D1F941EC34
:1050B000180B53EC182BFBF7CBF941EC190B4E48AE
:1050C0000621B0EE490AF0EE690A784400F07CFD52
:1050D00053EC182B51EC100BFBF7BAF941EC180B01
:1050E0004648B0EE490AF0EE690A0521784400F01E
:1050F0006BFD53EC192B51EC100BFBF7A9F941ECAC
:10510000100B51EC180B53EC102B002C0EDAFBF7A4
:10511000F8F89DED061B53EC112BFBF799F99DED6B
:10512000061B53EC112BFBF790F935E0FBF7E9F880
:105130009DED061B53EC112BFBF78AF941EC100B8C
:105140002F48784400EBC40090ED001B51EC100B8D
:1051500053EC112BFBF776F99DED061B53EC112B4D
:10516000FBF770F941EC100B2648784400EBC400C3
:1051700090ED001B51EC100B53EC112BFBF765F974
:1051800041EC100B002DA2BFBDEC068B02B070BD30
:1051900051EC100B81F0004141EC100B01E70000D5
:1051A000000010440000F07F182D4454FB21F93F0B
:1051B000182D4454FB21F9BF0000DC3F0000203EC5
:1051C0000000F33F00000000000000000000F03F7E
:1051D0000000E63F0000000000000000000000406A
:1051E0000080034000000000000000000000F83FC5
:1051F000000000000000F0BF4A1D0000001D00007C
:105200008A1C0000421C000070B56B4E2DED040B93
:105210002DED028B82B0DDF81CC0DDE905235C4278
:105220002CF000411C4341EAD474049D22F000405C
:10523000B44205D86C422C4340EAD474B4420BD932
:105240009DED061B9DED040B02B0BDEC028B04B07E
:10525000BDE8704000F0D6BDACF14054A4F17F64CD
:105260001C430BD0022404EAAC7444EAD274054314
:105270009FED538B9FED542B07D015E09DED040B54
:1052800051EC100B00F0FEFD42E0002C11BF012C90
:105290009DED040B02B0BDEC028B04BF04B070BDE9
:1052A000022C38D0032C3BD00B439FED491B9FEDC4
:1052B0004A0B0AD0B14218D1B04209D121F0804145
:1052C00020F08040079105900FE0002A15DA10E0E9
:1052D000434B7B44002C08BF93ED000B0DD0012CF9
:1052E00010D0022C17D0032C1AD0B0421DD1002AA6
:1052F00003DAB0EE410AF0EE610A02B0BDEC028BB7
:1053000004B070BD93ED000B51EC100B81F0004127
:1053100041EC100BF1E7B0EE480AF0EE680AECE75A
:10532000B0EE420AF0EE620AE7E7401A00153C28A8
:10533000C8BF8DED000B19DCBCF1000FBEBF10F132
:105340003C0F9FED290B8DED000B0FDB9DED060B48
:1053500053EC102B9DED040B51EC100BFBF7EAF80E
:1053600000F010FE00F08EFDCDE90001002C08BF1A
:105370009DED000BC1D0012C10D0022C9FED1C0B19
:1053800053EC102B9DED000B51EC100B0DD0FBF7E7
:1053900059F853EC182BFBF755F8B9E7019880F052
:1053A000004001909DED000BA7E7FBF74BF853EC95
:1053B000182BFBF74AF8ABE70000F07F0000000075
:1053C000182D4454FB210940182D4454FB2109C0D9
:1053D000182D4454FB21F9BF182D4454FB21F93FEB
:1053E000A21B000000000000000000000000000000
:1053F000075C143326A6A13C10B52F499FED2C1B4A
:105400002DED020B84B0059820F000408842D8BFF3
:105410009DED040B2DDD2949884209D1049840B93E
:105420004FF0010000F028FD00F0F6FC06B010BDC2
:1054300005DB9DED040B00F0DBFC06B010BD6846FB
:105440009DED040B00F0ECF810F0030004BF9DED9F
:10545000021B9DED000B0CD001280ED09DED021B10
:105460009DED000B022817D0012000F029FC06B0AA
:1054700010BD00F0F1FA06B010BD9DED021B9DEDD0
:10548000000B012000F01CFC51EC100B81F00041DE
:1054900006B041EC100B10BD00F0DEFA51EC100B21
:1054A00081F0004106B041EC100B10BD000000007F
:1054B0000000000000000000FB21E93F0000F07F39
:1054C0002DED020B019820F0004001909DED000BA6
:1054D00002B070470000000010B52F499FED2C1B53
:1054E0002DED020B84B0059820F000408842DCBF0F
:1054F00000209DED040B32DD2849884209D1049833
:1055000040B94FF0010000F0B7FC00F085FC06B098
:1055100010BD05DB9DED040B00F06AFC06B010BD6C
:1055200068469DED040B00F07BF810F0030011D0ED
:10553000012818D09DED021B9DED000B02281AD00A
:1055400000F08AFA51EC100B81F0004106B041ECFA
:10555000100B10BD9DED021B9DED000B012000F016
:10556000AFFB06B010BD9DED021B9DED000B00F0E2
:1055700073FA06B010BD012000F0A2FB51EC100B35
:1055800081F0004106B041EC100B10BD000000009E
:105590000000000000000000FB21E93F0000F07F58
:1055A00000B52DED048BB0EE409AF0EE609A83B01A
:1055B00051EC190BFBF789F941EC180B18EE100AA6
:1055C00018EE901A8DED008B002818BF01200843BB
:1055D00020F00040C0F17F6000F1E040C00F14D027
:1055E00019EE101A19EE900A8DED009B002918BFD4
:1055F0000121084320F00040C0F17F6000F1E0404D
:10560000C00F04BF012000F037FCB0EE480A03B021
:10561000F0EE680ABDEC048B00BD00000000000045
:105620002DE9F14F04462DED020B2DED088B8AB0CC
:105630009FEDE70B80ED020B139EE74826F0004537
:1056400085420ADC9DED120B002084ED000B0AB0B0
:10565000BDEC088B03B0BDE8F08FE0489FEDE0ABF8
:105660009FEDE1BBA84247DDE14F9FEDE39B9FED3E
:10567000E48B9DED120B53EC1A2B51EC100B002E0A
:105680001CDDFAF7DFFE41EC100BBD4208D053ECF5
:105690001B2B51EC100BFAF7D5FEC4E900010BE00F
:1056A00053EC192B51EC100BFAF7CCFE53EC182BE2
:1056B000FAF7C8FEC4E900010120C8E7FAF721FEA5
:1056C00041EC100BBD4208D053EC1B2B51EC100BDE
:1056D000FAF717FEC4E900010BE053EC192B51EC6B
:1056E000100BFAF70EFE53EC182BFAF70AFEC4E97A
:1056F00000014FF0FF30AAE7C348A84279DB9DEDD7
:10570000120B51EC100B00F03DFC41EC180B9FED1F
:10571000C00B53EC102BFAF79BFE9FEDBF1B53EC15
:10572000112BFAF7EEFDFBF733F90746FAF771FF95
:1057300041EC190B53EC1A2BFAF78AFE53EC182B99
:10574000FAF783FE41EC180B53EC1B2B51EC190BB1
:10575000FAF77EFEDFF8C8A241EC100B4FEA1558AD
:105760000125FA4453EC102B51EC180BFAF76AFEA2
:10577000032DC4E900013DD0C1F30A5005EB4511EA
:10578000A8EB00001139814234DA0AEB051BB0EEB8
:1057900048AA9BED000BF0EE68AA53EC102B51ECDD
:1057A000190BFAF755FE41EC1B0B51EC1A0B53EC9D
:1057B0001B2BFAF747FE41EC180B51EC1A0B53EC7C
:1057C000182BFAF73FFE53EC1B2BFAF73BFE9BED31
:1057D000020B41EC1A0B53EC102B51EC190BFAF79E
:1057E00037FE53EC1A2BFAF72DFE41EC100B6D1C13
:1057F000B8E70EE0002EA8BF3846BFF628AF94EDFC
:10580000000B51EC100B81F00041C4E9000178421B
:105810001DE7C6F3130040F4801EC6F30A50A0F241
:10582000F530471100F01F05C5F12000DDF848B044
:1058300008900020069007900520EC467949002D3D
:1058400007EB0002794408BF51F8221009D051F843
:10585000223001EB8201AB404A68089922FA01F13B
:105860001943A1FB0E26A1FB0B131A449A4234BF25
:105870000123002303EB06080CEB8003D3E901A608
:105880000E448E4234BF0121002192448A4411B15A
:10589000924502D903E0924501D2012100E00021A6
:1058A000C3E901A641444CF82010011EA0F10100FB
:1058B000C4DC029800F10050850F0298DDE903670F
:1058C0008000DDF81480FAF7A4FE41EC1A0B304694
:1058D000FAF7B0FE9FED541B53EC112BFAF7B8FD0D
:1058E00041EC1B0B3846FAF7A5FE9FED511B53EC1C
:1058F000112BFAF7ADFD41EC180B4046FAF79AFE72
:105900009FED4D1B53EC112BFAF7A2FD41EC190B47
:1059100051EC180B53EC192BFAF7F3FC53EC1B2B3F
:10592000FAF7EFFC53EC1A2BFAF7EBFCCDE9080180
:10593000002008909DED080B53EC1A2B51EC100B36
:10594000FAF780FD53EC1B2BFAF77CFD53EC182B78
:10595000FAF778FD53EC192BFAF777FD9FED381B1A
:1059600053EC112BFAF774FD9FED370B41EC180B3C
:1059700053EC102B9DED080B51EC100BFAF768FD62
:1059800053EC182BFAF7BDFC9FED310B41EC180BD3
:1059900053EC102B9DED080B51EC100BFAF758FD52
:1059A00053EC182BFAF7ADFC41EC100B139810F0E8
:1059B000004F06D06D4251EC100B81F0004141ECDC
:1059C000100B284684ED000B41E6000000000000AB
:1059D0000000000000000000FB21E93F7CD90240EC
:1059E00000004054FB21F93F3163621A61B4D03D9D
:1059F000FB21F93F000000000000601A61B4D03DB7
:105A00007370032E8A19A33BFB213941000000006B
:105A100083C8C96D305FE43F000000000000E03F34
:105A20001A17000068160000000000000000103E79
:105A3000000000000000103C000000000000103AD0
:105A4000182D4454FB21F93D3326A611460B113C79
:105A500000000054FB21F93D10B52DED040B2DED98
:105A6000088B82B0B0EE419AF0EE619A0B9820F06C
:105A700000449FED4BABB4F1795F11DA9DED0A0B59
:105A800051EC100BFAF784FF002801BFB0EE4A0A70
:105A9000F0EE6A0A02B0BDEC088B04BF04B010BD82
:105AA0009DED0A0B53EC102B51EC100BFAF7D0FCC8
:105AB00041EC180B3C480621B0EE480AF0EE680AAB
:105AC000784400F081F853EC182B51EC100BFAF7E6
:105AD000BFFC9DED0A0B41EC1B0B53EC192B51EC59
