:020000040800F2
:10000000405F012059020008174600082F380008F9
:10001000154600087D0B0008B55B000800000000D5
:100020000000000000000000000000009D0100082A
:10003000E918000800000000F101000879520008EA
:1000400073020008730200087302000873020008BC
:100050007302000873020008EB180008F11800088A
:10006000730200087302000873020008B517000845
:10007000C1170008CD170008D9170008E5170008B8
:10008000F1170008FD17000873020008730200084A
:10009000730200087302000873020008730200086C
:1000A000730200087302000873020008730200085C
:1000B000730200087302000873020008730200084C
:1000C000730200087302000873020008730200083C
:1000D00073020008855B0008915B00089D5B0008C7
:1000E000730200087302000873020008730200081C
:1000F0007302000873020008730200080918000860
:1001000073020008730200087302000873020008FB
:10011000C9560008D55600088D5300087302000820
:10012000730200081518000821180008730200085F
:1001300073020008730200087302000873020008CB
:1001400073020008730200087302000873020008BB
:10015000730200082D18000839180008A95B000870
:10016000730200087302000873020008730200089B
:100170007302000873020008730200080000000008
:100180007302000873020008DFF80CD000F0C8FB0F
:1001900000480047B16B0008405F01202B4B1968F5
:1001A0000868B0E8F04F80F30988BFF36F8F4FF015
:1001B000000080F3118870470000000006480068C6
:1001C000006880F3088862B661B6BFF34F8FBFF353
:1001D0006F8F00DF00BF00BF08ED00E0DFF80C000C
:1001E000016841F470010160704700BF88ED00E0D4
:1001F000EFF30980BFF36F8F144B1A681EF0100FD6
:1002000008BF20ED108A20E9F04F106008B44FF0CD
:10021000500080F31188BFF34F8FBFF36F8F07F04B
:1002200011FA4FF0000080F3118808BC19680868C3
:10023000B0E8F04F1EF0100F08BFB0EC108A80F34A
:100240000988BFF36F8F704700BF00BFE000002038
:10025000EFF30580704700000648804706480047D6
:10026000FEE7FEE7FEE7FEE7FEE7FEE7FEE7FEE766
:10027000FEE7FEE739530008890100082DE9F05F29
:100280000546002092469B46884606468146402405
:100290001BE0284641464746224600F03AFA5346BC
:1002A0005A46C01A914110D311461846224600F012
:1002B00021FA2D1A67EB01084F4622460120002142
:1002C00000F018FA17EB00094E41201EA4F10104BA
:1002D000DFDC484631462A464346BDE8F09F40EA07
:1002E00001039B0703D009E008C9121F08C0042AB4
:1002F000FAD203E011F8013B00F8013B521EF9D29B
:1003000070472DE9FE4F804681EA0300C00F0C467E
:10031000009021F0004123F00045B8EB0200A94114
:1003200005D24046214690461C460B46024623F025
:100330000040104347D0270DC7F30A00C3F30A510A
:100340000290401A019040286BDAC3F3130040F486
:10035000801B0098924620B10023D2EB030A63EB86
:100360000B0B01985946C0F14002504600F0C2F90B
:1003700006460D4650465946019A00F0DAF910EB50
:1003800008006141002487EA115284EAE7731A43A6
:1003900040D0009A62B3019A012A4FEA075215DC55
:1003A000001B61EB02014FF0004202EA0752CDE967
:1003B0000042001C41F5801132462B4600F011FA34
:1003C00003B0BDE8F08F40462146F9E7001B61EB22
:1003D0000201001C41F5801300185B412018A2F5B2
:1003E000001747EB030140EAD570B6196D4111E0E3
:1003F0006D084FEA360645EAC0754FEA0752001B02
:1004000061EB0201001C41F5801149084FEA300000
:100410000019514132462B4603B0BDE8F04F00F0C1
:10042000D1B90098012240000023D0EB020263EB17
:10043000E073009821464FEAE074B8EB000061EBEE
:100440000401E9E783F000435BE781F0004158E7EE
:100450002DE9FE4F81EA030404F0004421F000413D
:1004600000944FF0000B23F0004350EA01045ED0EB
:1004700052EA03045BD0C3F30A54C1F30A552C4477
:10048000A4F2F3340194A0FB0254C1F3130141F42C
:100490008011C3F3130343F4801301FB024400FBF8
:1004A000034E840A970A44EA815447EA8357A4FB1F
:1004B000076802958D0A05FB07854FEA932C04FB1C
:1004C0000C542705029D4FEA065847EA1637B5EB4C
:1004D00008056EEB070C870E920E47EA811742EA79
:1004E0008312A7FB0201B6EB0B0164EB00042B0D9A
:1004F00043EA0C335E1844EB1C50DA465146E7FBE6
:100500000201C5F313044FEA0B3343EA14534FEAD5
:100510000432019C43EA0603A4F10C040294009CFB
:10052000CDE900B400F05DF903B0BDE8F08F002024
:100530000146F9E72DE9F04D81EA030404F0004B90
:1005400021F0004514464FF0000A23F0004150EA24
:10055000050220D054EA01021DD0C5F30A57024615
:10056000C5F31303C1F31300C1F30A5640F4801519
:1005700043F48013A7EB0608101BD64608F2FD389B
:1005800073EB050002D308F1010801E092185B410A
:10059000B8F1000F03DA00200146BDE8F08D00201D
:1005A0004FF48011064684460EE0171B73EB0507D7
:1005B00005D3121B63EB050306434CEA010C490803
:1005C0004FEA300092185B4150EA0107EDD152EA40
:1005D000030012D082EA040083EA0501084305D033
:1005E000101BAB4106D20122002306E000224FF08F
:1005F000004302E06FF0010253101AEB06004CEBCF
:10060000085110EB0A0041EB0B01BDE8F04D00F082
:10061000D9B80EB5C10F80EAE0700844CA070021BE
:1006200040F233438DE80E000A460B4600F0D9F83D
:1006300003B000BD00F0004230F000400AD0C10D10
:1006400001F56071C0F3160042EA0151C20840078B
:1006500011437047002001467047000030B5041E6A
:1006600071F1000404DB4FF00044404264EB0101EF
:10067000141E73F1000405DB1C464FF00043524288
:1006800063EB04038B4208BF824230BD30B5041EC9
:1006900071F1000404DB4FF00044404264EB0101BF
:1006A000141E73F1000405DB1C464FF00043524258
:1006B00063EB0403994208BF904230BD01F0004350
:1006C00030B421F0004150EA010206D00A0DA2F533
:1006D0006072C1F31301002A02DC30BC00207047B5
:1006E000440F44EAC104C100E01830BC00EBC25022
:1006F00000F031B8202A04DB203A00FA02F1002091
:1007000070479140C2F1200320FA03F3194390404F
:100710007047202A04DB203A21FA02F000217047BA
:1007200021FA02F3D040C2F1200291400843194659
:100730007047202A06DBCB17203A41FA02F043EA41
:10074000E07306E041FA02F3D040C2F1200291408A
:100750000843194670470029A8BF7047401C49004C
:1007600008BF20F00100704710B4B0FA80FC00FA16
:100770000CF050EA010404BF10BC704749B1CCF141
:10078000200421FA04F411FA0CF118BF01212143CD
:100790000843A3EB0C01CB1D4FEA00614FEA102088
:1007A00042BF002010BC704700EBC350104400292A
:1007B000A4BF10BC7047401C490008BF20F00100D6
:1007C00010BC704710B5141E73F1000408DA401C09
:1007D00041F1000192185B411A4301D120F0010060
:1007E00010BD2DE9F04D92469B4611B1B1FA81F250
:1007F00002E0B0FA80F220329046FFF77BFF044619
:100800000F4640EA0A0041EA0B0153465A460843A4
:1008100013D0114653EA010019D0C8F140025046E6
:10082000FFF777FF05460E46504659464246FFF70A
:1008300061FF084305D0012004E020463946BDE8A9
:10084000F08D0020054346EAE0762C4337430A98B2
:100850006305E40AA0EB08000022FD0A44EA4754BD
:100860000A3002D500200146E9E701051019694167
:10087000DDE9084500196941BDE8F04DA2E72DE921
:10088000F04D00231A461B1A8A4103DB0020014663
:10089000BDE8F08DC1F30A52C1F3130141F4801594
:1008A0004FF0000BD10702D100186D41521E0027F6
:1008B000044640F2FF11384601EB620A3E4680468C
:1008C000024600204FF48011FFF723FFC219714147
:1008D000BB1846EB0100B4EB030C75EB000C04D322
:1008E000E41A65EB000517460E46241908F10100CD
:1008F0006D4180463428E3DDF91946EB0600091BFB
:10090000A84103D24FF0FF32134601E00022134604
:100910001BEB070046EB0A51BDE8F04DFFF752BF55
:10092000064C074D06E0E06840F0010394E807003C
:1009300098471034AC42F6D3FFF72AFCF47B00084A
:10094000147C00080EB540F2334102910021CDE93C
:1009500000110A460B46FFF744FF03B000BD70B517
:10096000C1F30A5201F000450024C1F3130140F223
:10097000FF3341F480119A4201DA002070BD40F249
:1009800033439A42A2F2334203DC5242FFF7C1FEE4
:1009900000E090402C43F1D0404270BD30B58C183F
:1009A00010F8012B12F00F0301D110F8013B1209CE
:1009B00006D110F8012B03E010F8015B01F8015B90
:1009C0005B1EF9D101E001F8013B521EFBD1A142AF
:1009D000E6D3002030BD10B50146806B026C12F0EA
:1009E000500F05D0806BC26CBDE810400846104720
:1009F000016C41F40071016401688A6812F0405F83
:100A000017D18269AAB9CA6A12F4700F02D08A6833
:100A100052050ED44A6822F020024A60016C21F48B
:100A200080710164016CC90403D4016C41F00101BF
:100A3000016401F02FF810BD10B5806B40210164F6
:100A4000416C41F00401416401F026F810BD10B57D
:100A5000806B01F020F810BD454910B54A6822F4BA
:100A600040324A604A6843681A434A6001684A68EB
:100A700022F480724A6001684A68036942EA0322EC
:100A80004A6001684A6822F040724A6001684A6818
:100A900083681A434A6001688A6822F400628A60A7
:100AA00001688A68C3681A438A60816A6FF070625D
:100AB000D14201688A6822F070628A6001688A689F
:100AC0000CD0836A1A438A6001688A6822F0405217
:100AD0008A6001688A68C36A1A4301E022F04052C2
:100AE0008A6001688A6822F002028A6001688A6866
:100AF000836942EA43028A60016A002901684A6800
:100B00000FD042F400624A6001684A6822F46042F1
:100B10004A6001684A68174C436A04EB43331A433E
:100B200001E022F400624A600168CA6A22F470029D
:100B3000CA620168CA6A838B0F4C04EB03531A43E1
:100B4000CA6201688A6822F400728A6001688A6851
:100B5000036B42EA43228A6001688A6822F4806259
:100B60008A6001688A68406942EA8020886010BD16
:100B70000023014000E0FFFF0000F0FFFEE770B53A
:100B80000646002048F2084402460EE0B35C584096
:100B9000002310F0010F4FEA500000D060405B1CB2
:100BA000DBB2082BF5D3521CD2B28A42EED370BD11
:100BB00042884A404280002192B212F0010F4FEA6F
:100BC0005202428002D003885A404280491CC9B276
:100BD0000829F1D3704770B5002402232546891EE9
:100BE00006E0C65C5B1C3444E4B22544EDB2DBB2E3
:100BF0008B42F6DB64F3070265F30F2290B270BDFF
:100C000004490220C1F828040348002180F8481D47
:100C10007047000050010020505100202DE9F043A2
:100C20004D4E4FF001092DED028BB3B096F8481DE3
:100C3000F0EE408A9FED498AA6F5A04505F59B6038
:100C4000002705F5B8448046B9B105F5C040012933
:100C500054D002290CD190F87102012868D0C5F84F
:100C6000287400BF85F8247484ED598A84ED5A8A6B
:100C700033B0BDEC028BBDE8F08338223849FFF772
:100C80002EFB572085F824043022364926A8FFF78A
:100C900026FB3822414618A8FFF721FB30493822AD
:100CA00070310D460AA8FFF71AFB2D49282248315A
:100CB0006846FFF714FB2A48F0EE480A3830B0EED9
:100CC000680A0FC800F0DCF8382241460AA81897D5
:100CD000FFF705FB282205F110016846FFF7FFFA30
:100CE0001F48B7EE000A70300FC800F041F8012825
:100CF000BED186F8489D84ED538AB9E790ED910AFC
:100D0000D0ED8F0AB4EEE00AF1EE10FA0DDB94EDAF
:100D1000530A154930EE280A10EE100A84ED530AE2
:100D200088429FDD022086F8480D84ED538A99E7BA
:100D3000C5F8289496F8400D0C4901284FF0380268
:100D4000404606D001F5BE61FFF7C9FA86F8407D3E
:100D500088E701F5A261F7E750510020000000008C
:100D600080050020586300200000964350010020B9
:100D70000FB42DED020B70B500242DED068BB0EEF7
:100D8000408A9DED1E0B289D9DED1CAB51EC100B78
:100D9000FFF794FC09EE100A51EC1A0BFFF78EFCDA
:100DA0009DED100B09EE900A51EC100BFFF786FC3D
:100DB0009DED0E0B08EE900A51EC100BFFF77EFC38
:100DC00000EE100AF0EE491AB0EE691AF0EE680A69
:100DD00003F032FC5DB1B4EEC80AF1EE10FA00DBAC
:100DE0000124BDEC068B204670BC5DF81CFBB4EE04
:100DF000C80AF1EE10FAF3D9F3E700001B4810B56A
:100E0000D0ED910A90ED900A0222A0F5C041F4EED7
:100E1000C00AF1EE10FA01D8C1F8282490F8714206
:100E20000023012C18D190ED8F1ADFED111A5C1EF2
:100E300031EE401A80F8714201EE210AB4EEE00A68
:100E4000F1EE10FA05DB0B48C1F8282480F8483D84
:100E500002E00120C1F8280408489FED070A81F844
:100E6000243480ED590A80ED5A0A10BD50610020EB
:100E70009A99993E5051002000000000505D0020DA
:100E80000FB42DED020B2DE9F05FB04EB04F2DEDFC
:100E90000C8BB0EE408A9DED3C0ADDED2E0A9DEDF7
:100EA00036BB9DED38CB70EE600A9DED289B9DED25
:100EB0002AAB10EE900AB04202D9FAEE040A05E01D
:100EC00010EE900AB84201DDF2EE040AA14CA249EC
:100ED00094ED5C0A20EE800A84ED5F0AD4ED5D0A91
:100EE00020EE201AD4ED600A41EE080A10EE900AB6
:100EF000C4ED600A884202D9DFED980A06E010EEE0
:100F0000900A9749884201DDDFED960A51EC1C0BEF
:100F1000C4ED600A30EE200A84ED5E0AFFF7CEFBD6
:100F2000814608EE909A51EC1B0BFFF7C7FB8046F9
:100F30000DEE108A51EC1A0BFFF7C0FB83460DEE45
:100F400090BA51EC190BFFF7B9FB824600EE10AADC
:100F5000F0EE681AB0EE4D1AF0EE6D0A03F06CFB7D
:100F6000814D01EE909A01EE108A85ED000A00EEA7
:100F700090BA00EE10AA03F0B3FB04F08DFB85EDF0
:100F8000020A9DED1C0B0DEE109A08EE908A51ECB2
:100F9000100BFFF793FB9DED1A0B0DEE900A51EC31
:100FA000100BFFF78BFB00EE100AF0EE4D1AB0EEBF
:100FB000681AF0EE6D0A03F093FB85ED030AD5ED98
:100FC000020A30EE600A85ED040A04F065FB85ED47
:100FD000040ADFED660A20EE200A10EE100AFFF781
:100FE00029FB41EC100B05F0D3F8B0EE40DAF0EE3F
:100FF00060DA2868FFF71EFB53EC1D2BFFF728FA79
:10100000FFF75CFB00EE900A10EE900AC5ED050AB2
:10101000B04202D9FAEE040A05E010EE900AB84296
:1010200001DDF2EE040A94ED660A514920EE800AD1
:1010300084ED690AD4ED670A20EE201AD4ED6A0A1D
:1010400041EE080A10EE900AC4ED6A0ADFED498A03
:10105000884202D9DFED480A06E010EE900A4749BF
:10106000884201DDDFED460A53EC1B2BC4ED6A0A12
:1010700030EE200A51EC190B84ED680AFFF7EEFA06
:1010800006D153EC1C2B51EC1A0BFFF7E7FA10D0EA
:1010900001EE909A01EE108A00EE90BA00EE10AACE
:1010A00003F01EFBD4ED790A30EEC00A85ED010A8B
:1010B00003E0C5ED018AB0EE680A04F0EDFA85EDB3
:1010C000010AD4ED610A2F49DFED2F1A20EE800AC4
:1010D0002E489FED2F1A84ED630AD4ED680A10EEB6
:1010E000902A8A4202D9F0EE610A05E010EE902AB9
:1010F000824201DDF0EE410A10EE102AC4ED590AD9
:101100008A4202D9B0EE610A05E010EE101A81425F
:1011100001DDB0EE410A84ED5A0A94ED5E8AB5EE27
:10112000C08AF1EE10FA09D318EE100A1949884264
:1011300002DDDFED198A01E0F0EE488AC4ED5B8A3A
:10114000BDEC0C8BBDE8F01F5DF81CFB000020C15E
:1011500000002041505D002000008CC200008CC2C5
:1011600000008C4200008C42000000202DFA8E3CD2
:10117000000020C200000000000020C20000204249
:1011800000002042000070C2000070C200007042E7
:10119000000070420000B4420000B442134AA2F5BD
:1011A000B04192ED761B81ED2E1B92ED721B81ED0D
:1011B0002A1B92ED741B81ED2C1BD2ED790AC1ED37
:1011C000310AD2ED780AC1ED300A38B1012807D0D2
:1011D000022807D0032807D1FFF712BDFFF70EBE84
:1011E00000F006B8FFF71ABD70470000505D002000
:1011F0002DE9F04F2DED0A8BB5B0B0EE40CAFE4898
:10120000DFEDFEAADFF8F883002190EC020A08F572
:10121000946908F59B6B08F5A04608F5B845F4EE0F
:10122000C00AF1EE10FA25D895ED510AF54A30EED4
:101230000C0A10EE100A85ED510A90427EDBC5EDD6
:1012400051AA012086F8400D0222C8F8282486F809
:10125000481D3822494608F5A260FFF740F835B02E
:1012600008F58661BDEC0A8B58463822BDE8F04F80
:10127000FFF735B88A4618913822E3490AA8FFF7E4
:101280002EF809F11001282268461C91FFF727F873
:10129000DE48B7EE000A0FC8FFF76AFD9FEDDC8B52
:1012A000DA4CA03C012860D196F8500D01285CD1A1
:1012B0008DED028B8DED008B94ED8E3B94ED8C2BA0
:1012C00094ED801B94ED7E0B694602A802F06EFB44
:1012D00003272AE0C7EBC70108EBC10000F5B8609F
:1012E0009DED003B9DED022B90EC040B02F0F0FA1B
:1012F00051EC100BFFF7E2F900EE100AD5ED550A9C
:10130000F4EEC00AF1EE10FA01DAF0EE400AC5ED93
:10131000550AD5ED560AF4EEC00AF1EE10FA01D8DE
:10132000B0EE600A85ED560A7F1CD6F8380DB8423B
:10133000D0D294ED820B84ED200B00E02FE294EDEF
:101340007E0B84ED1C0B94ED800B84ED1E0B94ED55
:10135000900B84ED3C0B94ED8C0B84ED380B94EDED
:101360008E0B84ED3A0B86F850AD382259460AA808
:10137000CDF860A0FEF7B3FF282268461C99FEF75F
:10138000AEFFA248B7EE000A0FC8FFF7F1FC012834
:101390007DD196F8500D9FEDA0BB974FA04D3837EB
:1013A0000028F5D105F1280194ED3A3B94ED382B56
:1013B00094ED1E1B94ED1C0BA1F1080002F0F6FA4F
:1013C00095ED080B87ED000B95ED0A0B87ED020BF1
:1013D00094ED3A0B51EC100BFFF770F994ED380BCC
:1013E0000AEE100A51EC100BFFF768F994ED1E0B92
:1013F00009EE900A51EC100BFFF760F994ED1C0B0D
:1014000009EE100A51EC100BFFF758F900EE100A24
:10141000F0EE4A1AB0EE691AF0EE490A03F060F9EC
:1014200010EE100AFFF706F9C5E91C0194ED9C0BBC
:1014300051EC100BFFF742F994ED9A0B09EE900A6C
:1014400051EC100BFFF73AF994ED8E0B09EE100AF0
:1014500051EC100BFFF732F994ED8C0B0AEE100AE9
:1014600051EC100BFFF72AF900EE100AF0EE691AA2
:10147000B0EE491AF0EE4A0A03F032F910EE100A03
:10148000FFF7D8F841EC100B85ED1E0B00E066E18C
:1014900095ED1C1B53EC112BFEF7D4FF41EC100B08
:1014A00085ED1A0BFFF70AF900EE100A04F0F4F8C4
:1014B00010EE100AFFF7BEF841EC100B53EC182B9E
:1014C00085ED1A0BFFF7E2F895ED1C0B53EC1B2B87
:1014D00051EC100B02D2FEF714FF01E0FEF7B2FF51
:1014E000C5E91A014E4994ED3A1B583194ED380B79
:1014F000A1F1080095ED1A3B95ED062B02F0E8FAF4
:1015000095ED160B53EC102B51EC100BFEF7A0FFD2
:1015100095ED140B41EC180B53EC102B51EC100B08
:10152000FEF796FF53EC182BFEF7EBFEFFF7C6F81D
:1015300000EE100A05F068FB10EE100AFFF77AF8CB
:10154000C5E9180197ED000B95ED161B51EC100B3A
:1015500053EC112BFEF77CFF97ED020B95ED141B5E
:1015600041EC180B53EC112B51EC100BFEF7C9FE9C
:1015700053EC182BFEF766FFC7E90201D6F8380DC9
:1015800094ED801BC0EBC00108EBC10000F5B86012
:10159000234994ED7E0B383190EC042BA1F1080027
:1015A00002F004FA144E95ED0C0B48361C4986EDFA
:1015B000000B95ED0E0B483186ED020B94ED9C3B34
:1015C00094ED9A2B94ED8E1B94ED8C0BA1F10800F9
:1015D00002F0ECF995ED100B06F1100A10498AEDB6
:1015E000000B95ED120B88318AED020BA1F108007A
:1015F00096EC042B16E00000906300200000000031
:10160000500100200000704240070020F00500203B
:1016100000000000000000000000000000805640B4
:101620000000002097EC040B02F0C6FA5E499AEC29
:10163000042BA1F1080097EC040B02F0BDFA5A4DFF
:10164000183D95ED020B51EC100BFFF737F895EDB7
:10165000000B09EE100A51EC100BFFF72FF894ED78
:101660002C0B08EE900A51EC100BFFF727F894EDC5
:101670002A0B08EE100A51EC100BFFF71FF800EED2
:10168000100AF0EE491AB0EE681AF0EE480A02F0BD
:10169000D3FF10EE100AFEF7CDFFC5E9080195ED66
:1016A000060B51EC100BFFF709F895ED040B09EE52
:1016B000100A51EC100BFFF701F894ED2C0B08EE1B
:1016C000900A51EC100BFEF7F9FF94ED2A0B08EE8F
:1016D000100A51EC100BFEF7F1FF00EE100AF0EECD
:1016E000491AB0EE681AF0EE480A02F0A5FF10EEB3
:1016F000100AFEF79FFF41EC100B85ED0A0B53EC2F
:10170000102B95ED080B51EC100BFEF7BFFF12D21A
:1017100095ED020B84ED380B95ED000B84ED3A0B43
:1017200094ED840A84ED3E0A95ED060B84ED1C0BC6
:1017300095ED040B11E095ED060B84ED380B95ED5E
:10174000040B84ED3A0B94ED840A84ED3E0A95ED8A
:10175000020B84ED1C0B95ED000B84ED1E0B572145
:1017600088F824143022114926A8FEF7B8FD382243
:10177000594618A8FEF7B3FD382249460AA8FEF7D5
:10178000AEFD28220A496846FEF7A9FD0848F0EE9A
:101790006A0A1038B0EE4C0A0FC8FFF771FB35B07B
:1017A000BDEC0A8BBDE8F08F980000205863002044
:1017B000C8050020014800F04FBA00002C69002045
:1017C000014800F049BA00004C6A0020014800F0CE
:1017D00043BA00006C680020014800F03DBA0000E8
:1017E000EC690020014800F037BA0000CC68002006
:1017F000014800F031BA0000AC670020014800F059
:101800002BBA00000C680020014800F025BA000047
:101810008C690020014800F01FBA00000C6B00200A
:10182000014800F019BA0000EC660020014800F001
:1018300013BA0000AC6A0020014800F00DBA0000A5
:101840004C67002001681823CAB2103AB2FBF3F2C9
:10185000054B6FF30901032A9B5CC36500D9091D81
:101860008165084670470000007A000810B50146FF
:1018700000208B698A6A4FF0C07453B1B3F5005FE2
:1018800015D072B1012A0CD0022A0AD0032A09D13C
:1018900004E01AB1012A06D0022A03D1C96AC9019B
:1018A00000D5012010BDC96AA142FAD010BD002A9E
:1018B000F7D0012AF2D0022AF3D0032AF3D010BDC8
:1018C00030B50468256825F48025256004686360C8
:1018D0008368402B036803D099600068C26030BD04
:1018E0009A600068C16030BD7047012000F03EBBC7
:1018F000022000F03BBB00000D4910B50B4AC1E9C6
:101900000020002088600C22C860C1E904028861C0
:10191000C861084601F0D0FB002805D0BDE81040A2
:10192000B52104A004F047B910BD00000014014027
:10193000AC6600202E2E2F436F72652F5372632FDB
:1019400075736172742E630078B50024009490F86A
:101950003C20012A19D0012280F83C200A68072384
:101960000568092A13D9EE680A3A02EB420293404D
:101970009E43EE600B788A680A3B03EB43039A4070
:101980000368DD682A43DA6010E0022078BD2E6922
:1019900002EB420293409E432E610B788A6803EB70
:1019A00043039A4003681D692A431A614A681F234A
:1019B000072A13D205686E6B521E02EB8202934017
:1019C0009E436E630B790A885B1E92B203EB83031E
:1019D0009A4003685D6B2A435A6327E005680D2A25
:1019E00012D22E6BD21F02EB820293409E432E63D3
:1019F0000B790A88DB1F92B203EB83039A400368DA
:101A00001D6B2A431A6311E0EE6A0D3A02EB820263
:101A100093409E43EE620B790A880D3B92B203EB32
:101A200083039A400368DD6A2A43DA62164B05682D
:101A3000144A9D4206D10D68122D03D1556845F414
:101A40008005556005689D4218D10B68102B01D0A8
:101A5000112B13D1536843F4000353600968102914
:101A60000CD10A490A4A0968B1FBF2F101EB810184
:101A7000490000E0491E00910029FBD180F83C405C
:101A8000002078BD00230140002001401C010020FF
:101A900040420F0070477047704770B504004FF028
:101AA000000503D0206C002610B107E0012070BDB6
:101AB000666484F83C60204600F01AF8206CC0068A
:101AC00010D4206C20F4885040F00200206420469E
:101AD000FEF7C2FF6664206C20F0020040F00100B7
:101AE000206400E0012584F83C60284670BD0000B9
:101AF00000B500680C4987B0884212D10B4800211C
:101B0000026842F480720260006800F48070059000
:101B10000F2000900320CDE901016946044800F040
:101B200031FA07B000BD00000020014044380240F7
:101B300000080240F8B50E4600210446009190F8D6
:101B40003C00012807D0012084F83C00206883680D
:101B5000DB0702D011E00220F8BD836843F00103E7
:101B600083602D482D4B0068B0FBF3F000EB400084
:101B700000E0401E00900028FBD120688368DB074E
:101B800048D0236C40F20165AB4343F48073236477
:101B90004068400505D5206C20F4005040F480508A
:101BA0002064206CC00404D5606C20F006006064E2
:101BB00000E0616484F83C10A16B1A48184DC863BA
:101BC000A16B19480864A16B1848C86421686FF0BC
:101BD000220008602068416841F08061416020680F
:101BE000816841F4807181602168134632464C312E
:101BF000A06B00F06BF96868C006206802D00C4941
:101C0000884207D1816811F0405F03D1816841F0BB
:101C1000804181600020F8BD1C01002040420F007F
:101C200000230140D70900084F0A0008390A0008BC
:101C30000020014090F83510022903D08021416531
:101C400001207047052180F835100068016821F0F7
:101C500001010160002070472DE9F84304464FF070
:101C60000009CDF8009063484FF41651A56D006847
:101C7000B0FBF1F72E6894F85C10082000FA01F12F
:101C800031420FD021680A6852070BD50A6822F04A
:101C900004020A6094F85C108840A860606D40F00F
:101CA0000100606594F85C104FF0010808FA01F03B
:101CB000304208D021684969090604D5A860606DE2
:101CC00040F00200606594F85C10042088403042C7
:101CD00008D021680968890704D5A860606D40F0C4
:101CE0000400606594F85C1010208840304218D0E1
:101CF00021680968090714D5A860206801684903AC
:101D000004D50068000308D5A16C07E00168C90587
:101D100003D4016821F008010160216C09B120465B
:101D2000884794F85C1020208840304231D02168E8
:101D30000968C9062DD5A86094F8350005282068E3
:101D4000016806D0490347D5006800031DD4616CC3
:101D50001CE021F0160101602068416921F080013A
:101D60004161206C08B9A06C20B12068016821F0A5
:101D70000801016094F85C103F208840A86084F856
:101D8000349084F83580216D1FE0E16B09B1204665
:101D90008847606D00282BD0606DC00714D00520E7
:101DA00084F835002068016821F001010160009885
:101DB000401C0090B84203D820680068C007F6D1E4
:101DC00084F8349084F83580E16C002910D001B09B
:101DD0002046BDE8F04308470168C905D5D401682D
:101DE00021F01001016084F8349084F83580CCE74C
:101DF000BDE8F8831C0100202DE9F041044600F005
:101E00009FF906465CB1002584F83450022084F81E
:101E100035002068016821F0010101600DE001201A
:101E2000BDE8F08100F08CF9801B052805D9202041
:101E30006065032084F83500F2E720680068C00779
:101E4000F0D12268116820480140D4E90103184309
:101E5000D4E903363343184363691843A36918432D
:101E6000E3691843236A18430843616A042903D1CC
:101E7000D4E90B1319430843106020684069666A6F
:101E800020F0070130460E43012704280CD1A06A38
:101E90000643E06A40B12046FFF7E8FC20B140204D
:101EA000606584F83570BAE7206846612046FFF720
:101EB000C9FC94F85C203F2191408160656584F8FD
:101EC00035700020ACE700003F8010F02DE9F041B4
:101ED0000446866D90F83400002501280DD00120BD
:101EE00084F8340094F835700020012F07D084F86E
:101EF000340002252846BDE8F0810220FBE70227D6
:101F000084F8357060652046FFF7DAFC94F85C10C1
:101F10003F208840B0602068016841F016010160F0
:101F20002068416941F080014161206C20B1206846
:101F3000016841F0080101602068016841F0010179
:101F40000160D7E770B5044600F0FAF80546601C5A
:101F500002D004480078044400F0F2F8401BA0428C
:101F6000FAD370BD2001002070470000044910B56D
:101F70000A68024202D00860FFF7F6FF10BD0000B9
:101F8000143C01402DE9F84FDFF87CB100224FF0FE
:101F900001084FF0030A4FF00F090BF1040E00BFC8
:101FA0000B6808FA02F42340A3426ED14D68022D5B
:101FB00001D0122D0ED1D50800EB850CDCF8205095
:101FC0005607F70E09FA07F6B5430E69BE402E43D1
:101FD000CCF82060066855000F790AFA05FC07F076
:101FE000030726EA0C06AF40374307604E68012E10
:101FF00005D0022E03D0112E01D0122E0ED18668EC
:10200000CF6826EA0C06AF40374387604668A64390
:102010000C79C4F30014944034434460C6688C685F
:1020200026EA0C06AC403443C4604C68E40065D535
:10203000364C256845F480452560246822F0030568
:1020400004F480440094324C2E19D6F808489507C1
:102050002F0F09FA07F5AC432E4DA84201D10025F8
:1020600024E02D4DA84201D101251FE02B4DA842AF
:1020700001D102251AE02A4DA84201D1032515E01D
:10208000284DA84202D1042510E037E0264DA84291
:1020900001D105250AE0254DA84201D1062505E01C
:1020A000234DA84201D1072500E00825BD40254366
:1020B000C6F80858DBF800405D464E689C43F603BE
:1020C00000D51C432C60DEF8004075464E689C43EA
:1020D000B60300D51C432C600B4D08352C684E68A8
:1020E0009C43F60200D51C432C60074D0C352C6830
:1020F0004E689C43B60200D51C432C60521C102A2B
:10210000FFF44EAFBDE8F88F003C01404438024078
:10211000003001400000024000040240000802407C
:10212000000C02400010024000140240001802405F
:10213000001C02400AB1816170470904FBE70000FE
:102140000148806870470000200100200248816833
:102150000278114481607047200100200B4810B5BF
:10216000016841F400710160016841F4806101601F
:10217000016841F480710160032000F0B1F8002093
:1021800000F006F800F03EF8002010BD003C0240D0
:1021900010B5014688B00022362000F081F83620C4
:1021A00000F072F813480024016841F0100101604A
:1021B000006805A900F010000690684600F03AF9A2
:1021C00000F05EF90C494000B0FBF1F10C480B4AFD
:1021D000491E026040F2E732C0E90324C0E901145D
:1021E00000F0A3FB10B1012008B010BD044800F0BE
:1021F000B8FBF9E74038024040420F0000100040B1
:102200006C6B00201F4808B5016841F480410160F3
:10221000006800F4804000901A48001F016841F0F7
:1022200080510160006800F080500090032000F0B1
:1022300057F8002211466FF00B0000F031F8002231
:1022400011466FF00A0000F02BF8002211466FF0E3
:10225000090000F025F800221146501F00F020F878
:1022600000221146101F00F01BF800220F21901EC3
:1022700000F016F800220F21BDE80840501E00F0C3
:102280000FB800004438024000F01F0201219140C5
:102290004009800000F1E020C0F800117047000004
:1022A000F0B40E4B1B680C46C3F30223C3F10705C1
:1022B000042D00D90425191D072901D2002300E0AF
:1022C000DB1E012606FA05F1491E214099409E4079
:1022D000761E16403143F0BC02F09EB90CED00E0D2
:1022E000064900F0070208684FF6FF03184040EA6D
:1022F0000220034A10430860704700000CED00E024
:102300000000FA052DE9F0470E46050065D0DFF81C
:102310001481D8F80000F7B200F00F00B04207D2E5
:1023200088F80070D8F8000000F00F00B04254D1D7
:1023300028683D4C810712D5400703D5206840F43A
:10234000E05020602878000703D5206840F4604002
:1023500020602068A96820F0F000084320602878F9
:10236000C0072DD0304968680839012812D00228EA
:1023700013D0032811D00968890700292DDA2168B4
:1023800021F0030101432160FFF7DAFE814641F2AB
:10239000883A0EE009688903EFE709688901ECE7EC
:1023A000FFF7CEFEA0EB0901514502D90320BDE89D
:1023B000F0872068696800F00C00B0EB810FEFD166
:1023C000D8F80010404601F00F01B14207D907705C
:1023D000006800F00F00B04201D00120E7E7287844
:1023E000400705D52068E96820F4E05008432060E4
:1023F0002878000706D52068296920F4604040EA63
:10240000C100206000F05CF82168084AC1F30311A4
:10241000515CC840064908600020FFF7B9FE002063
:10242000C5E70000003C024008380240E879000897
:102430001C0100200F2202600C4A136803F0030302
:102440004360136803F0F0038360136803F4E05300
:10245000C36012684FF4E05303EAD20202610448F9
:10246000006800F00F000860704700000838024064
:10247000003C024001480068704700001C01002039
:102480000448054900680968044AC1F38221515C87
:10249000C84070471C01002008380240F879000845
:1024A0000448054900680968044AC1F34231515C97
:1024B000C84070471C01002008380240F879000825
:1024C000154810B5006810F00C02144813D04110E4
:1024D000042A0FD0082A0ED10F4C241F226823682B
:1024E00002F03F025B0207D52068C0F38810A0FB12
:1024F000010106E0084610BD2168C1F38811A1FB67
:1025000000010023FDF7BAFE2168C1F30141491C17
:102510004900B0FBF1F010BD083802400024F4007F
:102520002DE9F84F050076D02878DFF8F8B2BE4CD8
:10253000C00749D0DBF800105846C1F381010129DA
:1025400008D00068C0F3810002280AD1201D00686D
:10255000400206D52068800336D568680028E2D09E
:1025600032E06868B0F5803F10D0B0F5A02F206849
:1025700010D020F480302060206820F4802020607B
:102580006868A0B1FFF7DCFD06460CE0206840F467
:102590008030F4E740F480202060F7E7FFF7D0FDBB
:1025A000801B642873D820688003F7D50CE0FFF700
:1025B000C7FD064605E000BFFFF7C2FD801B64288B
:1025C000F0D820688003F7D42878DFF8608280078D
:1025D0004FF000093ED5DBF80010584611F00C0F03
:1025E00009D00068C0F3810002280BD18D48001F7C
:1025F0000068400206D42068800715D5E8680128E5
:1026000009D111E0E868B8B10120C8F80000FFF76F
:1026100097FD064605E002E1FFF792FD801B0228C8
:10262000C0D820688007F7D52068296920F0F80015
:1026300040EAC10020600DE0C8F80090FFF780FD7F
:10264000064604E0FFF77CFD801B02281FD82068A7
:102650008007F7D42878000722D5724E744869693C
:102660006C3671B101210160FFF76AFD074604E095
:10267000FFF766FDC01B022809D830688007F7D530
:102680000EE0C0F80090FFF75BFD074605E083E031
:10269000FFF756FDC01B02287ED830688007F7D4AC
:1026A0002878400768D5DFF87CA100270AF1380AAE
:1026B000DAF80000C0000BD4DAF8001041F08051C5
:1026C000CAF80010DAF80000012700F080500090EE
:1026D000584E3068C00510D4306840F480703060C7
:1026E000FFF72EFD009005E0FFF72AFD0099401A44
:1026F000022851D83068C005F6D54A4EA868683619
:1027000001280FD00528306810D020F0010030607B
:10271000306820F004003060A868B8B1FFF710FD01
:1027200000900FE0306840F00100F4E740F0040052
:102730003060F7E7FFF704FD0099411A41F2883055
:10274000814264D830688007F4D50EE0FFF7F8FCCA
:10275000009007E0FFF7F4FC0099411A41F288303D
:10276000814254D830688007F4D42FB1DAF80010D1
:1027700021F08051CAF80010A869C0B3DBF800103E
:10278000C1F3810102294AD00228484607D0C8F87F
:102790006000FFF7D5FC00E039E005463AE0474627
:1027A000C8F86000FFF7CCFC064604E0FFF7C8FC61
:1027B000801B02282BD820688001F7D4D5E90701B7
:1027C0000843A96A1C4A490802EB01416A6A41EAC6
:1027D0008211084395F82C1040EA01611148001F4E
:1027E000016001203866FFF7ABFC054605E014E008
:1027F000FFF7A6FC401B022809D820688001F7D506
:102800000BE000BFFFF79CFC401B022802D903200D
:10281000BDE8F88F20688001F4D40020F8E701209B
:10282000F6E7000008380240003802400000474246
:10283000800E4742007000400000FFFF4FF0E02193
:102840000428086903D020F004000861704740F0B4
:102850000400FAE710B5401EB0F1807F01D30120DB
:1028600010BD4FF0E02460610F21601701F0D4FE2D
:102870000020A06107202061002010BD7047704734
:1028800010B590F83820012A25D0012280F8382090
:10289000CA688C6822F4407222434C6822F4806239
:1028A00022430C6822F4006222430C6922F4805215
:1028B00022434C6922F4005222438C6922F4804264
:1028C000224322F40041026800232143516480F82E
:1028D0003830002010BD022010BD30B590F83820EF
:1028E000012A20D0012280F83820022380F83930D4
:1028F00003685C6824F070045C6003685C680D68C1
:102900002C435C6003689C6824F080049C6003682E
:102910009C6849680C439C6080F83920002180F84D
:102920003810084630BD022030BD10B5040003D079
:1029300094F8390010B107E0012010BD002084F8A0
:102940003800204600F00CF8022084F83900211DE0
:10295000206802F021FD012084F83900002010BD1C
:1029600070470168CA6842F00102CA6000680168E5
:1029700041F0010101600020704770472DE9F041EE
:10298000044690F838000D4601283DD0012684F811
:102990003860022084F83900AAB3042A46D020689F
:1029A000082A55D0D5E90027E968036A23F4805343
:1029B0000362D0F81CC0036A2CF4407C4CEA072761
:1029C0004FF6FF7C27F470470CEA013139434FF48E
:1029D000204723F4204307EA02321A43C16102620E
:1029E0002068C16921F44061C1612068C169AA6899
:1029F00041EA0221C0F81C1084F83960002084F8F4
:102A00003800BDE8F08101E00220FAE7D5E90012C4
:102A1000EB68206802F0E2FD2068816921F00C017A
:102A2000816120688169AA6811430FE0D5E900122D
:102A3000EB68206802F014FE2068816921F440618F
:102A4000816120688169AA6841EA02218161D3E736
:102A5000D5E9002C2F7B016A21F480710162C169E4
:102A6000036A21F0030141EA0C0121F0F00C39075F
:102A70004FF420674CEA116123F4206307EA022235
:102A80001A43C16102622068C16921F00C01C16171
:102A90002068C169AA681143ACE710B5040003D0EF
:102AA00094F8390010B107E0012010BD002084F82F
:102AB0003800204600F00CF8022084F83900211D6F
:102AC000206802F069FC012084F83900002010BD64
:102AD00030B500681C490025022487B0884212D115
:102AE0001A48016841F0010101600068694600F080
:102AF000010005904FF4D4408DE831000120CDE96C
:102B0000035013481CE0134988421BD10F48001F93
:102B1000016841F0020101600068694600F00200AE
:102B20000590C0208DE83100CDE903540A48FFF735
:102B300029FA03208DE83100CDE90354694607489E
:102B4000FFF720FA07B030BD0000014044380240D2
:102B50000010024000040040000002400004024057
:102B600010B504460068012202F076FC2068016876
:102B700041F001010160002010BD70B504460068FD
:102B800001694FF00005C943890715D4C168C943DD
:102B9000890711D4E91E016101202076206880692F
:102BA0008007204602D0FFF7E8FE04E000F0DCF8E2
:102BB000204600F08BF9257620680169C943490752
:102BC00017D4C168C943490713D46FF004010161E8
:102BD000022020762068806910F4407F204602D0D1
:102BE000FFF7CBFE04E000F0BFF8204600F06EF9DE
:102BF000257620680169C943090716D4C168C9430D
:102C0000090712D46FF008010161042020762068C2
:102C1000C0698007204602D0FFF7AFFE04E000F055
:102C2000A3F8204600F052F9257620680169C943CF
:102C3000C90617D4C168C943C90613D46FF010017F
:102C40000161082020762068C06910F4407F20468A
:102C500002D0FFF792FE04E000F086F8204600F074
:102C600035F9257620680169C943C90708D1C168CB
:102C7000C943C90704D1891E0161204600F044F907
:102C800020680169C943090609D4C168C943090616
:102C900005D46FF0800101612046FFF7EFFD206849
:102CA0000169C943490609D4C168C943490605D425
:102CB0006FF040010161204600F030F920680169A1
:102CC000C94389060BD4C168C943890607D46FF08C
:102CD000200101612046BDE87040FFF7D0BD70BD06
:102CE00070B500680025022486B0B0F1804F0FD087
:102CF000174988421ED14FF470408DE83100CDE96C
:102D000003541448694600BFFFF73CF906B070BD94
:102D100020208DE831000126CDE9035669460E4892
:102D2000FFF730F908208DE83100CDE903566946F8
:102D30000A48E9E70A498842E8D14FF440708DE833
:102D400031000320CDE9035069460648DCE7000066
:102D500000080040000C0240000002400004024055
:102D60000004014000080240704770B5044690F826
:102D700038000D4601280DD0012684F83860022065
:102D800084F8390042B1042A18D0082A2AD00C2A23
:102D90004DD139E0022070BD206802F069FB206847
:102DA000816941F0080181612068816921F0040195
:102DB0008161206881692A69114311E0206802F06D
:102DC00083FB2068816941F4006181612068816929
:102DD00021F480618161206881692A6941EA0221C8
:102DE000816124E0206802F0A1FB2068C16941F004
:102DF0000801C1612068C16921F00401C161206836
:102E0000C1692A69114311E0206802F0BFFB206804
:102E1000C16941F40061C1612068C16921F4806128
:102E2000C1612068C1692A6941EA0221C16184F84F
:102E30003960002084F8380070BD10B5040003D05C
:102E400094F8390010B107E0012010BD002084F88B
:102E50003800204600F00CF8022084F83900211DCB
:102E6000206802F099FA012084F83900002010BD92
:102E700008B501681248B1F1804F0BD0114A914258
:102E800010D1016841F004010160006800F0040005
:102E9000009008BD016841F001010160006800F088
:102EA0000100F5E708488142F3D10548001D01689B
:102EB00041F002010160006800F00200E8E7000054
:102EC0004038024000080040000401407047000004
:102ED00010B504460068012202F0BEFA08492068D5
:102EE000884202D00749884203D1416C41F4004135
:102EF00041642068016841F001010160002010BDBB
:102F0000000001400004014000680349884201D1EB
:102F1000FFF71CB970470000001000407047000028
:102F200070B51B4C194B41F6FA41214400254FF472
:102F3000007204F58054834205D118461DE000BF9D
:102F400084F8005F70BD134B8342FBD0124B834269
:102F5000F8D0124B83420CD11149184600F04EFBB9
:102F6000A4F8EA5894F8EE080128EBD184F8EE585A
:102F700070BD0C4B8342FBD1184600F03FFBA4F818
:102F8000FC5E94F8000F0128DAD070BDEC650020DB
:102F900008AC00202C6600206C6600206C650020C8
:102FA000F0C20020AC65002070B5026804461068CD
:102FB000D168536910F00F0F50D003F0010501F4F0
:102FC000907635435DD0C20705D0CA0503D5E26BC4
:102FD00042F00102E263420705D5DA0703D0E26B53
:102FE00042F00202E263820705D5DA0703D0E26B02
:102FF00042F00402E263020705D5DA0703D0E26B70
:1030000042F00802E263E26B002A33D0800604D566
:10301000880602D5204602F0E6FB20684069E16B95
:10302000C0F38010090700D428B3204602F0C4FB87
:103030002068416949061AD5416921F04001416182
:10304000606BA0B11B490165606BFEF7F3FD0028C2
:1030500010D0606B016DBDE870400847830610D545
:103060008B060ED52046BDE8704002F0BCBB204662
:10307000FFF756FF70BD2046FFF752FF0020E063C8
:1030800070BD030606D50B0604D52046BDE870408A
:1030900002F046BD4006F3D54806F1D5D16820467A
:1030A00021F04001D160202184F8391000F082FB2A
:1030B00070BD0000E156000870B5040004D094F81B
:1030C0003900002510B106E0012070BD84F83850A9
:1030D000204600F023F8242084F839002068C168D5
:1030E00021F40051C160204602F0C4FB2068016950
:1030F00021F4904101612068416921F02A01416178
:103100002068C16841F40051C160E563202084F863
:10311000390084F83A00002070BD00002DE9F04F1E
:10312000F7490446F54A03680227032000250E15D7
:1031300087B04FF001084FF0080E4FF480794FF040
:10314000400A4FF0006B934256D10A6842F40022C5
:103150000A600968009701F4002105910121CDE979
:1031600002100820049001976946E648FEF70AFF1E
:1031700001200096CDE901700320039008200490FF
:10318000B0466946E048FEF7FDFEE148DF495F468C
:103190000160C0E901B5C0E903564561C0E90659BF
:1031A00005624562FEF728FE20B14FF4B671D9A042
:1031B00002F001FDD6486063D54E84636036D34883
:1031C000C6E903587561B561F561356230307562E5
:1031D00086E881043046FEF70FFE20B14FF4BF7140
:1031E000CCA002F0E8FC2663002205213420B46361
:1031F000FFF756F8342064E0CB4A934266D10A6860
:10320000002542F480120A600968032001F480114D
:103210000591991400910221CDE90118CDE9030E21
:1032200077466946B848FEF7ADFE042000900220BC
:10323000CDE901080320CDE903076946BB48FEF745
:10324000A1FEDFF8CC82B14908F1C0083039404610
:10325000C8F80010C0E901B5C0E90356C8F8145019
:10326000C0E90659C8F820505F46C8F82450FEF758
:10327000C3FD20B14FF4D971A6A002F09CFCA34875
:10328000AB4DC4F834807830C8F8384085E8810404
:103290000020C5E903066861A861E86128626862E8
:1032A0002846FEF7A9FD20B14FF4E27199A002F083
:1032B00082FC2563002205213520AC63FEF7F0FF78
:1032C0003520FEF7E1FF07B0BDE8F08F8C4ADFF84C
:1032D00064C2121D634554D11168002541F01001EC
:1032E00011601168CDE9028001F0100105914FF4E1
:1032F000C061CDE900170720049069468148FEF7B8
:1033000041FEDFF838828C4940465F46C0E90356EB
:10331000C8F81450C8F81850C8F81C50C8F8205005
:1033200088E88204C8F82450FEF766FD20B140F218
:10333000F11178A002F03FFC804D7F48C4F8308046
:10334000603D7838C8F83840C5E900070020A8601B
:10335000C5E903066861C5E906092862686228466E
:10336000FEF74AFD20B140F203216AA002F023FCDF
:103370006563002205212520AC63FEF791FF25201F
:103380009FE7DFF8BCC163455CD10A6842F40032B4
:103390000A600968CDE9028001F4003105910C2131
:1033A000CDE900170720049069465648FEF7EAFD6C
:1033B000DFF85C815549A8F1600840466031C0E9FA
:1033C0000356C8F81450C8F81850C8F81C505F4687
:1033D000C8F8205088E88204C8F82450FEF70CFD95
:1033E00020B14FF40C714BA002F0E5FBC4F8308023
:1033F000C8F83840DFF84481444908F16008483192
:103400004046C8F80010C0E90175C0E90356C8F885
:103410001450C0E90659C8F82050C8F82450FEF7E7
:10342000EBFC20B140F242213AA002F0C4FBC4F808
:103430003480002205212620C8F83840FEF730FFEE
:1034400026203EE7DFF8FCC063457FD10A680025EF
:1034500042F480220A600968CDE9028001F48021EB
:1034600005914FF44061CDE90017072004906946AB
:103470003548FEF787FDDFF8B880244908F1600879
:1034800040461831C0E90356C8F81450C8F818501F
:10349000C8F81C505F46C8F8205088E88204C8F875
:1034A0002450FEF7A9FC20B140F26F2119A002F0D0
:1034B00082FB1F4D1548C4F83080C0351838C8F855
:1034C0003840C5E900070020A860C5E90306686127
:1034D000C5E90609286268622846FEF78DFC20B11E
:1034E00040F281210BA002F066FB656300220521FA
:1034F0002720AC63FEF7D4FE2720E2E6004C004014
:103500004038024000000240000802404060024093
:103510006C6800202E2E2F436F72652F5372632F1D
:1035200075736172742E630000500040000C0240FD
:103530008C69002000100140B86402404C670020F4
:10354000004400400048004000040240FFE72749D3
:103550008B427FF4B8AE116841F020011160116810
:1035600001F020010591C0218DE88201CDE9030E13
:1035700069461F48FEF706FD1F4F1E484FF02068A2
:10358000C7E903567D61BD61FD613D627D6287E8EB
:1035900001053846FEF730FC28B140F2AE21AFF20B
:1035A0008C0002F008FB2763BC63134F114860379F
:1035B00078383860C7E90185C7E903567D61C7E9F6
:1035C00006593D6238467D62FEF716FC28B14FF47D
:1035D0003071AFF2C00002F0EEFA676300220521FD
:1035E0004720BC63FEF75CFE47206AE600140140FA
:1035F00000080240A0640240AC6A0020F8B504460E
:1036000090F83A0020283CD1C1B3BAB394F83800FE
:10361000012836D0012084F83800A162A285002557
:10362000E563222084F83A00636B1748D863636B24
:1036300016481864636B1648D864606B13460565BA
:103640000846666B216802463046091DFEF73EFCBF
:10365000206801684168009184F83850C16841F4DD
:103660008071C1602068416941F0010141612068B9
:10367000416941F0400141610020F8BDFFE70120B0
:10368000FBE70220F9E700003B57000877570008E6
:10369000F1560008F0B51E4B016801221D48994201
:1036A00002D180F82422F0BD1B4B994202D180F850
:1036B0001422F0BD194B994202D180F83422F0BD9A
:1036C000174A9142FBD0174A9142F8D0164A9142CC
:1036D000F5D1164B002145F6FE721A444FF40076E0
:1036E0000D465C1804F5A044B0F8007294F8F44D4F
:1036F000BC54B0F80042641CA4B2A0F80042B4422A
:1037000001D3A0F80052491C89B20A29E9D3F0BDBF
:10371000001001405061002000440040004800407B
:10372000004C0040005000400014014050010020B7
:103730007047000070B5044690F83900202830D159
:1037400069B362B394F8380001282AD0012084F8C4
:1037500038002162A284E2840025E563212084F8F8
:103760003900236B1048D863236B10481864236B0F
:103770000F48D864206B134605652668206B321D00
:10378000FEF7A4FB21686FF04000086084F8385011
:103790002068416941F080014161002070BD012035
:1037A00070BD022070BD000081570008AF570008AF
:1037B000F156000810B5154C154B0268002103F5B1
:1037C0008050A24202D183F8B81614E0114CA242F4
:1037D00002D183F8CA1C10BD0F4B9A4202D180F867
:1037E000DC1210BD0D4B9A4202D180F8EE1810BDCC
:1037F0000B4B9A4202D180F8001F10BD094882424B
:10380000FBD1094880F8121510BD000000100140DE
:1038100008AC00200044004000480040004C00403C
:10382000005000400014014008CC00207047FEE723
:1038300070B501001048114E4FF4005505D0012914
:1038400014D0022915D0032909D0012220210446D1
:10385000FEF770FC012240212046FEF76BFC01229E
:1038600029463046BDE87040FEF764BC01222021A5
:10387000F8E701224021F5E700100240000802406D
:1038800070B501001048114E4FF4005505D00129C4
:1038900014D0022915D0032909D000222021044682
:1038A000FEF748FC002240212046FEF743FC0022A0
:1038B00029463046BDE87040FEF73CBC002220217E
:1038C000F8E700224021F5E700100240000802401E
:1038D00010B52DED0A8BB0EE40BAF0EE60BAB0EE46
:1038E000428AF0EE628AB0EE439A9FED2A0BF0EE28
:1038F000639AB0EE41AAF0EE61AA53EC102B51ECA2
:10390000180BFCF7ABFE06D153EC192B51EC1B0B3B
:10391000FCF79BFD39E09FED210B51EC180B53ECAC
:10392000102BFCF7B3FE06D853EC192B51EC1A0BF5
:10393000FCF788FD29E053EC182B51EC180BFCF731
:1039400087FD9FED181B53EC112BFCF7DAFCFCF7FD
:10395000B5FE00EE100A03F057F910EE100AFCF75E
:1039600069FE41EC1C0B53EC1A2B51EC180BFCF7C5
:103970006FFD53EC1B2BFCF7C4FC53EC192BFCF72D
:1039800064FD53EC1C2BFCF7D5FDBDEC0A8B41EC20
:10399000100B10BD0000000000000000000000003F
:1039A00084D79741000000000000F03F70B50C463E
:1039B0002DED0A8B0546B0EE439AF0EE639AB0EE19
:1039C000418AF0EE618AB0EE42BAF0EE62BAB0EE31
:1039D00040AAF0EE60AA9FED3ACB53EC192B51ECC4
:1039E000180BFCF73BFE0DD153EC1B2B51EC1A0BC3
:1039F000FCF734FE06D185ED00CB84ED00CBBDECA9
:103A00000A8B70BD53EC192B51EC180BFCF726FEFA
:103A10000DD153EC1B2B51EC1A0BFCF71FFE06D0FB
:103A20009FED290B85ED000B84ED008BE7E753EC50
:103A3000192B51EC180BFCF711FE0BD053EC1B2B80
:103A400051EC1A0BFCF70AFE04D185ED00CB84ED96
:103A500000ABD4E753EC182B51EC190BFCF7F2FC3C
:103A600041EC1C0B53EC1B2B51EC1A0BFCF7EDFC3F
:103A700053EC1C2BFCF75EFDC5E9000153EC192B40
:103A800051EC180BFCF7DEFC41EC1C0B53EC192B32
:103A900051EC1A0BFCF7DCFC41EC190B53EC182B26
:103AA00051EC1B0BFCF7D4FC53EC192BFCF7CAFCB4
:103AB00053EC1C2BFCF73EFDC4E900019FE700001E
:103AC00000000000000000000000000084D79741C3
:103AD0002DE9F0410E462DED0A8B0746B0EE428AE5
:103AE000F0EE628AB0EE40BAF0EE60BA9FED2AAB1B
:103AF00051EC130B53EC1A2BFCF7AAFC0D460446B1
:103B000045EC100B02F044FB53EC182B51EC100B5E
:103B1000FCF79EFC41EC190B45EC104B02F0D4FA7B
:103B200053EC182B51EC100BFCF792FC41EC180BEA
:103B30009FED1BCB53EC1A2B51EC1B0BFCF788FCB5
:103B400041EC100B02F0C0FA53EC1C2B51EC100BA3
:103B5000FCF77EFC41EC100B53EC102B9FED120B8D
:103B600051EC100BFCF7E6FC9FED110B41EC1A0B2E
:103B700053EC182B51EC100BFCF76AFCC7E9000161
:103B800053EC192B51EC1A0BFCF762FCC6E900014F
:103B9000BDEC0A8BBDE8F0810000002047DF913FBB
:103BA00000CC433733C184410000000000807640E0
:103BB00045B77E4F7158E13E70B50C462DED0C8B2C
:103BC0000546B0EE429AF0EE629AB0EE40AAF0EEF0
:103BD00060AAB0EE43BAF0EE63BAB0EE41CAF0EEBE
:103BE00061CA53EC192B51EC1A0BFCF737FD06D1C7
:103BF0009FED208BB0EE480AF0EE680A33E053ECFC
:103C0000192B51EC1A0BFCF71DFC41EC180B53EC73
:103C10001C2B51EC1B0BFCF715FC53EC182BFCF781
:103C200089FC41EC180B53EC192B51EC1A0BFCF7E7
:103C30000CFC41EC1D0B53EC1B2B51EC1A0BFCF74D
:103C400007FC41EC1A0B53EC1C2B51EC190BFCF745
:103C5000FFFB53EC1A2BFCF7F5FB53EC1D2BFCF789
:103C600069FC41EC100B85ED008B84ED000BBDEC85
:103C70000C8B70BD00000000000000002DE9F04139
:103C8000274B284D1E15284CDF14012906D0052886
:103C900044D2DFE800F023353940320005283DD218
:103CA000DFE800F003141618120000220421184661
:103CB000FEF740FA002280212846FEF73BFA002258
:103CC00031462046FEF736FA002217E0002218E0BF
:103CD00000221AE000221FE0204618E00122042101
:103CE0001846FEF727FA012280212846FEF722FA1D
:103CF000012231462046FEF71DFA01223946EBE744
:103D000001220421184602E0012280212846BDE854
:103D1000F041FEF70FBA01223146DDE7BDE8F08140
:103D20000004024000100240000C024010B5074C95
:103D300000224FF480712046FEF7FCF90022611545
:103D40002046BDE81040FEF7F5B90000000402402F
:103D50007FB515481349002401604FF48031C0E954
:103D600001140461846111490462C0E90A14012547
:103D7000C460C56145610463FDF78FFE18B152212F
:103D80000BA001F018FF0A20CDE900056946029456
:103D90000548FDF7D9FD002803D05C2104A001F0FF
:103DA0000AFF7FBD00200140F86300200100000FE2
:103DB0002E2E2F436F72652F5372632F6164632E13
:103DC00063000000394808B5016841F480010160D2
:103DD000016801F480010091016841F40011016063
:103DE0000068002200F40010009005210B20FEF76F
:103DF00057FA0B20FEF748FA002205210C20FEF7A7
:103E00004FFA0C20FEF740FA002205210D20FEF7A4
:103E100047FA0D20FEF738FA002205210E20FEF7A2
:103E20003FFA0E20FEF730FA002205210F20FEF7A0
:103E300037FA0F20FEF728FA002205211020FEF79E
:103E40002FFA1020FEF720FA002205211120FEF79C
:103E500027FA1120FEF718FA002205212F20FEF77D
:103E60001FFA2F20FEF710FA002205213920FEF755
:103E700017FA3920FEF708FA002205213A20FEF74A
:103E80000FFA3A20FEF700FA002205214520FEF73E
:103E900007FA4520FEF7F8F9002205214620FEF733
:103EA000FFF9BDE808404620FEF7EEB93038024081
:103EB00010B590B0142211496846FCF710FA0021A1
:103EC000684602F0D7FE0E4C0C49142220601431D3
:103ED00005A8FCF704FA002105A802F0CBFE07496B
:103EE0006060142228310AA8FCF7F9F900210AA819
:103EF00002F0C0FEA06010B010BD0000AC79000858
:103F0000B00000202DE9F04F5A4887B00024016826
:103F100041F010010160016801F010010591016894
:103F200041F004010160016801F00401059101689C
:103F300041F080010160016801F080010591016894
:103F400041F001010160016801F001010591016882
:103F500041F002010160016801F002010591016870
:103F600041F0080101600068002200F0080005909F
:103F700060214148FEF7DEF8DFF800914FF400576A
:103F8000002239464846FEF7D5F8DFF8F4A00122B2
:103F90004FF441715046FEF7CDF80122802136489A
:103FA000FEF7C8F8DFF8DCB04FF440760022314667
:103FB0005846FEF7BFF84FF4406801224146584684
:103FC000FEF7B8F80125E020CDE90005CDE902545F
:103FD00069462948FDF7D6FF0097CDE901546946A7
:103FE00048460394FDF7CEFFCDE9005469462648C4
:103FF0000294FDF7C7FF0420022703948DE8A10077
:1040000069465046FDF7BEFFCDE90274CDE9006573
:1040100069465846FDF7B6FFCDF80080CDE901545A
:10402000694658460394FDF7ADFF0096CDE901546B
:10403000694650460394FDF7A5FF032000901348FE
:10404000CDE9010569460C48FDF79CFF00220521DA
:104050000620FEF725F90620FEF716F900220521B5
:104060000720FEF71DF90720FEF70EF907B0BDE89F
:10407000F08F00003038024000100240000802407B
:1040800000040240000C0240000002400000111039
:1040900010B5284886B026490160A7210024C0E950
:1040A00001144FF6FF71C0E903144461FEF7F5FCFB
:1040B00018B14F2120A001F07EFD049404A91D48F1
:1040C0000594FEF70AFC18B156211BA001F073FD00
:1040D0000120CDE90040029400226946154803946E
:1040E000FEF74CFC18B15F2113A001F064FD04221F
:1040F00069461048FEF742FC18B164210EA001F099
:104100005AFD082269460B48FEF738FC18B16921B0
:1041100009A001F050FD0C2269460648FEF72EFC6E
:10412000002803D06E2104A001F045FD06B010BDAB
:1041300000000140406400202E2E2F436F72652F37
:104140005372632F74696D2E6300000010B51E4812
:104150008AB04FF08041016053210024C0E901146E
:104160006321C0E90314FEF768FE18B17F2117A090
:1041700001F021FD079407A913480894FEF7ADFB51
:1041800018B1862111A001F016FD6020CDE90004D0
:104190000294002269460C480494FEF7E6FD18B12B
:1041A0008F210AA001F007FD042269460648FEF7A8
:1041B000DCFD18B1942105A001F0FDFC0248FEF7DA
:1041C0008FFD0AB010BD00007C6400202E2E2F430E
:1041D0006F72652F5372632F74696D2E6300000038
:1041E00010B5284886B02649016053210024C0E953
:1041F00001144FF6FF71C0E90314FEF74EFC18B12D
:10420000A72121A001F0D7FC049404A91D4805941E
:10421000FEF763FB18B1AE211BA001F0CCFC01201E
:10422000CDE9004002940022694616480394FEF747
:10423000A5FB18B1B72114A001F0BDFC042269460A
:104240001048FEF79BFB18B1BC210FA001F0B3FC96
:10425000082269460B48FEF791FB18B1C1210AA05C
:1042600001F0A9FC0C2269460648FEF787FB0028EE
:1042700003D0C62104A001F09EFC06B010BD0000D2
:1042800000040040B86400202E2E2F436F72652F6B
:104290005372632F74696D2E6300000010B52848B7
:1042A0008AB02649016053210024C0E9011463212A
:1042B000C0E90314FEF7C1FD18B1D72121A001F018
:1042C0007AFC079407A91E480894FEF706FB18B16C
:1042D000DE211CA001F06FFC6020CDE900040294F7
:1042E0000022694616480494FEF73FFD18B1E72105
:1042F00014A001F060FC042269461148FEF735FD68
:1043000018B1EC210FA001F056FC082269460C48B8
:10431000FEF72BFD18B1F1210AA001F04CFC0C2294
:1043200069460748FEF721FD18B1F62105A001F006
:1043300042FC0348FEF7D4FC0AB010BD0008004060
:10434000F46400202E2E2F436F72652F5372632F5B
:1043500074696D2E6300000010B52C4890B02A4996
:104360000160A7210024C0E901146321C0E90314FE
:104370004461FEF762FD20B140F20B1124A001F070
:104380001AFC0E940EA921480F94FEF7A6FA20B14C
:104390004FF489711EA001F00EFC6020CDE90004ED
:1043A00002940394049405940822694617480694DD
:1043B000FEF7DBFC20B14FF48F7115A001F0FBFB81
:1043C0000C2269461148FEF7D0FC20B140F22311BF
:1043D0000FA001F0F0FB0794089409944FF40050EB
:1043E0000A94CDE90B4007A908480D94FEF748FA56
:1043F00020B140F22F1106A001F0DDFB0348FEF7CB
:104400006FFC10B010BD00000004014030650020BA
:104410002E2E2F436F72652F5372632F74696D2E8A
:10442000630000000D4810B50B4901604FF4E13105
:104430004160002181600C22C160C0E904128161E9
:10444000C161FEF739FE002805D0BDE81040DD212E
:1044500003A001F0B0BB10BD004C00406C65002013
:104460002E2E2F436F72652F5372632F75736172F7
:10447000742E63000D4810B50B4901604FF4E13113
:104480004160002181600C22C160C0E90412816199
:10449000C161FEF711FE002805D0BDE81040EF21F4
:1044A00003A001F088BB10BD00500040AC650020A7
:1044B0002E2E2F436F72652F5372632F75736172A7
:1044C000742E63000E4810B50C4901604FF4E131C1
:1044D0004160002181600C22C160C0E90412816149
:1044E000C161FEF7E9FD002806D0BDE810404FF499
:1044F000817104A001F05FBB10BD000000100140FD
:10450000EC6500202E2E2F436F72652F5372632FA0
:1045100075736172742E63000E4810B50C4901600A
:104520004FF416514160002181600C22C160C0E946
:1045300004128161C161FEF7BFFD002806D0BDE80D
:10454000104040F2151104A001F035BB10BD000071
:10455000004400402C6600202E2E2F436F72652FE2
:104560005372632F75736172742E63000E4810B519
:104570000C4901604FF416514160002181600C220A
:10458000C160C0E904128161C161FEF795FD002898
:1045900006D0BDE810404FF4947104A001F00BBBAD
:1045A00010BD0000004800406C6600202E2E2F43F6
:1045B0006F72652F5372632F75736172742E63006F
:1045C0000E4810B50C4901604FF4165141600021AE
:1045D00081600C22C160C0E904128161C161FEF7F3
:1045E0006BFD002806D0BDE8104040F23B1104A04E
:1045F00001F0E1BA10BD000000140140AC660020DB
:104600002E2E2F436F72652F5372632F7573617255
:10461000742E6300FEE770470907090E002806DACA
:1046200000F00F0000F1E02080F8141D704700F149
:10463000E02080F80014704710B52DED068BB0EE29
:10464000609AF0EE618A71EE400ADFED211A31EED8
:10465000000A20EEA18AF6EE000A20EE200ADFED25
:104660001D0A20EE200A10EE100AFBF7E3FF41ECD2
:10467000100B01F029FDB0EE40AA38EEC90AF0EEA9
:1046800060AA10EE100AFBF7D5FF53EC1A2BFBF7CC
:10469000DFFE9FED111B53EC112BFBF7D9FEFCF74E
:1046A0000DF868EE080A00EE100A40EE000A10EE5F
:1046B000900AFBF7BFFF41EC100B01F0CDFD51EC70
:1046C000100BFBF7FBFFBDEC068B00EE100A10BDD4
:1046D00000B1D84735FA8E3C00000000602DFB4049
:1046E00010B5B4EE410A2DED068BB0EE618AF0EE06
:1046F000608AF1EE10FA07D1F4EE488AF1EE10FA72
:1047000002D19FED2B0A47E031EE409A31EE000ACC
:10471000F6EE000A20EE200ADFED260A20EE200A3F
:1047200010EE100AFBF786FF41EC100B01F0CCFCF9
:10473000B0EE40AA38EE680AF0EE60AA10EE100A59
:10474000FBF778FF53EC1A2BFBF782FEFBF7B6FF63
:10475000FBF770FF41EC180BB1EE490A10EE100A9E
:10476000FBF768FF41EC100BB0EE481AF0EE681A48
:1047700001F0B2FB9FED101B51EC100B53EC112B11
:10478000FBF766FE9FED0E1B53EC112BFBF7B9FDFB
:10479000FBF794FF00EE100AB5EEC00AF1EE10FA36
:1047A00003D2DFED090A30EE200ABDEC068B10BD06
:1047B0000000000035FA8E3C00000020DCA54C40D3
:1047C00000000000008056400000B4432DE9F04195
:1047D0000446444E14F8060F60F30705607860F352
:1047E0000F25A07860F31745E07860F31F6535600A
:1047F000207960F30705607960F30F25A07960F3F5
:104800001745E07960F31F6528467560FBF701FFE7
:104810009FED351B53EC112BFBF71AFE344FC7E904
:104820000201207A60F30705607A60F30F25A07A11
:1048300060F31745E07A60F31F652846B560FBF723
:10484000E8FE9FED291B53EC112BFBF701FEC7E996
:104850000001207B60F30705607B60F30F25A07BE0
:1048600060F31745E07B60F31F652846F560FBF7B2
:10487000D0FE9FED201B53EC112BFBF7E9FDC7E9A0
:104880000401207C60F30705607C60F30F25A07CA9
:1048900060F31745E07C60F31F6500EE105A17487F
:1048A0003561B8EEC00A80ED020A207D60F307058D
:1048B000607D60F30F25A07D60F31745E07D60F318
:1048C0001F657561207E60F30705607E60F30F252C
:1048D000A07E60F31745E07E60F31F65B561BDE81B
:1048E000F0810000D8AA002048AFBC9AF2D77A3EE7
:1048F000185F0020FCA9F1D24D62503F2C0100202E
:1049000010B582791C4C62F30701C27962F30F2162
:10491000027A62F31741427A62F31F61154A11600D
:10492000837A536084F8C03DC37A9360037BD3607D
:10493000437B1361827B62F30701C27B62F30F2129
:10494000027C62F31741427C62F31F61094A243AF8
:104950005161827C62F30701C27C62F30F21027D08
:10496000407D62F3174160F31F6102482438816182
:1049700010BD0000BCAA0020505100202DE9F041DC
:1049800004462DED028B14F8061F5D4D61F3070000
:10499000617861F30F20A17861F31740E17861F34A
:1049A0001F60584928604860217961F307006179E8
:1049B00061F30F20A17961F31740E17961F31F6082
:1049C00000EE100AB8EEC00ADFED4F0A4F4E20EE9F
:1049D000200ABDEEC00A85ED010AB8EEC00A86EDD8
:1049E000020A14F8081F61F30700617861F30F20D1
:1049F000A17861F31740E17861F31F600746A86072
:104A0000FBF707FE9FED428B53EC182BFBF720FDC5
:104A1000FBF754FEF0602079E17960F307076079D5
:104A200060F30F27A07960F31747384661F31F60E2
:104A30000746E860FBF7EDFD53EC182BFBF708FD8C
:104A4000FBF73CFEF060217A384661F30700617A9B
:104A500061F30F20A17A61F31740E17A61F31F60DF
:104A600007462861FBF7D5FD53EC182BFBF7F0FC4C
:104A7000FBF724FE3060207B60F30707607B60F368
:104A80000F27A07B60F31747E07B60F31F676F6120
:104A9000217C384661F30700617C61F30F20A17C23
:104AA00061F31740E17C61F31F600746A861FBF7E3
:104AB000B0FD9FED191B53EC112BFBF7C9FCFBF765
:104AC000FDFD7060207D60F30707607D60F30F27B8
:104AD000A07D60F31747E07D60F31F67EF61207EE4
:104AE00060F30707607E60F30F27A07E60F317472F
:104AF000E07E60F31F672F62BDEC028BBDE8F081A2
:104B000098AA00202C0100200AD7233C305F002007
:104B10007B14AE47E17A843FF168E388B5F8E43E60
:104B200010B5C279C37A62F30701027A2E4C62F3A0
:104B30000F21427A62F31741827A62F31F610A46BB
:104B400063F30702037B63F30F22437B807B63F3F2
:104B5000174260F31F621046012205290BD0002383
:104B600006290DD0402905D107281FD0082801D1DA
:104B700084F8A43010BDA928FCD184F8A02010BD71
:104B800005280AD006280CD00728F8D194F8A200EE
:104B90000028F4D184F8A32010BD04F8A12F63707D
:104BA00010BD04F8A13F6270A37010BDD4E90601E6
:104BB00088420FD20D4900EB800001EBC0010A488A
:104BC00084F8A42028227830FBF789FBA069401CD8
:104BD000A06110BD84F8A430A3610821BDE8104095
:104BE000402000F031B9000008AC002020D10020A6
:104BF0002422C11D0148FBF772BB00002CAC002031
:104C00002DE9F041374C054600272178364E04F156
:104C10000E00092964D2DFE801F0050D16191C1FEA
:104C200022334500EB2D29D148F20841018047800D
:104C300035701BE0902D53D12A4829460E30FBF7E2
:104C4000B7FF757017E0E570B5700FE02571F5706E
:104C50000CE06571357109E06570757105E0A5704E
:104C6000607800EB05206081B57127811D482946D9
:104C70000E30FBF79DFF2078401C2070BDE8F081CE
:104C80002089618988420AD230442946C571154875
:104C90000E30FBF78DFF2089401C2081EEE7A571C7
:104CA0000820EAE7A179408801EB0521884217D165
:104CB000E078217900EB012080B2A081052804D0A2
:104CC000102806D040280BD107E00748FFF728FF3F
:104CD00006E00548FFF78CFF02E0034800F006F805
:104CE0002770CBE738010020F8AA002070B5C11D5D
:104CF000104828220546FBF7F2FA0E4C0E49783C84
:104D00002822B4F8780000EB800001EBC0002946AF
:104D1000FBF7E5FAB4F8780008B1E06901E000209B
:104D2000E061401CE061BDE870400721402000F0D8
:104D30008BB8000080AC002020D1002008B50020F6
:104D40008DF8000004E000BF9DF80000FFF758FF59
:104D5000684601F007FF0028F6D108BD2DE9F047AD
:104D6000364C0D460026B4F8F23A94F8F67CB4F8C6
:104D7000F82C4FF4007859194FF00109B7B141F6FA
:104D8000F427A4F580531F4403F580534145B3F83D
:104D9000F43C37D83B4401462A461846FBF79FFAB5
:104DA000B4F8F40C2844A4F8F40C30E0244F414546
:104DB0000BD83B4401462A461846FBF790FAB4F854
:104DC000F20A2844A4F8F20A03E08A4201D2A4F8C5
:104DD000F81C94F8000F002812D184F8009FB4F852
:104DE000F80CB4F8F22A4D46904201D2A4F8F82CFF
:104DF00039461448FEF79EFCA4F8F46C84F8F65C7F
:104E0000BDE8F0875819824201D2A4F8F80C94F852
:104E1000000F0028F4D184F8009FB4F8F80CB4F81F
:104E2000F42C904201D2A4F8F82C39460548FEF73C
:104E300081FCA4F8F26A84F8F66CE1E708BC002073
:104E4000FAC40020EC65002000B5194B99B000228F
:104E500083F8A020EB228DF8002090228DF801200D
:104E600004228DF80220002203F580538DF80320E0
:104E700093F8022F8DF80420521C83F8022F082289
:104E80008DF8052000228DF80620CDF80700CDF81A
:104E90000B100F216846FBF772FE8DF80F00000A19
:104EA0008DF8100011216846FFF758FF19B000BDBA
:104EB00008AC002000B51C4899B090F8A01000295B
:104EC00030D0002180F8A010EB218DF80010902147
:104ED0008DF8011010218DF80210144A00218DF870
:104EE000031092F8021F8DF80410491C82F8021F6B
:104EF00024218DF8051000218DF806100A49684616
:104F000024222431C01DFBF7EAF92B216846FBF768
:104F100036FE8DF82B00000A8DF82C002D216846F6
:104F2000FFF71CFF19B000BD08AC002008BC002032
:104F300000B51C4899B090F8A410002930D0002189
:104F400080F8A410EB218DF8001090218DF801104D
:104F500040218DF80210144A00218DF8031092F8B8
:104F6000021F8DF80410491C82F8021F28218DF8B9
:104F7000051000218DF806100A496846282278316C
:104F8000C01DFBF7ACF92F216846FBF7F8FD8DF843
:104F90002F00000A8DF8300031216846FFF7DEFE51
:104FA00019B000BD08AC002008BC00201FB51022BD
:104FB00069463948FCF7BEFD00213848FDF7D0FDB1
:104FC00004213648FDF7CCFD08213448FDF7C8FD23
:104FD0000C213248FDF7C4FD00213148FDF7C0FD2A
:104FE00004212F48FDF7BCFD08212D48FDF7B8FD31
:104FF0000C212B48FDF7B4FD00212A48FDF768FF7E
:1050000004212848FDF764FF00212748FDF760FFD1
:1050100004212548FDF75CFF08212348FDF758FFD0
:105020000C212148FDF754FF08212048FDF750FFCF
:105030000C211E48FDF74CFF02221D491D48FEF7BA
:10504000DDFA4FF400721C491C48FEF7D7FA1849E4
:10505000022220311A48FEF7D1FA4FF41650FCF71D
:105060004BFC0A2217491848FEF7C8FA02F046F826
:10507000164C0025642001F0E7FDFFF71BFFFFF74A
:1050800057FFFFF75BFE94F87002012801D184F806
:10509000705201F007FEEDE7F86300204064002045
:1050A000B86400207C640020F46400203065002097
:1050B000656300202C66002002C90020EC650020FA
:1050C0006C660020445F0020AC6600205061002028
:1050D0002DED048B9FED4D0A4D4DF1EE0C0AB2EE15
:1050E000001A85ED8F0AC5ED900A85ED911A85EDC0
:1050F000920AC5ED930A85ED941A85ED950AC5EDE2
:10510000960A85ED971A05F5187080EC030AFEF7EC
:105110000DFE01210020FEF7B1FDA5F5B8409FED81
:105120003D8ADFF80091DFED3C8AA0F58066DFF86C
:10513000ECB09FED3B9A80ED088A00244FF0804848
:1051400009F1040A06F5B847142001F07DFDB0EE20
:10515000680AD6F82804FCF721F895F872026D2841
:1051600004D096F82404572813D003E0C6F8284446
:1051700086F82444C8F83440C8F838402A48046007
:10518000001D0460001D0460001D0460C9F800409B
:1051900037E097ED5B1A97ED592AD7ED5A0A31EEB1
:1051A000020A70EE201AF5EEC01AF1EE10FA02D2E1
:1051B000F0EE481A05E011EE900A584501DDF0EED8
:1051C000491ABCEEE10A10EE101AC8F83410C8F8FB
:1051D000384031EE420A70EE600AF5EEC00AF1EE98
:1051E00010FA02D2F0EE480A05E010EE900A584597
:1051F00001DDF0EE490ABCEEE00A10EE100AC9F833
:105200000000CAF8004001F04DFD9DE766660641CA
:1052100050610020000000000AD7A33C00007A443F
:1052200000007A443C04014034080040114C45F62B
:10523000FE7026184FF40077002504F5C0440A20BC
:1052400001F002FD0CE0805D02F022F8B4F8FE01EE
:10525000401C80B2A4F8FE01B84201D3A4F8FE516C
:10526000B4F8FE01B4F800128842ECD101F01AFD46
:10527000E5E700005001002001F0F2BC30B52748FE
:1052800093B00025016841F080510160006800F092
:10529000805011902248016841F48041016000680B
:1052A000022400F48040119001200090000401903D
:1052B0008001CDE9064004200890A820CDE909042A
:1052C00007200B906846FDF72BF908B1B4210FE0D9
:1052D0000CA90F2081E831004FF4A0500F904FF43B
:1052E0008050109005210CA8FDF70CF818B1C221D0
:1052F0000CA000F060FCFDF7BDF84FF47A71B0FB34
:10530000F1F0FDF7A7FA0420FDF798FA00220F212B
:10531000501EFCF7C5FF13B030BD000040380240FE
:10532000007000402E2E2F436F72652F5372632F33
:105330006D61696E2E6300001048016841F47001D0
:1053400001600F48016841F0010101600C4A002131
:105350000832116002680B4B1A400260031D0A4AB2
:105360001A60026822F48022026005480C30016055
:1053700002495806803908607047000088ED00E057
:1053800000380240FFFFF6FE103000240148FDF710
:10539000F4BB00006C6B0020F0B50268234B244D79
:1053A000244E254F254C4FF0804C984209D0604543
:1053B00007D0A84205D0B04203D0B84201D0A042E5
:1053C00004D122F0700E4A6842EA0E0298421BD0C5
:1053D000604519D0A84217D0B04215D0B84213D0BA
:1053E000A04211D0164DA8420ED0164DA8420BD0A7
:1053F000154DA84208D0154DA84205D0144DA8421D
:1054000002D0144DA84203D122F44075CA682A4341
:1054100002608A68C2620A688262984201D0A04231
:1054200001D10969016301214161F0BD0000014022
:105430000004004000080040000C0040000401404F
:105440000040014000440140004801400018004075
:10545000001C00400020004010B50123046A8B406E
:105460009C430462036A8A401343036210BD000038
:1054700030B5026A22F001020262026A436884695E
:105480000D6824F07304254322F002048A68224345
:105490000B4CA04202D00B4CA0420BD122F00804CE
:1054A000CA6823F4407322434C6922F004021C436F
:1054B0008B6923434360856149684163026230BD63
:1054C000000001400004014030B5026A22F01002E1
:1054D0000262026A436884690D6824F4E64444EA7F
:1054E00005248D6822F0200242EA05120D4DA842E3
:1054F00002D00D4DA8420ED1CD6822F0800242EAC2
:1055000005124D6923F4406343EA85038D6922F057
:10551000400243EA85034360846149688163026213
:1055200030BD0000000001400004014030B5026AB7
:1055300022F480720262036A4268C46923F4007331
:1055400024F073050C682C438D6843EA05230D4D48
:10555000A84202D00C4DA8420ED1CD6823F40063BE
:1055600043EA05234D6922F4405242EA05128D694F
:1055700023F4806342EA05124260C4614968C16352
:10558000036230BD000001400004014030B5026AF2
:1055900022F480520262046A4268C3690D6823F4EF
:1055A000E64343EA05238D6824F4005444EA0534B5
:1055B000084DA84202D0084DA84204D14D6922F4FA
:1055C000804242EA85124260C36149680164046214
:1055D00030BD0000000001400004014070B5046AC5
:1055E00024F0010404628469056A164EB04214D0A6
:1055F000B0F1804F11D0144EB0420ED0134EB042D5
:105600000BD0134EB04208D0124EB04205D0124E0D
:10561000B04202D0114EB04203D124F0030414432F
:1056200003E024F0030242F001041A0724F0F0041E
:1056300044EA126225F00A0301F00A01194382616B
:10564000016270BD000001400004004000080040FD
:10565000000C0040000401400040014000180040E0
:1056600030B5046A24F0100404628469056A24F4E5
:10567000407444EA022222F470444FF6FF7202EAB8
:1056800003322243A02425F0A00304EA01111943A8
:105690008261016230BD000010EE100A0749DFEDA3
:1056A000080A884202DD30EE600A704710EE100AE8
:1056B00004498842F9D930EE200A7047000034438B
:1056C0000000B443000034C30148FDF76DBC000086
:1056D0006C6500200148FDF767BC0000AC65002048
:1056E00010B5806B0021C185C184FDF719FC10BD88
:1056F00070B5846B2068406994F83910C0F3C0100D
:105700000025212904D118B1E584204600F062F873
:105710002068406994F83A10C0F38010222904D11F
:1057200018B1E585204600F047F8E06B40F0100026
:10573000E0632046FDF7F4FB70BD10B50146806BB9
:1057400009680968C90513D40021C1850168CA68C0
:1057500022F48072CA6001684A6922F001024A613B
:1057600001684A6922F040024A61202180F83A101B
:10577000FDF790FF10BD10B5806BFDF7D9FF10BD90
:1057800010B50146806B09680968C9050CD4002171
:10579000C18401684A6922F080024A610068C168D8
:1057A00041F04001C16010BDFEF704F810BD10B516
:1057B000806BFEF73BF810BD0168CA6822F4907256
:1057C000CA6001684A6922F001024A61202180F81A
:1057D0003A1070470168CA6822F0C002CA602021EE
:1057E00080F83910704710B590F83A10222901D08E
:1057F000022010BD8168B1F5805F11D001690029D8
:1058000001681FD0496801F07F03816A4A1C8262E7
:105810000B70C18D491E0904090CC18518D026E002
:105820000269816A002A0268526805D0D2B20A80F1
:10583000816A491C8162ECE7C2F308020A80816A2E
:10584000891CF7E74A68816A4B1C83620A70E0E7AB
:105850000168CA6822F49072CA6001684A6922F03D
:1058600001024A61202180F83A10FDF713FF002061
:1058700010BD00002DE9F04104460068016921F4E3
:105880004052E168114301612168C86849F20C6225
:1058900090432369A268E5691A4363692B431A435D
:1058A0000243CA602168486920F44072A06910432D
:1058B0004861E1696425B1F5004F9748974A21682E
:1058C0004FF032083FD0914201D081427CD1FCF7A9
:1058D000E7FD00EBC00101EB001061688900B0FB3F
:1058E000F1F6FCF7DDFD00EBC00101EB0010616893
:1058F0008900B0FBF1F0B0FBF5F06FF01801484300
:1059000006EB800108EB0110B0FBF5F000F0F006AB
:10591000FCF7C6FD00EBC00101EB001061688900D7
:10592000B0FBF1F0B0FBF5F006EB0016FCF7B8FDAC
:1059300000EBC00101EB001061688900B0FBF1F7DA
:10594000FCF7AEFDD2E0914201D081423DD1FCF79F
:10595000A7FD00EBC00101EB001061684900B0FB3E
:10596000F1F0B0FBF5F00601FCF79AFD00EBC00189
:1059700001EB001061684900B0FBF1F7FCF790FD06
:1059800000EBC00101EB001061684900B0FBF1F0D1
:10599000B0FBF5F06FF01801484307EB800108EB0E
:1059A000C100B0FBF5F000F0F80006EB4006FCF794
:1059B00077FD00EBC00101EB001061684900B0FB0E
:1059C000F1F7FCF76DFD3CE055E0FCF759FD00EB0D
:1059D000C00101EB001061684900B0FBF1F0B0FBC1
:1059E000F5F00601FCF74CFD00EBC00101EB0010E7
:1059F00061684900B0FBF1F7FCF742FD00EBC00124
:105A000001EB001061684900B0FBF1F0B0FBF5F06C
:105A10006FF01801484307EB800108EBC100B0FBB1
:105A2000F5F000F0F80006EB4006FCF729FD00EB6E
:105A3000C00101EB001061684900B0FBF1F7FCF711
:105A40001FFD00EBC00101EB001061684900B0FBD5
:105A5000F1F0B0FBF5F06FF01801484307EB80015F
:105A600008EBC100B0FBF5F000F0070021683044FE
:105A70008860BDE8F081FCF703FD00EBC00101EB9D
:105A8000001061688900B0FBF1F6FCF7F9FC00EB4F
:105A9000C00101EB001061688900B0FBF1F0B0FBC0
:105AA000F5F06FF01801484306EB800108EB011098
:105AB000B0FBF5F000F0F006FCF7E2FC00EBC001F3
:105AC00001EB001061688900B0FBF1F0B0FBF5F06C
:105AD00006EB0016FCF7D4FC00EBC00101EB001054
