:020000040800F2
:1000000050F00120590200084F390008432F000822
:100010004D390008090A0008CD5C00080000000006
:100020000000000000000000000000009D0100082A
:10003000A913000800000000F10100081553000892
:1000400073020008730200087302000873020008BC
:100050007302000873020008AB130008B113000814
:10006000730200087302000873020008751200088A
:10007000811200088D12000899120008A5120008CC
:10008000B1120008BD1200087302000873020008D4
:10009000730200087302000873020008730200086C
:1000A000730200087302000873020008730200085C
:1000B000730200087302000873020008730200084C
:1000C000730200087302000873020008730200083C
:1000D00073020008495C0008555C0008615C000878
:1000E000730200087302000873020008730200081C
:1000F000730200087302000873020008C9120008A6
:1001000073020008730200087302000873020008FB
:100110006557000871570008295400087302000849
:1001200073020008D5120008E112000873020008EB
:1001300073020008730200087302000873020008CB
:1001400073020008730200087302000873020008BB
:1001500073020008ED120008F91200086D5C000837
:10016000730200087302000873020008730200089B
:100170007302000873020008730200080000000008
:100180007302000873020008DFF80CD000F0EEFBE9
:1001900000480047A96D000850F001202B4B19685A
:1001A0000868B0E8F04F80F30988BFF36F8F4FF015
:1001B000000080F3118870470000000006480068C6
:1001C000006880F3088862B661B6BFF34F8FBFF353
:1001D0006F8F00DF00BF00BF08ED00E0DFF80C000C
:1001E000016841F470010160704700BF88ED00E0D4
:1001F000EFF30980BFF36F8F144B1A681EF0100FD6
:1002000008BF20ED108A20E9F04F106008B44FF0CD
:10021000500080F31188BFF34F8FBFF36F8F07F04B
:10022000E9FA4FF0000080F3118808BC19680868EB
:10023000B0E8F04F1EF0100F08BFB0EC108A80F34A
:100240000988BFF36F8F704700BF00BF4C000020CC
:10025000EFF30580704700000648804706480047D6
:10026000FEE7FEE7FEE7FEE7FEE7FEE7FEE7FEE766
:10027000FEE7FEE7D5530008890100082DE9F05F8D
:100280000546002092469B46884606468146402405
:100290001BE0284641464746224600F060FA534696
:1002A0005A46C01A914110D311461846224600F012
:1002B00047FA2D1A67EB01084F462246012000211C
:1002C00000F03EFA17EB00094E41201EA4F1010494
:1002D000DFDC484631462A464346BDE8F09F40EA07
:1002E00001039B0703D009E008C9121F08C0042AB4
:1002F000FAD203E011F8013B00F8013B521EF9D29B
:1003000070472DE9FE4F804681EA0300C00F0C467E
:10031000009021F0004123F00045B8EB0200A94114
:1003200005D24046214690461C460B46024623F025
:100330000040104347D0270DC7F30A00C3F30A510A
:100340000290401A019040286BDAC3F3130040F486
:10035000801B0098924620B10023D2EB030A63EB86
:100360000B0B01985946C0F14002504600F0E8F9E5
:1003700006460D4650465946019A00F000FA10EB29
:1003800008006141002487EA115284EAE7731A43A6
:1003900040D0009A62B3019A012A4FEA075215DC55
:1003A000001B61EB02014FF0004202EA0752CDE967
:1003B0000042001C41F5801132462B4600F037FA0E
:1003C00003B0BDE8F08F40462146F9E7001B61EB22
:1003D0000201001C41F5801300185B412018A2F5B2
:1003E000001747EB030140EAD570B6196D4111E0E3
:1003F0006D084FEA360645EAC0754FEA0752001B02
:1004000061EB0201001C41F5801149084FEA300000
:100410000019514132462B4603B0BDE8F04F00F0C1
:10042000F7B90098012240000023D0EB020263EBF1
:10043000E073009821464FEAE074B8EB000061EBEE
:100440000401E9E783F000435BE781F0004158E7EE
:100450002DE9FE4F81EA030404F0004421F000413D
:1004600000944FF0000B23F0004350EA01045ED0EB
:1004700052EA03045BD0C3F30A54C1F30A552C4477
:10048000A4F2F3340194A0FB0254C1F3130141F42C
:100490008011C3F3130343F4801301FB024400FBF8
:1004A000034E840A970A44EA815447EA8357A4FB1F
:1004B000076802958D0A05FB07854FEA932C04FB1C
:1004C0000C542705029D4FEA065847EA1637B5EB4C
:1004D00008056EEB070C870E920E47EA811742EA79
:1004E0008312A7FB0201B6EB0B0164EB00042B0D9A
:1004F00043EA0C335E1844EB1C50DA465146E7FBE6
:100500000201C5F313044FEA0B3343EA14534FEAD5
:100510000432019C43EA0603A4F10C040294009CFB
:10052000CDE900B400F083F903B0BDE8F08F0020FE
:100530000146F9E72DE9F04D81EA030404F0004B90
:1005400021F0004514464FF0000A23F0004150EA24
:10055000050220D054EA01021DD0C5F30A57024615
:10056000C5F31303C1F31300C1F30A5640F4801519
:1005700043F48013A7EB0608101BD64608F2FD389B
:1005800073EB050002D308F1010801E092185B410A
:10059000B8F1000F03DA00200146BDE8F08D00201D
:1005A0004FF48011064684460EE0171B73EB0507D7
:1005B00005D3121B63EB050306434CEA010C490803
:1005C0004FEA300092185B4150EA0107EDD152EA40
:1005D000030012D082EA040083EA0501084305D033
:1005E000101BAB4106D20122002306E000224FF08F
:1005F000004302E06FF0010253101AEB06004CEBCF
:10060000085110EB0A0041EB0B01BDE8F04D00F082
:10061000FFB80EB5C10F80EAE0700844CA07002198
:1006200040F233438DE80E000A460B4600F0FFF817
:1006300003B000BD0EB540F2334102910021CDE977
:1006400000110A460B4600F0F2F803B000BDC1F3FA
:100650000A5210B5C1F3130140F2FF3341F4801187
:100660009A4201DA002010BD40F233439A42A2F2CE
:10067000334203DC524200F072F810BD904010BDCE
:1006800000F0004230F000400AD0C10D01F5607169
:10069000C0F3160042EA0151C208400711437047F7
:1006A000002001467047000030B5041E71F10004BF
:1006B00004DB4FF00044404264EB0101141E73F16F
:1006C000000405DB1C464FF00043524263EB040379
:1006D0008B4208BF824230BD30B5041E71F1000468
:1006E00004DB4FF00044404264EB0101141E73F13F
:1006F000000405DB1C464FF00043524263EB040349
:10070000994208BF904230BD01F0004330B421F05F
:10071000004150EA010206D00A0DA2F56072C1F351
:100720001301002A02DC30BC00207047440F44EA69
:10073000C104C100E01830BC00EBC25000F031B879
:10074000202A04DB203A00FA02F100207047914091
:10075000C2F1200320FA03F3194390407047202A86
:1007600004DB203A21FA02F00021704721FA02F35B
:10077000D040C2F120029140084319467047202A18
:1007800006DBCB17203A41FA02F043EAE07306E0B9
:1007900041FA02F3D040C2F12002914008431946C9
:1007A00070470029A8BF7047401C490008BF20F0CF
:1007B0000100704710B4B0FA80FC00FA0CF050EA67
:1007C000010404BF10BC704749B1CCF1200421FAE8
:1007D00004F411FA0CF118BF012121430843A3EBE3
:1007E0000C01CB1D4FEA00614FEA102042BF0020F0
:1007F00010BC704700EBC35010440029A4BF10BCCC
:100800007047401C490008BF20F0010010BC704731
:1008100010B5141E73F1000408DA401C41F1000108
:1008200092185B411A4301D120F0010010BD2DE95F
:10083000F04D92469B4611B1B1FA81F202E0B0FA56
:1008400080F220329046FFF77BFF04460F4640EAD5
:100850000A0041EA0B0153465A46084313D0114699
:1008600053EA010019D0C8F140025046FFF777FF64
:1008700005460E46504659464246FFF761FF08437B
:1008800005D0012004E020463946BDE8F08D002067
:10089000054346EAE0762C4337430A986305E40AA9
:1008A000A0EB08000022FD0A44EA47540A3002D5B2
:1008B00000200146E9E7010510196941DDE9084515
:1008C00000196941BDE8F04DA2E72DE9F04D002384
:1008D0001A461B1A8A4103DB00200146BDE8F08D51
:1008E000C1F30A52C1F3130141F480154FF0000B1C
:1008F000D10702D100186D41521E0027044640F274
:10090000FF11384601EB620A3E468046024600204F
:100910004FF48011FFF723FFC2197141BB1846EB5A
:100920000100B4EB030C75EB000C04D3E41A65EB87
:10093000000517460E46241908F101006D41804656
:100940003428E3DDF91946EB0600091BA84103D260
:100950004FF0FF32134601E0002213461BEB070065
:1009600046EB0A51BDE8F04DFFF752BF064C074D6C
:1009700006E0E06840F0010394E80700984710346F
:10098000AC42F6D3FFF704FCA47D0008C47D000848
:1009900070B5C1F30A5201F000450024C1F3130100
:1009A00040F2FF3341F480119A4201DA002070BD19
:1009B00040F233439A42A2F2334203DC5242FFF741
:1009C000CEFE00E090402C43F1D0404270BD30B5E7
:1009D0008C1810F8012B12F00F0301D110F8013B15
:1009E000120906D110F8012B03E010F8015B01F8A1
:1009F000015B5B1EF9D101E001F8013B521EFBD106
:100A0000A142E6D3002030BDFEE770B500240223EA
:100A10002546891E06E0C65C5B1C3444E4B22544CE
:100A2000EDB2DBB28B42F6DB64F3070265F30F2213
:100A300090B270BD04490220C1F828080348002183
:100A400080F8481170470000D0020020D0620020DA
:100A50002DE9F0414B4C4FF001082DED028BB2B067
:100A600094F84801F0EE408A9FED478AA4F5C0450E
:100A7000002605F6D807A0B1012854D002280BD1D2
:100A800094F8340A012869D0C5F8286885F82468E4
:100A900084ED568A84ED578A32B0BDEC028BBDE8F6
:100AA000F081382239493846FFF719FC572085F87C
:100AB00024083022364926A8FFF711FC382239468F
:100AC00018A8FFF70CFC3149382270310D460AA8EE
:100AD000FFF705FC2D49282248316846FFF7FFFB48
:100AE0002A48F0EE480A3830B0EE680A0FC800F025
:100AF00073F9382239460AA81896FFF7F0FB282226
:100B000005F110016846FFF7EAFB2048B7EE000A3E
:100B100070300FC800F044F80128BDD184F8488136
:100B200084ED538AB8E71B4890ED7F0AD0ED7D0A2B
:100B3000B4EEE00AF1EE10FA0DDB94ED530A16491B
:100B400030EE280A10EE100A84ED530A88429DDD2B
:100B5000022084F8480184ED538A97E7C5F8288875
:100B600094F840010D4901284FF03802384606D06C
:100B700001F51F61FFF7B3FB84F8406186E701F5DB
:100B80001161F7E7D062002000000000000B002098
:100B9000906C0020D06A002000009643D002002014
:100BA0000FB42DED020B70B500242DED068BB0EEC9
:100BB000408A9DED1E0B289D9DED1CAB51EC100B4A
:100BC000FFF7A2FD09EE100A51EC1A0BFFF79CFD8E
:100BD0009DED100B09EE900A51EC100BFFF794FD00
:100BE0009DED0E0B08EE900A51EC100BFFF78CFDFB
:100BF00000EE100AF0EE491AB0EE691AF0EE680A3B
:100C000002F0B6FE5DB1B4EEC80AF1EE10FA00DBF8
:100C10000124BDEC068B204670BC5DF81CFBB4EED5
:100C2000C80AF1EE10FAF3D9F3E7000030B51B4A19
:100C30000223A2F5D041D2ED7F0A92ED7E0AF4EEB6
:100C4000C00AF1EE10FA01D8C1F82838144800247F
:100C500090F8345A012D17D192ED7D1ADFED111A5B
:100C6000621E31EE401A80F8342A01EE210AB4EEF9
:100C7000E00AF1EE10FA04DBC1F8283880F84841A8
:100C800002E00122C1F828289FED070A81F82448D4
:100C900080ED560A80ED570A30BD0000D06A002072
:100CA000D06200209A99993E000000000FB42DE90F
:100CB000F05F00272DED0A8B3E46DDE92285DDF849
:100CC0009090032D06D20020BDEC0A8BBDE8F01FEA
:100CD0005DF814FB00249DED168B6BE0681E8442CA
:100CE000C4EBC40108EBC10090ED04BB90ED029B86
:100CF00004D198ED04CB98ED02AB03E090ED12CB5C
:100D000090ED10AB53EC192B51EC180BFFF7E4FCF2
:100D100006D853EC1A2B51EC180BFFF7C5FC0DD37A
:100D200053EC1A2B51EC180BFFF7D6FC40D853ECC0
:100D3000192B51EC180BFFF7B7FC39D253EC1A2BD7
:100D400051EC190BFFF77EFB8B4682464BEC100BE8
:100D500005F0AAFA9FED1E1B51EC100B53EC112B62
:100D6000FFF7BAFC24D24BEC1AAB53EC182B51EC26
:100D7000190BFFF767FB41EC190B53EC1C2B51ECE3
:100D80001B0BFFF75FFB53EC192BFFF761FB53ECD9
:100D90001A2BFFF7CFFB53EC1B2BFFF756FB9DEDF8
:100DA000181B53EC112BFFF77FFC01D2761CB6B257
:100DB000641CA4B2AC4291D3F00703D0B9F1000F88
:100DC00003D003E0B9F1010F00D1012738467BE7DA
:100DD00000000000000000000FB42DED020B2DE913
:100DE000F05F2DED0C8BB0EE408ADDE947B99DED4B
:100DF000380BDDF80CA1DDED44AA9DED4CAA9DED6C
:100E0000369B9DED28BB9DED2ACBDDED2E8A51EC66
:100E1000100BFFF779FC06460DEE106A51EC190B2A
:100E2000FFF772FC054609EE105A51EC1C0BFFF758
:100E30006BFC804609EE908A51EC1B0BFFF764FCBB
:100E4000074600EE107AF0EE4D1AB0EE491AF0EEB9
:100E5000690A02F08DFD934C01EE906A01EE105A82
:100E600084ED010A00EE908A00EE107A02F0D4FDC3
:100E700004F060FC84ED030A9DED1C0B0BEE106A80
:100E800009EE105A51EC100BFFF73EFC9DED1A0BCA
:100E900009EE900A51EC100BFFF736FC00EE100A39
:100EA000F0EE4B1AB0EE491AF0EE690A02F0B4FD0A
:100EB00084ED040AD4ED030A30EE600A84ED050ADD
:100EC00004F038FC84ED050ADFED770A20EE200AF5
:100ED00010EE100AFFF7D4FB41EC100B05F0F0F90F
:100EE000B0EE409AF0EE609A6068FFF7C9FB53ECF1
:100EF000192BFFF7ADFAFFF707FCA0610AF0FF011D
:100F00006A48012907D11AEE901A814203DC217840
:100F100041F0040102E0217801F0FB0121700BF0A7
:100F2000FF01012905D1814503DC217841F002014F
:100F300002E0217801F0FD0121704B99C9B201292D
:100F400007D11AEE101A814203DC207840F001002C
:100F500002E0207800F0FE0000F007025448227002
:100F6000FBEE091AB3EE093A9FED522A5249DFED22
:100F7000532ADFED530A082A36D2DFE802F00426AE
:100F80002B6743575E6794ED020AB5EEC00AF1EE97
:100F900010FA02DD30EE020A06E0B5EEC00AF1EE0C
:100FA00010FA04D230EE220A84ED020A03E0C4ED06
:100FB000020A94ED020A10EE102A824249D9B0EEDC
:100FC000420A00BF84ED020A0EE094ED020A08EE28
:100FD000210A38E0C4ED010A94ED021A08EE211A44
:100FE00014E000BF84ED021AB0EE000AC4ED010A5D
:100FF00048EEC00A334B10EE902A9A4230D9DFED0A
:10100000320A34E094ED021A08EE031A11EE102AA7
:1010100084ED021A824202D9B0EE421AE2E711EEE2
:10102000102A8A42DEDDB0EE621ADBE73AEE6A1A77
:1010300094ED020A01EE080A05E0C4ED010A94ED00
:10104000020A08EE030A84ED020AB4E7C4ED010ABD
:10105000BBE710EE102A8A42B4DDB0EE620AB1E7B7
:1010600010EE902A194B9A4201DDDFED190A194A58
:10107000C2ED560AD4ED021A11EE903A834202D91B
:10108000F0EE421A05E011EE900A884201DDF0EE22
:10109000621AC2ED571ABDEC0C8BBDE8F01F5DF86B
:1010A0001CFB0000000000202DFA8E3C9A99A14103
:1010B0000000B4C20000B4C20000B4420000B44258
:1010C0000000000000008CC200008CC200008C42B6
:1010D00000008C42D0620020134AA2F5B04192ED8C
:1010E000641B81ED2E1B92ED601B81ED2A1B92ED9E
:1010F000621B81ED2C1BD2ED670AC1ED310AD2EDE6
:10110000660AC1ED300A38B1012807D0022807D09D
:10111000032807D1FFF78EBCFFF788BD00F006B8A3
:10112000FFF796BC70470000D0620020F0B53E4843
:101130003E4C01222DED028BB0EE408ADFED3C8A61
:10114000B3B090EC020A04F6D80604F50A6504F57B
:10115000C040F4EEC00AF1EE10FA25D890ED510A25
:10116000344B30EE080A10EE101A80ED510A994205
:1011700056DBC0ED518A80F840210221C4F82818BE
:10118000002180F848113822294604F51160FFF744
:10119000A6F833B004F50361BDEC028B3046BDE820
:1011A000F0403822FFF79BB8B0F8380122490A9185
:1011B00080B2CDE90B022822684605F11001FFF745
:1011C0008EF81E480FC8FFF771FD1C4F383F0128ED
:1011D00004D1382229463846FFF781F857201249B2
:1011E00084F824083022383926A8FFF778F8382206
:1011F000314618A8FFF773F8382229460AA8FFF7E6
:101200006EF8282207F110016846FFF768F80B48CE
:10121000F0EE680A3838B0EE480A0FC8FFF7DCFD78
:1012200033B0BDEC028BF0BDC86C0020D0020020B2
:101230000000000000007042880C0020700B0020AD
:10124000F0B502460020D1784FF6FF76C91CCBB22C
:101250000146074F08E0050A06EA0024505C684092
:1012600037F810006040491C5B1EDBB2F3D2F0BDC2
:10127000C8000020014800F0D9B80000F471002037
:10128000014800F0D3B8000014730020014800F0BA
:10129000CDB8000034710020014800F0C7B800004C
:1012A000B4720020014800F0C1B800009471002021
:1012B000014800F0BBB8000074700020014800F045
:1012C000B5B80000D4700020014800F0AFB80000AD
:1012D00054720020014800F0A9B80000D473002027
:1012E000014800F0A3B80000B46F0020014800F0EE
:1012F0009DB8000074730020014800F097B800000A
:101300001470002001681823CAB2103AB2FBF3F23D
:10131000054B6FF30901032A9B5CC36500D9091DC6
:101320008165084670470000B07B000810B5014693
:1013300000208B698A6A4FF0C07453B1B3F5005F27
:1013400015D072B1012A0CD0022A0AD0032A09D181
:1013500004E01AB1012A06D0022A03D1C96AC901E0
:1013600000D5012010BDC96AA142FAD010BD002AE3
:10137000F7D0012AF2D0022AF3D0032AF3D010BD0D
:1013800030B50468256825F480252560046863600D
:101390008368402B036803D099600068C26030BD49
:1013A0009A600068C16030BD7047012000F0C8B984
:1013B000022000F0C5B900000D4910B50B4AC1E983
:1013C0000020002088600C22C860C1E90402886106
:1013D000C861084601F01AFA002805D0BDE810409F
:1013E000B12104A004F073BC10BD00000014014042
:1013F000746F00202E2E2F436F72652F5372632F50
:1014000075736172742E630090F83510022903D051
:101410008021416501207047052180F83510006862
:10142000016821F001010160002070472DE9F843B7
:1014300004464FF00009CDF8009063484FF4165170
:10144000A56D0068B0FBF1F72E6894F85C100820D9
:1014500000FA01F131420FD021680A6852070BD51A
:101460000A6822F004020A6094F85C108840A860C0
:10147000606D40F00100606594F85C104FF0010869
:1014800008FA01F0304208D021684969090604D5FC
:10149000A860606D40F00200606594F85C10042064
:1014A0008840304208D021680968890704D5A860BF
:1014B000606D40F00400606594F85C101020884076
:1014C000304218D021680968090714D5A86020683F
:1014D0000168490304D50068000308D5A16C07E042
:1014E0000168C90503D4016821F008010160216C7D
:1014F00009B12046884794F85C102020884030428B
:1015000031D021680968C9062DD5A86094F8350046
:1015100005282068016806D0490347D50068000304
:101520001DD4616C1CE021F0160101602068416946
:1015300021F080014161206C08B9A06C20B12068C5
:10154000016821F00801016094F85C103F20884098
:10155000A86084F8349084F83580216D1FE0E16B39
:1015600009B120468847606D00282BD0606DC00708
:1015700014D0052084F835002068016821F00101AD
:1015800001600098401C0090B84203D820680068B1
:10159000C007F6D184F8349084F83580E16C0029D6
:1015A00010D001B02046BDE8F04308470168C905E6
:1015B000D5D4016821F01001016084F8349084F8DA
:1015C0003580CCE7BDE8F883880000202DE9F041A4
:1015D000044600F0A3F906465CB1002584F83450B7
:1015E000022084F835002068016821F001010160C3
:1015F0000DE00120BDE8F08100F090F9801B052886
:1016000005D920206065032084F83500F2E72068C2
:101610000068C007F0D12268116820480140D4E971
:1016200001031843D4E9033633431843636918436D
:10163000A3691843E3691843236A18430843616A9E
:10164000042903D1D4E90B1319430843106020681F
:101650004069666A20F0070130460E4301270428DE
:101660000CD1A06A0643E06A40B12046FFF75EFE57
:1016700020B14020606584F83570BAE72068466183
:101680002046FFF73FFE94F85C203F2191408160A7
:10169000656584F835700020ACE700003F8010F0ED
:1016A0002DE9F0410446866D90F8340000250128AC
:1016B0000DD0012084F8340094F835700020012FFB
:1016C00007D084F8340002252846BDE8F0810220C6
:1016D000FBE7022784F8357060652046FFF750FE6F
:1016E00094F85C103F208840B0602068016841F0A9
:1016F000160101602068416941F080014161206C60
:1017000020B12068016841F008010160206801688B
:1017100041F001010160D7E770B5044600F0FEF822
:101720000546601C02D004480078044400F0F6F836
:10173000401BA042FAD370BD8C000020704700000F
:10174000044910B50A68024202D00860FFF7F6FFAC
:1017500010BD0000143C01402DE9F84FDFF87CB1CA
:1017600000224FF001084FF0030A4FF00F090BF170
:10177000040E00BF0B6808FA02F42340A3426ED1A6
:101780004D68022D01D0122D0ED1D50800EB850C2D
:10179000DCF820505607F70E09FA07F6B5430E6934
:1017A000BE402E43CCF82060066855000F790AFA37
:1017B00005FC07F0030726EA0C06AF403743076035
:1017C0004E68012E05D0022E03D0112E01D0122E0C
:1017D0000ED18668CF6826EA0C06AF403743876093
:1017E0004668A6430C79C4F3001494403443446023
:1017F000C6688C6826EA0C06AC403443C4604C686A
:10180000E40065D5364C256845F48045256024689C
:1018100022F0030504F480440094324C2E19D6F8CB
:10182000084895072F0F09FA07F5AC432E4DA8423B
:1018300001D1002524E02D4DA84201D101251FE052
:101840002B4DA84201D102251AE02A4DA84201D110
:10185000032515E0284DA84202D1042510E037E009
:10186000264DA84201D105250AE0254DA84201D107
:10187000062505E0234DA84201D1072500E00825F3
:10188000BD402543C6F80858DBF800405D464E6869
:101890009C43F60300D51C432C60DEF800407546DF
:1018A0004E689C43B60300D51C432C600B4D083595
:1018B0002C684E689C43F60200D51C432C60074DF3
:1018C0000C352C684E689C43B60200D51C432C6036
:1018D000521C102AFFF44EAFBDE8F88F003C0140C7
:1018E0004438024000300140000002400004024041
:1018F00000080240000C02400010024000140240A8
:1019000000180240001C024042694A404261704790
:101910000AB1816170470904FBE700000148806853
:10192000704700008C000020024881680278114452
:10193000816070478C0000200B4810B5016841F4AD
:1019400000710160016841F480610160016841F447
:1019500080710160032000F0B1F8002000F006F86B
:1019600000F03EF8002010BD003C024010B50146DA
:1019700088B00022362000F081F8362000F072F89E
:1019800013480024016841F010010160006805A9B6
:1019900000F010000690684600F03AF900F05EF999
:1019A0000C494000B0FBF1F10C480B4A491E0260A3
:1019B00040F2E732C0E90324C0E9011400F0A3FBC0
:1019C00010B1012008B010BD044800F0B8FBF9E7E1
:1019D0004038024040420F000010004034740020A4
:1019E0001F4808B5016841F480410160006800F4B7
:1019F000804000901A48001F016841F0805101604A
:101A0000006800F080500090032000F057F800229A
:101A100011466FF00B0000F031F8002211466FF014
:101A20000A0000F02BF8002211466FF0090000F0C8
:101A300025F800221146501F00F020F80022114620
:101A4000101F00F01BF800220F21901E00F016F866
:101A500000220F21BDE80840501E00F00FB8000022
:101A60004438024000F01F020121914040098000EB
:101A700000F1E020C0F8001170470000F0B40E4BF8
:101A80001B680C46C3F30223C3F10705042D00D9DC
:101A90000425191D072901D2002300E0DB1E0126C1
:101AA00006FA05F1491E214099409E40761E1640D7
:101AB0003143F0BC01F04CBF0CED00E0064900F0F2
:101AC000070208684FF6FF03184040EA0220034A65
:101AD00010430860704700000CED00E00000FA05BC
:101AE0002DE9F0470E46050065D0DFF81481D8F8DF
:101AF0000000F7B200F00F00B04207D288F8007083
:101B0000D8F8000000F00F00B04254D128683D4CD6
:101B1000810712D5400703D5206840F4E0502060CB
:101B20002878000703D5206840F4604020602068D2
:101B3000A96820F0F000084320602878C0072DD065
:101B4000304968680839012812D0022813D00328C8
:101B500011D00968890700292DDA216821F00301D5
:101B600001432160FFF7DAFE814641F2883A0EE038
:101B700009688903EFE709688901ECE7FFF7CEFE02
:101B8000A0EB0901514502D90320BDE8F087206888
:101B9000696800F00C00B0EB810FEFD1D8F80010AD
:101BA000404601F00F01B14207D90770006800F00C
:101BB0000F00B04201D00120E7E72878400705D5A3
:101BC0002068E96820F4E050084320602878000786
:101BD00006D52068296920F4604040EAC1002060F1
:101BE00000F05CF82168084AC1F30311515CC84059
:101BF000064908600020FFF7B9FE0020C5E7000095
:101C0000003C024008380240987B00088800002011
:101C10000F2202600C4A136803F003034360136849
:101C200003F0F0038360136803F4E053C3601268A9
:101C30004FF4E05303EAD20202610448006800F066
:101C40000F0008607047000008380240003C024066
:101C500001480068704700008800002004480549DA
:101C600000680968044AC1F38221515CC84070478A
:101C70008800002008380240A87B00080448054975
:101C800000680968044AC1F34231515CC84070479A
:101C90008800002008380240A87B0008154810B5CD
:101CA000006810F00C02144813D04110042A0FD021
:101CB000082A0ED10F4C241F2268236802F03F022D
:101CC0005B0207D52068C0F38810A0FB010106E085
:101CD000084610BD2168C1F38811A1FB0001002353
:101CE000FEF7CCFA2168C1F30141491C4900B0FB61
:101CF000F1F010BD083802400024F4002DE9F84F3F
:101D0000050076D02878DFF8F8B2BE4CC00749D07D
:101D1000DBF800105846C1F38101012908D00068A2
:101D2000C0F3810002280AD1201D0068400206D5B8
:101D30002068800336D568680028E2D032E0686801
:101D4000B0F5803F10D0B0F5A02F206810D020F45F
:101D500080302060206820F4802020606868A0B176
:101D6000FFF7DCFD06460CE0206840F48030F4E725
:101D700040F480202060F7E7FFF7D0FD801B642847
:101D800073D820688003F7D50CE0FFF7C7FD06463F
:101D900005E000BFFFF7C2FD801B6428F0D8206873
:101DA0008003F7D42878DFF8608280074FF00009BD
:101DB0003ED5DBF80010584611F00C0F09D0006832
:101DC000C0F3810002280BD18D48001F006840023B
:101DD00006D42068800715D5E868012809D111E0EC
:101DE000E868B8B10120C8F80000FFF797FD064683
:101DF00005E002E1FFF792FD801B0228C0D82068B1
:101E00008007F7D52068296920F0F80040EAC10072
:101E100020600DE0C8F80090FFF780FD064604E062
:101E2000FFF77CFD801B02281FD820688007F7D4AD
:101E30002878000722D5724E744869696C3671B1F2
:101E400001210160FFF76AFD074604E0FFF766FD28
:101E5000C01B022809D830688007F7D50EE0C0F80B
:101E60000090FFF75BFD074605E083E0FFF756FDB6
:101E7000C01B02287ED830688007F7D42878400736
:101E800068D5DFF87CA100270AF1380ADAF80000EB
:101E9000C0000BD4DAF8001041F08051CAF80010ED
:101EA000DAF80000012700F080500090584E3068AA
:101EB000C00510D4306840F480703060FFF72EFD0C
:101EC000009005E0FFF72AFD0099401A022851D83A
:101ED0003068C005F6D54A4EA868683601280FD08C
:101EE0000528306810D020F001003060306820F004
:101EF00004003060A868B8B1FFF710FD00900FE053
:101F0000306840F00100F4E740F004003060F7E78B
:101F1000FFF704FD0099411A41F28830814264D8EC
:101F200030688007F4D50EE0FFF7F8FC009007E07A
:101F3000FFF7F4FC0099411A41F28830814254D8ED
:101F400030688007F4D42FB1DAF8001021F0805106
:101F5000CAF80010A869C0B3DBF80010C1F3810112
:101F600002294AD00228484607D0C8F86000FFF787
:101F7000D5FC00E039E005463AE04746C8F8600085
:101F8000FFF7CCFC064604E0FFF7C8FC801B0228E4
:101F90002BD820688001F7D4D5E907010843A96A46
:101FA0001C4A490802EB01416A6A41EA821108436E
:101FB00095F82C1040EA01611148001F01600120D2
:101FC0003866FFF7ABFC054605E014E0FFF7A6FC1A
:101FD000401B022809D820688001F7D50BE000BF1C
:101FE000FFF79CFC401B022802D90320BDE8F88FB4
:101FF00020688001F4D40020F8E70120F6E7000013
:10200000083802400038024000004742800E474234
:10201000007000400000FFFF4FF0E0210428086935
:1020200003D020F004000861704740F00400FAE794
:1020300010B5401EB0F1807F01D3012010BD4FF0DC
:10204000E02460610F21601701F082FC0020A06194
:1020500007202061002010BD7047704710B590F830
:102060003820012A25D0012280F83820CA688C68DF
:1020700022F4407222434C6822F4806222430C68AE
:1020800022F4006222430C6922F4805222434C69FC
:1020900022F4005222438C6922F48042224322F42B
:1020A0000041026800232143516480F83830002049
:1020B00010BD022010BD30B590F83820012A20D084
:1020C000012280F83820022380F8393003685C68E8
:1020D00024F070045C6003685C680D682C435C60ED
:1020E00003689C6824F080049C6003689C684968CD
:1020F0000C439C6080F83920002180F83810084695
:1021000030BD022030BD10B5040003D094F8390072
:1021100010B107E0012010BD002084F838002046EF
:1021200000F00CF8022084F83900211D206803F02B
:1021300081F9012084F83900002010BD7047016842
:10214000CA6842F00102CA600068016841F00101FA
:1021500001600020704770472DE9F041044690F877
:1021600038000D4601283DD0012684F83860022051
:1021700084F83900AAB3042A46D02068082A55D02A
:10218000D5E90027E968036A23F480530362D0F895
:102190001CC0036A2CF4407C4CEA07274FF6FF7CF6
:1021A00027F470470CEA013139434FF4204723F4F8
:1021B000204307EA02321A43C16102622068C16902
:1021C00021F44061C1612068C169AA6841EA022125
:1021D000C0F81C1084F83960002084F83800BDE88D
:1021E000F08101E00220FAE7D5E90012EB682068EF
:1021F00003F042FA2068816921F00C0181612068B6
:102200008169AA6811430FE0D5E90012EB682068E4
:1022100003F074FA2068816921F4406181612068CB
:102220008169AA6841EA02218161D3E7D5E9002CDE
:102230002F7B016A21F480710162C169036A21F078
:10224000030141EA0C0121F0F00C39074FF420673B
:102250004CEA116123F4206307EA02221A43C161A8
:1022600002622068C16921F00C01C1612068C16966
:10227000AA681143ACE710B5040003D094F8390004
:1022800010B107E0012010BD002084F8380020467E
:1022900000F00CF8022084F83900211D206803F0BA
:1022A000C9F8012084F83900002010BD30B500685D
:1022B0001C490025022487B0884212D11A480168BF
:1022C00041F0010101600068694600F001000590DD
:1022D0004FF4D4408DE831000120CDE9035013487C
:1022E0001CE0134988421BD10F48001F016841F0D0
:1022F000020101600068694600F002000590C020FC
:102300008DE83100CDE903540A48FFF725FA032090
:102310008DE83100CDE9035469460748FFF71CFA00
:1023200007B030BD000001404438024000100240B8
:1023300000040040000002400004024010B50446C2
:102340000068012203F0D6F82068016841F001011D
:102350000160002010BD70B50446006801694FF0AF
:102360000005C943890715D4C168C943890711D439
:10237000E91E0161012020762068806980072046DF
:1023800002D0FFF7E8FE04E000F0DCF8204600F0A1
:102390008BF9257620680169C943490717D4C168BC
:1023A000C943490713D46FF004010161022020766C
:1023B0002068806910F4407F204602D0FFF7CBFEF2
:1023C00004E000F0BFF8204600F06EF925762068A2
:1023D0000169C943090716D4C168C943090712D462
:1023E0006FF008010161042020762068C069800731
:1023F000204602D0FFF7AFFE04E000F0A3F820462D
:1024000000F052F9257620680169C943C90617D43E
:10241000C168C943C90613D46FF0100101610820D7
:1024200020762068C06910F4407F204602D0FFF774
:1024300092FE04E000F086F8204600F035F925769B
:1024400020680169C943C90708D1C168C943C907E0
:1024500004D1891E0161204600F044F92068016919
:10246000C943090609D4C168C943090605D46FF0F8
:10247000800101612046FFF7EFFD20680169C94333
:10248000490609D4C168C943490605D46FF0400123
:102490000161204600F030F920680169C9438906CE
:1024A0000BD4C168C943890607D46FF020010161CC
:1024B0002046BDE87040FFF7D0BD70BD70B5006824
:1024C0000025022486B0B0F1804F0FD01749884212
:1024D0001ED14FF470408DE83100CDE9035414480B
:1024E000694600BFFFF738F906B070BD20208DE8BF
:1024F00031000126CDE9035669460E48FFF72CF955
:1025000008208DE83100CDE9035669460A48E9E71D
:102510000A498842E8D14FF440708DE83100032029
:10252000CDE9035069460648DCE70000000800409A
:10253000000C024000000240000402400004014080
:1025400000080240704770B5044690F838000D4608
:1025500001280DD0012684F83860022084F8390063
:1025600042B1042A18D0082A2AD00C2A4DD139E0C9
:10257000022070BD206802F0C9FF2068816941F027
:10258000080181612068816921F00401816120686E
:1025900081692A69114311E0206802F0E3FF206895
:1025A000816941F4006181612068816921F4806161
:1025B0008161206881692A6941EA0221816124E000
:1025C000206803F001F82068C16941F00801C16189
:1025D0002068C16921F00401C1612068C1692A69CC
:1025E000114311E0206803F01FF82068C16941F42D
:1025F0000061C1612068C16921F48061C161206806
:10260000C1692A6941EA0221C16184F83960002068
:1026100084F8380070BD10B5040003D094F8390078
:1026200010B107E0012010BD002084F838002046DA
:1026300000F00CF8022084F83900211D206802F017
:10264000F9FE012084F83900002010BD08B50168AA
:102650001248B1F1804F0BD0114A914210D101685C
:1026600041F004010160006800F00400009008BD22
:10267000016841F001010160006800F00100F5E728
:1026800008488142F3D10548001D016841F002016C
:102690000160006800F00200E8E7000040380240F6
:1026A00000080040000401407047000010B50446D7
:1026B0000068012202F01EFF08492068884202D00B
:1026C0000749884203D1416C41F4004141642068CC
:1026D000016841F001010160002010BD00000140CF
:1026E0000004014000680349884201D1FFF71CB98A
:1026F00070470000001000407047704770B50268D6
:1027000004461068D168536910F00F0F50D003F0E1
:10271000010501F4907635435DD0C20705D0CA05A6
:1027200003D5E26B42F00102E263420705D5DA0706
:1027300003D0E26B42F00202E263820705D5DA07BA
:1027400003D0E26B42F00402E263020705D5DA0728
:1027500003D0E26B42F00802E263E26B002A33D05E
:10276000800604D5880602D5204603F09EF820682E
:102770004069E16BC0F38010090700D428B32046FC
:1027800003F07CF82068416949061AD5416921F0B7
:1027900040014161606BA0B11B490165606BFEF7B0
:1027A00033FE002810D0606B016DBDE87040084713
:1027B000830610D58B060ED52046BDE8704003F089
:1027C00074B82046FFF799FF70BD2046FFF795FFCC
:1027D0000020E06370BD030606D50B0604D5204635
:1027E000BDE8704003F0FEB94006F3D54806F1D5C8
:1027F000D168204621F04001D160202184F83910B1
:1028000000F098FB70BD0000A557000870B50400EB
:1028100004D094F83900002510B106E0012070BD05
:1028200084F83850204600F023F8242084F839003A
:102830002068C16821F40051C160204603F07CF893
:102840002068016921F4904101612068416921F00B
:102850002A0141612068C16841F40051C160E5630B
:10286000202084F8390084F83A00002070BD000070
:102870002DE9F04FF7490446F54A03680227032083
:1028800000250E1587B04FF001084FF0080E4FF4E9
:1028900080794FF0400A4FF0006B934256D10A689E
:1028A00042F400220A600968009701F400210591B2
:1028B0000121CDE902100820049001976946E648FD
:1028C000FEF74AFF01200096CDE901700320039036
:1028D00008200490B0466946E048FEF73DFFE14815
:1028E000DF495F460160C0E901B5C0E903564561B3
:1028F000C0E9065905624562FEF768FE20B14FF453
:10290000B471D9A003F0E3F9D6486063D54E84636F
:102910006036D348C6E903587561B561F561356223
:102920003030756286E881043046FEF74FFE20B1F4
:102930004FF4BD71CCA003F0CAF926630022052133
:102940003420B463FFF79AF8342064E0CB4A934212
:1029500066D10A68002542F480120A6009680320E3
:1029600001F480110591991400910221CDE901181B
:10297000CDE9030E77466946B848FEF7EDFE042020
:1029800000900220CDE901080320CDE90307694644
:10299000BB48FEF7E1FEDFF8CC82B14908F1C00880
:1029A00030394046C8F80010C0E901B5C0E9035607
:1029B000C8F81450C0E90659C8F820505F46C8F856
:1029C0002450FEF703FE20B14FF4D771A6A003F008
:1029D0007EF9A348AB4DC4F834807830C8F838404D
:1029E00085E881040020C5E903066861A861E86103
:1029F000286268622846FEF7E9FD20B14FF4E071D5
:102A000099A003F064F92563002205213520AC6309
:102A1000FFF734F83520FFF725F807B0BDE8F08F51
:102A20008C4ADFF864C2121D634554D11168002539
:102A300041F0100111601168CDE9028001F0100130
:102A400005914FF4C061CDE9001707200490694655
:102A50008148FEF781FEDFF838828C4940465F46A8
:102A6000C0E90356C8F81450C8F81850C8F81C50EC
:102A7000C8F8205088E88204C8F82450FEF7A6FD64
:102A800020B140F2ED1178A003F021F9804D7F488C
:102A9000C4F83080603D7838C8F83840C5E9000790
:102AA0000020A860C5E903066861C5E90609286237
:102AB00068622846FEF78AFD20B140F2FF116AA045
:102AC00003F005F96563002205212520AC63FEF7BC
:102AD000D5FF25209FE7DFF8BCC163455CD10A68BC
:102AE00042F400320A600968CDE9028001F4003145
:102AF00005910C21CDE9001707200490694656483E
:102B0000FEF72AFEDFF85C815549A8F160084046CF
:102B10006031C0E90356C8F81450C8F81850C8F816
:102B20001C505F46C8F8205088E88204C8F824503A
:102B3000FEF74CFD20B14FF40B714BA003F0C7F82A
:102B4000C4F83080C8F83840DFF84481444908F1BF
:102B5000600848314046C8F80010C0E90175C0E976
:102B60000356C8F81450C0E90659C8F82050C8F8F0
:102B70002450FEF72BFD20B140F23E213AA003F095
:102B8000A6F8C4F83480002205212620C8F8384071
:102B9000FEF774FF26203EE7DFF8FCC063457FD1D7
:102BA0000A68002542F480220A600968CDE90280A3
:102BB00001F4802105914FF44061CDE90017072011
:102BC000049069463548FEF7C7FDDFF8B880244910
:102BD00008F1600840461831C0E90356C8F814509F
:102BE000C8F81850C8F81C505F46C8F8205088E84C
:102BF0008204C8F82450FEF7E9FC20B140F26B21B2
:102C000019A003F064F81F4D1548C4F83080C03592
:102C10001838C8F83840C5E900070020A860C5E9A1
:102C200003066861C5E90609286268622846FEF75E
:102C3000CDFC20B140F27D210BA003F048F8656384
:102C4000002205212720AC63FEF718FF2720E2E6CB
:102C5000004C0040403802400000024000080240A2
:102C600040600240347100202E2E2F436F72652F7A
:102C70005372632F75736172742E630000500040AD
:102C8000000C02405472002000100140B864024061
:102C9000147000200044004000480040000402403E
:102CA000FFE727498B427FF4B8AE116841F020015D
:102CB0001160116801F020010591C0218DE88201A9
:102CC000CDE9030E69461F48FEF746FD1F4F1E481B
:102CD0004FF02068C7E903567D61BD61FD613D622B
:102CE0007D6287E801053846FEF770FC28B140F2A6
:102CF000AA21AFF28C0002F0EAFF2763BC63134FF6
:102D00001148603778383860C7E90185C7E903564C
:102D10007D61C7E906593D6238467D62FEF756FC83
:102D200028B14FF42F71AFF2C00002F0D0FF6763FB
:102D3000002205214720BC63FEF7A0FE47206AE67B
:102D40000014014000080240A06402407473002097
:102D5000F8B5044690F83A0020283CD1C1B3BAB384
:102D600094F83800012836D0012084F83800A16298
:102D7000A2850025E563222084F83A00636B17489A
:102D8000D863636B16481864636B1648D864606B2D
:102D9000134605650846666B216802463046091DE4
:102DA000FEF77EFC206801684168009184F8385085
:102DB000C16841F48071C1602068416941F001013E
:102DC00041612068416941F0400141610020F8BD46
:102DD000FFE70120FBE70220F9E70000FF570008AA
:102DE0003B580008B5570008F0B5294B026801218F
:102DF00028489A4202D180F8DC19F0BD264B9A424D
:102E000002D180F8CC19F0BD244B9A4202D180F84F
:102E1000EC19F0BD22498A42FBD0224D22492C15E3
:102E20000023AA4216D1002001F21A420D18B1F86F
:102E30001C682D7CB554B1F81C586D1CADB2A1F8BE
:102E40001C58A54201D3A1F81C38401C80B20A28A6
:102E5000ECD3F0BD154DAA42FBD146F2B655002287
:102E60000D448E1806F5C046B0F8B87996F8AC61F6
:102E70007E55B0F8B869761CB6B2A0F8B869A6421B
:102E800001D3A0F8B839521C92B20A2AE9D3F0BD96
:102E900000100140D0620020004400400048004083
:102EA000004C004000500040D002002000140140BF
:102EB0007047000070B5044690F83900202830D1E2
:102EC00069B362B394F8380001282AD0012084F84D
:102ED00038002162A284E2840025E563212084F881
:102EE0003900236B1048D863236B10481864236B98
:102EF0000F48D864206B134605652668206B321D89
:102F0000FEF7CEFB21686FF04000086084F838506F
:102F10002068416941F080014161002070BD0120BD
:102F200070BD022070BD00004558000873580008AD
:102F3000B5570008006801497047000000100140C3
:102F40007047FEE770B501001048114E4FF4005570
:102F500005D0012914D0022915D0032909D0012256
:102F600020210446FEF7D4FC012240212046FEF732
:102F7000CFFC012229463046BDE87040FEF7C8BCB0
:102F800001222021F8E701224021F5E7001002404C
:102F90000008024070B501001048114E4FF4005572
:102FA00005D0012914D0022915D0032909D0002207
:102FB00020210446FEF7ACFC002240212046FEF70B
:102FC000A7FC002229463046BDE87040FEF7A0BCB1
:102FD00000222021F8E700224021F5E700100240FE
:102FE0000008024070B501000E480F4E4FF4005526
:102FF00005D0012911D0022911D0032907D02021A1
:103000000446FEF781FC40212046FEF77DFC294660
:103010003046BDE87040FEF777BC2021F9E740213B
:10302000F7E7000000100240000802402DE9F041DF
:10303000274B284D1E15284CDF14012906D00528E2
:1030400044D2DFE800F023353940320005283DD274
:10305000DFE800F0031416181200002204211846BD
:10306000FEF756FC002280212846FEF751FC002284
:1030700031462046FEF74CFC002217E0002218E003
:1030800000221AE000221FE0204618E0012204215D
:103090001846FEF73DFC012280212846FEF738FC49
:1030A000012231462046FEF733FC01223946EBE788
:1030B00001220421184602E0012280212846BDE8B1
:1030C000F041FEF725BC01223146DDE7BDE8F08185
:1030D0000004024000100240000C024010B5074CF2
:1030E00000224FF480712046FEF712FC0022611589
:1030F0002046BDE81040FEF70BBC00000004024073
:10310000394808B5016841F480010160016801F4A3
:1031100080010091016841F4001101600068002203
:1031200000F40010009005210B20FEF7A7FC0B20F7
:10313000FEF798FC002205210C20FEF79FFC0C20D6
:10314000FEF790FC002205210D20FEF797FC0D20D4
:10315000FEF788FC002205210E20FEF78FFC0E20D2
:10316000FEF780FC002205210F20FEF787FC0F20D0
:10317000FEF778FC002205211020FEF77FFC1020CE
:10318000FEF770FC002205211120FEF777FC1120CC
:10319000FEF768FC002205212F20FEF76FFC2F2090
:1031A000FEF760FC002205213920FEF767FC39207C
:1031B000FEF758FC002205213A20FEF75FFC3A207A
:1031C000FEF750FC002205214520FEF757FC452064
:1031D000FEF748FC002205214620FEF74FFCBDE823
:1031E00008404620FEF73EBC3038024010B590B093
:1031F000142211496846FDF772F80021684603F071
:1032000012FE0E4C0C4914222060143105A8FDF763
:1032100066F8002105A803F006FE07496060142245
:1032200028310AA8FDF75BF800210AA803F0FBFD8E
:10323000A06010B010BD00005C7B00081C000020E6
:103240002DE9F04F5A4887B00024016841F0100181
:103250000160016801F010010591016841F004016D
:103260000160016801F004010591016841F08001ED
:103270000160016801F080010591016841F00101E0
:103280000160016801F001010591016841F002014E
:103290000160016801F002010591016841F0080137
:1032A00001600068002200F008000590602141489C
:1032B000FEF72EFBDFF800914FF40057002239464D
:1032C0004846FEF725FBDFF8F4A001224FF44171D8
:1032D0005046FEF71DFB012280213648FEF718FB01
:1032E000DFF8DCB04FF44076002231465846FEF756
:1032F0000FFB4FF44068012241465846FEF708FB99
:103300000125E020CDE90005CDE9025469462948B0
:10331000FEF722FA0097CDE9015469464846039426
:10332000FEF71AFACDE90054694626480294FEF7E2
:1033300013FA0420022703948DE8A1006946504641
:10334000FEF70AFACDE90274CDE9006569465846F0
:10335000FEF702FACDF80080CDE9015469465846DF
:103360000394FEF7F9F90096CDE9015469465046F9
:103370000394FEF7F1F9032000901348CDE901050D
:1033800069460C48FEF7E8F9002205210620FEF701
:1033900075FB0620FEF766FB002205210720FEF7DD
:1033A0006DFB0720FEF75EFB07B0BDE8F08F000065
:1033B0003038024000100240000802400004024081
:1033C000000C0240000002400000111010B5284817
:1033D00086B026490160A7210024C0E901144FF6F8
:1033E000FF71C0E903144461FEF745FF18B14F2196
:1033F00020A002F06CFC049404A91D480594FEF77B
:103400005AFE18B156211BA002F061FC0120CDE943
:10341000004002940022694615480394FEF79CFE82
:1034200018B15F2113A002F052FC04226946104833
:10343000FEF792FE18B164210EA002F048FC0822AB
:1034400069460B48FEF788FE18B1692109A002F011
:103450003EFC0C2269460648FEF77EFE002803D09B
:103460006E2104A002F033FC06B010BD0000014044
:10347000086D00202E2E2F436F72652F5372632F1D
:1034800074696D2E6300000010B51E488AB04FF0BD
:103490008041016053210024C0E901146321C0E987
:1034A0000314FFF7B8F818B17F2117A002F00FFC42
:1034B000079407A913480894FEF7FDFD18B186216B
:1034C00011A002F004FC6020CDE900040294002267
:1034D00069460C480494FFF736F818B18F210AA00A
:1034E00002F0F5FB042269460648FFF72CF818B1F4
:1034F000942105A002F0EBFB0248FEF7DFFF0AB0C3
:1035000010BD0000446D00202E2E2F436F72652FDA
:103510005372632F74696D2E6300000010B5284844
:1035200086B02649016053210024C0E901144FF6FA
:10353000FF71C0E90314FEF79EFE18B1A72121A078
:1035400002F0C5FB049404A91D480594FEF7B3FDE1
:1035500018B1AE211BA002F0BAFB0120CDE900405A
:1035600002940022694616480394FEF7F5FD18B14F
:10357000B72114A002F0ABFB042269461048FEF705
:10358000EBFD18B1BC210FA002F0A1FB0822694697
:103590000B48FEF7E1FD18B1C1210AA002F097FB2C
:1035A0000C2269460648FEF7D7FD002803D0C62145
:1035B00004A002F08CFB06B010BD00000004004027
:1035C000806D00202E2E2F436F72652F5372632F54
:1035D00074696D2E6300000010B528488AB0264932
:1035E000016053210024C0E901146321C0E90314E0
:1035F000FFF711F818B1D72121A002F068FB07945A
:1036000007A91E480894FEF756FD18B1DE211CA03C
:1036100002F05DFB6020CDE90004029400226946BF
:1036200016480494FEF78FFF18B1E72114A002F0AA
:103630004EFB042269461148FEF785FF18B1EC21C4
:103640000FA002F044FB082269460C48FEF77BFFFE
:1036500018B1F1210AA002F03AFB0C226946074892
:10366000FEF771FF18B1F62105A002F030FB034808
:10367000FEF724FF0AB010BD00080040BC6D00201A
:103680002E2E2F436F72652F5372632F74696D2E28
:103690006300000010B52C4890B02A490160A721B2
:1036A0000024C0E901146321C0E903144461FEF75A
:1036B000B2FF20B140F20B1124A002F008FB0E94DF
:1036C0000EA921480F94FEF7F6FC20B14FF4897142
:1036D0001EA002F0FCFA6020CDE9000402940394DD
:1036E000049405940822694617480694FEF72BFFB8
:1036F00020B14FF48F7115A002F0E9FA0C2269464F
:103700001148FEF720FF20B140F223110FA002F074
:10371000DEFA0794089409944FF400500A94CDE916
:103720000B4007A908480D94FEF798FC20B140F221
:103730002F1106A002F0CBFA0348FEF7BFFE10B02F
:1037400010BD000000040140F86D00202E2E2F4314
:103750006F72652F5372632F74696D2E63000000C2
:103760000D4810B50B4901604FF4E1314160002173
:1037700081600C22C160C0E904128161C161FFF760
:1037800045F8002805D0BDE81040D92103A002F07B
:103790009EBA10BD004C0040346E00202E2E2F43E8
:1037A0006F72652F5372632F75736172742E63008D
:1037B0000D4810B50B4901604FF4E1314160002123
:1037C00081600C22C160C0E904128161C161FFF710
:1037D0001DF8002805D0BDE81040EB2103A002F041
:1037E00076BA10BD00500040746E00202E2E2F437C
:1037F0006F72652F5372632F75736172742E63003D
:103800000D4810B50B4901604FF41651416000217D
:1038100081600C22C160C0E904128161C161FEF7C0
:10382000F5FF002805D0BDE81040FE2103A002F0FE
:103830004EBA10BD00100140B46E00202E2E2F4352
:103840006F72652F5372632F75736172742E6300EC
:103850000E4810B50C4901604FF41651416000212B
:1038600081600C22C160C0E904128161C161FEF770
:10387000CDFF002806D0BDE8104040F2111104A091
:1038800002F025BA10BD000000440040F46E002094
:103890002E2E2F436F72652F5372632F75736172D3
:1038A000742E63000E4810B50C4901604FF4165198
:1038B0004160002181600C22C160C0E90412816175
:1038C000C161FEF7A3FF002806D0BDE810404FF409
:1038D000927104A002F0FBB910BD00000048004046
:1038E000346F00202E2E2F436F72652F5372632F7B
:1038F00075736172742E63000E4810B50C49016037
:103900004FF416514160002181600C22C160C0E972
:1039100004128161C161FEF779FF002806D0BDE87D
:10392000104040F2371104A002F0D1B910BD0000E0
:1039300000140140746F00202E2E2F436F72652FEC
:103940005372632F75736172742E6300FEE77047C4
:103950000907090E002806DA00F00F0000F1E02048
:1039600080F8141D704700F1E02080F800147047C3
:1039700010B52DED068BB0EE609AF0EE618A71EE17
:10398000400ADFED211A31EE000A20EEA18AF6EEA0
:10399000000A20EE200ADFED1D0A20EE200A10EEBC
:1039A000100AFCF76DFE41EC100B02F019FCB0EEB2
:1039B00040AA38EEC90AF0EE60AA10EE100AFCF731
:1039C0005FFE53EC1A2BFCF743FD9FED111B53ECEC
:1039D000112BFCF73DFDFCF797FE68EE080A00EEA0
:1039E000100A40EE000A10EE900AFCF749FE41EC86
:1039F000100B02F0C9FC51EC100BFCF785FEBDEC7E
:103A0000068B00EE100A10BD00B1D84735FA8E3C87
:103A100000000000602DFB4010B52DED068B31EE4F
:103A2000409A31EE000AF0EE608AF6EE000AB0EE3F
:103A3000618A20EE200ADFED260A20EE200A10EE31
:103A4000100AFCF71DFE41EC100B02F0C9FBB0EEB2
:103A500040AA38EE680AF0EE60AA10EE100AFCF7F1
:103A60000FFE53EC1A2BFCF7F3FCFCF74DFEFCF7B2
:103A700007FE41EC180BB1EE490A10EE100AFCF7F4
:103A8000FFFD41EC100BB0EE481AF0EE681A02F0A0
:103A9000AFFA9FED101B51EC100B53EC112BFCF700
:103AA000D7FC9FED0E1B53EC112BFCF72AFCFCF707
:103AB0002BFE00EE100AB5EEC00AF1EE10FA03D2AA
:103AC000DFED080A30EE200ABDEC068B10BD0000C9
:103AD00035FA8E3C00000020DCA54C4000000000C0
:103AE000008056400000B443F0B50D4A002302F1B7
:103AF0001A044FF4806C1D460FE0B2F81E78C65CC5
:103B00003E55B2F81E68761CB6B2A2F81E6866452D
:103B100001D3A2F81E585B1C9BB28B42EDD3F0BDC3
:103B2000D00200202DE9F0410446444E14F8060F5F
:103B300060F30705607860F30F25A07860F3174500
:103B4000E07860F31F653560207960F307056079E0
:103B500060F30F25A07960F31745E07960F31F65E6
:103B600028467560FCF755FD9FED351B53EC112B76
:103B7000FCF76EFC344FC7E90201207A60F30705B9
:103B8000607A60F30F25A07A60F31745E07A60F35E
:103B90001F652846B560FCF73CFD9FED291B53ECE3
:103BA000112BFCF755FCC7E90001207B60F30705EA
:103BB000607B60F30F25A07B60F31745E07B60F32B
:103BC0001F652846F560FCF724FD9FED201B53EC94
:103BD000112BFCF73DFCC7E90401207C60F30705CD
:103BE000607C60F30F25A07C60F31745E07C60F3F8
:103BF0001F6500EE105A17483561B8EEC00A80ED17
:103C0000020A207D60F30705607D60F30F25A07D2B
:103C100060F31745E07D60F31F657561207E60F3FA
:103C20000705607E60F30F25A07E60F31745E07EF8
:103C300060F31F65B561BDE8F0810000A0B300200E
:103C400048AFBC9AF2D77A3E50640020FCA9F1D26A
:103C50004D62503F9800002010B582791C4C62F3F1
:103C60000701C27962F30F21027A62F31741427AA7
:103C700062F31F61154A1160837A536084F87831CA
:103C8000C37A9360037BD360437B1361827B62F3CF
:103C90000701C27B62F30F21027C62F31741427C71
:103CA00062F31F61094A243A5161827C62F3070181
:103CB000C27C62F30F21027D407D62F3174160F305
:103CC0001F6102482438816110BD000084B30020C8
:103CD000D06200202DE9F04104462DED028B14F84E
:103CE000061F5D4D61F30700617861F30F20A17835
:103CF00061F31740E17861F31F605849286048601C
:103D0000217961F30700617961F30F20A17961F3F3
:103D10001740E17961F31F6000EE100AB8EEC00AA7
:103D2000DFED4F0A4F4E20EE200ABDEEC00A85EDB2
:103D3000010AB8EEC00A86ED020A14F8081F61F302
:103D40000700617861F30F20A17861F31740E178F3
:103D500061F31F600746A860FCF75BFC9FED428B98
:103D600053EC182BFCF774FBFCF7CEFCF0602079C9
:103D7000E17960F30707607960F30F27A07960F3BA
:103D80001747384661F31F600746E860FCF741FCBF
:103D900053EC182BFCF75CFBFCF7B6FCF060217AC7
:103DA000384661F30700617A61F30F20A17A61F36D
:103DB0001740E17A61F31F6007462861FCF729FC90
:103DC00053EC182BFCF744FBFCF79EFC3060207B87
:103DD00060F30707607B60F30F27A07B60F3174752
:103DE000E07B60F31F676F61217C384661F3070059
:103DF000617C61F30F20A17C61F31740E17C61F3EA
:103E00001F600746A861FCF704FC9FED191B53ECEB
:103E1000112BFCF71DFBFCF777FC7060207D60F335
:103E20000707607D60F30F27A07D60F31747E07DF3
:103E300060F31F67EF61207E60F30707607E60F329
:103E40000F27A07E60F31747E07E60F31F672F62A5
:103E5000BDEC028BBDE8F08160B30020980000202B
:103E60000AD7233C686400207B14AE47E17A843F84
:103E7000F168E388B5F8E43E2DE9F041314C324970
:103E80000025227842B1012A0DD0022A11D0032A3E
:103E900013D0042A18D04DE0EB284BD10122227018
:103EA0000870BDE8F081902844D102222270487049
:103EB000F7E7032222708870F3E7421CA270042205
:103EC000E2702270C870ECE7A2786AB3521E12F05A
:103ED000FF03A370E278885402F10102D7B2E770C1
:103EE000DFD18B78412B29D0DFF85CC0002630462B
:103EF0009CF80320121D05E01CF800E0401C7644ED
:103F0000B6B2C0B28242F7D8CA19F0B212F8012C88
:103F1000904211D1082B0CD2DFE803F00407070709
:103F2000070707074879207104E0074800F00EF8FA
:103F300000E025702570B4E7412BB2D1024800F0B3
:103F400019F8F7E7BC0000204CAF012082784179D6
:103F5000042A0CD10648CA0706D001220277490874
:103F60004177C18B491C01E000210177C183704773
:103F7000C0AD01202DE9F04704462DED068B82B03F
:103F8000FDF75EF9E178E21C8A5C8DF80020221DC5
:103F9000895C8DF80110BDF8001081427ED114F8C3
:103FA000050F94F801A0A1788DF80010E1788DF844
:103FB0000110BDF8008021798DF8001061798DF82D
:103FC0000110BDF80050A1798DF80010E1798DF84D
:103FD0000110217A8DF80210617A8DF80310A17A10
:103FE0008DF80410E17A8DF80510217B8DF806100C
:103FF000617B8DF807109DED00ABA17B8DF8001063
:10400000E17B8DF80110217C8DF80210617C8DF828
:104010000310A17C8DF80410E17C8DF80510217D42
:104020008DF80610617D8DF807109DED009BA17D38
:104030008DF80010E17D8DF80110BDF9001000EE43
:10404000101AB8EEC00ADFED3B0A217E8DF8001091
:10405000617E8DF80110BDF80070A17E8DF8001012
:10406000E17E8DF80110BDF80060217F8DF8001011
:10407000617F8DF8011020EE208ABDF80090FCF7DA
:10408000D9FA0AEBCA032C4A03EB0A1302EB4322C8
:1040900002EB8514C4E90001404600E044E0FCF76F
:1040A000C9FAC4E9020184ED04AB84ED069B18EE65
:1040B000100AFCF7E5FAC4E908013846FCF7BAFA39
:1040C000C4E90A013046FCF7B5FAC4E90C014846D8
:1040D000FCF7B0FAC4E90E011848C5EBC501C0F8F9
:1040E0003881A0F5C04000EBC10418EE100AC4F8F6
:1040F000B85904F5006484ED72AB84ED709BFCF755
:10410000BFFA00EE107AC4E974010D48B8EE400A17
:10411000012184ED760A00EE106AB8EE400A84EDC3
:10412000770A80F82410C58402B0BDEC068BBDE888
:10413000F0870000CDCCCC3DC0B30020D062002081
:10414000C0AD0120F0B58DB012AF97E87000AA277E
:104150008DF808708DF8097041278DF80A700027D6
:104160008DF80C708DF80D00ADF800208DF80E1054
:104170009DF800008DF80F009DF801008DF81000EB
:10418000ADF800309DF800008DF811009DF8010099
:104190008DF80B708DF812008DED000B9DF800006E
:1041A0008DF813009DF801008DF814009DF80200B1
:1041B0008DF815009DF803008DF816009DF8040099
:1041C0008DF817009DF805008DF818009DF8060081
:1041D0008DF819009DF807008DF81A008DED001B71
:1041E0009DF800008DF81B009DF801008DF81C0063
:1041F0009DF802008DF81D009DF803008DF81E004B
:10420000B2EE040A9DF804008DF81F0022EE000AA9
:104210009DF805008DF820009DF806008DF821001E
:10422000BDEEC00A9DF807008DF8220010EE100ABE
:10423000ADF800009DF800008DF823009DF8010006
:104240008DF82400ADF800409DF800008DF82500A1
:104250009DF801008DF82600ADF800509DF8000093
:104260008DF827009DF801008DF82800ADF800605A
:104270009DF800008DF829009DF801008DF82A00B6
:1042800020208DF80B0002A8FCF7DAFFADF8000043
:104290009DF800008DF82B009DF801008DF82C0092
:1042A000252102A8FFF720FC0DB0F0BD2DE9F04359
:1042B0008DB014AC4FF0AA0894E8E0128DF800809D
:1042C0008DF801808DF8020000208DF804008DF833
:1042D00005108DF806208DF8085009208DF809602A
:1042E0000D218DF80A708DF8030000226C468DF8C0
:1042F00007308DF80B908DF80CC01046235C401CE5
:104300001A44C0B2D2B28842F8D362542046491C43
:10431000FFF7EAFB0DB0BDE8F08300002DE9F04F98
:10432000DFF848842DED108BC1B089ACDDE9846ADB
:104330009DED7CEADDED7AEA9DED78FA759F9DEDC5
:1043400064AB9DED62BB9DED5ECB9DED5CDBDDF86E
:104350003CE2919D94EC048A68AC94E8001AAA248B
:104360008DF808408DF809400B248DF80A40002490
:104370008DF80B40FD4C64788DF80C40641C88F877
:1043800001408DF80D00DFEDFAFA20EE2F0ABDEEA8
:10439000C00A10EE100A20EEAF0AADF800009DF83A
:1043A00000008DF80E00BDEEC00A9DF801008DF8EA
:1043B0000F0010EE100A21EE2F0AADF800009DF854
:1043C00000008DF81000BDEEC00A9DF801008DF8C8
:1043D000110010EE100AB2EE040AADF8000061EE12
:1043E000800A9DF800008DF812009DF80100FDEE96
:1043F000E00A8DF8130010EE900A62EE000AADF8A4
:1044000000009DF800008DF81400FDEEE00A9DF814
:1044100001008DF8150010EE900A62EE800AADF8EA
:1044200000009DF800008DF816009DF801008DF841
:104430001700FDEEE00A10EE900A63EE000AADF8F8
:1044400000009DF800008DF81800FDEEE00A9DF8D0
:1044500001008DF8190010EE900A63EE800AADF8A5
:1044600000009DF800008DF81A00FDEEE00A9DF8AE
:1044700001008DF81B0010EE900A64EE000AADF802
:1044800000009DF800008DF81C00FDEEE00A9DF88C
:1044900001008DF81D0010EE900A64EEAF0AADF831
:1044A00000009DF800008DF81E00FDEEE00A9DF86A
:1044B00001008DF81F0010EE900A65EE2F0AADF88E
:1044C00000009DF800008DF82000FDEEE00A9DF848
:1044D00001008DF8210010EE900A65EEAF0AADF8EC
:1044E00000009DF800008DF82200FDEEE00A9DF826
:1044F00001008DF8230010EE900A66EE000AADF878
:1045000000009DF800008DF82400FDEEE00A9DF803
:1045100001008DF8250010EE900A66EE800AADF8D5
:1045200000009DF800008DF82600FDEEE00A9DF8E1
:1045300001008DF8270010EE900A67EE000AADF832
:1045400000009DF800008DF82800FDEEE00A9DF8BF
:1045500001008DF8290010EE900AADF8000067EE1A
:10456000800A9DF800008DF82A009DF80100FDEEFC
:10457000E00A8DF82B0010EE900AADF800009DF8CF
:1045800000008DF82C009DF801008DF82D00DDED68
:104590005A0A60EE800AFDEEE00A10EE900AADF8CD
:1045A00000009DF800008DF82E009DF801008DF8A8
:1045B0002F00DDED5B0A20EE800ABDEEC00A10EE92
:1045C000100AB2EE040AADF800009DF800008DF864
:1045D00030009DF801008DF831008DF832108DED1E
:1045E00000DB9DF800008DF833009DF801008DF888
:1045F00034009DF802008DF835009DF803008DF819
:1046000036009DF804008DF837009DF805008DF800
:1046100038009DF806008DF839009DF807008DF8E8
:104620003A008DED00CB9DF800008DF83B009DF821
:1046300001008DF83C009DF802008DF83D009DF8CA
:1046400003008DF83E009DF804008DF83F009DF8B2
:1046500005008DF840009DF806008DF841009DF89A
:1046600007008DF84200DDED600A60EE800AFDEE85
:10467000E00A10EE900AADF800009DF800008DF8F9
:1046800043009DF801008DF84400DDED610A60EE05
:10469000800AFDEEE00A10EE900AADF800009DF8E9
:1046A00000008DF845009DF801008DF846008DF85A
:1046B00047208DED00BB9DF800008DF848009DF867
:1046C00001008DF849009DF802008DF84A009DF820
:1046D00003008DF84B009DF804008DF84C009DF808
:1046E00005008DF84D009DF806008DF84E009DF8F0
:1046F00007008DF84F008DED00AB9DF800008DF8A0
:1047000050009DF801008DF851009DF802008DF8D1
:1047100052009DF803008DF853009DF804008DF8B9
:1047200054009DF805008DF855009DF806008DF8A1
:1047300056009DF807008DF85700DDED660A60EE23
:10474000800AFDEEE00A10EE900AADF800009DF838
:1047500000008DF858009DF801008DF85900DDED3E
:10476000670A60EE800AFDEEE00A03E0BC0000206C
:1047700000007A4410EE900A8DF85C30ADF800002D
:104780009DF800008DF85A008DF85D909DF80100AD
:104790008DF85EB08DF85B008DF85FC0DDED6B0AC3
:1047A00060EE800AFDEEE00A10EE900AADF800001F
:1047B0009DF800008DF860009DF801008DF8610003
:1047C000DDED6C0A60EE800AFDEEE00A10EE900A64
:1047D000ADF800009DF800008DF862009DF8010022
:1047E0008DF86300DDED6D0A60EE800AFDEEE00AF3
:1047F00010EE900AADF800009DF800008DF86400FE
:104800009DF801008DF86500DDED6E0A60EE800A0E
:10481000FDEEE00A10EE900AADF800009DF80000F1
:104820008DF866009DF801008DF86700DDED6F0AD8
:1048300020EE800AF2EE040ABDEEC00A10EE100A65
:10484000ADF800009DF800008DF868009DF80100AB
:104850008DF869009DED700A20EE200ABDEEC00AB9
:1048600010EE100AADF800009DF800008DF86A0007
:104870009DF801008DF86B009DED710A20EE200A75
:10488000BDEEC00A10EE100AADF800009DF8000061
:104890008DF86C009DF801008DF86D009DED721A89
:1048A0009FEDFE0A21EE001ABCEEC11A11EE100AAD
:1048B000ADF800009DF800008DF86E009DF8010035
:1048C0008DF86F009DED731A21EE001ABCEEC11A2F
:1048D00011EE100AADF800009DF800008DF8700090
:1048E0009DF801008DF871009DED741A8DF87470BB
:1048F00021EE001ABCEEC11A11EE100AADF800004C
:104900009DF800008DF872009DF801008DF873008D
:104910009DED761A21EE001ABDEEC11A11EE100AB5
:10492000ADF800009DF800008DF875009DF80100BD
:104930008DF876009DED771A21EE001ABDEEC11AB2
:1049400011EE100A2FEE001AADF800009DF80000DD
:104950008DF87700BDEEC11A9DF801008DF8780042
:1049600011EE100AADF800009DF800008DF87900F6
:104970009DF801008DF87A009DED791A21EE001A5C
:10498000BDEEC11A11EE100A2EEE801AADF800002D
:104990009DF800008DF87B00BDEEC11A9DF8010066
:1049A0008DF87C0011EE100AADF800009DF80000B3
:1049B0008DF87D009DF801008DF87E009DED7B1A3D
:1049C00021EE001ABDEEC11A11EE100A2EEE001AE9
:1049D000ADF800009DF800008DF87F00BDEEC11A13
:1049E0009DF801008DF8800011EE100AADF800006E
:1049F0009DF800008DF881009DF801008DF882007F
:104A00009DED7D1A21EE001ABDEEC11A11EE100ABD
:104A1000ADF800009DF800008DF883009DF80100BE
:104A20008DF884009DED7E1A21EE001ABDEEC11AAC
:104A300011EE100AADF800009DF800008DF8850019
:104A40009DF801008DF886009DED7F1A21EE001A79
:104A5000BDEEC11A11EE100AADF800009DF800007D
:104A60008DF887009DF801008DF888009DED801A73
:104A700021EE001ABDEEC11A11EE100AADF80000C9
:104A80009DF800008DF889009DF801008DF88A00DE
:104A90009DED811A21EE001ABDEEC11A11EE100A29
:104AA000ADF800009DF800008DF88B009DF8010026
:104AB0008DF88C009DED821A21EE001ABDEEC11A10
:104AC00011EE100AADF800009DF800008DF88D0081
:104AD0009DF801008DF88E009DED831A21EE000AED
:104AE000BDEEC00A10EE100AADF800009DF80000FF
:104AF0008DF88F009DF801008DF89000ADF80060F2
:104B00009DF800008DF891009DF801008DF892004D
:104B1000ADF800A09DF800008DF893009DF801000D
:104B20008DF894009DED860A20EE200ABDEEC00AA5
:104B300010EE100AADF800009DF800008DF8950009
:104B40009DF801008DF896009DED870A20EE200A61
:104B5000BDEEC00A10EE100AADF800009DF800008E
:104B60008DF897009DF801008DF898009DED880A5A
:104B700020EE200ABDEEC00A10EE100A28EE200A30
:104B8000ADF800009DF800008DF89900BDEEC00A58
:104B90009DF801008DF89A0010EE100A28EEA00A88
:104BA000ADF800009DF800008DF89B00BDEEC00A36
:104BB0009DF801008DF89C0010EE100A29EE200AE5
:104BC000ADF800009DF800008DF89D00BDEEC00A14
:104BD0009DF801008DF89E0010EE100A29EEA00A43
:104BE000ADF800009DF800008DF89F00BDEEC00AF2
:104BF0009DF801008DF8A00010EE100AADF800003D
:104C00009DF800008DF8A1009DF801008DF8A2002C
:104C10009DED8D0A20EE200ABDEEC00A10EE100AAE
:104C2000ADF800009DF800008DF8A3009DF801008C
:104C30008DF8A4009DED8E0AA32102AB20EE200A80
:104C4000BDEEC00A10EE100AADF800009DF800009D
:104C50008DF8A5009DF801008DF8A60090988DF8BC
:104C6000A8008DF8A7E08DF8A95092988DF8AA00B9
:104C70009F208DF80B00002210461C5C401C224433
:104C8000D2B28842F9DB5A54491CC9B21846FEF721
:104C90002BFF41B0BDEC108BBDE8F08F0000C84287
:104CA0002DE9F04FA6484FF07C562DED048BF0EE29
:104CB000408AB9B090ED020A30EE280A10EE101AC0
:104CC00080ED020A9FED9F9A0025B1427DDB9E4C4C
:104CD000B0EE498A80ED028A94ED640B51EC100B22
:104CE000FBF712FD35953695379538958DED348A5D
:104CF0008DED338A8DED328A8DED318A8DED308ADE
:104D00008DED2F8A8DED2E8A8DED2D8A8DED2C8ADD
:104D10002A952B958DED298A8DED288A8DED278A90
:104D20008DED268A8DED258A8DED248A8DED238AE1
:104D30008DED228A8DED218A8DED208A8DED1F8AE1
:104D40008DED1E8A8DED1D8A8DED1C8A04F50062A5
:104D50001B9592ED7F0A00238DED1A0A8DED190A3D
:104D60008DED180A94ED6A0A8DED170AD4ED690AE3
:104D7000CDED160A94ED681A8DED151A8DED140A15
:104D8000CDED130A8DED121A8DED118A0E950F954A
:104D9000109594ED671A8DED0D1A0C9094ED622B21
:104DA0008DED0A2B94ED600B8DED080B8DED071A40
:104DB00006908DED042B8DED020B8DED018A8DEDAE
:104DC000008A94F878110A4600E022E0F0EE487A72
:104DD000B0EE487AF0EE486AB0EE486AF0EE485A13
:104DE000B0EE485AF0EE484AB0EE484AF0EE483A83
:104DF000B0EE483AF0EE482AB0EE482AF0EE481AF3
:104E0000B0EE481AF0EE480AB0EE480A0020FFF76C
:104E100085FA4E4C207F00287BD094ED080AA4F53B
:104E20007A4730EE280A10EE100A84ED080A9FED4A
:104E3000488BB0426DDB84ED089A607F53EC182BF1
:104E400000EBC00101EB0010E18B07EB402000EB11
:104E5000811090ED020B51EC100BFBF725FC11D1EA
:104E60000023B0EE480AF0EE680A00950195B0EE16
:104E7000492AB0EE401AF0EE601A1A461946184652
:104E8000029544E0607F039000EBC00101EB00104D
:104E900007EB4021E08B01EB8016834696ED0E0B6D
:104EA00051EC100BFBF7D3FB96ED0C0B1FFA80FABD
:104EB00051EC100BFBF7CBFB96ED0A0B1FFA80F9B8
:104EC00051EC100BFBF7C3FB96ED080B1FFA80F8B3
:104ED00051EC100BFBF718FC96ED020B08EE100AD4
:104EE00051EC100BFBF7B3FB96ED000B87B251ECC6
:104EF000100BFBF7ACFB8DE80007C0B296ED061B6C
:104F000096ED040BB0EE482A5B463A460399FFF74C
:104F100019F994F8240000280DD0E08C84F824506E
:104F2000030AC2B201950295039504950721042056
:104F30000095FFF7BBF939B0BDEC048BBDE8F08FED
:104F4000BC00002000000000D0620020C0AD0120A5
:104F500000000000000000002DED028B00214648FB
:104F6000FDF7ECF904214448FDF7E8F9082142482F
:104F7000FDF7E4F90C214048FDF7E0F900213F4836
:104F8000FDF7DCF904213D48FDF7D8F908213B483D
:104F9000FDF7D4F90C213948FDF7D0F90021384844
:104FA000FDF784FB04213648FDF780FB00213548DE
:104FB000FDF77CFB04213348FDF778FB08213148DD
:104FC000FDF774FB0C212F48FDF770FB08212E48DC
:104FD000FDF76CFB0C212C48FDF768FB02222B49E6
:104FE0002B48FDF7B5FE2949022210392948FDF763
:104FF000AFFE2649022210312748FDF7A9FE0A22FA
:1050000026492748FDF7A4FE4FF41650FCF7D4F9C3
:105010000A2224492448FDF79BFE02F047F91F4C61
:105020009FED228A103C04F21A454FF48067002657
:10503000642001F0E2FE0020FDF7D4FFB0EE480A44
:10504000FFF72EFE00F09AFB0CE0405DFEF714FF28
:10505000B4F81A08401C80B2A4F81A08B84201D368
:10506000A4F81A68B4F81A08B4F81C188842ECD1ED
:1050700001F0F0FEDCE70000086D0020806D0020EC
:10508000446D0020BC6D0020F86D0020AD6C002048
:10509000B46E0020F46E0020346F0020E002002087
:1050A000746E00207C640020746F0020CDCCCC3D59
:1050B0002DED048B9FED5E0A5E48F1EE0C0AB2EE18
:1050C000001AA0EC030AA0EC030AA0EC030A80EC8F
:1050D000030AFEF703F801210020FDF7A7FF564F52
:1050E000DFF86491B3EE090AA7F500659FED538AD6
:1050F000DFED538A9FED539A09F1040A87ED080A00
:1051000000244FF080480AF1040B05F5C046142036
:1051100001F073FEB0EE480AD5F82808FBF7DCFF73
:1051200095F8240857280FD0C8F83440C8F83840FC
:10513000C9F80040CAF80040CBF8004042480C30A3
:105140000460424804606CE097ED080AD6ED560A08
:1051500030EE202AD6ED570A32EE201AB5EEC01AEC
:10516000F1EE10FA02D2F0EE681A09E011EE100A20
:105170003749884202DDF0EE491A01E0F0EE411AAB
:10518000BCEEE10A10EE101AC8F83410C8F8384026
:1051900072EE600AF5EEC00AF1EE10FA02D2F0EEFD
:1051A000681A09E010EE900A2949884202DDF0EE03
:1051B000491A01E0F0EE601ABCEEE10A10EE100AA6
:1051C000C9F80000CAF80040B5EEC01AF1EE10FAB6
:1051D00002D2B0EE681A06E011EE100A1C498842AD
:1051E00001DDB0EE491ABCEEC10A10EE100ACBF890
:1051F000000015480C300460F5EEC00AF1EE10FA1C
:1052000002D2F0EE680A06E010EE900A10498842D9
:1052100001DDF0EE490A0D49BCEEE00A10EE100A7D
:1052200008600A48001D046001F014FE6FE70000EA
:1052300066660641C46C0020D00A00200AD7A33C51
:10524000000000000000C842340800403C04014057
:105250000000C84200252C4C40F2EE292E460A20C0
:1052600001F0CBFD0A35ADB2FA2D08D0B5F5FA7FC5
:105270000BD04D4512D194F8EC0960B10EE094F8D2
:10528000DC0970B900F0F8FC08E094F8CC0928B902
:1052900000F000FD02E000F00BFD002594F8DC09B1
:1052A00020B184F8DC69194801F0E8FC94F8CC09D5
:1052B00028B1164884F8CC69103801F00DFD94F837
:1052C000EC0928B1114884F8EC69103001F032FD86
:1052D0000F4F4FF4806800BFB4F8B609B4F8B8199E
:1052E00088420DD0C05D02F0ABF8B4F8B609401C9E
:1052F00080B2A4F8B6094045EED3A4F8B669EBE74E
:1053000001F0A8FDABE70000D0620020AD6C0020EA
:105310008668002001F07DBD30B5274893B0002598
:10532000016841F080510160006800F080501190E8
:105330002248016841F4804101600068022400F4C1
:105340008040119001200090000401908001CDE97F
:10535000064004200890A820CDE9090407200B90FE
:105360006846FCF7CBFC08B1B2210FE00CA90F2076
:1053700081E831004FF4A0500F904FF4805010900E
:1053800005210CA8FCF7ACFB18B1C0210CA000F063
:105390009EFCFCF75DFC4FF47A71B0FBF1F0FCF77A
:1053A00047FE0420FCF738FE00220F21501EFCF7B8
:1053B00065FB13B030BD0000403802400070004073
:1053C0002E2E2F436F72652F5372632F6D61696E9E
:1053D0002E6300001048016841F4700101600F481D
:1053E000016841F0010101600C4A0021083211609E
:1053F00002680B4B1A400260031D0A4A1A600268D9
:1054000022F48022026005480C30016002495806EF
:10541000803908607047000088ED00E000380240E5
:10542000FFFFF6FE103000240148FCF794BF000097
:1054300034740020F0B50268234B244D244E254FD0
:10544000254C4FF0804C984209D0604507D0A842C7
:1054500005D0B04203D0B84201D0A04204D122F01E
:10546000700E4A6842EA0E0298421BD0604519D07D
:10547000A84217D0B04215D0B84213D0A04211D0E4
:10548000164DA8420ED0164DA8420BD0154DA8427D
:1054900008D0154DA84205D0144DA84202D0144D95
:1054A000A84203D122F44075CA682A4302608A6880
:1054B000C2620A688262984201D0A04201D10969A1
:1054C000016301214161F0BD000001400004004082
:1054D00000080040000C0040000401400040014072
:1054E000004401400048014000180040001C0040FA
:1054F0000020004010B50123046A8B409C430462E5
:10550000036A8A401343036210BD000030B5026A8B
:1055100022F001020262026A436884690D6824F085
:105520007304254322F002048A6822430B4CA042F4
:1055300002D00B4CA0420BD122F00804CA6823F41D
:10554000407322434C6922F004021C438B692343BD
:105550004360856149684163026230BD00000140DB
:105560000004014030B5026A22F010020262026AB1
:10557000436884690D6824F4E64444EA05248D6890
:1055800022F0200242EA05120D4DA84202D00D4D34
:10559000A8420ED1CD6822F0800242EA05124D6980
:1055A00023F4406343EA85038D6922F0400243EA15
:1055B00085034360846149688163026230BD0000F5
:1055C000000001400004014030B5026A22F48072FC
:1055D0000262036A4268C46923F4007324F073050D
:1055E0000C682C438D6843EA05230D4DA84202D078
:1055F0000C4DA8420ED1CD6823F4006343EA052385
:105600004D6922F4405242EA05128D6923F4806309
:1056100042EA05124260C4614968C163036230BD59
:10562000000001400004014030B5026A22F48052BB
:105630000262046A4268C3690D6823F4E64343EAE0
:1056400005238D6824F4005444EA0534084DA8422B
:1056500002D0084DA84204D14D6922F4804242EAAA
:1056600085124260C36149680164046230BD000074
:10567000000001400004014070B5046A24F00104F8
:1056800004628469056A164EB04214D0B0F1804FAE
:1056900011D0144EB0420ED0134EB0420BD0134E68
:1056A000B04208D0124EB04205D0124EB04202D0E5
:1056B000114EB04203D124F00304144303E024F05C
:1056C000030242F001041A0724F0F00444EA1262D3
:1056D00025F00A0301F00A0119438261016270BDDD
:1056E000000001400004004000080040000C0040A1
:1056F00000040140004001400018004030B5046A39
:1057000024F0100404628469056A24F4407444EAB5
:10571000022222F470444FF6FF7202EA033222435F
:10572000A02425F0A00304EA01111943826101625B
:1057300030BD000010EE100A0749DFED080A88426C
:1057400002DD30EE600A704710EE100A044988420C
:10575000F9D930EE200A7047000034430000B4430A
:10576000000034C30148FCF7C9BF0000346E0020BC
:105770000148FCF7C3BF0000746E002010B5074C51
:10578000B4F81E28002A08D004F11A010448FDF7D5
:1057900091FB002801D1A4F81E0810BDD002002002
:1057A000746E002010B5806B0021C185C184FCF7A8
:1057B000A4FF10BD70B5846B2068406994F839105F
:1057C000C0F3C0100025212904D118B1E58420467A
:1057D00000F062F82068406994F83A10C0F3801035
:1057E000222904D118B1E585204600F047F8E06B86
:1057F00040F01000E0632046FCF77FFF70BD10B55D
:105800000146806B09680968C90513D40021C18568
:105810000168CA6822F48072CA6001684A6922F08D
:1058200001024A6101684A6922F040024A6120216E
:1058300080F83A10FDF7D8FA10BD10B5806BFDF76F
:1058400037FB10BD10B50146806B09680968C905B2
:105850000CD40021C18401684A6922F080024A61A7
:105860000068C16841F04001C16010BDFDF762FBF6
:1058700010BD10B5806BFDF763FB10BD0168CA68F1
:1058800022F49072CA6001684A6922F001024A61FA
:10589000202180F83A1070470168CA6822F0C002DF
:1058A000CA60202180F83910704710B590F83A107E
:1058B000222901D0022010BD8168B1F5805F11D08E
:1058C0000169002901681FD0496801F07F03816ADE
:1058D0004A1C82620B70C18D491E0904090CC185E6
:1058E00018D026E00269816A002A0268526805D051
:1058F000D2B20A80816A491C8162ECE7C2F30802D5
:105900000A80816A891CF7E74A68816A4B1C8362B6
:105910000A70E0E70168CA6822F49072CA60016800
:105920004A6922F001024A61202180F83A10FDF70D
:105930005BFA002010BD00002DE9F041044600682C
:10594000016921F44052E168114301612168C8688E
:1059500049F20C6290432369A268E5691A436369BE
:105960002B431A430243CA602168486920F44072FD
:10597000A06910434861E1696425B1F5004F97487B
:10598000974A21684FF032083FD0914201D08142BE
:105990007CD1FCF773F900EBC00101EB00106168EA
:1059A0008900B0FBF1F6FCF769F900EBC00101EBEF
:1059B000001061688900B0FBF1F0B0FBF5F06FF00A
:1059C0001801484306EB800108EB0110B0FBF5F02D
:1059D00000F0F006FCF752F900EBC00101EB0010FB
:1059E00061688900B0FBF1F0B0FBF5F006EB001642
:1059F000FCF744F900EBC00101EB0010616889007D
:105A0000B0FBF1F7FCF73AF9D2E0914201D08142C4
:105A10003DD1FCF733F900EBC00101EB00106168E8
:105A20004900B0FBF1F0B0FBF5F00601FCF726F9F8
:105A300000EBC00101EB001061684900B0FBF1F719
:105A4000FCF71CF900EBC00101EB00106168490094
:105A5000B0FBF1F0B0FBF5F06FF01801484307EB35
:105A6000800108EBC100B0FBF5F000F0F80006EB98
:105A70004006FCF703F900EBC00101EB0010616880
:105A80004900B0FBF1F7FCF7F9F83CE055E0FCF712
:105A9000E5F800EBC00101EB001061684900B0FBC4
:105AA000F1F0B0FBF5F00601FCF7D8F800EBC0010F
:105AB00001EB001061684900B0FBF1F7FCF7CEF88C
:105AC00000EBC00101EB001061684900B0FBF1F090
:105AD000B0FBF5F06FF01801484307EB800108EBCD
