:020000040800F2
:10000000486301205D0200081B4700084B3C0008C4
:1000100019470008B50B00089164000800000000B3
:100020000000000000000000000000009D0100082A
:100030001D18000800000000F901000829590008F7
:1000400077020008770200087702000877020008AC
:1000500077020008770200081F180008251800081A
:1000600077020008770200087702000831170008BD
:100070003D170008411700084D17000851170008E8
:100080005D1700085F170008770200087702000874
:10009000770200087702000877020008770200085C
:1000A000770200087702000877020008770200084C
:1000B000770200087702000877020008770200083C
:1000C000770200087702000877020008770200082C
:1000D0007702000831640008496400086164000880
:1000E000770200087702000877020008770200080C
:1000F00077020008770200087702000861170008FD
:1001000077020008770200087702000877020008EB
:100110008D5D0008A55D0008395A000877020008C7
:100120006D1700086F1700087117000877020008A4
:1001300077020008770200087702000877020008BB
:1001400077020008770200087702000877020008AB
:100150007702000873170008751700087964000813
:10016000770200087702000877020008770200088B
:1001700077020008770200087702000800000000FC
:100180007702000877020008DFF80CD000F0C4FB0B
:100190000048004759740008486301202C4B196837
:1001A0000868B0E8F04F80F30988BFF36F8F4FF015
:1001B000000080F3118870470000000008480068C4
:1001C000006880F308884FF0000080F3148862B65E
:1001D00061B6BFF34F8FBFF36F8F00DF00BF00BF6B
:1001E00008ED00E0DFF80C00016841F470010160E7
:1001F000704700BF88ED00E0EFF30980BFF36F8F19
:10020000134B1A681EF0100F08BF20ED108A20E96A
:10021000F04F106009B44FF0500080F31188BFF325
:100220004F8FBFF36F8F08F02DF84FF0000080F371
:10023000118809BC19680868B0E8F04F1EF0100F6B
:1002400008BFB0EC108A80F30988BFF36F8F704746
:1002500000000020EFF3058070470000064880474B
:1002600006480047FEE7FEE7FEE7FEE7FEE7FEE79B
:10027000FEE7FEE7FEE7FEE7E55900088901000812
:100280002DE9F05F0546002092469B4688460646CB
:10029000814640241BE0284641464746224600F05E
:1002A00034FA53465A46C01A914110D311461846A3
:1002B000224600F01BFA2D1A67EB01084F46224632
:1002C0000120002100F012FA17EB00094E41201E18
:1002D000A4F10104DFDC484631462A464346BDE826
:1002E000F09F40EA01039B0703D009E008C9121FF1
:1002F00008C0042AFAD203E011F8013B00F8013BE0
:10030000521EF9D27047D2B201E000F8012B491E0B
:10031000FBD270470022F6E710B513460A460446A2
:100320001946FFF7F0FF204610BD2DE9FE4F80462D
:1003300081EA0300C00F0C46009021F0004123F039
:100340000045B8EB0200A94105D24046214690463F
:100350001C460B46024623F00040104347D0270DB1
:10036000C7F30A00C3F30A510290401A01904028D3
:100370006BDAC3F3130040F4801B0098924620B15F
:100380000023D2EB030A63EB0B0B01985946C0F133
:100390004002504600F0AAF906460D46504659461E
:1003A000019A00F0C2F910EB08006141002487EACD
:1003B000115284EAE7731A4340D0009A62B3019A5B
:1003C000012A4FEA075215DC001B61EB02014FF0D6
:1003D000004202EA0752CDE90042001C41F58011BB
:1003E00032462B4600F0F9F903B0BDE8F08F4046E5
:1003F0002146F9E7001B61EB0201001C41F5801367
:1004000000185B412018A2F5001747EB030140EAF2
:10041000D570B6196D4111E06D084FEA360645EA10
:10042000C0754FEA0752001B61EB0201001C41F549
:10043000801149084FEA30000019514132462B46DD
:1004400003B0BDE8F04F00F0B9B9009801224000B8
:100450000023D0EB020263EBE073009821464FEAE1
:10046000E074B8EB000061EB0401E9E783F00043BE
:100470005BE781F0004158E72DE9FE4F81EA030474
:1004800004F0004421F0004100944FF0000B23F0F1
:10049000004350EA01045ED052EA03045BD0C3F388
:1004A0000A54C1F30A552C44A4F2F3340194A0FB7E
:1004B0000254C1F3130141F48011C3F3130343F455
:1004C000801301FB024400FB034E840A970A44EAAE
:1004D000815447EA8357A4FB076802958D0A05FB00
:1004E00007854FEA932C04FB0C542705029D4FEA25
:1004F000065847EA1637B5EB08056EEB070C870E72
:10050000920E47EA811742EA8312A7FB0201B6EB7B
:100510000B0164EB00042B0D43EA0C335E1844EB33
:100520001C50DA465146E7FB0201C5F313044FEABB
:100530000B3343EA14534FEA0432019C43EA0603A7
:10054000A4F10C040294009CCDE900B400F045F93C
:1005500003B0BDE8F08F00200146F9E72DE9F04D2A
:1005600081EA030404F0004B21F0004514464FF0EB
:10057000000A23F0004150EA050220D054EA0102AB
:100580001DD0C5F30A570246C5F31303C1F3130088
:10059000C1F30A5640F4801543F48013A7EB060814
:1005A000101BD64608F2FD3873EB050002D308F1A4
:1005B000010801E092185B41B8F1000F03DA002056
:1005C0000146BDE8F08D00204FF4801106468446B8
:1005D0000EE0171B73EB050705D3121B63EB050336
:1005E00006434CEA010C49084FEA300092185B417F
:1005F00050EA0107EDD152EA030012D082EA04006A
:1006000083EA0501084305D0101BAB4106D2012245
:10061000002306E000224FF0004302E06FF00102E9
:1006200053101AEB06004CEB085110EB0A0041EB9B
:100630000B01BDE8F04D00F0C1B80EB5C10F80EA66
:10064000E0700844CA07002140F233438DE80E00F1
:100650000A460B4600F0C1F803B000BD00F00042AE
:1006600030F000400AD0C10D01F56071C0F31600F2
:1006700042EA0151C2084007114370470020014679
:100680007047000030B5041E71F1000404DB4FF028
:100690000044404264EB0101141E73F1000405DBC9
:1006A0001C464FF00043524263EB04038B4208BFE9
:1006B000824230BD01F0004330B421F0004150EAE5
:1006C000010206D00A0DA2F56072C1F31301002ADF
:1006D00002DC30BC00207047440F44EAC104C10072
:1006E000E01830BC00EBC25000F031B8202A04DB27
:1006F000203A00FA02F1002070479140C2F1200335
:1007000020FA03F3194390407047202A04DB203A73
:1007100021FA02F00021704721FA02F3D040C2F121
:1007200020029140084319467047202A06DBCB1768
:10073000203A41FA02F043EAE07306E041FA02F39C
:10074000D040C2F120029140084319467047002969
:10075000A8BF7047401C490008BF20F00100704747
:1007600010B4B0FA80FC00FA0CF050EA010404BFA7
:1007700010BC704749B1CCF1200421FA04F411FAFD
:100780000CF118BF012121430843A3EB0C01CB1D41
:100790004FEA00614FEA102042BF002010BC7047B2
:1007A00000EBC35010440029A4BF10BC7047401C8C
:1007B000490008BF20F0010010BC704710B5141E9E
:1007C00073F1000408DA401C41F1000192185B410A
:1007D0001A4301D120F0010010BD2DE9F04D9246E1
:1007E0009B4611B1B1FA81F202E0B0FA80F22032F8
:1007F0009046FFF77BFF04460F4640EA0A0041EAB5
:100800000B0153465A46084313D0114653EA0100E0
:1008100019D0C8F140025046FFF777FF05460E4653
:10082000504659464246FFF761FF084305D0012074
:1008300004E020463946BDE8F08D0020054346EA35
:10084000E0762C4337430A986305E40AA0EB0800DE
:100850000022FD0A44EA47540A3002D5002001462E
:10086000E9E7010510196941DDE908450019694109
:10087000BDE8F04DA2E72DE9F04D00231A461B1A02
:100880008A4103DB00200146BDE8F08DC1F30A5226
:10089000C1F3130141F480154FF0000BD10702D1D1
:1008A00000186D41521E0027044640F2FF113846E1
:1008B00001EB620A3E468046024600204FF480115A
:1008C000FFF723FFC2197141BB1846EB0100B4EBDF
:1008D000030C75EB000C04D3E41A65EB0005174616
:1008E0000E46241908F101006D4180463428E3DDED
:1008F000F91946EB0600091BA84103D24FF0FF325D
:10090000134601E0002213461BEB070046EB0A5199
:10091000BDE8F04DFFF752BF064C074D06E0E0681A
:1009200040F0010394E8070098471034AC42F6D336
:10093000FFF72EFC348F0008548F00080EB540F2EC
:10094000334102910021CDE900110A460B46FFF721
:1009500044FF03B000BD70B5C1F30A5201F0004579
:100960000024C1F3130140F2FF3341F480119A4295
:1009700001DA002070BD40F233439A42A2F23342C2
:1009800003DC5242FFF7C1FE00E090402C43F1D05F
:10099000404270BD10B50146806B026C12F0500FE2
:1009A00005D0026CD20626D501F080FA10BD016C8C
:1009B00041F40071016401688A6812F0405F17D148
:1009C000027EAAB9CA6A12F4700F02D08A68520570
:1009D0000ED44A6822F020024A60016C21F4807132
:1009E0000164016CC90403D4016C41F0010101648C
:1009F00001F05AFA10BD806BC26CBDE81040084689
:100A0000104710B5806B40210164416C41F0040136
:100A1000416401F04BFA10BD10B5806B01F045FA4E
:100A200010BD0000464910B54A6822F440324A60C1
:100A30004A6843681A434A6001684A6822F480722F
:100A40004A6001684A68036942EA03224A60016811
:100A50004A6822F040724A6001684A6883681A4313
:100A60004A6001688A6822F400628A6001688A68C4
:100A7000C3681A438A60816A6FF07062D14201686C
:100A80008A6822F070628A6001688A680CD0836A82
:100A90001A438A6001688A6822F040528A600168BD
:100AA0008A68C36A1A4301E022F040528A600168F2
:100AB0008A6822F002028A6001688A68037E42EA3C
:100AC00043028A6090F82010002901684A680FD01C
:100AD00042F400624A6001684A6822F460424A6057
:100AE00001684A68174C436A04EB43331A4301E038
:100AF00022F400624A600168CA6A22F47002CA6283
:100B00000168CA6A838B104C04EB03531A43CA6210
:100B100001688A6822F400728A6001688A6890F825
:100B2000303042EA43228A6001688A6822F4806297
:100B30008A6001688A68406942EA8020886010BD46
:100B40000023014000E0FFFF0000F0FF7CB51749E3
:100B500000250C68009526E02168814222D10168B9
:100B60000A68C2F30012002A1BD00A684968019182
:100B7000217E012903D1C08D2169081AA060606A15
:100B800000280ED0694607F079FA656200980028BF
:100B900007D007494FF080500860BFF34F8FBFF375
:100BA0006F8F7CBD246A002CD6D17CBD74000020E0
:100BB00004ED00E0FEE770B50646002048F2084468
:100BC00002460EE0B35C5840002310F0010F4FEADC
:100BD000500000D060405B1CDBB2082BF5D3521CE8
:100BE000D2B28A42EED370BD42884A404280002190
:100BF00092B212F0010F4FEA5202428002D00388F3
:100C00005A404280491CC9B20829F1D3704770B5D7
:100C1000002402232546891E06E0C65C5B1C344482
:100C2000E4B22544EDB2DBB28B42F6DB64F307029B
:100C300065F30F2290B270BD04490220C1F8280468
:100C40000348002180F8481D70470000A0C0002024
:100C5000A01001202DE9F0434D4E4FF001092DED7C
:100C6000028BB3B096F8481DF0EE408A9FED498A9A
:100C7000A6F5A04404F59B60002704F5B84580461E
:100C8000B9B104F5C040012954D002290CD190F823
:100C9000A102012868D0C4F8287400BF84F8247425
:100CA00085ED598A85ED5A8A33B0BDEC028BBDE8DB
:100CB000F08338223849FFF714FB572084F82404C6
:100CC0003022364926A8FFF70CFB3822414618A8E7
:100CD000FFF707FB3049382270310C460AA8FFF7AE
:100CE00000FB2D49282248316846FFF7FAFA2A48C6
:100CF000F0EE480A3830B0EE680A0FC800F040F94C
:100D0000382241460AA81897FFF7EBFA282204F187
:100D100010016846FFF7E5FA1F48B7EE000A703089
:100D20000FC800F041F80128BED186F8489D85ED36
:100D3000538AB9E790ED950AD0ED930AB4EEE00A34
:100D4000F1EE10FA0DDB95ED530A154930EE280A45
:100D500010EE100A85ED530A88429FDD022086F8C6
:100D6000480D85ED538A99E7C4F8289496F8400D0C
:100D7000012806D00B480088C4F8D80486F8407DC6
:100D80008CE705493822E0314046FFF7AAFAF5E73B
:100D9000A010012000000000D0C40020B8220120D3
:100DA00000009643806400200FB42DED020B70B557
:100DB00000242DED068BB0EE408A9DED1E0B289D84
:100DC0009DED1CAB51EC100BFFF774FC09EE100A03
:100DD00051EC1A0BFFF76EFC9DED100B09EE900A1B
:100DE00051EC100BFFF766FC9DED0E0B08EE900A20
:100DF00051EC100BFFF75EFC00EE100AF0EE491A02
:100E0000B0EE691AF0EE680A03F088FC5DB1B4EE4A
:100E1000C80AF1EE10FA00DB0124BDEC068B204677
:100E200070BC5DF81CFBB4EEC80AF1EE10FAF3D901
:100E3000F3E70000074900209FED070A81F824042A
:100E400001F5B84080ED590A80ED5A0A80ED5B0A41
:100E500070470000A0C00020000000000FB42DED7E
:100E6000020B2DE9F04700262DED088BF0EE409A9D
:100E70009DED320B9DED308B9DED22AB9DED24BBA6
:100E800051EC100BFFF716FC054609EE105A51EC19
:100E9000180BFFF70FFC044608EE904A51EC1B0BB1
:100EA000FFF708FC814608EE109A51EC1A0BFFF789
:100EB00001FC804600EE108AF0EE491AB0EE681A86
:100EC000F0EE480A03F02AFC10EE107A01EE905A78
:100ED00001EE104A00EE909A00EE108A03F072FCC8
:100EE000F0EE400A09EE105AB0EE60AA9DED160B26
:100EF00008EE904A51EC100BFFF7DCFB9DED140B54
:100F000008EE100A51EC100BFFF7D4FB00EE100AAC
:100F1000F0EE491AB0EE681AF0EE480A03F052FCFF
:100F200030EE4A0A04F01AFFDFED140A20EE200A20
:100F300010EE100AFFF792FB41EC100B05F038FDA4
:100F4000B0EE408AF0EE608A3846FFF787FB53EC3C
:100F5000182BFFF791FAFFF7ADFB00EE100A30EE09
:100F6000690AB5EEC00AF1EE10FA00D20126BDEC16
:100F7000088B3046BDE8F0075DF81CFB2DFA8E3C6F
:100F80000FB42DED020B2DE9F04F2DED0E8B81B03E
:100F9000F0EE408A9DED3E0ADDED300A9DED38CB46
:100FA0009DED3ADB70EE600A9DED2AAB9DED2CBB0A
:100FB00010EE900A9DED31EAFE4FDFF8FC83B84257
:100FC00002D9FAEE040A05E010EE900A404501DD70
:100FD000F2EE040AF94CFA4DFA49C4ED5F0A95EDB8
:100FE0000E0A20EE801A94ED600A01EE280A10EE37
:100FF000100A84ED600A884202D99FEDF30A06E0E8
:1010000010EE100AF149884201DD9FEDF10A84EDEE
:10101000600AD5ED0D1AB0EE401A00EEA11A84ED6B
:101020005E1AC5ED410A85ED420A9FEDEA8A51EC50
:101030001D0B85ED438A85ED441AFFF73BFB09EE56
:10104000900A009051EC1C0BFFF734FB834609EE2D
:1010500010BA51EC1B0BFFF72DFB82460EEE90AA47
:1010600051EC1A0BFFF726FB814600EE109AF0EECA
:10107000691AB0EE491AF0EE6E0A03F04FFBD64E35
:1010800001EE10BA00EE90AA86ED000A009800EE7C
:10109000109A01EE900A03F095FB86ED020A009883
:1010A0009DED1E0B09EE100A0EEE90BA51EC100BDE
:1010B000FFF700FB82469DED1C0B09EE90AA51EC58
:1010C000100BFFF7F7FA814600EE109AF0EE491A7E
:1010D000B0EE6E1AF0EE690A03F074FB86ED030AB7
:1010E000D6ED020A30EE600A86ED040A04F036FE00
:1010F00086ED040ADFEDB9EA20EE2E0A10EE100AA2
:10110000FFF7ACFA41EC100B05F0B6FCB0EE409ADC
:10111000F0EE609A3068FFF7A1FA53EC192BFFF755
:10112000ABF9FFF7C7FA00EE900AAD4910EE900A4E
:10113000C6ED050A884202D9FBEE040A06E010EE6D
:10114000900AA849884201DDF3EE040AC4ED6B0A57
:1011500095ED110A20EE801A94ED6C0A01EE280A32
:1011600010EE100A84ED6C0AB84202D9BAEE040AF5
:1011700005E010EE100A404501DDB2EE040A84EDF0
:101180006C0AD5ED101AB0EE401A974F00EEA10A86
:1011900010EE100A84ED6A0A9FED949ADFF85082EF
:1011A000DFED949AB84202D9F0EE491A08E010EE49
:1011B000100A404502DDF0EE691A01E0F0EE401A37
:1011C000C4ED591AC5ED450A85ED461A85ED478AE5
:1011D00085ED480A53EC1C2B51EC1A0BFFF752FA21
:1011E00006D153EC1D2B51EC1B0BFFF74BFA40D0F3
:1011F000009801EE10BA01EE900A00EE90AA00EEFF
:10120000109A03F0DFFA3EEE400A04F0A7FD10EE5C
:10121000100AB84226D8009801EE10BA01EE900AE2
:1012200000EE90AA00EE109A03F0CCFA3EEE400ACF
:1012300004F094FD10EE100A404502DDB0EE699A0C
:1012400010E0009801EE10BA01EE900A00EE90AAAC
:1012500000EE109A03F0B6FA3EEE400A04F07EFD6E
:10126000B0EE409A94ED590A39EE000A86ED010A73
:1012700003E086ED018AB0EE480A04F06FFD10EE3F
:10128000100A5D49884202D99FED5C1A11E096ED83
:10129000010A04F063FD10EE100A5949884202DD8C
:1012A0009FED581A05E096ED010A04F057FDB0EEE7
:1012B000401A86ED011AD5ED140A94ED660A5249DA
:1012C00060EE810A00EEA80A10EE100A84ED660AAC
:1012D000884202D99FED4D0A06E010EE100A4C49F3
:1012E000884201DD9FED4B0A4B4884ED660AD5ED3F
:1012F000151AD0ED090A494960EEA10A10EE900ACC
:10130000884202D9DFED460A06E010EE900A454910
:10131000884201DDDFED440AF0EE401AC4ED670AB1
:1013200095ED132A42EE011A71EEA01AC4ED641A6B
:1013300085ED491A85ED4A0AC5ED4B0AC5ED4C1AF3
:1013400096ED050A85ED3E0A96ED040A20EE2E0A7A
:1013500010EE100AFFF782F941EC100B05F028FBA4
:10136000B0EE409AF0EE609A3068FFF777F953ECF0
:10137000192BFFF781F8FFF79DF9C5F8F40094EDFC
:10138000640A2A4910EE100A884202D99FED280A01
:1013900006E010EE100A2749884201DD9FED260A7B
:1013A00084ED5A0A94ED5E0AB5EEC00AF1EE10FA29
:1013B0004ED343E0000020C100002041A01C0120CA
:1013C000D03E00200000FAC30000FAC30000FA4338
:1013D0000000FA4300000000B40000202DFA8E3C0B
:1013E0000000A0C10000A041000034C2000034C2CF
:1013F00000003442000034420000B4C20000B4C215
:101400000000B4420000B442000048C3000048C3DA
:10141000000048430000484328B600200000C8C22E
:101420000000C8C20000C8420000C842000096C3C5
:10143000000096C3000096430000964310EE100A89
:101440000849884202DD9FED088A01E0B0EE408A3B
:1014500084ED5B8A01B0BDEC0E8BBDE8F00F5DF84A
:101460001CFB000000002F4400002F442DE9F04138
:10147000454C06462DED088BB0EE40BA94F80001BD
:10148000424D01283AD005F5984005F5B04790F84F
:10149000D01D04F8581F90F8D10D607097ED7A8B2D
:1014A00051EC180BFFF706F9606097ED763B84ED81
:1014B000023B97ED782B84ED042B97ED7D1A84ED9C
:1014C000071AD7ED7C0AC4ED060A85ED2E8B85ED53
:1014D0002A3B85ED2C2B85ED311AC5ED300AB6B3CC
:1014E000012E3DD0022E43D0032E49D1B0EE4B0A3F
:1014F000BDEC088BBDE8F041FFF79EBB01202062E8
:1015000094F8780084F8580094F8790084F8590029
:10151000E06FE06594ED209B84ED189B94ED22AB89
:1015200084ED1AABD4ED258AC4ED1D8A94ED248A8E
:1015300084ED1C8AFFF792F8E5E92E0105ED049B86
:1015400005ED02ABC5ED038A85ED028AC7E7FFE72B
:10155000B0EE4B0ABDEC088BBDE8F041FFF76ABC6A
:10156000B0EE4B0ABDEC088BBDE8F04100F010B8BE
:10157000B0EE4B0ABDEC088BBDE8F041FFF76ABB4B
:10158000BDEC088BBDE8F081D03E0020A0C4002057
:101590002DE9F04F614938222DED028BB3B0B0EE4A
:1015A000408A8B4618A8FEF79CFE5C4938223839E1
:1015B0008A460AA8FEF795FE5849282260398946CE
:1015C0006846FEF78EFEDFF85481B7EE000AA8F1F8
:1015D000D80808F16C0090E80E00D8F86800FFF712
:1015E0003DFC4F4FA8F5806501286DD1D5F8D80492
:1015F0004446C5F8680494ED3C1B411C84ED201B57
:1016000094ED381B84ED1C1B94ED3A1B84ED1E1BDE
:1016100094ED3E0A84ED220A94ED3F0A84ED230AFC
:10162000FA6A914230D3C5F8D81414D194ED121B44
:1016300084ED3C1B94ED0E1B84ED381B94ED101BC8
:1016400084ED3A1B94ED140A84ED3E0A94ED150ADC
:1016500084ED3F0A38E094ED2E1B4FF0000084ED3E
:101660003C1B94ED2A0B84ED380B94ED2C0B84ED90
:101670003A0B94ED300A84ED3E0A94ED310A84ED84
:101680003F0AC5F828041FE000F1010000EB8001CB
:10169000244800EBC10630F83120C5F8D824B068E2
:1016A000FEF7DCFFE4E93C0196ED040B04ED040BCE
:1016B00096ED060B04ED020B96ED080A84ED020A86
:1016C00096ED090A84ED030AB5F8D804A7F8D0000E
:1016D0003022154926A8FEF704FE3822594618A8DC
:1016E000FEF7FFFD382251460AA8FEF7FAFD282230
:1016F00049466846FEF7F5FD08F16C00DFED0B0A80
:1017000090E80E00B0EE480AD8F86800FFF738FC01
:1017100033B0BDEC028BBDE8F08F000078C500202F
:10172000D03E002080640020B8220120000000008C
:10173000014800F0DDBC0000A0BC002070470000A4
:10174000014800F0D5BC0000E0BB0020704700005D
:10175000014800F0CDBC000040BC0020704770473D
:10176000014800F0C5BC000000BD00207047704774
:10177000704770477047000001681823CAB2103ADA
:10178000B2FBF3F2054B6FF30901032A9B5CC365BF
:1017900000D9091D8165084670470000048D0008C6
:1017A00010B5014600208B698A6A4FF0C07453B1AE
:1017B000B3F5005F15D072B1012A0CD0022A0AD00D
:1017C000032A09D104E01AB1012A06D0022A03D162
:1017D000C96AC90100D5012010BDC96AA142FAD069
:1017E00010BD002AF7D0012AF2D0022AF3D0032A32
:1017F000F3D010BD30B50468256825F48025256038
:10180000046863608368402B036803D099600068B4
:10181000C26030BD9A600068C16030BD7047012071
:1018200000F09ABE022000F097BE012002F00EFAEE
:10183000022002F033FA032002F008FAF5E7000074
:10184000002229B101291AD002291BD04FF440727D
:101850000E490B6823F440730B600B6813430B6055
:101860000A6822F0F8020A600A68022303EBC0004B
:1018700002430A60086840F48030086070474FF403
:101880008072E5E74FF40072E2E70000103C02408E
:101890001348016889050FD5016821F400710160C2
:1018A000016841F400610160016821F40061016098
:1018B000016841F400710160016849050FD50168B4
:1018C00021F480610160016841F480510160016888
:1018D00021F480510160016841F48061016070472A
:1018E000003C024008490A6822F440720A600A6813
:1018F00042F004020A600A684FF4803343EA002091
:1019000002430A6070470000103C0240064A136818
:1019100023F44073136013681360136843F00103EA
:101920001360017070470000103C0240084910B578
:101930000C6824F440740C600C6844F440740C602F
:101940000C6844F001040C600260436010BD0000AC
:10195000103C0240074A136823F440731360136875
:1019600043F480731360136843F001031360018034
:1019700070470000103C0240074A136823F440738C
:101980001360136843F400731360136843F001039A
:101990001360016070470000103C0240174908685E
:1019A000C206174805D5C26942F01002C261102272
:1019B0000A600A68920605D5C26942F00802C2614F
:1019C00020220A600A68520605D5C26942F0040264
:1019D000C26140220A600A68120605D5C26942F057
:1019E0000202C26180220A600A68920705D5C269B4
:1019F00042F02002C2610220086070470C3C0240A5
:101A0000A0B2002070B5114904460020C86100F062
:101A10008DFE06460E4D09E0601C07D024B100F093
:101A200085FE801BA04201D9032070BD2868C00339
:101A3000F2D42868C00701D001202860286810F07F
:101A4000F200F2D0FFF7AAFF012070BDA0B2002083
:101A50000C3C024000B587B000F066FD0B49F32056
:101A6000086000200090022004900B2002900120CA
:101A70000190039005A9684600F0C2FC08B1FFF789
:101A8000D4FE00F009FD07B000BD00000C3C024090
:101A900004E000BF50F8023B21F8023B521EF9D28D
:101AA000704700002DE9F04116460D46074600F04C
:101AB0003BFD0A49F3200860002407E035F8022BBB
:101AC00039190023012000F0F1FCA41CB4EB460FEF
:101AD000F4D3BDE8F04100F0DFBC00000C3C024054
:101AE00010B582784C49152A2DD0252A58D0452A80
:101AF00028D102794379120212B21A4300EE102A59
:101B0000F8EEC00A9FED450A80EE801A81ED0A1AB0
:101B10008279C379120212B21A4300EE902AF8EECB
:101B2000E00A80EE801A81ED0B1A027A407A1202E6
:101B300012B2024300EE902AF8EEE00A80EE801A1C
:101B400081ED0C1A10BD02794379120212B21A43C8
:101B50000A808379C4791B0200EE102A1BB223434A
:101B60004B80F8EEC00A047A9FED2D0A2402407AD9
:101B700024B260EE800A04438C80C1ED020A00EEBC
:101B8000903AF8EEE00A60EE800AC1ED030A00EE3A
:101B9000904AF8EEE00A20EE800A81ED040A10BDBA
:101BA00002794379120212B21A438A828379C47984
:101BB0001B021BB22343CB82047A407A240224B254
:101BC0000443504200EE100A0C835842F8EEC00A5B
:101BD0009FED140A20EE801ADFED130A21EE201A81
:101BE00081ED071A01EE100A6042B8EEC11A21EE2B
:101BF000001A21EE201A81ED081A01EE100A0B4896
:101C0000B8EEC11A21EE000A20EE200A81ED090A81
:101C100080ED3F0A10BD000028B600200000C84239
:101C2000000080380000FA4400000038D03E002058
:101C300010B5152000F07EF8252000F07BF8452037
:101C400000F078F8A52000F075F8AA2000F072F8EE
:101C5000152000F06FF8BDE81040252000F06AB8AC
:101C600070B5264C244A002521785054491C217017
:101C700062782349052A01F503733AD2DFE802F0BE
:101C80000309151B24005A281DD10870A0700120DB
:101C900018E05A2803D0D86B401CD86329E048705C
:101CA000A0785A30A07002200CE08870A178084417
:101CB000A070032006E0E070C870A1780844A0700E
:101CC00025710420607070BD2279E6781144B2421B
:101CD0000871A17804D20844A070521C227170BD12
:101CE000814203D10648FFF7FBFE02E0586B401C1F
:101CF0005863657070BD000025B50020A00000206D
:101D00001CB4002008B500208DF80000084804F03D
:101D1000FBF828B908BD00BF9DF80000FFF7A0FF41
:101D20006946034804F0CDF80028F5D108BD00004D
:101D300018B8002008B507A10322096800918DF8A2
:101D40000100A5308DF802006946034804F011FB3C
:101D500008BD0000A500000044B8002078B50024AC
:101D6000009490F83C20012A19D0012280F83C20F0
:101D70000A6807230568092A13D9EE680A3A02EBB4
:101D8000420293409E43EE600B788A680A3B03EB65
:101D900043039A400368DD682A43DA6010E00220BA
:101DA00078BD2E6902EB420293409E432E610B7870
:101DB0008A6803EB43039A4003681D692A431A614A
:101DC0004A681F23072A13D205686E6B521E02EB66
:101DD000820293409E436E630B790A885B1E92B227
:101DE00003EB83039A4003685D6B2A435A6327E041
:101DF00005680D2A12D22E6BD21F02EB820293408D
:101E00009E432E630B790A88DB1F92B203EB830398
:101E10009A4003681D6B2A431A6311E0EE6A0D3A7B
:101E200002EB820293409E43EE620B790A880D3BDF
:101E300092B203EB83039A400368DD6A2A43DA62B5
:101E4000164B0568144A9D4206D10D68122D03D128
:101E5000556845F48005556005689D4218D10B68AA
:101E6000102B01D0112B13D1536843F4000353609E
:101E7000096810290CD10A490A4A0968B1FBF2F134
:101E800001EB8101490000E0491E00910029FBD1CE
:101E900080F83C40002078BD002301400020014034
:101EA0007C00002040420F0070477047704770B5BB
:101EB00004004FF0000503D0206C002610B107E0AD
:101EC000012070BD204600F01DF8666484F83C6077
:101ED000206CC00610D4206C20F4885040F0020022
:101EE00020642046FEF79EFD6664206C20F0020010
:101EF00040F00100206400E0012584F83C602846A1
:101F000070BD000070B586B0064614216846FEF725
:101F100001FA1D493068884234D11C480025016807
:101F200041F480710160006800F4807005901748EA
:101F30001438016841F0040101600068694600F04E
:101F4000040005900F2000900320CDE90105104802
:101F500000F00EFB104C0F48C4E900050015A56009
:101F6000C4E90350800060618000A0618011C4E971
:101F700007052046656200F08BF908B1FFF755FCB4
:101F8000B463A66306B070BD00200140443802402F
:101F90000008024010640240B0B60020F8B50E46BA
:101FA00000210446009190F83C00012807D0012050
:101FB00084F83C0020688368DB0702D011E002202F
:101FC000F8BD836843F0010383603748374B0068EE
:101FD000B0FBF3F000EB400000E0401E0090002852
:101FE000FBD120688368DB075CD0236C40F201657D
:101FF000AB4343F4807323644068400505D5206CEF
:1020000020F4005040F480502064206CC00404D5BB
:10201000606C20F00600606400E0616484F83C10AD
:10202000A16B2448224DC863A16B23480864A16BAF
:102030002248C86421686FF0220008602068416867
:1020400041F0806141602068816841F48071816065
:102050002168134632464C31A06B00F083F9686862
:102060001749C006206806D088421BD1816811F04C
:10207000405F13D016E08842F8D0124A904203D154
:10208000D1F80423D206F1D00F4A90420AD1D1F8F8
:10209000041301F01F011029E8D303E0816841F027
:1020A000804181600020F8BD7C00002040420F008C
:1020B0000023014095090008190A0008030A0008D6
:1020C00000200140002101400022014090F835101D
:1020D000022903D08021416501207047052180F845
:1020E00035100068016821F001010160002070478F
:1020F0002DE9F84304464FF00009CDF800906348FD
:102100004FF41651A56D0068B0FBF1F72E6894F8F6
:102110005C10082000FA01F131420FD021680A68F2
:1021200052070BD50A6822F004020A6094F85C108A
:102130008840A860606D40F00100606594F85C1014
:102140004FF0010808FA01F0304208D021684969CF
:10215000090604D5A860606D40F00200606594F83F
:102160005C1004208840304208D021680968890743
:1021700004D5A860606D40F00400606594F85C10C0
:1021800010208840304218D021680968090714D50A
:10219000A86020680168490304D50068000308D5D9
:1021A000A16C07E00168C90503D4016821F00801AA
:1021B0000160216C09B12046884794F85C1020200A
:1021C0008840304231D021680968C9062DD5A86001
:1021D00094F8350005282068016806D0490347D5E2
:1021E000006800031DD4616C1CE021F01601016041
:1021F0002068416921F080014161206C08B9A06C20
:1022000020B12068016821F00801016094F85C1099
:102210003F208840A86084F8349084F83580216D90
:102220001FE0E16B09B120468847606D00282BD084
:10223000606DC00714D0052084F83500206801685F
:1022400021F0010101600098401C0090B84203D8C1
:1022500020680068C007F6D184F8349084F835808F
:10226000E16C002910D001B02046BDE8F0430847DA
:102270000168C905D5D4016821F01001016084F816
:10228000349084F83580CCE7BDE8F8837C000020EA
:102290002DE9F041044600F049FA06465CB10025FC
:1022A00084F83450022084F835002068016821F059
:1022B000010101600DE00120BDE8F08100F036FA77
:1022C000801B052805D920206065032084F835008F
:1022D000F2E720680068C007F0D122681168204842
:1022E0000140D4E901031843D4E9033633431843CA
:1022F00063691843A3691843E3691843236A1843C1
:102300000843616A042903D1D4E90B131943084334
:10231000106020684069666A20F0070130460E436D
:10232000012704280CD1A06A0643E06A40B1204688
:10233000FFF736FA20B14020606584F83570BAE7BF
:10234000206846612046FFF717FA94F85C203F2189
:1023500091408160656584F835700020ACE700002D
:102360003F8010F02DE9F0410446866D90F834006E
:10237000002501280DD0012084F8340094F8357030
:102380000020012F07D084F8340002252846BDE83C
:10239000F0810220FBE7022784F835706065204653
:1023A000FFF728FA94F85C103F208840B06020685E
:1023B000016841F0160101602068416941F0800127
:1023C0004161206C20B12068016841F00801016082
:1023D0002068016841F001010160D7E770B504464B
:1023E00000F0A4F90546601C02D0044800780444BB
:1023F00000F09CF9401BA042FAD370BD8000002081
:102400002DE9F047044622480F46017E01290AD0F3
:102410000121804601764CF250394846FFF7F2FA26
:10242000020003D02FE00220BDE8F0874FF0FF301C
:1024300038602068174D012801D0A6681CE0207C78
:102440006168FFF74FFA4846FFF7DCFA0246286852
:1024500020F00400286014E0217C3046FFF7F0F9FA
:102460004846FFF7CFFA0200286820F0FA002860FB
:1024700001D03E6005E0761CD4E902100844B04269
:10248000EAD8FFF705FA002188F818101046CBE7C4
:10249000A0B20020103C02400348016841F0004116
:1024A0000160002070470000103C02402DE9F04719
:1024B0001B4E05461446307E1F468946012808D02B
:1024C000012030764CF250384046FFF79BFA18B1A5
:1024D00014E00220BDE8F0879DB1012D16D0022D39
:1024E00019D022463B464846FFF720FA4046FFF700
:1024F00089FA0C490A6822F001020A60002131764B
:10250000E8E7E1B24846FFF701FAEFE7A1B2484633
:10251000FFF720FAEAE721464846FFF72DFAE5E7FC
:10252000A0B20020103C0240074900200A68002A9F
:1025300009DA054A054B0C3A1360054B136009682C
:10254000002900DA01207047103C02402301674552
:10255000AB89EFCD70470000044910B50A6802420C
:1025600002D00860FFF7F6FF10BD0000143C0140E8
:102570002DE9F84FDFF87CB100224FF001084FF051
:10258000030A4FF00F090BF1040E00BF0B6808FAA5
:1025900002F42340A3426ED14D68022D01D0122DCA
:1025A0000ED1D50800EB850CDCF820505607F70E4D
:1025B00009FA07F6B5430E69BE402E43CCF82060F9
:1025C000066855000F790AFA05FC07F0030726EAAA
:1025D0000C06AF40374307604E68012E05D0022E2F
:1025E00003D0112E01D0122E0ED18668CF6826EAB4
:1025F0000C06AF40374387604668A6430C79C4F3A6
:102600000014944034434460C6688C6826EA0C0683
:10261000AC403443C4604C68E40065D5364C256852
:1026200045F480452560246822F0030504F48044C5
:102630000094324C2E19D6F8084895072F0F09FA46
:1026400007F5AC432E4DA84201D1002524E02D4DC5
:10265000A84201D101251FE02B4DA84201D102253E
:102660001AE02A4DA84201D1032515E0284DA842C1
:1026700002D1042510E037E0264DA84201D10525FE
:102680000AE0254DA84201D1062505E0234DA842C8
:1026900001D1072500E00825BD402543C6F80858AC
:1026A000DBF800405D464E689C43F60300D51C43B2
:1026B0002C60DEF8004075464E689C43B60300D59A
:1026C0001C432C600B4D08352C684E689C43F60269
:1026D00000D51C432C60074D0C352C684E689C437C
:1026E000B60200D51C432C60521C102AFFF44EAFDA
:1026F000BDE8F88F003C0140443802400030014002
:10270000000002400004024000080240000C0240A9
:10271000001002400014024000180240001C024059
:102720000AB1816170470904FBE700000148806835
:1027300070470000800000200B4810B5016841F48C
:1027400000710160016841F480610160016841F439
:1027500080710160032000F08DF8002000F006F881
:1027600000F03EF8002010BD003C024010B50146CC
:1027700088B00022362000F05DF8362000F04CF8DA
:1027800013480024016841F010010160006805A9A8
:1027900000F010000690684600F016F900F034F9D9
:1027A0000C494000B0FBF1F10C480B4A491E026095
:1027B00040F2E732C0E90324C0E9011400F04DFB08
:1027C00010B1012008B010BD044800F062FBF9E729
:1027D0004038024040420F000010004060C000201E
:1027E0000C4882B0016841F480410160006800F447
:1027F000804000900748001F016841F0805101604F
:102800000068002200F0805000900F21901E02B05E
:1028100000F010B844380240002809DB00F01F0225
:10282000012191404009800000F1E020C0F8001132
:1028300070470000F0B40E4B1B680C46C3F3022334
:10284000C3F10705042D00D90425191D072901D25C
:10285000002300E0DB1E012606FA05F1491E214097
:1028600099409E40761E16403143F0BC03F029BECD
:102870000CED00E0064900F0070208684FF6FF0380
:10288000184040EA0220034A1043086070470000E5
:102890000CED00E00000FA052DE9F0470E460500BA
:1028A00065D0DFF81481D8F80000F7B200F00F000F
:1028B000B04207D288F80070D8F8000000F00F008E
:1028C000B04254D128683D4C810712D5400703D54A
:1028D000206840F4E05020602878000703D5206885
:1028E00040F4604020602068A96820F0F0000843B0
:1028F00020602878C0072DD0304968680839012841
:1029000012D0022813D0032811D0096889070029A2
:102910002DDA216821F0030101432160FFF706FF52
:10292000814641F2883A0EE009688903EFE70968B9
:102930008901ECE7FFF7FAFEA0EB0901514502D946
:102940000320BDE8F0872068696800F00C00B0EB58
:10295000810FEFD1D8F80010404601F00F01B142CD
:1029600007D90770006800F00F00B04201D00120C5
:10297000E7E72878400705D52068E96820F4E050AB
:10298000084320602878000706D52068296920F4CC
:10299000604040EAC100206000F056F82168084A13
:1029A000C1F30311515CC840064908600020FFF7DD
:1029B000DDFE0020C5E70000003C02400838024070
:1029C000EC8C00087C0000200F2202600C4A136887
:1029D00003F003034360136803F0F003836013689C
:1029E00003F4E053C36012684FF4E05303EAD202E9
:1029F00002610448006800F00F00086070470000A2
:102A000008380240003C0240044805490068096853
:102A1000044AC1F38221515CC84070477C00002009
:102A200008380240FC8C0008044805490068096821
:102A3000044AC1F34231515CC84070477C00002019
:102A400008380240FC8C0008154810B5006810F0EA
:102A50000C02144813D04110042A0FD0082A0ED1BA
:102A60000F4C241F2268236802F03F025B0207D547
:102A70002068C0F38810A0FB010106E0084610BDE5
:102A80002168C1F38811A1FB00010023FDF7F8FBC9
:102A90002168C1F30141491C4900B0FBF1F010BDB0
:102AA000083802400024F4002DE9F84F050076D0E4
:102AB0002878DFF8F8B2BE4CC00749D0DBF8001028
:102AC0005846C1F38101012908D00068C0F3810094
:102AD00002280AD1201D0068400206D52068800324
:102AE00036D568680028E2D032E06868B0F5803FEB
:102AF00010D0B0F5A02F206810D020F480302060D6
:102B0000206820F4802020606868A0B1FFF70EFEE6
:102B100006460CE0206840F48030F4E740F4802062
:102B20002060F7E7FFF702FE801B642873D8206857
:102B30008003F7D50CE0FFF7F9FD064605E000BF7E
:102B4000FFF7F4FD801B6428F0D820688003F7D4D9
:102B50002878DFF8608280074FF000093ED5DBF867
:102B60000010584611F00C0F09D00068C0F3810026
:102B700002280BD18D48001F0068400206D420684F
:102B8000800715D5E868012809D111E0E868B8B1D7
:102B90000120C8F80000FFF7C9FD064605E002E184
:102BA000FFF7C4FD801B0228C0D820688007F7D536
:102BB0002068296920F0F80040EAC10020600DE09B
:102BC000C8F80090FFF7B2FD064604E0FFF7AEFD3F
:102BD000801B02281FD820688007F7D428780007B8
:102BE00022D5724E744869696C3671B10121016059
:102BF000FFF79CFD074604E0FFF798FDC01B022885
:102C000009D830688007F7D50EE0C0F80090FFF7CC
:102C10008DFD074605E083E0FFF788FDC01B022815
:102C20007ED830688007F7D42878400768D5DFF869
:102C30007CA100270AF1380ADAF80000C0000BD4A2
:102C4000DAF8001041F08051CAF80010DAF80000FC
:102C5000012700F080500090584E3068C00510D415
:102C6000306840F480703060FFF760FD009005E050
:102C7000FFF75CFD0099401A022851D83068C00562
:102C8000F6D54A4EA868683601280FD00528306866
:102C900010D020F001003060306820F00400306077
:102CA000A868B8B1FFF742FD00900FE0306840F02F
:102CB0000100F4E740F004003060F7E7FFF736FD6D
:102CC0000099411A41F28830814264D83068800707
:102CD000F4D50EE0FFF72AFD009007E0FFF726FD90
:102CE0000099411A41F28830814254D830688007F7
:102CF000F4D42FB1DAF8001021F08051CAF8001096
:102D0000A869C0B3DBF80010C1F3810102294AD0E1
:102D10000228484607D0C8F86000FFF707FD00E02A
:102D200039E005463AE04746C8F86000FFF7FEFC88
:102D3000064604E0FFF7FAFC801B02282BD8206827
:102D40008001F7D4D5E907010843A96A1C4A49085C
:102D500002EB01416A6A41EA8211084395F82C109E
:102D600040EA01611148001F016001203866FFF749
:102D7000DDFC054605E014E0FFF7D8FC401B022807
:102D800009D820688001F7D50BE000BFFFF7CEFC23
:102D9000401B022802D90320BDE8F88F206880017B
:102DA000F4D40020F8E70120F6E7000008380240DC
:102DB0000038024000004742800E47420070004049
:102DC0000000FFFF10B590F83C20012A22D001221C
:102DD00080F83C20CA688C6822F4407222434C6818
:102DE00022F4806222430C6822F4006222430C69C0
:102DF00022F4805222434C6922F400522243C969D2
:102E0000002322F480420A4301684A6480F83C307F
:102E1000002010BD022010BD70B590F83C20012AA2
:102E200019D0012400F83C4F0222427050F83C3C7B
:102E30005A689D6822F070060A684968324325F096
:102E4000800529435A6050F83C2C91604470002161
:102E50000170084670BD022070BD10B5040003D09B
:102E600094F83D0010B107E0012010BD002084F867
:102E70003C00204600F00CF8022084F83D00211DA3
:102E8000206802F0DBFD012084F83D00002010BD29
:102E900070470168CA6842F00102CA600068816830
:102EA00001F00701062903D0016841F0010101602A
:102EB000002070472DE9F041044690F83C000D4693
:102EC00001283DD0012684F83C60022084F83D00B2
:102ED000AAB3042A46D02068082A55D0D5E900278D
:102EE000E968036A23F480530362D0F81CC0036AC4
:102EF0002CF4407C4CEA07274FF6FF7C27F4704700
:102F00000CEA013139434FF4204723F4204307EA08
:102F100002321A43C16102622068C16921F4406132
:102F2000C1612068C169AA6841EA0221C0F81C1089
:102F300084F83D60002084F83C00BDE8F08101E0A9
:102F40000220FAE7D5E90012EB68206802F0AAFE39
:102F50002068816921F00C01816120688169AA687B
:102F600011430FE0D5E90012EB68206802F0DAFEA9
:102F70002068816921F44061816120688169AA68C3
:102F800041EA02218161D3E7D5E9002C2F7B016A58
:102F900021F480710162C169036A21F0030141EAF1
:102FA0000C0121F0F00C39074FF420674CEA116155
:102FB00023F4206307EA02221A43C16102622068F7
:102FC000C16921F00C01C1612068C169AA6811437F
:102FD000ACE710B5040003D094F83D0010B107E051
:102FE000012010BD002084F83C00204600F00CF8C1
:102FF000022084F83D00211D206802F01FFD012001
:1030000084F83D00002010BD30B587B0044614217F
:103010006846FDF77FF92B4A216800242A480225DB
:1030200091421CD1284914310A6842F001020A6019
:10303000096801F001010591016841F0100101608A
:103040000068694600F0100005904FF4D4400090ED
:10305000CDE901540120CDE903401C482EE01C4A73
:1030600091422DD1184910310A6842F002020A60DB
:10307000096801F002010591016841F00101016058
:10308000016801F001010591016841F00201016050
:103090000068694600F002000590C0200090CDE96C
:1030A00001540C48CDE90345FFF762FA0320009074
:1030B000CDE9015469460848CDE90345FFF758FAC0
:1030C00007B030BD0000014030380240001002401F
:1030D00000040040000002400004024010B5044615
:1030E0000068012202F00EFD2068816801F00701EE
:1030F000062903D0016841F001010160002010BDE4
:1031000070B586B0044614216846FDF703F92168BE
:1031100000242B480225B1F1804F17D0294A914253
:1031200038D1016841F0080101600068694600F08B
:10313000080005904FF470400090CDE901542248FA
:10314000CDE90345FFF714FA06B070BD016841F000
:1031500001010160016801F001010591016841F080
:10316000020101600068012600F0020005902020A5
:103170000090CDE90154CDE9034669461348FFF7B5
:10318000F7F908200090CDE90154CDE903466946DE
:103190000F48D7E70F4A9142D6D1016841F00401A8
:1031A00001600068694600F0040005904FF440702B
:1031B0000090CDE901540320CDE903400648C1E762
:1031C0003038024000080040000C0240000002407D
:1031D00000040240000401400008024070B50446AB
:1031E00090F83C000D4601280DD0012684F83C6083
:1031F000022084F83D0042B1042A18D0082A2AD0BF
:103200000C2A4DD139E0022070BD206802F088FC04
:103210002068816941F0080181612068816921F09D
:1032200004018161206881692A69114311E02068E5
:1032300002F0A6FC2068816941F400618161206888
:10324000816921F480618161206881692A6941EA8C
:103250000221816124E0206802F0C8FC2068C16975
:1032600041F00801C1612068C16921F00401C16118
:103270002068C1692A69114311E0206802F0EAFC64
:103280002068C16941F40061C1612068C16921F40D
:103290008061C1612068C1692A6941EA0221C16176
:1032A00084F83D60002084F83C0070BD10B5040037
:1032B00003D094F83D0010B107E0012010BD0020BC
:1032C00084F83C00204600F00DF8022084F83D0010
:1032D000211D206802F0B2FB012084F83D0000208F
:1032E00010BD000008B501681248B1F1804F0BD045
:1032F000114A914210D1016841F004010160006857
:1033000000F00400009008BD016841F00101016077
:10331000006800F00100F5E708488142F3D1054854
:10332000001D016841F002010160006800F0020028
:10333000E8E7000040380240000800400004014077
:1033400010B504460068012202F0DCFB0B4920683E
:10335000884202D00A49884203D1416C41F40041BD
:1033600041642068816801F00701062903D00168E3
:1033700041F001010160002010BD0000000001408B
:10338000000401402DE9F0410646C06B164F0025B0
:10339000E0B13C6818E02068B04214D1207EE560BE
:1033A00050B1A560208A616882B2304600F09AFB75
:1033B000E069401CE06109E0208A616882B2304621
:1033C00000F044FBF4E7246A002CE4D1796807E0BC
:1033D0000868B04203D181F82050BDE8F081496A05
:1033E0000029F5D1F9E700007400002070B50268EB
:1033F00004461068D168536910F00F0F50D003F0E5
:10340000010501F4907635435DD0C20705D0CA05A9
:1034100003D5E26B42F00102E263420705D5DA0709
:1034200003D0E26B42F00202E263820705D5DA07BD
:1034300003D0E26B42F00402E263020705D5DA072B
:1034400003D0E26B42F00802E263E26B002A33D061
:10345000800604D5880602D5204602F0A3FD206828
:103460004069E16BC0F38010090700D428B32046FF
:1034700002F010FD2068416949061AD5416921F022
:1034800040014161606BA0B11B490165606BFEF7B3
:103490001DFE002810D0606B016DBDE8704008472C
:1034A000830610D58B060ED52046BDE8704002F08D
:1034B00079BD2046FFF766FF70BD2046FFF762FF2B
:1034C0000020E06370BD030606D50B0604D5204638
:1034D000BDE8704002F07BBF4006F3D54806F1D549
:1034E000D168204621F04001D160202184F83910B4
:1034F00000F09AFB70BD0000BD5D000870B50400CF
:1035000004D094F83900002510B106E0012070BD08
:1035100084F83850204600F023F8242084F839003D
:103520002068C16821F40051C160204602F086FD88
:103530002068016921F4904101612068416921F00E
:103540002A0141612068C16841F40051C160E5630E
:10355000202084F8390084F83A00002070BD000073
:103560002DE9F04F87B0044614216846FCF7D2FEDF
:10357000F948F84B1038D4F800C0DFF8DCE3022734
:1035800001210322002506154FF480794FF0400AEF
:103590004FF0006B9C4565D1DEF800C04CF4002C68
:1035A000CEF800C0DEF8003003F400230593036872
:1035B00043F001030360036803F00103059303680C
:1035C00043F0040303600068009700F004000590D6
:1035D0000120CDE901700820CDE90320904669461D
:1035E000DE48FEF7C5FF3046CDE900070120CDE9F2
:1035F0000208082004906946D948FEF7B9FFDA4E60
:10360000D8485F463060C6E901B50015C6E90350E9
:103610007561C6E90659356230467562FEF738FEB7
:1036200008B1FEF702F96663B463CF4ECD48603649
:10363000303086E881040015C6E903507561B56134
:10364000F561356230467562FEF722FE08B1FEF77D
:10365000ECF82663002205213420B463FFF7EAF872
:1036600034206AE0C14B9C456CD1DEF800C04CF4BC
:10367000801CCEF800C0DEF8003003F48013059300
:10368000036843F004030360036803F00403059335
:10369000036843F0080303600068B84600F00800C0
:1036A00005904FF48050CDE90007012002900320DF
:1036B0000827CDE903076946A948FEF759FF04200A
:1036C000CDE90008012002900320CDE903076946F7
:1036D000A748FEF74DFFA44FA248C03730383860E6
:1036E000C7E901B5C7E903567D61C7E906593D62DF
:1036F00038467D62FEF7CCFD08B1FEF796F86763A9
:10370000BC639C4F9748C7F808A0C7E903567D6182
:10371000BD61FD613D6278307D62C7E9000B3846CE
:10372000FEF7B6FD08B1FEF780F8276300220521F9
:103730003520BC63FFF77EF83520FFF76DF807B042
:10374000BDE8F08F844BDFF830821B1DC44550D19B
:10375000D3F800C04CF0100CC3F800C01B6803F095
:1037600010030593036843F0010303600068CDE98B
:10377000021200F0010005904FF4C060CDE900078F
:103780000720049069467548FEF7F2FE794F7B48A2
:103790006037C7F808A0C7E903567D61BD61FD61C8
:1037A0003D627D62C7E9000B3846FEF771FD08B146
:1037B000FEF73BF82763BC636E4F7048C03778381C
:1037C0003860C7E901B5C7E903567D61C7E9065905
:1037D0003D6238467D62FEF75BFD08B1FEF725F8D5
:1037E0006763002205212520BC63FFF723F825200D
:1037F000A3E7DFF88C81C44550D1DEF800C04CF45B
:10380000003CCEF800C0DEF8003003F4003305932E
:10381000036843F0010303600068CDE9021200F081
:10382000010005900C20CDE90007072004906946AF
:103830004A48FEF79DFE534F4A48C7F808A0C7E91B
:1038400003567D61BD61FD613D6260307D62C7E907
:10385000000B3846FEF71CFD08B1FDF7E6FF2763B5
:10386000BC63484F3F48603748303860C7E901B50E
:10387000C7E903567D61C7E906593D6238467D6256
:10388000FEF706FD08B1FDF7D0FF676300220521B2
:103890002620BC63FEF7CEFF26204EE7DFF8E88047
:1038A000C44577D1DEF800C0A8464CF4802CCEF891
:1038B00000C0DEF8003003F480230593036843F072
:1038C000020303600068CDE9021200F002000590D7
:1038D0004FF44060CDE900070720049069462B486B
:1038E000FEF746FE27481F49C0301831C0E903568D
:1038F00045618561C56105625F46456280E8820475
:10390000FEF7C6FC08B1FDF790FF1E48204DC03001
:103910002063846313481838C5E90007C5F8088098
:10392000C5E90386C5F81480C5E90689C5F8208075
:103930002846C5F82480FEF7ABFC08B1FDF775FFFB
:103940006563002205212720AC63FEF773FF272063
:10395000F3E61FE0004C0040403802400000024007
:103960000008024040600240E0BB002000500040E0
:10397000000C024000BD002000100140B86402406D
:103980000044004020BE00200048004000040240E7
:1039900040BF0020DFF8A480C4457FF4D0AED3F848
:1039A00000C04CF0200CC3F800C01B6803F02003DB
:1039B0000593036843F0040303600068CDE9021235
:1039C00000F004000590C020CDE900070820049015
:1039D00069461B48FEF7CCFD1B4F1A484FF0206884
:1039E000C7E903567D61BD61FD613D627D6287E887
:1039F00001053846FEF74CFC08B1FDF716FF2763BA
:103A0000BC63114F0F48603778383860C7E90185CB
:103A1000C7E903567D61C7E906593D6238467D62B4
:103A2000FEF736FC08B1FDF700FF676300220521B1
:103A30004720BC63FEF7FEFE47207EE600140140EF
:103A400000080240A0640240A0BF0020F8B5044670
:103A500090F83A0020283CD1C1B3BAB394F83800AA
:103A6000012836D0012084F83800A162A285002503
:103A7000E563222084F83A00636B1748D863636BD0
:103A800016481864636B1648D864606B1346056566
:103A90000846666B216802463046091DFEF762FC47
:103AA000206801684168009184F83850C16841F489
:103AB0008071C1602068416941F001014161206865
:103AC000416941F0400141610020F8BDFFE701205C
:103AD000FBE70220F9E70000175E0008535E0008CC
:103AE000CD5D000890F83A30202B22D1F9B1F2B127
:103AF00090F83830012B1CD081628285C28500216C
:103B0000C163222280F83A2080F838100168CA6820
:103B100042F48072CA6001684A6942F001024A6157
:103B20000068C16841F02001C16000207047012099
:103B30007047022070470000094909680DE00A68D3
:103B4000824209D10A7E012A09D100228A600A8AAA
:103B5000496892B2FFF7C6BF096A0029EFD17047E2
:103B6000740000207047000070B5044690F83900DA
:103B7000202830D169B362B394F8380001282AD0E4
:103B8000012084F838002162A284E2840025E563E4
:103B9000212084F83900236B1048D863236B104828
:103BA0001864236B0F48D864206B1346056526689C
:103BB000206B321DFEF7D6FB21686FF040000860D5
:103BC00084F838502068416941F08001416100204B
:103BD00070BD012070BD022070BD00005D5E000858
:103BE0008B5E0008CD5D000890F83930202B18D18D
:103BF000A9B1A2B190F83830012B12D001628284B1
:103C0000C2840021C163212280F8392080F8381055
:103C10000068C16841F08001C16000207047012048
:103C2000704702207047000001460648406805E0E2
:103C300002688A4201D102F077BB406A0028F7D1BE
:103C400070470000740000207047FEE770B5010067
:103C50001048114E4FF4005505D0012914D0022907
:103C600015D0032909D0012220210446FEF758FD72
:103C7000012240212046FEF753FD0122294630460D
:103C8000BDE87040FEF74CBD01222021F8E701227B
:103C90004021F5E7001002400008024070B5010025
:103CA0001048114E4FF4005505D0012914D00229B7
:103CB00015D0032909D0002220210446FEF730FD4B
:103CC000002240212046FEF72BFD002229463046E7
:103CD000BDE87040FEF724BD00222021F8E7002255
:103CE0004021F5E700100240000802402DE9F041B4
:103CF000274B284D1E15284CDF14012906D0052816
:103D000044D2DFE800F023353940320005283DD2A7
:103D1000DFE800F0031416181200002204211846F0
:103D2000FEF7FEFC002280212846FEF7F9FC002267
:103D300031462046FEF7F4FC002217E0002218E08E
:103D400000221AE000221FE0204618E00122042190
:103D50001846FEF7E5FC012280212846FEF7E0FC2C
:103D6000012231462046FEF7DBFC01223946EBE713
:103D700001220421184602E0012280212846BDE8E4
:103D8000F041FEF7CDBC01223146DDE7BDE8F08110
:103D90000004024000100240000C024010B5074C25
:103DA00000224FF480712046FEF7BAFC0022611514
:103DB0002046BDE81040FEF7B3BC000000040240FE
:103DC0007FB500212648009101910291234A039179
:103DD000026001244FF480320461C0E901210476BD
:103DE00080F820101F4AC0E90A210425C561C1607E
:103DF00080F830404461FEF75AF808B1FDF715FD30
:103E00000A20CDE900040720029069461448FDF716
:103E1000A5FF08B1FDF709FD0B20009002200190DD
:103E200069460F48FDF79AFF08B1FDF7FEFC0C202C
:103E300000900320019069460948FDF78FFF08B103
:103E4000FDF7F3FC0D20CDE9000569460448FDF7B8
:103E500085FF002801D0FDF7E8FC7FBD0020014070
:103E600068B600200100000F3D4808B5016841F424
:103E700000110160016801F400110091016841F432
:103E8000800101600068002200F48000009005219C
:103E90000B20FEF7CFFC0B20FEF7BEFC0022052115
:103EA0000C20FEF7C7FC0C20FEF7B6FC0022052113
:103EB0000D20FEF7BFFC0D20FEF7AEFC0022052111
:103EC0000E20FEF7B7FC0E20FEF7A6FC002205210F
:103ED0000F20FEF7AFFC0F20FEF79EFC002205210D
:103EE0001020FEF7A7FC1020FEF796FC002205210B
:103EF0001120FEF79FFC1120FEF78EFC0022052109
:103F00002F20FEF797FC2F20FEF786FC00220521CC
:103F10003820FEF78FFC3820FEF77EFC00220521BA
:103F20003920FEF787FC3920FEF776FC00220521B8
:103F30003A20FEF77FFC3A20FEF76EFC00220521B6
:103F40004520FEF777FC4520FEF766FC00220521A0
:103F50004620FEF76FFCBDE808404620FEF75CBC3B
:103F60003038024010B594B010220FA95E48FEF719
:103F700015F800215D48FFF7B1F804215B48FFF711
:103F8000ADF808215948FFF7A9F80C215748FFF769
:103F9000A5F800215648FFF7A1F804215448FFF77F
:103FA0009DF808215248FFF799F80C215048FFF777
:103FB00095F800214F48FFF7C3F904214D48FFF75A
:103FC000BFF900214C48FFF7BBF904214A48FFF72D
:103FD000B7F908214848FFF7B3F90C214648FFF725
:103FE000AFF908214548FFF7ABF90C214348FFF72B
:103FF000A7F9002364224249424801F094FF414856
:10400000002364223E492C3002F06EF93D48002323
:1040100064223D49583001F086FF3A48002364226B
:104020003949843002F060F9364800236422374968
:10403000B03001F078FF3348002364223349DC308C
:1040400002F052F9002380223149324801F06BFF1F
:104050003048002380222E492C3002F045F92D48AB
:104060004FF40074002322462B49583001F05BFFC7
:104070002848002322462849843002F035F9254893
:10408000002362102549B03001F04DFF2148002384
:1040900064222249DC3002F027F9FDF7C9FD03F064
:1040A00041FD14221E496846FCF71BF900216846B1
:1040B00003F066FA1B4C1A4914222060143105A83B
:1040C000FCF70FF9002105A803F05AFA14496060C3
:1040D000142228310AA8FCF704F900210AA803F0E9
:1040E0004FFAA06014B010BD68B6002020B90020BF
:1040F000A0B9002060B90020E0B9002020BA00205B
:10410000A0BA002010B7002020BB002060BB002018
:1041100060BA002018B80020E0BA0020A0BB002040
:104120000C8D0008A80000202DE9F04F87B0142165
:104130006846FCF7EFF85A480024016841F0100186
:104140000160016801F010010591016841F004016E
:104150000160016801F004010591016841F08001EE
:104160000160016801F080010591016841F00101E1
:104170000160016801F001010591016841F002014F
:104180000160016801F002010591016841F0080138
:1041900001600068002200F008000590602141489D
:1041A000FEF7BEFADFF800914FF4005700223946BF
:1041B0004846FEF7B5FADFF8F4A001224FF441714A
:1041C0005046FEF7ADFA012280213648FEF7A8FAE4
:1041D000DFF8DCB04FF44076002231465846FEF757
:1041E0009FFA4FF44068012241465846FEF798FA7C
:1041F0000125E020CDE90005CDE9025469462948B2
:10420000FEF7B6F90097CDE9015469464846039494
:10421000FEF7AEF9CDE90054694626480294FEF750
:10422000A7F90420022703948DE8A10069465046AF
:10423000FEF79EF9CDE90274CDE90065694658465E
:10424000FEF796F9CDF80080CDE90154694658464D
:104250000394FEF78DF90096CDE901546946504666
:104260000394FEF785F9032000901348CDE901057A
:1042700069460C48FEF77CF9002205210620FEF76E
:10428000D9FA0620FEF7C8FA002205210720FEF71A
:10429000D1FA0720FEF7C0FA07B0BDE8F08F0000A2
:1042A0003038024000100240000802400004024082
:1042B000000C0240000002400000111010B586B052
:1042C0000024254805940494009401940294214903
:1042D00003940160A721C0E901144FF6FF71C0E902
:1042E000031444618461FEF774FE08B1FDF79DFA82
:1042F000049404A918480594FEF78EFD08B1FDF753
:1043000094FA0120CDE90040029400226946124847
:104310000394FEF7CFFD08B1FDF787FA0422694642
:104320000D48FEF7C7FD08B1FDF77FFA0822694680
:104330000948FEF7BFFD08B1FDF777FA0C22694680
:104340000548FEF7B7FD002801D0FDF76EFA06B06C
:1043500010BD00000000014020B9002010B58AB057
:10436000002407941C2168460894FBF7D3FF1A48E1
:104370004FF0804101605321C0E9011440F2E73160
:10438000C0E903148461FEF791FF08B1FDF74DFA0F
:10439000079407A910480894FEF73EFD08B1FDF701
:1043A00044FA6020CDE900040294002269460A48DC
:1043B0000494FEF713FF08B1FDF737FA04226946AB
:1043C0000548FEF70BFF08B1FDF72FFA0248FEF78C
:1043D00097FE0AB010BD000060B9002010B586B08D
:1043E00000242448059404940094019402942049E4
:1043F000039401605321C0E901144FF6FF71C0E935
:1044000003148461FEF7E5FD08B1FDF70EFA04948C
:1044100004A918480594FEF7FFFC08B1FDF705FA5A
:104420000120CDE90040029400226946114803941E
:10443000FEF740FD08B1FDF7F8F9042269460D4882
:10444000FEF738FD08B1FDF7F0F908226946094882
:10445000FEF730FD08B1FDF7E8F90C226946054882
:10446000FEF728FD002801D0FDF7DFF906B010BDEA
:1044700000040040A0B9002010B58AB000240794C1
:104480001C2168460894FBF745FF2248204901603B
:104490005321C0E9011440F2E731C0E903148461FB
:1044A000FEF704FF08B1FDF7C0F9079407A9194802
:1044B0000894FEF7B1FC08B1FDF7B7F96020CDE92B
:1044C000000402940022694612480494FEF786FE16
:1044D00008B1FDF7AAF9042269460E48FEF77EFEF0
:1044E00008B1FDF7A2F9082269460A48FEF776FEF0
:1044F00008B1FDF79AF90C2269460648FEF76EFEF0
:1045000008B1FDF792F90348FEF7FAFD0AB010BDB5
:1045100000080040E0B9002010B592B000240F94CC
:104520001C2168461094FBF7F5FE202107A8FBF735
:10453000F1FE244822490160A721C0E9011440F29C
:10454000E731C0E9031444618461FEF7AFFE08B1AE
:10455000FDF76BF90F940FA91A481094FEF75CFC55
:1045600008B1FDF762F96020CDE9000402940394DC
:10457000049405940822694612480694FEF72EFE1C
:1045800008B1FDF752F90C2269460E48FEF726FEE7
:1045900008B1FDF74AF90794089409944FF40050C4
:1045A0000A94CDE90B4007A906480E94FEF70AFCD1
:1045B00008B1FDF73AF90348FEF7A2FD12B010BDAD
:1045C0000004014020BA00200C4810B50A490160DF
:1045D0004FF4E1314160002181600C22C160C0E9EB
:1045E00004128161C161FEF789FF002803D0BDE894
:1045F0001040FDF71AB910BD004C004060BA002011
:104600000C4810B50A4901604FF4E13141600021C6
:1046100081600C22C160C0E904128161C161FEF7B2
:104620006DFF002803D0BDE81040FDF7FEB810BDB7
:1046300000500040A0BA00200C4810B50A490160A3
:104640004FF416514160002181600C22C160C0E925
:1046500004128161C161FEF751FF002803D0BDE85B
:104660001040FDF7E2B810BD00100140E0BA002094
:104670000C4810B50A4901604FF416514160002101
:1046800081600C22C160C0E904128161C161FEF742
:1046900035FF002803D0BDE81040FDF7C6B810BDB7
:1046A0000044004020BB00200C4810B50A490160BE
:1046B0004FF416514160002181600C22C160C0E9B5
:1046C00004128161C161FEF719FF002803D0BDE823
:1046D0001040FDF7AAB810BD0048004060BB0020A4
:1046E0000C4810B50A4901604FF416514160002191
:1046F00081600C22C160C0E904128161C161FEF7D2
:10470000FDFE002803D0BDE81040FDF78EB810BDB7
:1047100000140140A0BB0020FEE7704710B52DED4E
:10472000068BB0EE609AF0EE618A71EE400ADFED22
:10473000211A31EE000A20EEA18AF6EE000A20EEE0
:10474000200ADFED1D0A20EE200A10EE100AFBF70A
:1047500085FF41EC100B02F02BF9B0EE40AA38EEC9
:10476000C90AF0EE60AA10EE100AFBF777FF53ECCF
:104770001A2BFBF781FE9FED111B53EC112BFBF75E
:104780007BFEFBF797FF68EE080A00EE100A40EE8A
:10479000000A10EE900AFBF761FF41EC100B02F0EB
:1047A000CFF951EC100BFBF785FFBDEC068B00EE4B
:1047B000100A10BD00B1D84735FA8E3C0000000049
:1047C000602DFB4010B5B4EE410A2DED068BB0EE26
:1047D000618AF0EE608AF1EE10FA07D1F4EE488AB1
:1047E000F1EE10FA02D19FED2B0A47E031EE409A2C
:1047F00031EE000AF6EE000A20EE200ADFED260A6E
:1048000020EE200A10EE100AFBF728FF41EC100BF7
:1048100002F0CEF8B0EE40AA38EE680AF0EE60AAD8
:1048200010EE100AFBF71AFF53EC1A2BFBF724FECD
:10483000FBF740FFFBF712FF41EC180BB1EE490A02
:1048400010EE100AFBF70AFF41EC100BB0EE481A0D
:10485000F0EE681A01F0B4FF9FED101B51EC100B45
:1048600053EC112BFBF708FE9FED0E1B53EC112BA5
:10487000FBF75BFDFBF71EFF00EE100AB5EEC00A6A
:10488000F1EE10FA03D2DFED090A30EE200ABDEC9A
:10489000068B10BD0000000035FA8E3C00000020A1
:1048A000DCA54C4000000000008056400000B443EE
:1048B00000B5E5B0122269460448FDF7E9F8242264
:1048C00069460348FBF70DFD65B000BD00100E08FA
:1048D000043F002000B5E5B0242205496846FBF7F7
:1048E00000FD122269460348FDF7DCF865B000BD03
:1048F000043F002000100E082DE9F0410446444E0C
:1049000014F8060F60F30705607860F30F25A078B0
:1049100060F31745E07860F31F653560207960F338
:104920000705607960F30F25A07960F31745E079FA
:1049300060F31F6528467560FBF77FFE9FED351B12
:1049400053EC112BFBF798FD344FC7E90201207A95
:1049500060F30705607A60F30F25A07A60F31745CE
:10496000E07A60F31F652846B560FBF766FE9FEDB1
:10497000291B53EC112BFBF77FFDC7E90001207BBE
:1049800060F30705607B60F30F25A07B60F317459C
:10499000E07B60F31F652846F560FBF74EFE9FED58
:1049A000201B53EC112BFBF767FDC7E90401207CAA
:1049B00060F30705607C60F30F25A07C60F317456A
:1049C000E07C60F31F6500EE105A17483561B8EEC1
:1049D000C00A80ED040A207D60F30705607D60F366
:1049E0000F25A07D60F31745E07D60F31F657561BD
:1049F000207E60F30705607E60F30F25A07E60F3E4
:104A00001745E07E60F31F65B561BDE8F0810000E9
:104A100000B4002048AFBC9AF2D77A3E781E01203D
:104A2000FCA9F1D24D62503F8C00002070B50446C5
:104A30002DED048B807960F30705E07960F30F2595
:104A4000207A60F31745607A60F31F659FED938BC2
:104A500000EE105A9348B8EE400A80ED020AA07AA0
:104A600060F30705E07A60F30F258F480580217B0E
:104A70008170617BC170A17B0171E17B4171217CFF
:104A80008171617CC17114F8121F61F307056178AF
:104A900061F30F25A17861F31745E17861F31F6594
:104AA000217961F30705617961F30F25A17961F33C
:104AB000174514F8071F61F31F656178017214F838
:104AC000041F4172607860F30705A07860F30F253A
:104AD000E07860F31745207960F31F652846FBF7FF
:104AE000ACFD9FED729B53EC192BFBF7C5FC6E4E92
:104AF0001036C6E90201607960F30705A07960F31A
:104B00000F25E07960F31745207A60F31F6528468A
:104B1000FBF793FD53EC192BFBF7AEFCC6E9000144
:104B2000607A60F30705A07A60F30F25E07A60F3FE
:104B30001745207B60F31F652846FBF77EFD53EC8D
:104B4000182BFBF799FCC6E90401607B60F30705AD
:104B5000A07B60F30F25E07B60F31745207C60F3BA
:104B60001F65607C60F30705A07C60F30F25E07C87
:104B700060F31745207D60F31F65607D60F30705D6
:104B8000A07D60F30F25E07D60F31745207E60F384
:104B90001F65607E60F30705A07E60F30F25E07E51
:104BA00060F31745207F60F31F652846FBF745FD3E
:104BB00053EC182BFBF760FCFBF77CFD3062607F49
:104BC00060F30705A07F60F30F25E07F60F31745D2
:104BD00094F8200060F31F652846FBF72EFD53EC88
:104BE000182BFBF749FCFBF765FD706294F8210078
:104BF00094F8221060F30705284661F30F2094F81B
:104C0000231061F3174094F8241061F31F600546E8
:104C1000FBF713FD53EC182BFBF72EFCFBF74AFDBB
:104C2000B06294F8250094F8261060F30705284632
:104C300061F30F2094F8271061F3174094F82810BF
:104C400061F31F600546FBF7F8FC53EC182BFBF7EC
:104C500013FCFBF72FFDB06194F82910284661F38F
:104C6000070094F82A1061F30F2094F82B1061F3D9
:104C7000174094F82C1061F31F60FBF7DEFC9FEDEA
:104C80000D1B53EC112BFBF7F7FBFBF713FD0B4947
:104C9000F06101200862BDEC048B70BDFCA9F1D26B
:104CA0004D62503F8C000020681E012048AFBC9A26
:104CB000F2D77A3EF168E388B5F8E43ED03E0020B2
:104CC00010B582791C4C62F30701C27962F30F219F
:104CD000027A62F31741427A62F31F61154A11604A
:104CE000837A536084F8D03DC37A9360037BD360AA
:104CF000437B1361827B62F30701C27B62F30F2166
:104D0000027C62F31741427C62F31F61094A243A34
:104D10005161827C62F30701C27C62F30F21027D44
:104D2000407D62F3174160F31F61024824388161BE
:104D300010BD0000E4B30020A01001202DE9F041D7
:104D400004462DED028B14F8060F5B4E60F3070549
:104D5000607860F30F25A07860F31745E07860F382
:104D60001F6556483560C560207960F30705607996
:104D700060F30F25A07960F31745E07960F31F65B4
:104D800028467560FBF759FC9FED4D8B53EC182BB3
:104D9000FBF772FBFBF78EFC4B4FB86014F8080F63
:104DA00060F307056178284661F30F20A17861F36D
:104DB0001740E17861F31F600546B060FBF73DFCEA
:104DC00053EC182BFBF758FBFBF774FCF8602179C8
:104DD000284661F30700617961F30F20A17961F33F
:104DE0001740E17961F31F600546F060FBF725FC91
:104DF00053EC182BFBF740FBFBF75CFC3861217A86
:104E0000284661F30700617A61F30F20A17A61F30C
:104E10001740E17A61F31F6005463061FBF70DFC36
:104E200053EC182BFBF728FBFBF744FC3860207B86
:104E300060F30705607B60F30F25A07B60F31745E7
:104E4000E07B60F31F657561207C60F30705607C83
:104E500060F30F25A07C60F31745E07C60F31F65CD
:104E60002846B561FBF7E9FB9FED181B53EC112BAE
:104E7000FBF702FBFBF71EFC7860207D60F3070563
:104E8000607D60F30F25A07D60F31745E07D60F342
:104E90001F65F561207E60F30705607E60F30F25D6
:104EA000A07E60F31745E07E60F31F653562BDECC0
:104EB000028BBDE8F0810000C0B300208C00002010
:104EC0007B14AE47E17A843F901E0120F168E388AD
:104ED000B5F8E43E2DE9F047A74FDFF8A08207F5CB
:104EE00080642DED088B4FF0000CC179427B61F39B
:104EF0000703017AD4ED318A61F30F23417A94EDEF
:104F00002CBB61F31743817A94ED2AAB61F31F63E5
:104F1000C17A1D4661F30705017B807B61F30F2594
:104F2000294662F31741012294ED2E9B60F31F6125
:104F3000412B7DD012DC052B2FD0914E062B31D08A
:104F4000402B07D1072974D0082903D1C8F824C001
:104F500088F838C1BDEC088BBDE8F087602BF9D12B
:104F6000002967D0012966D0022965D0032979D0AC
:104F7000042978D0052977D0062976D0072975D05D
:104F8000082974D0092973D00A2972D00B2971D04D
:104F90000C29DFD188F800C1DCE7A929DAD188F82B
:104FA0003421D7E7744D572305F5C0409FED758A2E
:104FB00005F5B845052911D006295CD00729C9D1C6
:104FC00098F836110029C5D188F8372187F824349C
:104FD00080F8A2C20320C7F82804BBE788F835216F
:104FE00088F836C187F8243480F8A2C2C7F828248C
:104FF0003088C7F8D804E14607F22447B068FBF7C9
:105000002DFBE4E93C0196ED040B04ED040B96ED59
:10501000060B04ED020B96ED080A84ED020AD6EDAC
:10502000090AC4ED030AC7F80C9004ED2A9B04E0BA
:1050300064E040E065E071E085E004ED2EAB04ED56
:105040002CBB04ED280A44ED278AF86F786404ED40
:105050001C9B04ED20AB04ED1EBB04ED1A0A44EDCD
:10506000198A13E072E073E076E077E078E079E0A7
:105070007AE07BE07DE088F835C188F8362188F851
:1050800037C16D2180F8A212C7F828C485ED5F8A68
:1050900085ED608A85ED5E8A85ED6B8A85ED6C8A8B
:1050A00085ED6A8A85ED658A85ED668A85ED678A74
:1050B00085ED648A4EE7D8F82C10D8F82400884291
:1050C00010D200EB800006EBC0012C4888F8382194
:1050D0002822A830FBF705F9D8F82400401CC8F8AE
:1050E000240037E788F838C1C8F824C00821BDEC8F
:1050F000088B4020BDE8F04700F020B9C8E90AC19C
:1051000028E784ED129B84ED0EAB84ED10BBC4ED5B
:10511000158A94ED300A84ED140A1BE794ED3C0BDC
:1051200084ED2E0B94ED380B84ED2A0B94ED3A0BA5
:1051300084ED2C0B94ED3F0A84ED310A94ED3E0A88
:1051400084ED300A06E787F8252403E7102000E005
:10515000022087F82504FDE62020FAE70420F8E77E
:105160004020F6E70820F4E78020F2E787F825C41E
:10517000F0E688F80021EDE6A0C00020D03E002037
:10518000806400200000000010B5C11D24220448E6
:10519000FBF7A7F80348012180F8A01210BD00001A
:1051A000043F0020A02001202DE9F0413C4C0546A1
:1051B000002721783B4E04F10E0009296ED2DFE86A
:1051C00001F0050D16191C1F22334500EB2D29D1C6
:1051D00048F208410180478035701BE0902D5DD179
:1051E0002F4829460E30FBF7FFFC757017E0E5707D
:1051F000B5700FE02571F5700CE06571357109E04F
:105200006570757105E0A570607800EB0520608120
:10521000B5712781224829460E30FBF7E5FC20783E
:10522000401C2070BDE8F0812089618988420AD243
:1052300030442946C5711A480E30FBF7D5FC208949
:10524000401C2081EEE7A5710820EAE7A17940889B
:1052500001EB0521884221D1E078217900EB012082
:1052600080B2A08110280ED004DC012816D00528B9
:1052700014D104E021280AD040280FD10BE00948BE
:10528000FFF728FE0AE00748FFF77EFF06E0054823
:1052900000F00AF802E0034800F00EF82770C1E7BA
:1052A00060000020C03D00202022C11D0148FBF706
:1052B00018B80000483F002070B5C11D0D482822D5
:1052C0000546FBF70EF80B4C0B49A83C2822B4F816
:1052D000A80000EB800001EBC0002946FBF701F8B5
:1052E000A06A0721401CA062BDE87040402000F089
:1052F00025B80000783F00208064002008B5002019
:105300008DF80000084800F0FFFD28B908BD00BF77
:105310009DF80000FFF748FF6946034800F0D1FD03
:105320000028F5D108BD000070B800200A460146EB
:10533000014801F01EB800009CB8002000B5194BD0
:1053400099B0002283F83421EB228DF800209022BE
:105350008DF8012004228DF80220002203F58053ED
:105360008DF8032093F8962F8DF80420521C83F8B3
:10537000962F08228DF8052000228DF80620CDF802
:105380000700CDF80B100F216846FBF714FC8DF8D1
:105390000F00000A8DF8100011216846FFF7C6FFC4
:1053A00019B000BDD03E002000B51B4899B0016A7D
:1053B00000292ED000210162EB218DF800109021F0
:1053C0008DF801102021154B8DF8021000228DF868
:1053D000032093F8962F8DF80420521C83F8962F03
:1053E0008DF80510002168468DF806102022A3F6DE
:1053F000A871C01DFAF775FF27216846FBF7DBFB94
:105400008DF82700000A8DF8280029216846FFF74B
:105410008DFF19B000BD0000D03E0020D04E00200E
:105420001C4900B58A6999B010448861B0F57A7F4B
:105430002ED300208861EB218DF8001090218DF88B
:10544000011051218DF80210134A00218DF803102C
:1054500092F8961F8DF80410491C82F8961F30218F
:105460008DF80510002168468DF8061030220B4992
:10547000C01DFAF736FF37216846FBF79CFB8DF815
:105480003700000A8DF8380039216846FFF74EFFD3
:1054900019B000BDD03E0020D04E0020D43F0020E7
:1054A00000B51C4899B090F83411002930D0002183
:1054B00080F83411EB218DF8001090218DF8011047
:1054C00010218DF80210144A00218DF8031092F873
:1054D000961F8DF80410491C82F8961F24218DF820
:1054E000051000218DF806100A496846242234313F
:1054F000C01DFAF7F6FE2B216846FBF75CFB8DF822
:105500002B00000A8DF82C002D216846FFF70EFFB6
:1055100019B000BDD03E0020D04E00201D4900B57E
:10552000CA6999B01044C861B0F57A7F2FD30020C2
:10553000C861EB218DF8001090218DF801105021E9
:105540008DF80210144A00218DF8031092F8961F6E
:105550008DF80410491C82F8961F34218DF805102F
:1055600000218DF806100B4968463422D031C01D49
:10557000FAF7B7FE3B216846FBF71DFB8DF83B00B1
:10558000000A8DF83C003D216846FFF7CFFE19B0B8
:1055900000BD0000D03E0020D04E002000B51C48C9
:1055A00099B090F83811002930D0002180F83811D6
:1055B000EB218DF8001090218DF8011040218DF81D
:1055C0000210144A00218DF8031092F8961F8DF8EE
:1055D0000410491C82F8961F28218DF8051000211F
:1055E0008DF806100A4968462822A831C01DFAF72E
:1055F00078FE2F216846FBF7DEFA8DF82F00000AAF
:105600008DF8300031216846FFF790FE19B000BDDB
:10561000D03E0020D04E0020054A116809B905E0AF
:1056200011460A6A002AFBD1086270471060704771
:1056300074000020054A516809B905E011464A6A1C
:10564000002AFBD148627047506070477400002008
:10565000FFF72EF9124C00250A2001F028FFFFF772
:105660001FFFFFF79BFF0A20FFF758FF0A20FFF7F5
:105670009BFE0A20FFF7D4FEFFF740FE94F8A0023D
:10568000012805D184F8A052FCF7E4F9FFF722F9CC
:10569000FCF738FB02F07EFB01F08AFFDCE700003C
:1056A000A02001202DED048B82B0DFED920A924CF8
:1056B000B1EE0C1AB2EE000AC4ED930A84ED941A0E
:1056C00004F515748D4DA4EC030AA4EC030AA4ECB4
:1056D000030A84ED000A85ED350A85ED360A85ED6D
:1056E000370A85ED380AA4F51E74FEF757FB012131
:1056F0000020FEF7FBFA9FED828A824880ED088A3F
:10570000DFED818A9FED819A814EA0F5806706F1D9
:10571000040808F10409DFF8FCB107F5B8404FF0C0
:10572000804509F1040A0090142001F0C0FEB0EE9B
:10573000680AD7F82804FBF799FE94F8A2026D28AE
:1057400004D097F82404572812D004E00020C7F8AA
:10575000280487F8240497F82504082872D042DC2E
:10576000A0B301284BD0022866D004286BD174E086
:105770000098D0ED5B1A90ED5A1A71EEC10AF5EE61
:10578000C00AF1EE10FA02D2F0EE480A06E010EE7E
:10579000900A6149884201DDF0EE490ABCEEE00A58
:1057A00010EE100A68630020A8633060C8F800009B
:1057B000C9F80000CAF8000071EE810AF5EEC00ACF
:1057C000F1EE10FA03D2F0EE480A07E014E010EE12
:1057D000901A514A914201DDF0EE490ABCEEE00A0E
:1057E00010EE101A57E0102819D020282CD040288D
:1057F0003AD0802863D151E00020686320E0002087
:105800006863A8633060C8F800004FF4FA71C9F803
:10581000001000BFCAF80000CBF800004CE00020E8
:105820006863A8633060C8F80000C9F800004FF44E
:10583000FA71CAF80010EFE74FF4FA7068630020BD
:10584000A86306E01BE03AE0002068634FF4FA71B9
:10585000A9633060C8F800000EE000206863A86308
:105860004FF4FA713160F5E700206863A863306097
:105870004FF4FA71C8F80010C9F80000CAE7002018
:105880006863A8633060C8F80000C9F80000CAF86F
:1058900000004FF4FA71CBF800100DE000206863AF
:1058A000A8633060C8F80000C9F80000CAF800001A
:1058B000CBF800004FF4FA701649091D0860D9F8BA
:1058C00000100E4820F8E41FDAF800104180696BE0
:1058D0008180A96BC18031680181D8F800104181B5
:1058E000DBF8001081810B49091D0968C18101F0B5
:1058F0005FFE19E766660641A0200120D03E002029
:1059000000000000A0C400200AD7A33C00007A4495
:10591000340800403C04014000007A440A2001F0B1
:10592000C6FD01F045FEF9E710B5502080F311885F
:10593000BFF34F8FBFF36F8F03F042F818B10449E4
:105940004FF080500860002080F3118810BD0000E7
:1059500004ED00E030B593B030216846FAF7DAFC88
:1059600014210CA8FAF7D6FC1C480025016841F068
:1059700080510160006800F0805011901848016863
:1059800041F4804101600068022400F480401190DD
:1059900001200090000401908001CDE90640042020
:1059A0000890A820CDE9090407200B906846FDF770
:1059B0007BF870B90CA90F2081E831004FF4A0509A
:1059C0000F90E002109005210CA8FCF765FF00285D
:1059D00001D0FBF72AFF13B030BD00004038024071
:1059E000007000401048016841F4700101600F48E8
:1059F000016841F0010101600C4A00210832116088
:105A000002680B4B1A400260031D0A4A1A600268C2
:105A100022F48022026005480C30016002495806D9
:105A2000803908607047000088ED00E000380240CF
:105A3000FFFFF6FE1030002470470000F0B502684A
:105A4000254C264D264E274F274B4FF0804CA04229
:105A500009D0604507D0A84205D0B04203D0B84273
:105A600001D0984204D122F0700E4A6842EA0E0238
:105A7000A0421BD0604519D0A84217D0B04215D023
:105A8000B84213D0984211D0184DA8420ED0184DEC
:105A9000A8420BD0174DA84208D0174DA84205D0F8
:105AA000164DA84202D0164DA84203D122F44075EB
:105AB000CA682A434D6922F080022A4302608A683C
:105AC000C2620A688262A04201D0984201D109698B
:105AD000016301214161F0BD00000140000400406C
