:020000040800F2
:1000000090E90120590200086B4500083F370008BD
:1000100069450008B10B00085D6D00080000000094
:100020000000000000000000000000009D0100082A
:10003000B918000800000000F1010008A5630008DD
:1000400073020008730200087302000873020008BC
:100050007302000873020008BB180008C1180008EA
:100060007302000873020008730200088517000875
:10007000911700089D170008A9170008B517000878
:10008000C1170008CD1700087302000873020008AA
:10009000730200087302000873020008730200086C
:1000A000730200087302000873020008730200085C
:1000B000730200087302000873020008730200084C
:1000C000730200087302000873020008730200083C
:1000D00073020008D96C0008E56C0008F16C000898
:1000E000730200087302000873020008730200081C
:1000F000730200087302000873020008D917000891
:1001000073020008730200087302000873020008FB
:10011000F567000801680008B96400087302000868
:1001200073020008E5170008F117000873020008C1
:1001300073020008730200087302000873020008CB
:1001400073020008730200087302000873020008BB
:1001500073020008FD17000809180008FD6C00086C
:10016000730200087302000873020008730200089B
:100170007302000873020008730200080000000008
:100180007302000873020008DFF80CD000F0EEFBE9
:10019000004800470D7E000890E901202B4B1968AC
:1001A0000868B0E8F04F80F30988BFF36F8F4FF015
:1001B000000080F3118870470000000006480068C6
:1001C000006880F3088862B661B6BFF34F8FBFF353
:1001D0006F8F00DF00BF00BF08ED00E0DFF80C000C
:1001E000016841F470010160704700BF88ED00E0D4
:1001F000EFF30980BFF36F8F144B1A681EF0100FD6
:1002000008BF20ED108A20E9F04F106008B44FF0CD
:10021000500080F31188BFF34F8FBFF36F8F08F04A
:100220003FFB4FF0000080F3118808BC1968086894
:10023000B0E8F04F1EF0100F08BFB0EC108A80F34A
:100240000988BFF36F8F704700BF00BFD800002040
:10025000EFF30580704700000648804706480047D6
:10026000FEE7FEE7FEE7FEE7FEE7FEE7FEE7FEE766
:10027000FEE7FEE765640008890100082DE9F05FEC
:100280000546002092469B46884606468146402405
:100290001BE0284641464746224600F060FA534696
:1002A0005A46C01A914110D311461846224600F012
:1002B00047FA2D1A67EB01084F462246012000211C
:1002C00000F03EFA17EB00094E41201EA4F1010494
:1002D000DFDC484631462A464346BDE8F09F40EA07
:1002E00001039B0703D009E008C9121F08C0042AB4
:1002F000FAD203E011F8013B00F8013B521EF9D29B
:1003000070472DE9FE4F804681EA0300C00F0C467E
:10031000009021F0004123F00045B8EB0200A94114
:1003200005D24046214690461C460B46024623F025
:100330000040104347D0270DC7F30A00C3F30A510A
:100340000290401A019040286BDAC3F3130040F486
:10035000801B0098924620B10023D2EB030A63EB86
:100360000B0B01985946C0F14002504600F0E8F9E5
:1003700006460D4650465946019A00F000FA10EB29
:1003800008006141002487EA115284EAE7731A43A6
:1003900040D0009A62B3019A012A4FEA075215DC55
:1003A000001B61EB02014FF0004202EA0752CDE967
:1003B0000042001C41F5801132462B4600F037FA0E
:1003C00003B0BDE8F08F40462146F9E7001B61EB22
:1003D0000201001C41F5801300185B412018A2F5B2
:1003E000001747EB030140EAD570B6196D4111E0E3
:1003F0006D084FEA360645EAC0754FEA0752001B02
:1004000061EB0201001C41F5801149084FEA300000
:100410000019514132462B4603B0BDE8F04F00F0C1
:10042000F7B90098012240000023D0EB020263EBF1
:10043000E073009821464FEAE074B8EB000061EBEE
:100440000401E9E783F000435BE781F0004158E7EE
:100450002DE9FE4F81EA030404F0004421F000413D
:1004600000944FF0000B23F0004350EA01045ED0EB
:1004700052EA03045BD0C3F30A54C1F30A552C4477
:10048000A4F2F3340194A0FB0254C1F3130141F42C
:100490008011C3F3130343F4801301FB024400FBF8
:1004A000034E840A970A44EA815447EA8357A4FB1F
:1004B000076802958D0A05FB07854FEA932C04FB1C
:1004C0000C542705029D4FEA065847EA1637B5EB4C
:1004D00008056EEB070C870E920E47EA811742EA79
:1004E0008312A7FB0201B6EB0B0164EB00042B0D9A
:1004F00043EA0C335E1844EB1C50DA465146E7FBE6
:100500000201C5F313044FEA0B3343EA14534FEAD5
:100510000432019C43EA0603A4F10C040294009CFB
:10052000CDE900B400F083F903B0BDE8F08F0020FE
:100530000146F9E72DE9F04D81EA030404F0004B90
:1005400021F0004514464FF0000A23F0004150EA24
:10055000050220D054EA01021DD0C5F30A57024615
:10056000C5F31303C1F31300C1F30A5640F4801519
:1005700043F48013A7EB0608101BD64608F2FD389B
:1005800073EB050002D308F1010801E092185B410A
:10059000B8F1000F03DA00200146BDE8F08D00201D
:1005A0004FF48011064684460EE0171B73EB0507D7
:1005B00005D3121B63EB050306434CEA010C490803
:1005C0004FEA300092185B4150EA0107EDD152EA40
:1005D000030012D082EA040083EA0501084305D033
:1005E000101BAB4106D20122002306E000224FF08F
:1005F000004302E06FF0010253101AEB06004CEBCF
:10060000085110EB0A0041EB0B01BDE8F04D00F082
:10061000FFB80EB5C10F80EAE0700844CA07002198
:1006200040F233438DE80E000A460B4600F0FFF817
:1006300003B000BD0EB540F2334102910021CDE977
:1006400000110A460B4600F0F2F803B000BDC1F3FA
:100650000A5210B5C1F3130140F2FF3341F4801187
:100660009A4201DA002010BD40F233439A42A2F2CE
:10067000334203DC524200F072F810BD904010BDCE
:1006800000F0004230F000400AD0C10D01F5607169
:10069000C0F3160042EA0151C208400711437047F7
:1006A000002001467047000030B5041E71F10004BF
:1006B00004DB4FF00044404264EB0101141E73F16F
:1006C000000405DB1C464FF00043524263EB040379
:1006D0008B4208BF824230BD30B5041E71F1000468
:1006E00004DB4FF00044404264EB0101141E73F13F
:1006F000000405DB1C464FF00043524263EB040349
:10070000994208BF904230BD01F0004330B421F05F
:10071000004150EA010206D00A0DA2F56072C1F351
:100720001301002A02DC30BC00207047440F44EA69
:10073000C104C100E01830BC00EBC25000F031B879
:10074000202A04DB203A00FA02F100207047914091
:10075000C2F1200320FA03F3194390407047202A86
:1007600004DB203A21FA02F00021704721FA02F35B
:10077000D040C2F120029140084319467047202A18
:1007800006DBCB17203A41FA02F043EAE07306E0B9
:1007900041FA02F3D040C2F12002914008431946C9
:1007A00070470029A8BF7047401C490008BF20F0CF
:1007B0000100704710B4B0FA80FC00FA0CF050EA67
:1007C000010404BF10BC704749B1CCF1200421FAE8
:1007D00004F411FA0CF118BF012121430843A3EBE3
:1007E0000C01CB1D4FEA00614FEA102042BF0020F0
:1007F00010BC704700EBC35010440029A4BF10BCCC
:100800007047401C490008BF20F0010010BC704731
:1008100010B5141E73F1000408DA401C41F1000108
:1008200092185B411A4301D120F0010010BD2DE95F
:10083000F04D92469B4611B1B1FA81F202E0B0FA56
:1008400080F220329046FFF77BFF04460F4640EAD5
:100850000A0041EA0B0153465A46084313D0114699
:1008600053EA010019D0C8F140025046FFF777FF64
:1008700005460E46504659464246FFF761FF08437B
:1008800005D0012004E020463946BDE8F08D002067
:10089000054346EAE0762C4337430A986305E40AA9
:1008A000A0EB08000022FD0A44EA47540A3002D5B2
:1008B00000200146E9E7010510196941DDE9084515
:1008C00000196941BDE8F04DA2E72DE9F04D002384
:1008D0001A461B1A8A4103DB00200146BDE8F08D51
:1008E000C1F30A52C1F3130141F480154FF0000B1C
:1008F000D10702D100186D41521E0027044640F274
:10090000FF11384601EB620A3E468046024600204F
:100910004FF48011FFF723FFC2197141BB1846EB5A
:100920000100B4EB030C75EB000C04D3E41A65EB87
:10093000000517460E46241908F101006D41804656
:100940003428E3DDF91946EB0600091BA84103D260
:100950004FF0FF32134601E0002213461BEB070065
:1009600046EB0A51BDE8F04DFFF752BF064C074D6C
:1009700006E0E06840F0010394E80700984710346F
:10098000AC42F6D3FFF704FC548E0008748E0008C6
:1009900070B5C1F30A5201F000450024C1F3130100
:1009A00040F2FF3341F480119A4201DA002070BD19
:1009B00040F233439A42A2F2334203DC5242FFF741
:1009C000CEFE00E090402C43F1D0404270BD30B5E7
:1009D0008C1810F8012B12F00F0301D110F8013B15
:1009E000120906D110F8012B03E010F8015B01F8A1
:1009F000015B5B1EF9D101E001F8013B521EFBD106
:100A0000A142E6D3002030BD10B50146806B026CD8
:100A100012F0500F05D0806BC26CBDE81040084644
:100A20001047016C41F40071016401688A6812F09A
:100A3000405F17D18269AAB9CA6A12F4700F02D056
:100A40008A6852050ED44A6822F020024A60016C7E
:100A500021F480710164016CC90403D4016C41F07C
:100A60000101016400F0FEFF10BD10B5806B402154
:100A70000164416C41F00401416400F0F5FF10BDD8
:100A800010B5806B00F0EFFF10BD0000454910B5B8
:100A90004A6822F440324A604A6843681A434A600E
:100AA00001684A6822F480724A6001684A680369F2
:100AB00042EA03224A6001684A6822F040724A60B2
:100AC00001684A6883681A434A6001688A6822F4A8
:100AD00000628A6001688A68C3681A438A60816A12
:100AE0006FF07062D14201688A6822F070628A6099
:100AF00001688A680CD0836A1A438A6001688A6830
:100B000022F040528A6001688A68C36A1A4301E091
:100B100022F040528A6001688A6822F002028A60EC
:100B200001688A68836942EA43028A60016A00298F
:100B300001684A680FD042F400624A6001684A685E
:100B400022F460424A6001684A68174C436A04EB29
:100B500043331A4301E022F400624A600168CA6A22
:100B600022F47002CA620168CA6A838B0F4C04EBDC
:100B700003531A43CA6201688A6822F400728A60C9
:100B800001688A68036B42EA43228A6001688A68C6
:100B900022F480628A6001688A68406942EA8020A3
:100BA000886010BD0023014000E0FFFF0000F0FF5F
:100BB000FEE770B5002402232546891E06E0C65CC8
:100BC0005B1C3444E4B22544EDB2DBB28B42F6DB6D
:100BD00064F3070265F30F2290B270BD044902204E
:100BE000C1F828040348002180F8481D7047000020
:100BF00058030020585300202DE9F0434D4E4FF08C
:100C000001092DED028BB3B096F8481DF0EE408A35
:100C10009FED498AA6F5A04505F59B60002705F5DF
:100C2000B8448046B9B105F5C040012954D0022925
:100C30000CD190F87102012868D0C5F8287400BF63
:100C400085F8247484ED598A84ED5A8A33B0BDEC5A
:100C5000028BBDE8F08338223849FFF740FB57206C
:100C600085F824043022364926A8FFF738FB3822BD
:100C7000414618A8FFF733FB3049382270310D4642
:100C80000AA8FFF72CFB2D49282248316846FFF7B8
:100C900026FB2A48F0EE480A3830B0EE680A0FC842
:100CA00000F0DCF8382241460AA81897FFF717FB36
:100CB000282205F110016846FFF711FB1F48B7EE27
:100CC000000A70300FC800F041F80128BED186F844
:100CD000489D84ED538AB9E790ED910AD0ED8F0AD3
:100CE000B4EEE00AF1EE10FA0DDB94ED530A15496B
:100CF00030EE280A10EE100A84ED530A88429FDD78
:100D0000022086F8480D84ED538A99E7C5F82894A7
:100D100096F8400D0C4901284FF03802404606D0A5
:100D200001F5BE61FFF7DBFA86F8407D88E701F543
:100D3000A261F7E758530020000000008807002058
:100D40006065002000009643580300200FB42DED8D
:100D5000020B70B500242DED068BB0EE408A9DEDA0
:100D60001E0B289D9DED1CAB51EC100BFFF7CCFC2E
:100D700009EE100A51EC1A0BFFF7C6FC9DED100BA3
:100D800009EE900A51EC100BFFF7BEFC9DED0E0B27
:100D900008EE900A51EC100BFFF7B6FC00EE100ABB
:100DA000F0EE491AB0EE691AF0EE680A03F0EEFBB5
:100DB0005DB1B4EEC80AF1EE10FA00DB0124BDEC1F
:100DC000068B204670BC5DF81CFBB4EEC80AF1EE41
:100DD00010FAF3D9F3E700001B4810B5D0ED910AE3
:100DE00090ED900A0222A0F5C041F4EEC00AF1EEA7
:100DF00010FA01D8C1F8282490F871420023012C80
:100E000018D190ED8F1ADFED111A5C1E31EE401AE9
:100E100080F8714201EE210AB4EEE00AF1EE10FA18
:100E200005DB0B48C1F8282480F8483D02E001208A
:100E3000C1F8280408489FED070A81F8243480EDA2
:100E4000590A80ED5A0A10BD586300209A99993EBC
:100E50005853002000000000585F00202DE9F041A9
:100E6000864E874F2DED0A8BB0EE408A9DED300AFD
:100E7000DDED220A9DED2A9B9DED2CAB30EE600A44
:100E80009DED1CBB9DED1ECB10EE100AB04202D9A9
:100E9000BAEE040A05E010EE100AB84201DDB2EE27
:100EA000040A784C7849D4ED5C0A60EE200AC4ED5F
:100EB0005F0A94ED5D0A20EE801A94ED600A01EE5F
:100EC000080A10EE100A84ED600A884202D9BBEECF
:100ED000040A06E010EE100A6C49884201DD9FED1D
:100EE0006C0A84ED600A30EE800A84ED5E0A9FEDA4
:100EF000690BB0EE403AF0EE603AB0EE402AF0EE08
:100F0000602AB0EE401AF0EE601A02F08DFC634DDC
:100F100095ED020A10EE100AB04202D9BAEE040AA8
:100F200005E010EE100AB84201DDB2EE040AD4ED7D
:100F3000660A5B4960EE200AC4ED690A94ED670A0F
:100F400020EE801A94ED6A0A01EE080A10EE100AEB
:100F500084ED6A0ADFED538A884202D99FED520A76
:100F600006E010EE100A5149884201DD9FED500A5B
:100F700053EC192B84ED6A0A30EE800A51EC1B0BFE
:100F800084ED680AFFF790FB06D153EC1A2B51EC65
:100F90001C0BFFF789FB26D051EC1A0BFFF7B4FBB3
:100FA00008EE100A51EC190BFFF7AEFB09EE100A20
:100FB00051EC1C0BFFF7A8FB09EE900A51EC1B0B40
:100FC000FFF7A2FB00EE100AF0EE481AB0EE491A45
:100FD000F0EE690A03F02EFBD4ED790A30EEC00A78
:100FE00085ED010A03E0C5ED018AB0EE680A05F05F
:100FF000E9FB85ED010AD4ED610A2E48DFED2E1ADA
:1010000020EE800A2D499FED2E1A84ED630AD4ED5F
:10101000680A10EE902A824202D9F0EE610A05E0D9
:1010200010EE902A8A4201DDF0EE410A10EE102AFD
:10103000C4ED590A824202D9B0EE610A05E010EE11
:10104000100A884201DDB0EE410A84ED5A0A94ED9F
:101050005E8AB5EEC08AF1EE10FA09D318EE100AD6
:101060001849884202DDDFED188A01E0F0EE488A77
:10107000C4ED5B8ABDEC0A8BBDE8F081000020C1A5
:1010800000002041585F00200000A0C100008C42F9
:1010900000008C4200000000000000000000002062
:1010A000000020C200000000000020C2000020421A
:1010B00000002042000070C2000070C200007042B8
:1010C000000070420000B4420000B44238B1012870
:1010D00007D0022807D0032807D1FFF77FBDFFF70D
:1010E0007BBE00F003B8FFF787BD70472DE9F04FD6
:1010F0002DED0A8BB3B0B0EE40AAFE480021DFED23
:10110000FE9ADFF8F88390EC020A08F59B6008F578
:10111000946908F5A04608F5B8453290F4EEC00A87
:10112000F1EE10FA25D895ED510AF54A30EE0A0A8B
:1011300010EE100A85ED510A90427DDBC5ED519A03
:10114000012086F8400D0222C8F8282486F8481DA0
:101150003822494608F5A260FFF7C1F8329833B04B
:1011600008F58661BDEC0A8B3822BDE8F04FFFF729
:10117000B6B88A4618913822E2490AA8FFF7AFF8B4
:1011800009F11001282268461991FFF7A8F8DFF845
:1011900078B3B7EE000A0BF1240090E80E00DBF8FC
:1011A0002000FFF7D3FD9FEDD98BABF18004012820
:1011B00047D196F8500D012843D186F850AD8DEDFA
:1011C000008B8DED028B94ED8E3B94ED8C2B94ED8A
:1011D000801B94ED7E0B02A9684602F093FB032767
:1011E00029E000BFC7EBC70108EBC10000F5B860FC
:1011F0009DEC042B90EC040B02F016FB51EC100B51
:10120000FFF782FA00EE100AD5ED550AF4EEC00A97
:10121000F1EE10FA01DAF0EE400AC5ED550AD5ED0F
:10122000560AF4EEC00AF1EE10FA01D8B0EE600AE8
:1012300085ED560A7F1C00E074E2D6F8380DB842FE
:10124000D0D23822CDF860A00AA83299FFF747F82B
:10125000282268461999FFF742F80BF12400B7EEEF
:10126000000A90E80E00DBF82000FFF76FFD9FED0D
:10127000A9BBA04FA94D383701287CD105F1200129
:1012800094ED8E3B94ED8C2B94ED801B94ED7E0BB6
:10129000A1F1080002F036FB95ED060B87ED000B7F
:1012A00095ED080B87ED020B94ED8E0B51EC100BB6
:1012B000FFF72AFA94ED8C0B0CEE100A51EC100B90
:1012C000FFF722FA94ED800B0AEE900A51EC100B16
:1012D000FFF71AFA94ED7E0B09EE100A51EC100B91
:1012E000FFF712FA00EE100AF0EE4C1AB0EE6A1A8E
:1012F000F0EE490A03F09EF910EE100AFFF7C0F96C
:10130000C5E91A0194ED9C0B51EC100BFFF7FCF9A9
:1013100094ED9A0B0CEE100A51EC100BFFF7F4F958
:1013200094ED8E0B0AEE900A51EC100BFFF7ECF9DE
:1013300094ED8C0B09EE100A51EC100BFFF7E4F959
:1013400000EE100AF0EE4C1AB0EE6A1AF0EE490AFE
:1013500003F070F910EE100AFFF792F941EC100B50
:1013600085ED1C0B95ED1A1B53EC112BFFF76AF85A
:1013700041EC100B00E0B5E185ED180BFFF7C4F967
:1013800000EE100A05F01EFA10EE100AFFF778F9C9
:1013900041EC100BB0EE48CAF0EE68CA85ED180BB0
:1013A00053EC1C2BFFF798F995ED1A0B53EC1B2B04
:1013B00051EC100B02D2FEF7A4FF01E0FFF742F858
:1013C000C5E91801554994ED801B503194ED7E0B11
:1013D000A1F1080095ED183B95ED042B02F024FBDC
:1013E0009FED4F0B53EC102B95ED040B51EC100BB4
:1013F000FEF787FFC5E9040195ED140B53EC102BA4
:1014000051EC100BFFF724F895ED120B41EC180B83
:1014100053EC102B51EC100BFFF71AF853EC182B70
:10142000FEF76FFFFFF770F900EE100A06F01AFDE5
:1014300010EE100AFFF724F9C5E9160197ED000B2D
:1014400095ED141B51EC100B53EC112BFFF700F82A
:1014500095ED120B41EC180B53EC102B95ED080B8E
:1014600051EC100BFEF74DFF53EC182BFEF7EAFF83
:10147000C7E90201D6F8380D94ED801BC0EBC0011E
:1014800008EBC10000F5B860244994ED7E0B3031C3
:1014900090EC042BA1F1080002F034FADFF854A01C
:1014A00095ED0A0B0AF1480A1C498AED000B95EDEF
:1014B0000C0B40318AED020B94ED9C3B94ED9A2B82
:1014C00094ED8E1B94ED8C0BA1F1080002F01AFA3A
:1014D00095ED0E0B0AF1100B10498BED000B95EDFD
:1014E000100B80318BED020BA1F108009AEC042B5C
:1014F0001AE000009865002000000000580300205A
:101500000000704248090020D807002000000000B9
:101510000000000000000000008056400000002095
:10152000000000000000E03F97EC040B02F0F0FA2E
:101530007F499BEC042BA1F1080097EC040B02F00F
:10154000E7FA7B4F103F97ED000B51EC100BFFF7C4
:10155000DBF895ED1E0B09EE100A51EC100BFFF7AE
:10156000D3F894ED2C0B08EE900A51EC100BFFF71A
:10157000CBF894ED2A0B08EE100A51EC100BFFF794
:10158000C3F800EE100AF0EE491AB0EE681AF0EE59
:10159000480A02F0FBFF10EE100AFFF771F8C7E9E6
:1015A000060197ED040B51EC100BFFF7ADF897ED2A
:1015B000020B0AEE900A51EC100BFFF7A5F894ED20
:1015C0002C0B08EE900A51EC100BFFF79DF894EDF0
:1015D0002A0B09EE100A51EC100BFFF795F800EEFC
:1015E000100AF0EE6A1AB0EE681AF0EE490A02F03C
:1015F000CDFF10EE100AFFF743F841EC100B87ED1A
:10160000080B53EC102B97ED060B51EC100BFFF76A
:1016100063F812D297ED000B84ED380B95ED1E0B9D
:1016200084ED3A0B94ED840A84ED3E0A97ED040BA9
:1016300084ED1C0B97ED020B11E097ED040B84ED8C
:10164000380B97ED020B84ED3A0B94ED840A84ED90
:101650003E0A97ED000B84ED1C0B95ED1E0B3749F0
:1016600084ED1E0B2A88D6F8380D9FED321B1044EE
:1016700001EB80109FED320B80ED101B80ED120B03
:1016800094ED1E2BB0EE4C8A80ED142B94ED1C2BA8
:10169000F0EE6C8A80ED162B80ED188B80ED1A8BA6
:1016A00080ED1C8B80ED1E8B80ED201B80ED220BCE
:1016B00094ED3A1B921C80ED241B94ED381B80EDB9
:1016C000261B80ED288B80ED2A8B80ED2C8B80ED06
:1016D0002E8B2A8081ED120B81ED220B81ED320BD6
:1016E00081ED420B572188F824143022164926A890
:1016F000FEF7F5FD382218A83299FEF7F0FD3822E2
:1017000049460AA8FEF7EBFD282210496846FEF775
:10171000E6FD0E48F0EE690A1038B0EE4A0A0FC82E
:10172000FFF79CFB33B0BDEC0A8BBDE8F08F0000E7
:1017300090000020000000000000F03F00AD0020FD
:10174000000000000000344060650020D007002049
:10175000F0B502460020D1784FF6FF76C91CCBB217
:101760000146074F08E0050A06EA0024505C68407D
:1017700037F810006040491C5B1EDBB2F3D2F0BDAD
:1017800054010020014800F04FBA0000346B0020E3
:10179000014800F049BA0000546C0020014800F0F4
:1017A00043BA0000746A0020014800F03DBA00000E
:1017B000F46B0020014800F037BA0000D46A002022
:1017C000014800F031BA0000B4690020014800F07F
:1017D0002BBA0000146A0020014800F025BA00006E
:1017E000946B0020014800F01FBA0000146D002027
:1017F000014800F019BA0000F4680020014800F028
:1018000013BA0000B46C0020014800F00DBA0000CB
:101810005469002001681823CAB2103AB2FBF3F2EF
:10182000054B6FF30901032A9B5CC36500D9091DB1
:1018300081650846704700005C8C000810B50146C1
:1018400000208B698A6A4FF0C07453B1B3F5005F12
:1018500015D072B1012A0CD0022A0AD0032A09D16C
:1018600004E01AB1012A06D0022A03D1C96AC901CB
:1018700000D5012010BDC96AA142FAD010BD002ACE
:10188000F7D0012AF2D0022AF3D0032AF3D010BDF8
:1018900030B50468256825F48025256004686360F8
:1018A0008368402B036803D099600068C26030BD34
:1018B0009A600068C16030BD7047012000F03EBBF7
:1018C000022000F03BBB00000D4910B50B4AC1E9F6
:1018D0000020002088600C22C860C1E904028861F1
:1018E000C861084601F090FB002805D0BDE8104013
:1018F000B12104A005F033BA10BD0000001401406E
:10190000B46800202E2E2F436F72652F5372632F01
:1019100075736172742E630078B50024009490F89A
:101920003C20012A19D0012280F83C200A680723B4
:101930000568092A13D9EE680A3A02EB420293407D
:101940009E43EE600B788A680A3B03EB43039A40A0
:101950000368DD682A43DA6010E0022078BD2E6952
:1019600002EB420293409E432E610B788A6803EBA0
:1019700043039A4003681D692A431A614A681F237A
:10198000072A13D205686E6B521E02EB8202934047
:101990009E436E630B790A885B1E92B203EB83034E
:1019A0009A4003685D6B2A435A6327E005680D2A55
:1019B00012D22E6BD21F02EB820293409E432E6303
:1019C0000B790A88DB1F92B203EB83039A4003680A
:1019D0001D6B2A431A6311E0EE6A0D3A02EB820294
:1019E00093409E43EE620B790A880D3B92B203EB63
:1019F00083039A400368DD6A2A43DA62164B05685E
:101A0000144A9D4206D10D68122D03D1556845F444
:101A10008005556005689D4218D10B68102B01D0D8
:101A2000112B13D1536843F4000353600968102944
:101A30000CD10A490A4A0968B1FBF2F101EB8101B4
:101A4000490000E0491E00910029FBD180F83C408C
:101A5000002078BD00230140002001401401002037
:101A600040420F0070477047704770B504004FF058
:101A7000000503D0206C002610B107E0012070BDE6
:101A8000666484F83C60204600F01AF8206CC006BA
:101A900010D4206C20F4885040F0020020642046CE
:101AA000FEF7F4FF6664206C20F0020040F00100B5
:101AB000206400E0012584F83C60284670BD0000E9
:101AC00000B500680C4987B0884212D10B4800214C
:101AD000026842F480720260006800F48070059031
:101AE0000F2000900320CDE901016946044800F071
:101AF00031FA07B000BD0000002001404438024028
:101B000000080240F8B50E4600210446009190F806
:101B10003C00012807D0012084F83C00206883683D
:101B2000DB0702D011E00220F8BD836843F0010317
:101B300083602D482D4B0068B0FBF3F000EB4000B4
:101B400000E0401E00900028FBD120688368DB077E
:101B500048D0236C40F20165AB4343F480732364A7
:101B60004068400505D5206C20F4005040F48050BA
:101B70002064206CC00404D5606C20F00600606412
:101B800000E0616484F83C10A16B1A48184DC863EA
:101B9000A16B19480864A16B1848C86421686FF0EC
:101BA000220008602068416841F08061416020683F
:101BB000816841F4807181602168134632464C315E
:101BC000A06B00F06BF96868C006206802D00C4971
:101BD000884207D1816811F0405F03D1816841F0EC
:101BE000804181600020F8BD1401002040420F00B8
:101BF00000230140090A0008810A00086B0A000856
:101C00000020014090F83510022903D08021416561
:101C100001207047052180F835100068016821F027
:101C200001010160002070472DE9F84304464FF0A0
:101C30000009CDF8009063484FF41651A56D006877
:101C4000B0FBF1F72E6894F85C10082000FA01F15F
:101C500031420FD021680A6852070BD50A6822F07A
:101C600004020A6094F85C108840A860606D40F03F
:101C70000100606594F85C104FF0010808FA01F06B
:101C8000304208D021684969090604D5A860606D12
:101C900040F00200606594F85C10042088403042F7
:101CA00008D021680968890704D5A860606D40F0F4
:101CB0000400606594F85C1010208840304218D011
:101CC00021680968090714D5A860206801684903DC
:101CD00004D50068000308D5A16C07E00168C905B8
:101CE00003D4016821F008010160216C09B120468C
:101CF000884794F85C1020208840304231D0216819
:101D00000968C9062DD5A86094F835000528206813
:101D1000016806D0490347D5006800031DD4616CF3
:101D20001CE021F0160101602068416921F080016A
:101D30004161206C08B9A06C20B12068016821F0D5
:101D40000801016094F85C103F208840A86084F886
:101D5000349084F83580216D1FE0E16B09B1204695
:101D60008847606D00282BD0606DC00714D0052017
:101D700084F835002068016821F0010101600098B5
:101D8000401C0090B84203D820680068C007F6D114
:101D900084F8349084F83580E16C002910D001B0CB
:101DA0002046BDE8F04308470168C905D5D401685D
:101DB00021F01001016084F8349084F83580CCE77C
:101DC000BDE8F883140100202DE9F041044600F03D
:101DD000A3F906465CB1002584F83450022084F84B
:101DE00035002068016821F0010101600DE001204B
:101DF000BDE8F08100F090F9801B052805D920206E
:101E00006065032084F83500F2E720680068C007A9
:101E1000F0D12268116820480140D4E90103184339
:101E2000D4E903363343184363691843A36918435D
:101E3000E3691843236A18430843616A042903D1FC
:101E4000D4E90B1319430843106020684069666A9F
:101E500020F0070130460E43012704280CD1A06A68
:101E60000643E06A40B12046FFF7E8FC20B140207D
:101E7000606584F83570BAE7206846612046FFF750
:101E8000C9FC94F85C203F2191408160656584F82D
:101E900035700020ACE700003F8010F02DE9F041E4
:101EA0000446866D90F83400002501280DD00120ED
:101EB00084F8340094F835700020012F07D084F89E
:101EC000340002252846BDE8F0810220FBE7022706
:101ED00084F8357060652046FFF7DAFC94F85C10F2
:101EE0003F208840B0602068016841F01601016021
:101EF0002068416941F080014161206C20B1206877
:101F0000016841F0080101602068016841F00101A9
:101F10000160D7E770B5044600F0FEF80546601C86
:101F200002D004480078044400F0F6F8401BA042B8
:101F3000FAD370BD1801002070470000044910B5A5
:101F40000A68024202D00860FFF7F6FF10BD0000E9
:101F5000143C01402DE9F84FDFF87CB100224FF02E
:101F600001084FF0030A4FF00F090BF1040E00BFF8
:101F70000B6808FA02F42340A3426ED14D68022D8B
:101F800001D0122D0ED1D50800EB850CDCF82050C5
:101F90005607F70E09FA07F6B5430E69BE402E4301
:101FA000CCF82060066855000F790AFA05FC07F0A6
:101FB000030726EA0C06AF40374307604E68012E40
:101FC00005D0022E03D0112E01D0122E0ED186681C
:101FD000CF6826EA0C06AF40374387604668A643C1
:101FE0000C79C4F30014944034434460C6688C6890
:101FF00026EA0C06AC403443C4604C68E40065D566
:10200000364C256845F480452560246822F0030598
:1020100004F480440094324C2E19D6F808489507F1
:102020002F0F09FA07F5AC432E4DA84201D1002528
:1020300024E02D4DA84201D101251FE02B4DA842DF
:1020400001D102251AE02A4DA84201D1032515E04D
:10205000284DA84202D1042510E037E0264DA842C1
:1020600001D105250AE0254DA84201D1062505E04C
:10207000234DA84201D1072500E00825BD40254396
:10208000C6F80858DBF800405D464E689C43F603EE
:1020900000D51C432C60DEF8004075464E689C431A
:1020A000B60300D51C432C600B4D08352C684E68D8
:1020B0009C43F60200D51C432C60074D0C352C6860
:1020C0004E689C43B60200D51C432C60521C102A5B
:1020D000FFF44EAFBDE8F88F003C014044380240A9
:1020E00000300140000002400004024000080240AD
:1020F000000C024000100240001402400018024090
:10210000001C024042694A40426170470AB1816145
:1021100070470904FBE70000014880687047000031
:1021200018010020024881680278114481607047DC
:10213000180100200B4810B5016841F400710160DE
:10214000016841F480610160016841F480710160BF
:10215000032000F0B1F8002000F006F800F03EF88F
:10216000002010BD003C024010B5014688B000229E
:10217000362000F081F8362000F072F81348002471
:10218000016841F010010160006805A900F010002D
:102190000690684600F03AF900F05EF90C494000FC
:1021A000B0FBF1F10C480B4A491E026040F2E732E5
:1021B000C0E90324C0E9011400F0A3FB10B1012021
:1021C00008B010BD044800F0B8FBF9E74038024001
:1021D00040420F0000100040746D00201F4808B5F9
:1021E000016841F480410160006800F48040009083
:1021F0001A48001F016841F080510160006800F03A
:1022000080500090032000F057F8002211466FF034
:102210000B0000F031F8002211466FF00A0000F0C8
:102220002BF8002211466FF0090000F025F800227B
:102230001146501F00F020F800221146101F00F038
:102240001BF800220F21901E00F016F800220F212B
:10225000BDE80840501E00F00FB8000044380240AE
:1022600000F01F02012191404009800000F1E020B0
:10227000C0F8001170470000F0B40E4B1B680C460C
:10228000C3F30223C3F10705042D00D90425191D4A
:10229000072901D2002300E0DB1E012606FA05F122
:1022A000491E214099409E40761E16403143F0BCA5
:1022B00002F05CB90CED00E0064900F00702086886
:1022C0004FF6FF03184040EA0220034A104308601B
:1022D000704700000CED00E00000FA052DE9F04722
:1022E0000E46050065D0DFF81481D8F80000F7B27B
:1022F00000F00F00B04207D288F80070D8F8000054
:1023000000F00F00B04254D128683D4C810712D52F
:10231000400703D5206840F4E0502060287800078B
:1023200003D5206840F4604020602068A96820F050
:10233000F000084320602878C0072DD03049686835
:102340000839012812D0022813D0032811D00968B7
:10235000890700292DDA216821F00301014321605A
:10236000FFF7DAFE814641F2883A0EE009688903F8
:10237000EFE709688901ECE7FFF7CEFEA0EB090162
:10238000514502D90320BDE8F0872068696800F054
:102390000C00B0EB810FEFD1D8F80010404601F0EF
:1023A0000F01B14207D90770006800F00F00B0427A
:1023B00001D00120E7E72878400705D52068E968C3
:1023C00020F4E050084320602878000706D52068F4
:1023D000296920F4604040EAC100206000F05CF808
:1023E0002168084AC1F30311515CC84006490860DE
:1023F0000020FFF7B9FE0020C5E70000003C0240C6
:1024000008380240448C0008140100200F220260AA
:102410000C4A136803F003034360136803F0F003EE
:102420008360136803F4E053C36012684FF4E05311
:1024300003EAD20202610448006800F00F0008605D
:102440007047000008380240003C02400148006824
:10245000704700001401002004480549006809681D
:10246000044AC1F38221515CC84070471401002026
:1024700008380240548C000804480549006809687F
:10248000044AC1F34231515CC84070471401002036
:1024900008380240548C0008154810B5006810F048
:1024A0000C02144813D04110042A0FD0082A0ED170
:1024B0000F4C241F2268236802F03F025B0207D5FD
:1024C0002068C0F38810A0FB010106E0084610BD9B
:1024D0002168C1F38811A1FB00010023FDF7CEFEA6
:1024E0002168C1F30141491C4900B0FBF1F010BD66
:1024F000083802400024F4002DE9F84F050076D09A
:102500002878DFF8F8B2BE4CC00749D0DBF80010DD
:102510005846C1F38101012908D00068C0F3810049
:1025200002280AD1201D0068400206D520688003D9
:1025300036D568680028E2D032E06868B0F5803FA0
:1025400010D0B0F5A02F206810D020F4803020608B
:10255000206820F4802020606868A0B1FFF7DCFDCF
:1025600006460CE0206840F48030F4E740F4802018
:102570002060F7E7FFF7D0FD801B642873D8206840
:102580008003F7D50CE0FFF7C7FD064605E000BF66
:10259000FFF7C2FD801B6428F0D820688003F7D4C1
:1025A0002878DFF8608280074FF000093ED5DBF81D
:1025B0000010584611F00C0F09D00068C0F38100DC
:1025C00002280BD18D48001F0068400206D4206805
:1025D000800715D5E868012809D111E0E868B8B18D
:1025E0000120C8F80000FFF797FD064605E002E16C
:1025F000FFF792FD801B0228C0D820688007F7D51E
:102600002068296920F0F80040EAC10020600DE050
:10261000C8F80090FFF780FD064604E0FFF77CFD58
:10262000801B02281FD820688007F7D4287800076D
:1026300022D5724E744869696C3671B1012101600E
:10264000FFF76AFD074604E0FFF766FDC01B02289E
:1026500009D830688007F7D50EE0C0F80090FFF782
:102660005BFD074605E083E0FFF756FDC01B02282F
:102670007ED830688007F7D42878400768D5DFF81F
:102680007CA100270AF1380ADAF80000C0000BD458
:10269000DAF8001041F08051CAF80010DAF80000B2
:1026A000012700F080500090584E3068C00510D4CB
:1026B000306840F480703060FFF72EFD009005E038
:1026C000FFF72AFD0099401A022851D83068C0054A
:1026D000F6D54A4EA868683601280FD0052830681C
:1026E00010D020F001003060306820F0040030602D
:1026F000A868B8B1FFF710FD00900FE0306840F017
:102700000100F4E740F004003060F7E7FFF704FD54
:102710000099411A41F28830814264D830688007BC
:10272000F4D50EE0FFF7F8FC009007E0FFF7F4FCAB
:102730000099411A41F28830814254D830688007AC
:10274000F4D42FB1DAF8001021F08051CAF800104B
:10275000A869C0B3DBF80010C1F3810102294AD097
:102760000228484607D0C8F86000FFF7D5FC00E013
:1027700039E005463AE04746C8F86000FFF7CCFC70
:10278000064604E0FFF7C8FC801B02282BD820680F
:102790008001F7D4D5E907010843A96A1C4A490812
:1027A00002EB01416A6A41EA8211084395F82C1054
:1027B00040EA01611148001F016001203866FFF7FF
:1027C000ABFC054605E014E0FFF7A6FC401B022821
:1027D00009D820688001F7D50BE000BFFFF79CFC0B
:1027E000401B022802D90320BDE8F88F2068800131
:1027F000F4D40020F8E70120F6E700000838024092
:102800000038024000004742800E474200700040FE
:102810000000FFFF4FF0E0210428086903D020F0FA
:1028200004000861704740F00400FAE710B5401E4C
:10283000B0F1807F01D3012010BD4FF0E024606132
:102840000F21601701F092FE0020A0610720206197
:10285000002010BD7047704710B590F83820012A4D
:1028600025D0012280F83820CA688C6822F4407292
:1028700022434C6822F4806222430C6822F40062F6
:1028800022430C6922F4805222434C6922F4005204
:1028900022438C6922F48042224322F400410268E0
:1028A00000232143516480F83830002010BD0220FD
:1028B00010BD30B590F83820012A20D0012280F8D0
:1028C0003820022380F8393003685C6824F07004F3
:1028D0005C6003685C680D682C435C6003689C68FE
:1028E00024F080049C6003689C6849680C439C60E9
:1028F00080F83920002180F83810084630BD0220C9
:1029000030BD10B5040003D094F8390010B107E0D1
:10291000012010BD002084F83800204600F00CF89B
:10292000022084F83900211D206803F0CBFD01202E
:1029300084F83900002010BD70470168CA6842F071
:102940000102CA600068016841F0010101600020D5
:10295000704770472DE9F041044690F838000D4665
:1029600001283DD0012684F83860022084F839001F
:10297000AAB3042A46D02068082A55D0D5E90027F2
:10298000E968036A23F480530362D0F81CC0036A29
:102990002CF4407C4CEA07274FF6FF7C27F4704765
:1029A0000CEA013139434FF4204723F4204307EA6E
:1029B00002321A43C16102622068C16921F4406198
:1029C000C1612068C169AA6841EA0221C0F81C10EF
:1029D00084F83960002084F83800BDE8F08101E017
:1029E0000220FAE7D5E90012EB68206803F08CFEBC
:1029F0002068816921F00C01816120688169AA68E1
:102A000011430FE0D5E90012EB68206803F0BEFE29
:102A10002068816921F44061816120688169AA6828
:102A200041EA02218161D3E7D5E9002C2F7B016ABD
:102A300021F480710162C169036A21F0030141EA56
:102A40000C0121F0F00C39074FF420674CEA1161BA
:102A500023F4206307EA02221A43C161026220685C
:102A6000C16921F00C01C1612068C169AA681143E4
:102A7000ACE710B5040003D094F8390010B107E0BA
:102A8000012010BD002084F83800204600F00CF82A
:102A9000022084F83900211D206803F013FD012075
:102AA00084F83900002010BD30B500681C490025AD
:102AB000022487B0884212D11A48016841F001010E
:102AC00001600068694600F0010005904FF4D440B1
:102AD0008DE831000120CDE9035013481CE0134973
:102AE00088421BD10F48001F016841F002010160BC
:102AF0000068694600F002000590C0208DE83100B2
:102B0000CDE903540A48FFF725FA03208DE8310088
:102B1000CDE9035469460748FFF71CFA07B030BDFA
:102B20000000014044380240001002400004004010
:102B3000000002400004024010B504460068012273
:102B400003F020FD2068016841F0010101600020D0
:102B500010BD70B50446006801694FF00005C94317
:102B6000890715D4C168C943890711D4E91E0161D9
:102B700001202076206880698007204602D0FFF778
:102B8000E8FE04E000F0DCF8204600F08BF9257642
:102B900020680169C943490717D4C168C943490777
:102BA00013D46FF00401016102202076206880694F
:102BB00010F4407F204602D0FFF7CBFE04E000F087
:102BC000BFF8204600F06EF9257620680169C943F8
:102BD000090716D4C168C943090712D46FF0080168
:102BE0000161042020762068C0698007204602D059
:102BF000FFF7AFFE04E000F0A3F8204600F052F922
:102C0000257620680169C943C90617D4C168C9433C
:102C1000C90613D46FF010010161082020762068E6
:102C2000C06910F4407F204602D0FFF792FE04E016
:102C300000F086F8204600F035F925762068016915
:102C4000C943C90708D1C168C943C90704D1891E4E
:102C50000161204600F044F920680169C943090672
:102C600009D4C168C943090605D46FF08001016128
:102C70002046FFF7EFFD20680169C943490609D4E2
:102C8000C168C943490605D46FF04001016120467F
:102C900000F030F920680169C94389060BD4C16886
:102CA000C943890607D46FF0200101612046BDE8C1
:102CB0007040FFF7D0BD70BD70B5006800250224DC
:102CC00086B0B0F1804F0FD0174988421ED14FF423
:102CD00070408DE83100CDE903541448694600BFC7
:102CE000FFF738F906B070BD20208DE831000126CD
:102CF000CDE9035669460E48FFF72CF908208DE808
:102D00003100CDE9035669460A48E9E70A49884295
:102D1000E8D14FF440708DE831000320CDE9035035
:102D200069460648DCE7000000080040000C02404D
:102D3000000002400004024000040140000802407C
:102D4000704770B5044690F838000D4601280DD044
:102D5000012684F83860022084F8390042B1042A40
:102D600018D0082A2AD00C2A4DD139E0022070BD93
:102D7000206803F013FC2068816941F0080181613B
:102D80002068816921F004018161206881692A69D4
:102D9000114311E0206803F02DFC2068816941F4A3
:102DA000006181612068816921F48061816120680E
:102DB00081692A6941EA0221816124E0206803F0E7
:102DC0004BFC2068C16941F00801C1612068C169FC
:102DD00021F00401C1612068C1692A69114311E031
:102DE000206803F069FC2068C16941F40061C16199
:102DF0002068C16921F48061C1612068C1692A69C4
:102E000041EA0221C16184F83960002084F8380069
:102E100070BD10B5040003D094F8390010B107E07C
:102E2000012010BD002084F83800204600F00CF886
:102E3000022084F83900211D206803F043FB0120A3
:102E400084F83900002010BD08B501681248B1F1BE
:102E5000804F0BD0114A914210D1016841F004011A
:102E60000160006800F00400009008BD016841F0B6
:102E700001010160006800F00100F5E708488142A7
:102E8000F3D10548001D016841F0020101600068AE
:102E900000F00200E8E7000040380240000800406F
:102EA000000401407047000010B50446006801228C
:102EB00003F068FB08492068884202D0074988422D
:102EC00003D1416C41F4004141642068016841F044
:102ED00001010160002010BD00000140000401401C
:102EE00000680349884201D1FFF71CB97047000010
:102EF000001000407047704770B5026804461068C3
:102F0000D168536910F00F0F50D003F0010501F4A0
:102F1000907635435DD0C20705D0CA0503D5E26B74
:102F200042F00102E263420705D5DA0703D0E26B03
:102F300042F00202E263820705D5DA0703D0E26BB2
:102F400042F00402E263020705D5DA0703D0E26B20
:102F500042F00802E263E26B002A33D0800604D517
:102F6000880602D5204603F0E8FC20684069E16B42
:102F7000C0F38010090700D428B3204603F0C6FC34
:102F80002068416949061AD5416921F04001416133
:102F9000606BA0B11B490165606BFEF733FE002832
:102FA00010D0606B016DBDE870400847830610D5F6
:102FB0008B060ED52046BDE8704003F0BEBC20460F
:102FC000FFF799FF70BD2046FFF795FF0020E063F3
:102FD00070BD030606D50B0604D52046BDE870403B
:102FE00003F048BE4006F3D54806F1D5D168204627
:102FF00021F04001D160202184F8391000F098FBC5
:1030000070BD00003568000870B5040004D094F865
:103010003900002510B106E0012070BD84F8385059
:10302000204600F023F8242084F839002068C16885
:1030300021F40051C160204603F0C6FC20680169FC
:1030400021F4904101612068416921F02A01416128
:103050002068C16841F40051C160E563202084F814
:10306000390084F83A00002070BD00002DE9F04FCF
:10307000F7490446F54A03680227032000250E1588
:1030800087B04FF001084FF0080E4FF480794FF0F1
:10309000400A4FF0006B934256D10A6842F4002276
:1030A0000A600968009701F4002105910121CDE92A
:1030B00002100820049001976946E648FEF74AFF8F
:1030C00001200096CDE901700320039008200490B0
:1030D000B0466946E048FEF73DFFE148DF495F46FC
:1030E0000160C0E901B5C0E903564561C0E9065970
:1030F00005624562FEF768FE20B14FF4B471D9A0B5
:1031000003F02DFED6486063D54E84636036D34805
:10311000C6E903587561B561F56135623030756295
:1031200086E881043046FEF74FFE20B14FF4BD71B2
:10313000CCA003F014FE2663002205213420B463E2
:10314000FFF79AF8342064E0CB4A934266D10A68CC
:10315000002542F480120A600968032001F48011FE
:103160000591991400910221CDE90118CDE9030ED2
:1031700077466946B848FEF7EDFE0420009002202D
:10318000CDE901080320CDE903076946BB48FEF7F6
:10319000E1FEDFF8CC82B14908F1C0083039404681
:1031A000C8F80010C0E901B5C0E90356C8F81450CA
:1031B000C0E90659C8F820505F46C8F82450FEF709
:1031C00003FE20B14FF4D771A6A003F0C8FDA348B9
:1031D000AB4DC4F834807830C8F8384085E88104B5
:1031E0000020C5E903066861A861E8612862686299
:1031F0002846FEF7E9FD20B14FF4E07199A003F0F5
:10320000AEFD2563002205213520AC63FFF734F8BD
:103210003520FFF725F807B0BDE8F08F8C4ADFF8BE
:1032200064C2121D634554D11168002541F010019C
:1032300011601168CDE9028001F0100105914FF491
:10324000C061CDE900170720049069468148FEF768
:1032500081FEDFF838828C4940465F46C0E903565C
:10326000C8F81450C8F81850C8F81C50C8F82050B6
:1032700088E88204C8F82450FEF7A6FD20B140F289
:10328000ED1178A003F06BFD804D7F48C4F83080CD
:10329000603D7838C8F83840C5E900070020A860CC
:1032A000C5E903066861C5E906092862686228461F
:1032B000FEF78AFD20B140F2FF116AA003F04FFD36
:1032C0006563002205212520AC63FEF7D5FF25208C
:1032D0009FE7DFF8BCC163455CD10A6842F4003265
:1032E0000A600968CDE9028001F4003105910C21E2
:1032F000CDE900170720049069465648FEF72AFEDC
:10330000DFF85C815549A8F1600840466031C0E9AA
:103310000356C8F81450C8F81850C8F81C505F4637
:10332000C8F8205088E88204C8F82450FEF74CFD05
:1033300020B14FF40B714BA003F011FDC4F83080A5
:10334000C8F83840DFF84481444908F16008483142
:103350004046C8F80010C0E90175C0E90356C8F836
:103360001450C0E90659C8F82050C8F82450FEF798
:103370002BFD20B140F23E213AA003F0F0FCC4F84E
:103380003480002205212620C8F83840FEF774FF5B
:1033900026203EE7DFF8FCC063457FD10A680025A0
:1033A00042F480220A600968CDE9028001F480219C
:1033B00005914FF44061CDE900170720049069465C
:1033C0003548FEF7C7FDDFF8B880244908F16008EA
:1033D00040461831C0E90356C8F81450C8F81850D0
:1033E000C8F81C505F46C8F8205088E88204C8F826
:1033F0002450FEF7E9FC20B140F26B2119A003F044
:10340000AEFC1F4D1548C4F83080C0351838C8F8D8
:103410003840C5E900070020A860C5E903066861D7
:10342000C5E90609286268622846FEF7CDFC20B18E
:1034300040F27D210BA003F092FC65630022052180
:103440002720AC63FEF718FF2720E2E6004C00407F
:103450004038024000000240000802404060024044
:10346000746A00202E2E2F436F72652F5372632FC4
:1034700075736172742E630000500040000C0240AE
:10348000946B002000100140B86402405469002091
:10349000004400400048004000040240FFE7274984
:1034A0008B427FF4B8AE116841F0200111601168C1
:1034B00001F020010591C0218DE88201CDE9030EC4
:1034C00069461F48FEF746FD1F4F1E484FF0206813
:1034D000C7E903567D61BD61FD613D627D6287E89C
:1034E00001053846FEF770FC28B140F2AA21AFF280
:1034F0008C0003F034FC2763BC63134F1148603722
:1035000078383860C7E90185C7E903567D61C7E9A6
:1035100006593D6238467D62FEF756FC28B14FF4ED
:103520002F71AFF2C00003F01AFC6763002205217F
:103530004720BC63FEF7A0FE47206AE60014014066
:1035400000080240A0640240B46C0020F8B50446B4
:1035500090F83A0020283CD1C1B3BAB394F83800AF
:10356000012836D0012084F83800A162A285002508
:10357000E563222084F83A00636B1748D863636BD5
:1035800016481864636B1648D864606B134605656B
:103590000846666B216802463046091DFEF77EFC30
:1035A000206801684168009184F83850C16841F48E
:1035B0008071C1602068416941F00101416120686A
:1035C000416941F0400141610020F8BDFFE7012061
:1035D000FBE70220F9E700008F680008CB680008CD
:1035E00045680008F0B5294B0268012128489A4235
:1035F00002D180F82412F0BD264B9A4202D180F805
:103600001412F0BD244B9A4202D180F83412F0BD5E
:1036100022498A42FBD0224D22496C150023AA423E
:1036200016D1002001F21A220D18B1F81C642D7C6D
:10363000B554B1F81C546D1CADB2A1F81C54A54290
:1036400001D3A1F81C34401C80B20A28ECD3F0BD91
:10365000154DAA42FBD145F6FE7500220D448E1889
:1036600006F5A046B0F8007296F8F46D7E55B0F8F5
:103670000062761CB6B2A0F80062A64201D3A0F8A0
:103680000032521C92B20A2AE9D3F0BD0010014068
:10369000586300200044004000480040004C0040B7
:1036A0000050004058030020001401407047000003
:1036B00070B5044690F83900202830D169B362B360
:1036C00094F8380001282AD0012084F838002162BB
:1036D000A284E2840025E563212084F83900236B6D
:1036E0001048D863236B10481864236B0F48D864C4
:1036F000206B134605652668206B321DFEF7CEFB56
:1037000021686FF04000086084F8385020684169F3
:1037100041F080014161002070BD012070BD022098
:1037200070BD0000D56800080369000845680008FE
:103730000068014970470000001001407047FEE733
:1037400070B501001048114E4FF4005505D0012905
:1037500014D0022915D0032909D0012220210446C2
:10376000FEF7D4FC012240212046FEF7CFFC0122C7
:1037700029463046BDE87040FEF7C8BC0122202132
:10378000F8E701224021F5E700100240000802405E
:1037900070B501001048114E4FF4005505D00129B5
:1037A00014D0022915D0032909D000222021044673
:1037B000FEF7ACFC002240212046FEF7A7FC0022C9
:1037C00029463046BDE87040FEF7A0BC002220210B
:1037D000F8E700224021F5E700100240000802400F
:1037E00070B501000E480F4E4FF4005505D0012969
:1037F00011D0022911D0032907D020210446FEF759
:1038000081FC40212046FEF77DFC29463046BDE87C
:103810007040FEF777BC2021F9E74021F7E7000070
:10382000001002400008024010B52DED0A8BB0EEEA
:1038300040BAF0EE60BAB0EE428AF0EE628AB0EEC4
:10384000439A9FED2A0BF0EE639AB0EE41AAF0EE98
:1038500061AA53EC102B51EC180BFCF725FF06D195
:1038600053EC192B51EC1B0BFCF7EFFD39E09FEDEE
:10387000210B51EC180B53EC102BFCF72DFF06D845
:1038800053EC192B51EC1A0BFCF7DCFD29E053EC3F
:10389000182B51EC180BFCF7DBFD9FED181B53ECBC
:1038A000112BFCF72EFDFCF72FFF00EE100A04F0A1
:1038B000D9FA10EE100AFCF7E3FE41EC1C0B53ECB6
:1038C0001A2B51EC180BFCF7C3FD53EC1B2BFCF728
:1038D00018FD53EC192BFCF7B8FD53EC1C2BFCF72F
:1038E00029FEBDEC0A8B41EC100B10BD000000005E
:1038F000000000000000000084D797410000000095
:103900000000F03F70B50C462DED0A8B0546B0EE79
:10391000439AF0EE639AB0EE418AF0EE618AB0EE1F
:1039200042BAF0EE62BAB0EE40AAF0EE60AA9FEDA5
:103930003ACB53EC192B51EC180BFCF7B5FE0DD11B
:1039400053EC1B2B51EC1A0BFCF7AEFE06D185EDA8
:1039500000CB84ED00CBBDEC0A8B70BD53EC192B72
:1039600051EC180BFCF7A0FE0DD153EC1B2B51ECC6
:103970001A0BFCF799FE06D09FED290B85ED000B85
:1039800084ED008BE7E753EC192B51EC180BFCF797
:103990008BFE0BD053EC1B2B51EC1A0BFCF784FE67
:1039A00004D185ED00CB84ED00ABD4E753EC182BAC
:1039B00051EC190BFCF746FD41EC1C0B53EC1B2B97
:1039C00051EC1A0BFCF741FD53EC1C2BFCF7B2FD3C
:1039D000C5E9000153EC192B51EC180BFCF732FD33
:1039E00041EC1C0B53EC192B51EC1A0BFCF730FD7E
:1039F00041EC190B53EC182B51EC1B0BFCF728FD79
:103A000053EC192BFCF71EFD53EC1C2BFCF792FD1D
:103A1000C4E900019FE70000000000000000000072
:103A20000000000084D797412DE9F0410E462DEDAE
:103A30000A8B0746B0EE428AF0EE628AB0EE40BAD8
:103A4000F0EE60BA9FED2AAB51EC130B53EC1A2B3E
:103A5000FCF7FEFC0D46044645EC100B03F06CFC35
:103A600053EC182B51EC100BFCF7F2FC41EC190B4A
:103A700045EC104B03F0FCFB53EC182B51EC100BF6
:103A8000FCF7E6FC41EC180B9FED1BCB53EC1A2B1B
:103A900051EC1B0BFCF7DCFC41EC100B03F0E8FBDA
:103AA00053EC1C2B51EC100BFCF7D2FC41EC100B2F
:103AB00053EC102B9FED120B51EC100BFCF73AFD61
:103AC0009FED110B41EC1A0B53EC182B51EC100B22
:103AD000FCF7BEFCC7E9000153EC192B51EC1A0BA3
:103AE000FCF7B6FCC6E90001BDEC0A8BBDE8F0812D
:103AF0000000002047DF913F00CC433733C18441B1
:103B0000000000000080764045B77E4F7158E13ECE
:103B100070B50C462DED0C8B0546B0EE429AF0EEDA
:103B2000629AB0EE40AAF0EE60AAB0EE43BAF0EEB0
:103B300063BAB0EE41CAF0EE61CA53EC192B51ECF6
:103B40001A0BFCF7B1FD06D19FED208BB0EE480AB1
:103B5000F0EE680A33E053EC192B51EC1A0BFCF72A
:103B600071FC41EC180B53EC1C2B51EC1B0BFCF7BC
:103B700069FC53EC182BFCF7DDFC41EC180B53EC03
:103B8000192B51EC1A0BFCF760FC41EC1D0B53ECAC
:103B90001B2B51EC1A0BFCF75BFC41EC1A0B53ECA2
:103BA0001C2B51EC190BFCF753FC53EC1A2BFCF7B4
:103BB00049FC53EC1D2BFCF7BDFC41EC100B85EDD3
:103BC000008B84ED000BBDEC0C8B70BD0000000081
:103BD000000000002DE9F041274B284D1E15284C10
:103BE000DF14012906D0052844D2DFE800F0233590
:103BF0003940320005283DD2DFE800F003141618E2
:103C00001200002204211846FEF780FA00228021CB
:103C10002846FEF77BFA002231462046FEF776FA68
:103C2000002217E0002218E000221AE000221FE024
:103C3000204618E0012204211846FEF767FA012207
:103C400080212846FEF762FA012231462046FEF71F
:103C50005DFA01223946EBE701220421184602E011
:103C6000012280212846BDE8F041FEF74FBA01222B
:103C70003146DDE7BDE8F08100040240001002405B
:103C8000000C024010B5074C00224FF48071204612
:103C9000FEF73CFA002261152046BDE81040FEF711
:103CA00035BA0000000402407FB5154813490024CE
:103CB00001604FF48031C0E901140461846111494D
:103CC0000462C0E90A140125C460C561456104634A
:103CD000FDF7CBFE18B152210BA003F040F80A20EB
:103CE000CDE90005694602940548FDF715FE002858
:103CF00003D05C2104A003F032F87FBD0020014016
:103D0000006600200100000F2E2E2F436F72652FDA
:103D10005372632F6164632E63000000394808B555
:103D2000016841F480010160016801F480010091A3
:103D3000016841F4001101600068002200F40010E5
:103D4000009005210B20FEF797FA0B20FEF788FA6A
:103D5000002205210C20FEF78FFA0C20FEF780FAD6
:103D6000002205210D20FEF787FA0D20FEF778FAD4
:103D7000002205210E20FEF77FFA0E20FEF770FAD2
:103D8000002205210F20FEF777FA0F20FEF768FAD0
:103D9000002205211020FEF76FFA1020FEF760FACE
:103DA000002205211120FEF767FA1120FEF758FACC
:103DB000002205212F20FEF75FFA2F20FEF750FA90
:103DC000002205213920FEF757FA3920FEF748FA7C
:103DD000002205213A20FEF74FFA3A20FEF740FA7A
:103DE000002205214520FEF747FA4520FEF738FA64
:103DF000002205214620FEF73FFABDE80840462094
:103E0000FEF72EBA3038024010B590B01422114996
:103E10006846FCF764FA0021684604F059F80E4C35
:103E20000C4914222060143105A8FCF758FA00212F
:103E300005A804F04DF807496060142228310AA84B
:103E4000FCF74DFA00210AA804F042F8A06010B077
:103E500010BD0000088C0008A80000202DE9F04FDC
:103E60005A4887B00024016841F0100101600168E0
:103E700001F010010591016841F004010160016841
:103E800001F004010591016841F0800101600168C1
:103E900001F080010591016841F0010101600168B4
:103EA00001F001010591016841F002010160016822
:103EB00001F002010591016841F00801016000680C
:103EC000002200F00800059060214148FEF71EF92D
:103ED000DFF800914FF40057002239464846FEF7BC
:103EE00015F9DFF8F4A001224FF441715046FEF7B6
:103EF0000DF9012280213648FEF708F9DFF8DCB021
:103F00004FF44076002231465846FEF7FFF84FF452
:103F10004068012241465846FEF7F8F80125E020A6
:103F2000CDE90005CDE9025469462948FEF712F8AB
:103F30000097CDE90154694648460394FEF70AF814
:103F4000CDE90054694626480294FEF703F80420A0
:103F5000022703948DE8A10069465046FDF7FAFF59
:103F6000CDE90274CDE9006569465846FDF7F2FFD8
:103F7000CDF80080CDE90154694658460394FDF719
:103F8000E9FF0096CDE90154694650460394FDF7D8
:103F9000E1FF032000901348CDE9010569460C4874
:103FA000FDF7D8FF002205210620FEF765F906205F
:103FB000FEF756F9002205210720FEF75DF90720DC
:103FC000FEF74EF907B0BDE8F08F00003038024030
:103FD000001002400008024000040240000C0240B1
:103FE000000002400000111010B5284886B0264994
:103FF0000160A7210024C0E901144FF6FF71C0E958
:1040000003144461FEF735FD18B14F2120A002F0E2
:10401000A6FE049404A91D480594FEF74AFC18B1B5
:1040200056211BA002F09BFE0120CDE90040029426
:104030000022694615480394FEF78CFC18B15F21F5
:1040400013A002F08CFE042269461048FEF782FCA1
:1040500018B164210EA002F082FE082269460B48C6
:10406000FEF778FC18B1692109A002F078FE0C2255
:1040700069460648FEF76EFC002803D06E2104A0B6
:1040800002F06DFE06B010BD000001404866002041
:104090002E2E2F436F72652F5372632F74696D2E0E
:1040A0006300000010B51E488AB04FF080410160E7
:1040B00053210024C0E901146321C0E90314FEF771
:1040C000A8FE18B17F2117A002F049FE079407A9A6
:1040D00013480894FEF7EDFB18B1862111A002F0F9
:1040E0003EFE6020CDE900040294002269460C489F
:1040F0000494FEF726FE18B18F210AA002F02FFECD
:10410000042269460648FEF71CFE18B1942105A05A
:1041100002F025FE0248FEF7CFFD0AB010BD0000F8
:10412000846600202E2E2F436F72652F5372632FEB
:1041300074696D2E6300000010B5284886B02649CA
:10414000016053210024C0E901144FF6FF71C0E95A
:104150000314FEF78EFC18B1A72121A002F0FFFD89
:10416000049404A91D480594FEF7A3FB18B1AE21E1
:104170001BA002F0F4FD0120CDE9004002940022D2
:10418000694616480394FEF7E5FB18B1B72114A061
:1041900002F0E5FD042269461048FEF7DBFB18B18A
:1041A000BC210FA002F0DBFD082269460B48FEF798
:1041B000D1FB18B1C1210AA002F0D1FD0C22694641
:1041C0000648FEF7C7FB002803D0C62104A002F072
:1041D000C6FD06B010BD000000040040C06600200F
:1041E0002E2E2F436F72652F5372632F74696D2EBD
:1041F0006300000010B528488AB0264901605321A9
:104200000024C0E901146321C0E90314FEF701FE94
:1042100018B1D72121A002F0A2FD079407A91E48DA
:104220000894FEF746FB18B1DE211CA002F097FDB2
:104230006020CDE9000402940022694616480494E7
:10424000FEF77FFD18B1E72114A002F088FD0422DB
:1042500069461148FEF775FD18B1EC210FA002F078
:104260007EFD082269460C48FEF76BFD18B1F1216E
:104270000AA002F074FD0C2269460748FEF761FDB2
:1042800018B1F62105A002F06AFD0348FEF714FDFF
:104290000AB010BD00080040FC6600202E2E2F43FF
:1042A0006F72652F5372632F74696D2E6300000067
:1042B00010B52C4890B02A490160A7210024C0E91C
:1042C00001146321C0E903144461FEF7A2FD20B18B
:1042D00040F20B1124A002F042FD0E940EA92148D9
:1042E0000F94FEF7E6FA20B14FF489711EA002F098
:1042F00036FD6020CDE900040294039404940594F3
:104300000822694617480694FEF71BFD20B14FF4BA
:104310008F7115A002F023FD0C2269461148FEF7AB
:1043200010FD20B140F223110FA002F018FD0794F8
:10433000089409944FF400500A94CDE90B4007A962
:1043400008480D94FEF788FA20B140F22F1106A01C
:1043500002F005FD0348FEF7AFFC10B010BD0000F1
:1043600000040140386700202E2E2F436F72652F06
:104370005372632F74696D2E630000000D4810B5F1
:104380000B4901604FF4E1314160002181600C2252
:10439000C160C0E904128161C161FEF735FE0028E9
:1043A00005D0BDE81040D92103A002F0D8BC10BD53
:1043B000004C0040746700202E2E2F436F72652F33
:1043C0005372632F75736172742E63000D4810B5BC
:1043D0000B4901604FF4E1314160002181600C2202
:1043E000C160C0E904128161C161FEF70DFE0028C1
:1043F00005D0BDE81040EB2103A002F0B0BC10BD19
:1044000000500040B46700202E2E2F436F72652F9E
:104410005372632F75736172742E63000D4810B56B
:104420000B4901604FF416514160002181600C225C
:10443000C160C0E904128161C161FEF7E5FD002899
:1044400005D0BDE81040FE2103A002F088BC10BDDD
:1044500000100140F46700202E2E2F436F72652F4D
:104460005372632F75736172742E63000E4810B51A
:104470000C4901604FF416514160002181600C220B
:10448000C160C0E904128161C161FEF7BDFD002871
:1044900006D0BDE8104040F2111104A002F05FBC4C
:1044A00010BD000000440040346800202E2E2F4331
:1044B0006F72652F5372632F75736172742E630070
:1044C0000E4810B50C4901604FF4165141600021AF
:1044D00081600C22C160C0E904128161C161FEF7F4
:1044E00093FD002806D0BDE810404FF4927104A05F
:1044F00002F035BC10BD0000004800407468002088
:104500002E2E2F436F72652F5372632F7573617256
:10451000742E63000E4810B50C4901604FF416511B
:104520004160002181600C22C160C0E904128161F8
:10453000C161FEF769FD002806D0BDE8104040F2D9
:10454000371104A002F00BBC10BD000000140140A4
:10455000B46800202E2E2F436F72652F5372632F85
:1045600075736172742E6300FEE770470907090EC8
:10457000002806DA00F00F0000F1E02080F8141D9A
:10458000704700F1E02080F80014704710B52DED61
:10459000068BB0EE609AF0EE618A71EE400ADFEDB4
:1045A000211A31EE000A20EEA18AF6EE000A20EE72
:1045B000200ADFED1D0A20EE200A10EE100AFCF79B
:1045C0005FF841EC100B02F053FEB0EE40AA38EE5B
:1045D000C90AF0EE60AA10EE100AFCF751F853EC8D
:1045E0001A2BFBF735FF9FED111B53EC112BFBF73B
:1045F0002FFFFCF789F868EE080A00EE100A40EE7B
:10460000000A10EE900AFCF73BF841EC100B02F0A8
:10461000F7FE51EC100BFCF777F8BDEC068B00EEC3
:10462000100A10BD00B1D84735FA8E3C00000000DA
:10463000602DFB4010B5B4EE410A2DED068BB0EEB7
:10464000618AF0EE608AF1EE10FA07D1F4EE488A42
:10465000F1EE10FA02D19FED2B0A47E031EE409ABD
:1046600031EE000AF6EE000A20EE200ADFED260AFF
:1046700020EE200A10EE100AFCF702F841EC100BB5
:1046800002F0F6FDB0EE40AA38EE680AF0EE60AA3D
:1046900010EE100AFBF7F4FF53EC1A2BFBF7D8FED1
:1046A000FCF732F8FBF7ECFF41EC180BB1EE490ACE
:1046B00010EE100AFBF7E4FF41EC100BB0EE481AC5
:1046C000F0EE681A02F0DCFC9FED101B51EC100BB1
:1046D00053EC112BFBF7BCFE9FED0E1B53EC112B83
:1046E000FBF70FFEFCF710F800EE100AB5EEC00A5B
:1046F000F1EE10FA03D2DFED090A30EE200ABDEC2C
:10470000068B10BD0000000035FA8E3C0000002032
:10471000DCA54C4000000000008056400000B4437F
:10472000F0B50D4A002302F11A044FF4007C1D4637
:104730000FE0B2F81E74C65C3E55B2F81E64761CDB
:10474000B6B2A2F81E64664501D3A2F81E545B1CE3
:104750009BB28B42EDD3F0BD580300202DE9F04110
:104760000446444E14F8060F60F30705607860F3C2
:104770000F25A07860F31745E07860F31F6535607A
:10478000207960F30705607960F30F25A07960F365
:104790001745E07960F31F6528467560FBF739FF20
:1047A0009FED351B53EC112BFBF752FE344FC7E93D
:1047B0000201207A60F30705607A60F30F25A07A82
:1047C00060F31745E07A60F31F652846B560FBF794
:1047D00020FF9FED291B53EC112BFBF739FEC7E996
:1047E0000001207B60F30705607B60F30F25A07B51
:1047F00060F31745E07B60F31F652846F560FBF723
:1048000008FF9FED201B53EC112BFBF721FEC7E99E
:104810000401207C60F30705607C60F30F25A07C19
:1048200060F31745E07C60F31F6500EE105A1748EF
:104830003561B8EEC00A80ED020A207D60F30705FD
:10484000607D60F30F25A07D60F31745E07D60F388
:104850001F657561207E60F30705607E60F30F259C
:10486000A07E60F31745E07E60F31F65B561BDE88B
:10487000F0810000E0AC002048AFBC9AF2D77A3E4D
:1048800020610020FCA9F1D24D62503F240100209C
:1048900010B582791C4C62F30701C27962F30F21D3
:1048A000027A62F31741427A62F31F61154A11607E
:1048B000837A536084F8C03DC37A9360037BD360EE
:1048C000437B1361827B62F30701C27B62F30F219A
:1048D000027C62F31741427C62F31F61094A243A69
:1048E0005161827C62F30701C27C62F30F21027D79
:1048F000407D62F3174160F31F61024824388161F3
:1049000010BD0000C4AC0020585300202DE9F04138
:1049100004462DED028B14F8061F5D4D61F3070070
:10492000617861F30F20A17861F31740E17861F3BA
:104930001F60584928604860217961F30700617958
:1049400061F30F20A17961F31740E17961F31F60F2
:1049500000EE100AB8EEC00ADFED4F0A4F4E20EE0F
:10496000200ABDEEC00A85ED010AB8EEC00A86ED48
:10497000020A14F8081F61F30700617861F30F2041
:10498000A17861F31740E17861F31F600746A860E2
:10499000FBF73FFE9FED428B53EC182BFBF758FDC6
:1049A000FBF7B2FEF0602079E17960F307076079E8
:1049B00060F30F27A07960F31747384661F31F6053
:1049C0000746E860FBF725FE53EC182BFBF740FD8C
:1049D000FBF79AFEF060217A384661F30700617AAE
:1049E00061F30F20A17A61F31740E17A61F31F6050
:1049F00007462861FBF70DFE53EC182BFBF728FD4B
:104A0000FBF782FE3060207B60F30707607B60F37A
:104A10000F27A07B60F31747E07B60F31F676F6190
:104A2000217C384661F30700617C61F30F20A17C93
:104A300061F31740E17C61F31F600746A861FBF753
:104A4000E8FD9FED191B53EC112BFBF701FDFBF764
:104A50005BFE7060207D60F30707607D60F30F27C9
:104A6000A07D60F31747E07D60F31F67EF61207E54
:104A700060F30707607E60F30F27A07E60F317479F
:104A8000E07E60F31F672F62BDEC028BBDE8F08112
:104A9000A0AC0020240100200AD7233C386100206C
:104AA0007B14AE47E17A843FF168E388B5F8E43ED1
:104AB0002DE9F0413B4C3C490025227842B1012AC6
:104AC0000DD0022A11D0032A13D0042A18D055E0A1
:104AD000EB2853D1012222700870BDE8F0819028A4
:104AE0004CD1022222704870F7E7032222708870AE
:104AF000F3E7421CA2700422E2702270C870ECE757
:104B0000A278AAB3521E12F0FF02A270E378C85432
:104B100003F10103DBB2E370DFD18A78412A3CD094
:104B2000DFF884C0002630469CF803703F1D05E086
:104B30001CF800E0401C7644B6B2C0B28742F7D8F9
:104B40000B44F0B213F8013C984224D1062A1AD043
:104B500006DC062A11D2DFE802F013161616161626
:104B6000322A14D005DC072A0DD0312A05D10EE0F7
:104B700004E0332A0BD0342A09D025702570ACE725
:104B800048792071FAE7084800F010F8F6E706487F
:104B900000F082F9F2E7412A9FD1034800F094F82F
:104BA000ECE70000480100208CA8012030B4857893
:104BB000417901224048414B022D20D00024042D90
:104BC00030D0052D19D1A3F5B840112936D044298C
:104BD00064D0552911D100F5B04191ED760B80EDEF
:104BE000120B91ED720B80ED0E0B91ED740B80EDBD
:104BF000100B91ED790A80ED150A30BC70476D29D4
:104C00000CD0CB0700D042708B0700D582704B07C9
:104C100000D5C2700907F0D50271EEE76D2083F868
:104C20007202EAE7CB0706D0027749084177C18BC9
:104C3000491CC183E1E70477C483DEE7204983F898
:104C4000712283F8724281F8502D90ED820B80ED35
:104C50003C0B90ED7E0B80ED380B90ED800B80EDE2
:104C60003A0B90ED840A80ED3E0A90ED850A80EDC6
:104C70003F0A90ED2E0B80ED200B90ED2A0B80ED7E
:104C80001C0B90ED2C0B80ED1E0B90ED300A80ED8F
:104C9000220A90ED310A80ED230AAEE7094903208C
:104CA0003822C1F8280483F8724201F5866130BCCD
:104CB00001F1A800FBF713BB00A7012058630020F7
:104CC00058530020580300202DE9F04704462DEDED
:104CD000068B82B0FCF73CFDE178E21C8A5C8DF823
:104CE0000020221D895C8DF80110BDF80010814262
:104CF0007ED114F8050F94F801A0A1788DF800106A
:104D0000E1788DF80110BDF8008021798DF8001050
:104D100061798DF80110BDF80050A1798DF800106F
:104D2000E1798DF80110217A8DF80210617A8DF801
:104D30000310A17A8DF80410E17A8DF80510217B1B
:104D40008DF80610617B8DF807109DED00ABA17BFF
:104D50008DF80010E17B8DF80110217C8DF8021098
:104D6000617C8DF80310A17C8DF80410E17C8DF836
:104D70000510217D8DF80610617D8DF807109DEDE1
:104D8000009BA17D8DF80010E17D8DF80110BDF92B
:104D9000001000EE101AB8EEC00ADFED3B0A217ECB
:104DA0008DF80010617E8DF80110BDF80070A17EB5
:104DB0008DF80010E17E8DF80110BDF80060217FB4
:104DC0008DF80010617F8DF8011020EE208ABDF86B
:104DD0000090FBF72FFC0AEBCA032C4A03EB0A13E3
:104DE00002EB432202EB8514C4E90001404600E0D7
:104DF00044E0FBF71FFCC4E9020184ED04AB84ED41
:104E0000069B18EE100AFBF73BFCC4E90801384684
:104E1000FBF710FCC4E90A013046FBF70BFCC4E9C0
:104E20000C014846FBF706FCC4E90E011848C5EB27
:104E3000C501C0F8388DA0F5A04000EBC10418EE04
:104E4000100AC4F8B85504F5806484ED72AB84EDA3
:104E5000709BFBF715FC00EE107AC4E974010D4855
:104E6000B8EE400A012184ED760A00EE106AB8EE31
:104E7000400A84ED770A80F82410C58402B0BDECA6
:104E8000068BBDE8F0870000CDCCCC3D00AD002006
:104E90005853002000A70120F0B54179467D61F309
:104EA00007028179477E61F30F22C17990F821C012
:104EB00061F31742017A857861F31F62417A1346E4
:104EC00061F30702817A312D61F30F22C17A61F318
:104ED0001742017B61F31F62417B144661F30704B3
:104EE000817B61F30F24C17B61F31744017C61F383
:104EF0001F64417C61F30704817C61F30F24C17C52
:104F000061F31744017D61F31F64214666F30701D5
:104F1000867D66F30F21C67D66F31741067E66F334
:104F20001F610E4667F30701877E67F30F21C77E77
:104F300067F31741077F67F31F61477F67F3070137
:104F4000877F67F30F21C77F67F3174190F82070C1
:104F500067F31F610F466CF3070190F822C06CF3F2
:104F60000F2190F823C090F824006CF3174160F3F0
:104F70001F610BD10648C0E90571C0E90032C0E9E4
:104F80000A4600F52470012180F87012F0BD00007F
:104F9000C8600020F0B58DB012AF97E87000AA2766
:104FA0008DF808708DF8097041278DF80A70002778
:104FB0008DF80C708DF80D00ADF800208DF80E10F6
:104FC0009DF800008DF80F009DF801008DF810008D
:104FD000ADF800309DF800008DF811009DF801003B
:104FE0008DF80B708DF812008DED000B9DF8000010
:104FF0008DF813009DF801008DF814009DF8020053
:105000008DF815009DF803008DF816009DF804003A
:105010008DF817009DF805008DF818009DF8060022
:105020008DF819009DF807008DF81A008DED001B12
:105030009DF800008DF81B009DF801008DF81C0004
:105040009DF802008DF81D009DF803008DF81E00EC
:10505000B2EE040A9DF804008DF81F0022EE000A4B
:105060009DF805008DF820009DF806008DF82100C0
:10507000BDEEC00A9DF807008DF8220010EE100A60
:10508000ADF800009DF800008DF823009DF80100A8
:105090008DF82400ADF800409DF800008DF8250043
:1050A0009DF801008DF82600ADF800509DF8000035
:1050B0008DF827009DF801008DF82800ADF80060FC
:1050C0009DF800008DF829009DF801008DF82A0058
:1050D00020208DF80B0002A8FCF73AFBADF8000089
:1050E0009DF800008DF82B009DF801008DF82C0034
:1050F000252102A8FFF714FB0DB0F0BD2DE9F04308
:105100008DB014AC4FF0AA0894E8E0128DF800803E
:105110008DF801808DF8020000208DF804008DF8D4
:1051200005108DF806208DF8085009208DF80960CB
:105130000D218DF80A708DF8030000226C468DF861
:1051400007308DF80B908DF80CC01046235C401C86
:105150001A44C0B2D2B28842F8D362542046491CE5
:10516000FFF7DEFA0DB0BDE8F08310B594B0AA23C6
:105170008DF800308DF8013030308DF802000020BD
:105180008DF803008DF8040010EE100ADDE91621F9
:105190008DF80500030A8DF80630030C000E8DF81B
:1051A000080010EE900A8DF807308DF80900030A08
:1051B0008DF80A30030C000E8DF80C0011EE100A69
:1051C0008DF80B308DF80D00030A8DF80E30030CAE
:1051D000000E8DF8100011EE900A8DF80F308DF84A
:1051E0001100030A8DF81230030C000E8DF8140024
:1051F00012EE100A8DF813308DF81500030A8DF8A1
:105200001630030C000E8DF8180012EE900A8DF87F
:1052100017308DF81900030A8DF81A30030C000EB0
:105220008DF81C0013EE100A8DF81B308DF81D0050
:10523000030A8DF81E30030C000E8DF8200013EECB
:10524000900A8DF81F308DF82100030A8DF8223066
:10525000030C000E8DF823308DF8240014EE100A94
:105260008DF82500030A8DF82630030C000E8DF80A
:10527000280014EE900A8DF827308DF82900030AD3
:105280008DF82A30030C000E8DF82C0015EE100A54
:105290008DF82B308DF82D00030A8DF82E30030C7D
:1052A000000E8DF8300015EE900A8DF82F308DF835
:1052B0003100030A8DF83230030C000E8DF83400F3
:1052C00016EE100A8DF833308DF83500030A8DF88C
:1052D0003630030C000E8DF8380016EE900A8DF86B
:1052E00037308DF83900030A8DF83A30030C000E80
:1052F0008DF83C0017EE100A8DF83B308DF83D001C
:10530000030A8DF83E30030C000E8DF8400017EEB6
:10531000900A8DF83F308DF84100030A8DF8423035
:10532000030C000E8DF844008DF84520100A8DF80E
:105330004600100C8DF84700100E8DF848008DF8CF
:105340004910080A8DF84A008DF84330080C8DF892
:105350004B00080E8DF84C0049204D218DF80300BC
:10536000002210466B461C5C401C2244D2B288428C
:10537000F9DB5A541846491CFFF7D2F914B010BD96
:105380002DE9F04FDFF848842DED108BC1B089ACCA
:10539000DDE9846A9DED7CEADDED7AEA9DED78FA3F
:1053A000759F9DED64AB9DED62BB9DED5ECB9DED6C
:1053B0005CDBDDF83CE2919D94EC048A68AC94E8F7
:1053C000001AAA248DF808408DF809400B248DF8A6
:1053D0000A4000248DF80B40FD4C64788DF80C4099
:1053E000641C88F801408DF80D00DFEDFAFA20EE1C
:1053F0002F0ABDEEC00A10EE100A20EEAF0AADF87B
:1054000000009DF800008DF80E00BDEEC00A9DF86A
:1054100001008DF80F0010EE100A21EE2F0AADF8F2
:1054200000009DF800008DF81000BDEEC00A9DF848
:1054300001008DF8110010EE100AB2EE040AADF86A
:10544000000061EE800A9DF800008DF812009DF8C2
:105450000100FDEEE00A8DF8130010EE900A62EEF6
:10546000000AADF800009DF800008DF81400FDEE74
:10547000E00A9DF801008DF8150010EE900A62EE2A
:10548000800AADF800009DF800008DF816009DF828
:1054900001008DF81700FDEEE00A10EE900A63EEB1
:1054A000000AADF800009DF800008DF81800FDEE30
:1054B000E00A9DF801008DF8190010EE900A63EEE5
:1054C000800AADF800009DF800008DF81A00FDEE8E
:1054D000E00A9DF801008DF81B0010EE900A64EEC2
:1054E000000AADF800009DF800008DF81C00FDEEEC
:1054F000E00A9DF801008DF81D0010EE900A64EEA0
:10550000AF0AADF800009DF800008DF81E00FDEE1A
:10551000E00A9DF801008DF81F0010EE900A65EE7C
:105520002F0AADF800009DF800008DF82000FDEE78
:10553000E00A9DF801008DF8210010EE900A65EE5A
:10554000AF0AADF800009DF800008DF82200FDEED6
:10555000E00A9DF801008DF8230010EE900A66EE37
:10556000000AADF800009DF800008DF82400FDEE63
:10557000E00A9DF801008DF8250010EE900A66EE15
:10558000800AADF800009DF800008DF82600FDEEC1
:10559000E00A9DF801008DF8270010EE900A67EEF2
:1055A000000AADF800009DF800008DF82800FDEE1F
:1055B000E00A9DF801008DF8290010EE900AADF880
:1055C000000067EE800A9DF800008DF82A009DF823
:1055D0000100FDEEE00A8DF82B0010EE900AADF808
:1055E00000009DF800008DF82C009DF801008DF85A
:1055F0002D00DDED5A0A60EE800AFDEEE00A10EEA5
:10560000900AADF800009DF800008DF82E009DF87E
:1056100001008DF82F00DDED5B0A20EE800ABDEE63
:10562000C00A10EE100AB2EE040AADF800009DF8B0
:1056300000008DF830009DF801008DF831008DF8E4
:1056400032108DED00DB9DF800008DF833009DF8E1
:1056500001008DF834009DF802008DF835009DF8AA
:1056600003008DF836009DF804008DF837009DF892
:1056700005008DF838009DF806008DF839009DF87A
:1056800007008DF83A008DED00CB9DF800008DF8F5
:105690003B009DF801008DF83C009DF802008DF85C
:1056A0003D009DF803008DF83E009DF804008DF844
:1056B0003F009DF805008DF840009DF806008DF82C
:1056C00041009DF807008DF84200DDED600A60EEB4
:1056D000800AFDEEE00A10EE900AADF800009DF899
:1056E00000008DF843009DF801008DF84400DDEDC9
:1056F000610A60EE800AFDEEE00A10EE900AADF855
:1057000000009DF800008DF845009DF801008DF81F
:1057100046008DF847208DED00BB9DF800008DF808
:1057200048009DF801008DF849009DF802008DF8B1
:105730004A009DF803008DF84B009DF804008DF899
:105740004C009DF805008DF84D009DF806008DF881
:105750004E009DF807008DF84F008DED00AB9DF8D1
:1057600000008DF850009DF801008DF851009DF863
:1057700002008DF852009DF803008DF853009DF84B
:1057800004008DF854009DF805008DF855009DF833
:1057900006008DF856009DF807008DF85700DDEDE6
:1057A000660A60EE800AFDEEE00A10EE900AADF89F
:1057B00000009DF800008DF858009DF801008DF85C
:1057C0005900DDED670A60EE800AFDEEE00A03E0B5
:1057D0004801002000007A4410EE900A8DF85C30F9
:1057E000ADF800009DF800008DF85A008DF85D902E
:1057F0009DF801008DF85EB08DF85B008DF85FC0FC
:10580000DDED6B0A60EE800AFDEEE00A10EE900A14
:10581000ADF800009DF800008DF860009DF80100D3
:105820008DF86100DDED6C0A60EE800AFDEEE00AA5
:1058300010EE900AADF800009DF800008DF86200AF
:105840009DF801008DF86300DDED6D0A60EE800AC1
:10585000FDEEE00A10EE900AADF800009DF80000A1
:105860008DF864009DF801008DF86500DDED6E0A8D
:1058700060EE800AFDEEE00A10EE900AADF800003E
:105880009DF800008DF866009DF801008DF8670016
:10589000DDED6F0A20EE800AF2EE040ABDEEC00ACA
:1058A00010EE100AADF800009DF800008DF86800B9
:1058B0009DF801008DF869009DED700A20EE200A28
:1058C000BDEEC00A10EE100AADF800009DF8000011
:1058D0008DF86A009DF801008DF86B009DED710A4E
:1058E00020EE200ABDEEC00A10EE100AADF800004E
:1058F0009DF800008DF86C009DF801008DF86D009A
:105900009DED721A9FEDFE0A21EE001ABCEEC11A3F
:1059100011EE100AADF800009DF800008DF86E0041
:105920009DF801008DF86F009DED731A21EE001AAD
:10593000BCEEC11A11EE100AADF800009DF800008F
:105940008DF870009DF801008DF871009DED741ABE
:105950008DF8747021EE001ABCEEC11A11EE100A17
:10596000ADF800009DF800008DF872009DF8010070
:105970008DF873009DED761A21EE001ABDEEC11A66
:1059800011EE100AADF800009DF800008DF87500CA
:105990009DF801008DF876009DED771A21EE001A32
:1059A000BDEEC11A11EE100A2FEE001AADF800007C
:1059B0009DF800008DF87700BDEEC11A9DF801003A
:1059C0008DF8780011EE100AADF800009DF8000087
:1059D0008DF879009DF801008DF87A009DED791A17
:1059E00021EE001ABDEEC11A11EE100A2EEE801A39
:1059F000ADF800009DF800008DF87B00BDEEC11AE7
:105A00009DF801008DF87C0011EE100AADF8000041
:105A10009DF800008DF87D009DF801008DF87E0056
:105A20009DED7B1A21EE001ABDEEC11A11EE100A8F
:105A30002EEE001AADF800009DF800008DF87F00F2
:105A4000BDEEC11A9DF801008DF8800011EE100A1C
:105A5000ADF800009DF800008DF881009DF8010070
:105A60008DF882009DED7D1A21EE001ABDEEC11A5F
:105A700011EE100AADF800009DF800008DF88300CB
:105A80009DF801008DF884009DED7E1A21EE001A2C
:105A9000BDEEC11A11EE100AADF800009DF800002D
:105AA0008DF885009DF801008DF886009DED7F1A28
:105AB00021EE001ABDEEC11A11EE100AADF8000079
:105AC0009DF800008DF887009DF801008DF8880092
:105AD0009DED801A21EE001ABDEEC11A11EE100ADA
