:020000040800F2
:1000000050E5012059020008833200085F2B0008E8
:1000100081320008090A0008D147000800000000EA
:100020000000000000000000000000009D0100082A
:100030001112000800000000F1010008513F000803
:1000400073020008730200087302000873020008BC
:100050007302000873020008131200081912000846
:1000600073020008730200087302000825110008DB
:1000700073020008730200083111000873020008BF
:10008000730200083D1100087302000873020008A3
:10009000730200087302000873020008730200086C
:1000A000730200087302000873020008730200085C
:1000B000730200087302000873020008730200084C
:1000C000730200087302000873020008730200083C
:1000D00073020008A1470008AD470008B9470008AF
:1000E000730200087302000873020008730200081C
:1000F0007302000873020008730200084911000827
:1001000073020008730200087302000873020008FB
:10011000E5420008F142000865400008730200084B
:1001200073020008730200087302000873020008DB
:1001300073020008730200087302000873020008CB
:1001400073020008730200087302000873020008BB
:10015000730200085511000861110008C547000826
:10016000730200087302000873020008730200089B
:100170007302000873020008730200080000000008
:100180007302000873020008DFF80CD000F0EEFBE9
:1001900000480047A157000850E501202B4B196883
:1001A0000868B0E8F04F80F30988BFF36F8F4FF015
:1001B000000080F3118870470000000006480068C6
:1001C000006880F3088862B661B6BFF34F8FBFF353
:1001D0006F8F00DF00BF00BF08ED00E0DFF80C000C
:1001E000016841F470010160704700BF88ED00E0D4
:1001F000EFF30980BFF36F8F144B1A681EF0100FD6
:1002000008BF20ED108A20E9F04F106008B44FF0CD
:10021000500080F31188BFF34F8FBFF36F8F05F04D
:10022000E3FF4FF0000080F3118808BC19680868EC
:10023000B0E8F04F1EF0100F08BFB0EC108A80F34A
:100240000988BFF36F8F704700BF00BF2C000020EC
:10025000EFF30580704700000648804706480047D6
:10026000FEE7FEE7FEE7FEE7FEE7FEE7FEE7FEE766
:10027000FEE7FEE711400008890100082DE9F05F64
:100280000546002092469B46884606468146402405
:100290001BE0284641464746224600F060FA534696
:1002A0005A46C01A914110D311461846224600F012
:1002B00047FA2D1A67EB01084F462246012000211C
:1002C00000F03EFA17EB00094E41201EA4F1010494
:1002D000DFDC484631462A464346BDE8F09F40EA07
:1002E00001039B0703D009E008C9121F08C0042AB4
:1002F000FAD203E011F8013B00F8013B521EF9D29B
:1003000070472DE9FE4F804681EA0300C00F0C467E
:10031000009021F0004123F00045B8EB0200A94114
:1003200005D24046214690461C460B46024623F025
:100330000040104347D0270DC7F30A00C3F30A510A
:100340000290401A019040286BDAC3F3130040F486
:10035000801B0098924620B10023D2EB030A63EB86
:100360000B0B01985946C0F14002504600F0E8F9E5
:1003700006460D4650465946019A00F000FA10EB29
:1003800008006141002487EA115284EAE7731A43A6
:1003900040D0009A62B3019A012A4FEA075215DC55
:1003A000001B61EB02014FF0004202EA0752CDE967
:1003B0000042001C41F5801132462B4600F037FA0E
:1003C00003B0BDE8F08F40462146F9E7001B61EB22
:1003D0000201001C41F5801300185B412018A2F5B2
:1003E000001747EB030140EAD570B6196D4111E0E3
:1003F0006D084FEA360645EAC0754FEA0752001B02
:1004000061EB0201001C41F5801149084FEA300000
:100410000019514132462B4603B0BDE8F04F00F0C1
:10042000F7B90098012240000023D0EB020263EBF1
:10043000E073009821464FEAE074B8EB000061EBEE
:100440000401E9E783F000435BE781F0004158E7EE
:100450002DE9FE4F81EA030404F0004421F000413D
:1004600000944FF0000B23F0004350EA01045ED0EB
:1004700052EA03045BD0C3F30A54C1F30A552C4477
:10048000A4F2F3340194A0FB0254C1F3130141F42C
:100490008011C3F3130343F4801301FB024400FBF8
:1004A000034E840A970A44EA815447EA8357A4FB1F
:1004B000076802958D0A05FB07854FEA932C04FB1C
:1004C0000C542705029D4FEA065847EA1637B5EB4C
:1004D00008056EEB070C870E920E47EA811742EA79
:1004E0008312A7FB0201B6EB0B0164EB00042B0D9A
:1004F00043EA0C335E1844EB1C50DA465146E7FBE6
:100500000201C5F313044FEA0B3343EA14534FEAD5
:100510000432019C43EA0603A4F10C040294009CFB
:10052000CDE900B400F083F903B0BDE8F08F0020FE
:100530000146F9E72DE9F04D81EA030404F0004B90
:1005400021F0004514464FF0000A23F0004150EA24
:10055000050220D054EA01021DD0C5F30A57024615
:10056000C5F31303C1F31300C1F30A5640F4801519
:1005700043F48013A7EB0608101BD64608F2FD389B
:1005800073EB050002D308F1010801E092185B410A
:10059000B8F1000F03DA00200146BDE8F08D00201D
:1005A0004FF48011064684460EE0171B73EB0507D7
:1005B00005D3121B63EB050306434CEA010C490803
:1005C0004FEA300092185B4150EA0107EDD152EA40
:1005D000030012D082EA040083EA0501084305D033
:1005E000101BAB4106D20122002306E000224FF08F
:1005F000004302E06FF0010253101AEB06004CEBCF
:10060000085110EB0A0041EB0B01BDE8F04D00F082
:10061000FFB80EB5C10F80EAE0700844CA07002198
:1006200040F233438DE80E000A460B4600F0FFF817
:1006300003B000BD0EB540F2334102910021CDE977
:1006400000110A460B4600F0F2F803B000BDC1F3FA
:100650000A5210B5C1F3130140F2FF3341F4801187
:100660009A4201DA002010BD40F233439A42A2F2CE
:10067000334203DC524200F072F810BD904010BDCE
:1006800000F0004230F000400AD0C10D01F5607169
:10069000C0F3160042EA0151C208400711437047F7
:1006A000002001467047000030B5041E71F10004BF
:1006B00004DB4FF00044404264EB0101141E73F16F
:1006C000000405DB1C464FF00043524263EB040379
:1006D0008B4208BF824230BD30B5041E71F1000468
:1006E00004DB4FF00044404264EB0101141E73F13F
:1006F000000405DB1C464FF00043524263EB040349
:10070000994208BF904230BD01F0004330B421F05F
:10071000004150EA010206D00A0DA2F56072C1F351
:100720001301002A02DC30BC00207047440F44EA69
:10073000C104C100E01830BC00EBC25000F031B879
:10074000202A04DB203A00FA02F100207047914091
:10075000C2F1200320FA03F3194390407047202A86
:1007600004DB203A21FA02F00021704721FA02F35B
:10077000D040C2F120029140084319467047202A18
:1007800006DBCB17203A41FA02F043EAE07306E0B9
:1007900041FA02F3D040C2F12002914008431946C9
:1007A00070470029A8BF7047401C490008BF20F0CF
:1007B0000100704710B4B0FA80FC00FA0CF050EA67
:1007C000010404BF10BC704749B1CCF1200421FAE8
:1007D00004F411FA0CF118BF012121430843A3EBE3
:1007E0000C01CB1D4FEA00614FEA102042BF0020F0
:1007F00010BC704700EBC35010440029A4BF10BCCC
:100800007047401C490008BF20F0010010BC704731
:1008100010B5141E73F1000408DA401C41F1000108
:1008200092185B411A4301D120F0010010BD2DE95F
:10083000F04D92469B4611B1B1FA81F202E0B0FA56
:1008400080F220329046FFF77BFF04460F4640EAD5
:100850000A0041EA0B0153465A46084313D0114699
:1008600053EA010019D0C8F140025046FFF777FF64
:1008700005460E46504659464246FFF761FF08437B
:1008800005D0012004E020463946BDE8F08D002067
:10089000054346EAE0762C4337430A986305E40AA9
:1008A000A0EB08000022FD0A44EA47540A3002D5B2
:1008B00000200146E9E7010510196941DDE9084515
:1008C00000196941BDE8F04DA2E72DE9F04D002384
:1008D0001A461B1A8A4103DB00200146BDE8F08D51
:1008E000C1F30A52C1F3130141F480154FF0000B1C
:1008F000D10702D100186D41521E0027044640F274
:10090000FF11384601EB620A3E468046024600204F
:100910004FF48011FFF723FFC2197141BB1846EB5A
:100920000100B4EB030C75EB000C04D3E41A65EB87
:10093000000517460E46241908F101006D41804656
:100940003428E3DDF91946EB0600091BA84103D260
:100950004FF0FF32134601E0002213461BEB070065
:1009600046EB0A51BDE8F04DFFF752BF064C074D6C
:1009700006E0E06840F0010394E80700984710346F
:10098000AC42F6D3FFF704FC7867000898670008CC
:1009900070B5C1F30A5201F000450024C1F3130100
:1009A00040F2FF3341F480119A4201DA002070BD19
:1009B00040F233439A42A2F2334203DC5242FFF741
:1009C000CEFE00E090402C43F1D0404270BD30B5E7
:1009D0008C1810F8012B12F00F0301D110F8013B15
:1009E000120906D110F8012B03E010F8015B01F8A1
:1009F000015B5B1EF9D101E001F8013B521EFBD106
:100A0000A142E6D3002030BDFEE770B500240223EA
:100A10002546891E06E0C65C5B1C3444E4B22544CE
:100A2000EDB2DBB28B42F6DB64F3070265F30F2213
:100A300090B270BD04490220C1F82008034800218B
:100A400080F8401170470000B8020020B862002012
:100A50002DE9F043494C00252DED028B9FB094F811
:100A60004001F0EE408A01279FED458A454EA0B136
:100A7000012855D002280BD194F80412A4F5C040E7
:100A8000012967D0C0F8205884ED548A84ED558A36
:100A90001FB0BDEC028BBDE8F0833A493822A8397B
:100AA0003046FFF71CFC1822374918A8FFF717FC3F
:100AB000382231460AA8FFF712FC32492822283989
:100AC00089466846FFF70BFCDFF8B880F0EE480A6D
:100AD000A8F1500808F11C00B0EE680A90E80E007A
:100AE000D8F8180000F068F9382231460AA818959D
:100AF000FFF7F5FB282249466846FFF7F0FB08F1AF
:100B00001C00B7EE000A90E80E00D8F8180000F0BC
:100B100041F80128BCD184F8407184ED518AB7E7CF
:100B200094ED730AD4ED710AB4EEE00AF1EE10FA16
:100B30000DDB94ED510A154930EE280A10EE100A2B
:100B400084ED510A88429FDD022084F8400184ED43
:100B5000518A99E7C0F8207894F838010C490128A7
:100B60004FF03802304606D001F6E811FFF7B7FB28
:100B700084F8385188E701F60811F7E7B8620020D9
:100B800000000000880B00206064002000009643F5
:100B9000B80200200FB42DED020B70B500242DED2E
:100BA000068BB0EE408A9DED1E0B289D9DED1CAB83
:100BB00051EC100BFFF7A8FD09EE100A51EC1A0BCF
:100BC000FFF7A2FD9DED100B09EE900A51EC100B02
:100BD000FFF79AFD9DED0E0B08EE900A51EC100BFD
:100BE000FFF792FD00EE100AF0EE491AB0EE691A16
:100BF000F0EE680A02F056FB5DB1B4EEC80AF1EE01
:100C000010FA00DB0124BDEC068B204670BC5DF8B9
:100C10001CFBB4EEC80AF1EE10FAF3D9F3E70000BA
:100C200017480222A0F5C041D0ED730A90ED720A78
:100C3000F4EEC00AF1EE10FA01D8C1F8202890F8BD
:100C40000432012B14D190ED711A31EE400A9FED60
:100C50000D1A20EE010AB4EEE00AF1EE10FA07DBFD
:100C6000FF2380F80432C1F82028002180F84011C9
:100C70009FED050A80ED540A80ED550A704700008B
:100C8000B86200209A99993E000000000FB42DE947
:100C9000F05F00272DED0A8B3E46DDE92285DDF869
:100CA0009090032D06D20020BDEC0A8BBDE8F01F0A
:100CB0005DF814FB00249DED168B6BE0681E8442EA
:100CC000C4EBC40108EBC10090ED04BB90ED029BA6
:100CD00004D198ED04CB98ED02AB03E090ED12CB7C
:100CE00090ED10AB53EC192B51EC180BFFF7F4FC03
:100CF00006D853EC1A2B51EC180BFFF7D5FC0DD38B
:100D000053EC1A2B51EC180BFFF7E6FC40D853ECD0
:100D1000192B51EC180BFFF7C7FC39D253EC1A2BE7
:100D200051EC190BFFF78EFB8B4682464BEC100BF8
:100D300004F03AF89FED1E1B51EC100B53EC112BF5
:100D4000FFF7CAFC24D24BEC1AAB53EC182B51EC36
:100D5000190BFFF777FB41EC190B53EC1C2B51ECF3
:100D60001B0BFFF76FFB53EC192BFFF771FB53ECD9
:100D70001A2BFFF7DFFB53EC1B2BFFF766FB9DEDF8
:100D8000181B53EC112BFFF78FFC01D2761CB6B267
:100D9000641CA4B2AC4291D3F00703D0B9F1000FA8
:100DA00003D003E0B9F1010F00D1012738467BE7FA
:100DB00000000000000000000FB42DED020B2DE933
:100DC000F05F2DED0A8BF0EE60BAB0EE408ADDE9FF
:100DD00034B9DDF8C8A09DED33AADDED379A9DED5D
:100DE00026CB9DED280B9FED5D9A002451EC100B56
:100DF000FFF78AFC80460BEE108A51EC1C0BFFF7C4
:100E000083FC07469DED1A0B0AEE907A51EC100B0D
:100E1000FFF77AFC06469DED180B08EE906A51EC40
:100E2000100BFFF771FC054600EE105AF0EE4B1A5E
:100E3000B0EE6A1AF0EE680A02F034FAF0EE408A78
:100E400001EE908A01EE107A00EE906A00EE105AE0
:100E500002F07CFADDED1F0A30EE600A03F02AFA98
:100E60000AF0FF003E49012804D11AEE100A884218
:100E700000DC04240BF0FF00012804D1894502DCCA
:100E800044F0020001E004F0FD00369AD2B2012ADB
:100E900006D119EE902A8A4202DC40F0010001E0FE
:100EA00000F0FE00DFED2F1ABAEE041AF2EE040A8B
:100EB000082813D2DFE800F012040707040C2227E9
:100EC00008EE010A0AE008EE210AF0EE498A05E080
:100ED00039EECA1A21EE201A01EE080A28EEA01AED
:100EE0009DED1E2AF0EE001A1F4902EE611A11EE66
:100EF000100A88420CD99FED1D1A10E0F0EE498AC5
:100F00009FED1B1ADCE7F0EE498A9FED1A1AD7E72E
:100F100011EE100A1849884201DD9FED181A20EEE3
:100F2000200A1748174A0BEEA00A80ED541A10EE5B
:100F3000101A914202D99FED140A06E010EE101A21
:100F4000124A914201DD9FED120A80ED550ABDEC77
:100F50000A8BBDE8F01F5DF81CFB000000000000DC
:100F6000CDCC4C3E000034C200007AC400007AC4EC
:100F700000003442000034C300007A4400007A4488
:100F8000B86200200000FAC30000FAC30000FA4370
:100F90000000FA43134AA2F5B04192ED621B81EDC5
:100FA0002C1B92ED5E1B81ED281B92ED601B81EDE9
:100FB0002A1BD2ED650AC1ED2F0AD2ED640AC1EDFC
:100FC0002E0A38B1012807D0022807D0032807D1FC
:100FD000FFF730BDFFF724BE00F006B8FFF738BDBD
:100FE00070470000B8620020F0B53C4901232DEDA8
:100FF000028BB0EE408AD1ED730A91ED720ADFEDFB
:10100000388AA1F5C042F4EEC00A9FB0F1EE10FAA2
:1010100002F50D6402F6980526D891ED4F0A314A83
:1010200030EE080A10EE100A81ED4F0A904251DBB3
:10103000C1ED4F8AA1F5C04281F838310220C2F8D3
:101040002008002081F84001382229462648FFF771
:1010500046F91FB02046BDEC028B3822BDE8F040B7
:101060002149E039FFF73BB9B1F830011E4980B2A0
:10107000A831CDE90A1005F1100128220C930F4682
:101080006846FFF72CF9184E883E06F118000FC885
:10109000FFF7FCFD012805D138222946A6F12000E2
:1010A000FFF71DF91822114918A8FFF718F938227F
:1010B00021460AA8FFF713F9282239466846FFF7A8
:1010C0000EF91836F0EE680A96E80F00B0EE480AFE
:1010D000FFF772FE1FB0BDEC028BF0BDB8620020BE
:1010E0000000000000007042C00B0020606400207F
:1010F000F0B502460020D1784FF6FF76C91CCBB27E
:101100000146074F08E0050A06EA0024505C6840E3
:1011100037F810006040491C5B1EDBB2F3D2F0BD13
:10112000B0000020014800F0B5B80000B46700200E
:10113000014800F0AFB8000074680020014800F0DA
:10114000A9B8000054670020014800F0A3B80000CF
:1011500014680020014800F09DB80000D468002009
:10116000014800F097B80000F466002001681823D9
:10117000CAB2103AB2FBF3F2054B6FF30901032A2E
:101180009B5CC36500D9091D816508467047000056
:101190009065000810B5014600208B698A6A4FF0FF
:1011A000C07453B1B3F5005F15D072B1012A0CD0F1
:1011B000022A0AD0032A09D104E01AB1012A06D072
:1011C000022A03D1C96AC90100D5012010BDC96A2C
:1011D000A142FAD010BD002AF7D0012AF2D0022A8B
:1011E000F3D0032AF3D010BD30B50468256825F488
:1011F00080252560046863608368402B036803D002
:1012000099600068C26030BD9A600068C16030BDFE
:101210007047012000F0C8B9022000F0C5B90000F5
:101220000D4910B50B4AC1E90020002088600C224E
:10123000C860C1E904028861C861084601F050F93C
:10124000002805D0BDE81040B12104A003F0C1BAC8
:1012500010BD000000140140B46600202E2E2F4364
:101260006F72652F5372632F75736172742E6300F2
:1012700090F83510022903D0802141650120704784
:10128000052180F835100068016821F00101016036
:10129000002070472DE9F84304464FF00009CDF8CF
:1012A000009063484FF41651A56D0068B0FBF1F74C
:1012B0002E6894F85C10082000FA01F131420FD03A
:1012C00021680A6852070BD50A6822F004020A60F6
:1012D00094F85C108840A860606D40F00100606583
:1012E00094F85C104FF0010808FA01F0304208D081
:1012F00021684969090604D5A860606D40F00200C4
:10130000606594F85C1004208840304208D0216861
:101310000968890704D5A860606D40F00400606525
:1013200094F85C1010208840304218D02168096879
:10133000090714D5A86020680168490304D500682E
:10134000000308D5A16C07E00168C90503D4016852
:1013500021F008010160216C09B12046884794F80A
:101360005C1020208840304231D021680968C906CD
:101370002DD5A86094F8350005282068016806D0AE
:10138000490347D5006800031DD4616C1CE021F0BF
:10139000160101602068416921F080014161206CE3
:1013A00008B9A06C20B12068016821F00801016033
:1013B00094F85C103F208840A86084F8349084F84A
:1013C0003580216D1FE0E16B09B120468847606DD3
:1013D00000282BD0606DC00714D0052084F835009C
:1013E0002068016821F0010101600098401C009014
:1013F000B84203D820680068C007F6D184F834905A
:1014000084F83580E16C002910D001B02046BDE899
:10141000F04308470168C905D5D4016821F01001DF
:10142000016084F8349084F83580CCE7BDE8F88317
:10143000680000202DE9F041044600F0A3F90646BB
:101440005CB1002584F83450022084F8350020680F
:10145000016821F0010101600DE00120BDE8F0818B
:1014600000F090F9801B052805D920206065032035
:1014700084F83500F2E720680068C007F0D12268E0
:10148000116820480140D4E901031843D4E9033628
:101490003343184363691843A3691843E369184346
:1014A000236A18430843616A042903D1D4E90B1362
:1014B00019430843106020684069666A20F00701FC
:1014C00030460E43012704280CD1A06A0643E06A87
:1014D00040B12046FFF75EFE20B14020606584F8F1
:1014E0003570BAE7206846612046FFF73FFE94F862
:1014F0005C203F2191408160656584F83570002053
:10150000ACE700003F8010F02DE9F0410446866D05
:1015100090F83400002501280DD0012084F8340013
:1015200094F835700020012F07D084F8340002258C
:101530002846BDE8F0810220FBE7022784F83570D9
:1015400060652046FFF750FE94F85C103F2088400D
:10155000B0602068016841F01601016020684169AF
:1015600041F080014161206C20B12068016841F0A8
:10157000080101602068016841F001010160D7E7BE
:1015800070B5044600F0FEF80546601C02D0044821
:101590000078044400F0F6F8401BA042FAD370BD76
:1015A0006C00002070470000044910B50A68024230
:1015B00002D00860FFF7F6FF10BD0000143C0140A8
:1015C0002DE9F84FDFF87CB100224FF001084FF011
:1015D000030A4FF00F090BF1040E00BF0B6808FA65
:1015E00002F42340A3426ED14D68022D01D0122D8A
:1015F0000ED1D50800EB850CDCF820505607F70E0D
:1016000009FA07F6B5430E69BE402E43CCF82060B8
:10161000066855000F790AFA05FC07F0030726EA69
:101620000C06AF40374307604E68012E05D0022EEE
:1016300003D0112E01D0122E0ED18668CF6826EA73
:101640000C06AF40374387604668A6430C79C4F365
:101650000014944034434460C6688C6826EA0C0643
:10166000AC403443C4604C68E40065D5364C256812
:1016700045F480452560246822F0030504F4804485
:101680000094324C2E19D6F8084895072F0F09FA06
:1016900007F5AC432E4DA84201D1002524E02D4D85
:1016A000A84201D101251FE02B4DA84201D10225FE
:1016B0001AE02A4DA84201D1032515E0284DA84281
:1016C00002D1042510E037E0264DA84201D10525BE
:1016D0000AE0254DA84201D1062505E0234DA84288
:1016E00001D1072500E00825BD402543C6F808586C
:1016F000DBF800405D464E689C43F60300D51C4372
:101700002C60DEF8004075464E689C43B60300D559
:101710001C432C600B4D08352C684E689C43F60228
:1017200000D51C432C60074D0C352C684E689C433B
:10173000B60200D51C432C60521C102AFFF44EAF99
:10174000BDE8F88F003C01404438024000300140C1
:10175000000002400004024000080240000C024069
:10176000001002400014024000180240001C024019
:1017700042694A40426170470AB181617047090479
:10178000FBE7000001488068704700006C00002003
:101790000248816802781144816070476C00002023
:1017A0000B4810B5016841F400710160016841F413
:1017B00080610160016841F480710160032000F0E4
:1017C000B1F8002000F006F800F03EF8002010BD4F
:1017D000003C024010B5014688B00022362000F0DF
:1017E00081F8362000F072F813480024016841F0B7
:1017F00010010160006805A900F01000069068461D
:1018000000F03AF900F05EF90C494000B0FBF1F14C
:101810000C480B4A491E026040F2E732C0E903243B
:10182000C0E9011400F076FB10B1012008B010BD32
:10183000044800F08BFBF9E74038024040420F00BB
:1018400000100040346900201F4808B5016841F4C9
:1018500080410160006800F4804000901A48001F39
:10186000016841F080510160006800F080500090F4
:10187000032000F057F8002211466FF00B0000F033
:1018800031F8002211466FF00A0000F02BF8002218
:1018900011466FF0090000F025F800221146501F94
:1018A00000F020F800221146101F00F01BF8002263
:1018B0000F21901E00F016F800220F21BDE808400D
:1018C000501E00F00FB800004438024000F01F0224
:1018D000012191404009800000F1E020C0F8001192
:1018E00070470000F0B40E4B1B680C46C3F3022394
:1018F000C3F10705042D00D90425191D072901D2BC
:10190000002300E0DB1E012606FA05F1491E2140F6
:1019100099409E40761E16403143F0BC01F0B2BCA7
:101920000CED00E0064900F0070208684FF6FF03DF
:10193000184040EA0220034A104308607047000044
:101940000CED00E00000FA052DE9F0470E46050019
:1019500065D0DFF81481D8F80000F7B200F00F006E
:10196000B04207D288F80070D8F8000000F00F00ED
:10197000B04254D128683D4C810712D5400703D5A9
:10198000206840F4E05020602878000703D52068E4
:1019900040F4604020602068A96820F0F00008430F
:1019A00020602878C0072DD03049686808390128A0
:1019B00012D0022813D0032811D009688907002902
:1019C0002DDA216821F0030101432160FFF7DAFEDF
:1019D000814641F2883A0EE009688903EFE7096819
:1019E0008901ECE7FFF7CEFEA0EB0901514502D9D2
:1019F0000320BDE8F0872068696800F00C00B0EBB8
:101A0000810FEFD1D8F80010404601F00F01B1422C
:101A100007D90770006800F00F00B04201D0012024
:101A2000E7E72878400705D52068E96820F4E0500A
:101A3000084320602878000706D52068296920F42B
:101A4000604040EAC100206000F05CF82168084A6C
:101A5000C1F30311515CC840064908600020FFF73C
:101A6000B9FE0020C5E70000003C024008380240F3
:101A700078650008680000200F2202600C4A136895
:101A800003F003034360136803F0F00383601368FB
:101A900003F4E053C36012684FF4E05303EAD20248
:101AA00002610448006800F00F0008607047000001
:101AB00008380240003C02400148006870470000BE
:101AC000680000200448054900680968044AC1F319
:101AD0008221515CC84070476800002008380240ED
:101AE000886500080448054900680968044AC1F38C
:101AF0004231515CC84070476800002008380240FD
:101B000088650008154810B5006810F00C021448EC
:101B100013D04110042A0FD0082A0ED10F4C241FD5
:101B20002268236802F03F025B0207D52068C0F3F9
:101B30008810A0FB010106E0084610BD2168C1F332
:101B40008811A1FB00010023FEF798FB2168C1F377
:101B50000141491C4900B0FBF1F010BD08380240BA
:101B60000024F4002DE9F84F050076D02878DFF83E
:101B7000F8B2BE4CC00749D0DBF800105846C1F39C
:101B80008101012908D00068C0F3810002280AD130
:101B9000201D0068400206D52068800336D568689D
:101BA0000028E2D032E06868B0F5803F10D0B0F590
:101BB000A02F206810D020F480302060206820F40E
:101BC000802020606868A0B1FFF7DCFD06460CE0CD
:101BD000206840F48030F4E740F480202060F7E78C
:101BE000FFF7D0FD801B642873D820688003F7D5E9
:101BF0000CE0FFF7C7FD064605E000BFFFF7C2FD9A
:101C0000801B6428F0D820688003F7D42878DFF898
:101C1000608280074FF000093ED5DBF8001058467F
:101C200011F00C0F09D00068C0F3810002280BD11D
:101C30008D48001F0068400206D42068800715D533
:101C4000E868012809D111E0E868B8B10120C8F8B6
:101C50000000FFF797FD064605E002E1FFF792FD61
:101C6000801B0228C0D820688007F7D52068296922
:101C700020F0F80040EAC10020600DE0C8F80090B4
:101C8000FFF780FD064604E0FFF77CFD801B02287D
:101C90001FD820688007F7D42878000722D5724E15
:101CA000744869696C3671B101210160FFF76AFD02
:101CB000074604E0FFF766FDC01B022809D830681C
:101CC0008007F7D50EE0C0F80090FFF75BFD0746F0
:101CD00005E083E0FFF756FDC01B02287ED8306880
:101CE0008007F7D42878400768D5DFF87CA1002763
:101CF0000AF1380ADAF80000C0000BD4DAF8001054
:101D000041F08051CAF80010DAF80000012700F015
:101D100080500090584E3068C00510D4306840F4B0
:101D200080703060FFF72EFD009005E0FFF72AFD80
:101D30000099401A022851D83068C005F6D54A4E9D
:101D4000A868683601280FD00528306810D020F028
:101D500001003060306820F004003060A868B8B13D
:101D6000FFF710FD00900FE0306840F00100F4E74D
:101D700040F004003060F7E7FFF704FD0099411AD6
:101D800041F28830814264D830688007F4D50EE093
:101D9000FFF7F8FC009007E0FFF7F4FC0099411A08
:101DA00041F28830814254D830688007F4D42FB192
:101DB000DAF8001021F08051CAF80010A869C0B309
:101DC000DBF80010C1F3810102294AD002284846FD
:101DD00007D0C8F86000FFF7D5FC00E039E0054601
:101DE0003AE04746C8F86000FFF7CCFC064604E03E
:101DF000FFF7C8FC801B02282BD820688001F7D48D
:101E0000D5E907010843A96A1C4A490802EB0141C8
:101E10006A6A41EA8211084395F82C1040EA016190
:101E20001148001F016001203866FFF7ABFC054632
:101E300005E014E0FFF7A6FC401B022809D8206843
:101E40008001F7D50BE000BFFFF79CFC401B022888
:101E500002D90320BDE8F88F20688001F4D4002067
:101E6000F8E70120F6E70000083802400038024099
:101E700000004742800E4742007000400000FFFF14
:101E80004FF0E0210428086903D020F00400086125
:101E9000704740F00400FAE710B5401EB0F1807FB3
:101EA00001D3012010BD4FF0E02460610F216017C5
:101EB00001F0E8F90020A06107202061002010BD9A
:101EC0007047704730B590F83820012A20D00122A1
:101ED00080F83820022380F8393003685C6824F0E9
:101EE00070045C6003685C680D682C435C60036888
:101EF0009C6824F080049C6003689C6849680C43DB
:101F00009C6080F83920002180F83810084630BDE8
:101F1000022030BD10B5040003D094F8390010B190
:101F200007E0012010BD002084F83800204600F0B2
:101F30000CF8022084F83900211D206802F098F87E
:101F4000012084F83900002010BD70470168CA687C
:101F500042F00102CA600068016841F001010160BD
:101F6000002070472DE9F0410D46040003D094F89D
:101F7000390018B108E00120BDE8F081002084F8A4
:101F80003800204600F03AF8022084F83900206832
:101F9000816821F007018160211D206802F068F846
:101FA000226890689169166A2B68AF69034340F212
:101FB0000330814341EA0721A868EF6908434FF6DF
:101FC000FC418843E96840EA0720014328692F6AF9
:101FD000000140EA0730084369686D6926F0AA06E7
:101FE00046EA0515294393602268906120680162E2
:101FF000012084F839000020BEE7000000B5006829
:102000000E4987B0884216D10D480021026842F07F
:1020100001020260006800F0010005904FF42060AA
:1020200000900220CDE9010101200390049069464F
:102030000448FFF7C5FA07B000BD000000000140EA
:102040004438024000100240704710B50446006852
:10205000012202F06DF82068016841F00101016081
:10206000002010BD70B50446006801694FF00005FE
:10207000C943890715D4C168C943890711D4E91E2A
:10208000016101202076206880698007204602D007
:10209000FFF7DAFF04E000F0CDF8204600F06EF91B
:1020A000257620680169C943490717D4C168C94327
:1020B000490713D46FF004010161022020762068E3
:1020C000806910F4407F204602D0FFF7BDFF04E096
:1020D00000F0B0F8204600F051F92576206801693B
:1020E000C943090716D4C168C943090712D46FF060
:1020F00008010161042020762068C069800720461D
:1021000002D0FFF7A1FF04E000F094F8204600F0B1
:1021100035F9257620680169C943C90617D4C16815
:10212000C943C90613D46FF010010161082020765D
:102130002068C06910F4407F204602D0FFF784FF7A
:1021400004E000F077F8204600F018F925762068C2
:102150000169C943C90708D1C168C943C90704D186
:10216000891E0161204600F027F920680169C943F2
:10217000090609D4C168C943090605D46FF0800176
:1021800001612046FFF79CFE20680169C9434906AA
:1021900009D4C168C943490605D46FF04001016103
:1021A000204600F013F920680169C94389060BD461
:1021B000C168C943890607D46FF020010161204638
:1021C000BDE87040FFF77DBE70BD000030B500680F
:1021D00013490024022585B0884210D1C020009008
:1021E000CDE9015469460F48CDE90345FFF7E8F909
:1021F00003200090CDE9015469460B4809E00B49E2
:1022000088420AD14FF470400090CDE9015408484B
:102210006946CDE90345FFF7D3F905B030BD0000AD
:10222000000400400000024000040240000800409A
:10223000000C0240704770B5044690F838000D4617
:1022400001280DD0012684F83860022084F8390076
:1022500042B1042A18D0082A2AD00C2A4DD139E0DC
:10226000022070BD206801F06FFF2068816941F095
:10227000080181612068816921F004018161206881
:1022800081692A69114311E0206801F089FF206803
:10229000816941F4006181612068816921F4806174
:1022A0008161206881692A6941EA0221816124E013
:1022B000206801F0A7FF2068C16941F00801C161F1
:1022C0002068C16921F00401C1612068C1692A69DF
:1022D000114311E0206801F0C5FF2068C16941F495
:1022E0000061C1612068C16921F48061C161206819
:1022F000C1692A6941EA0221C16184F8396000207C
:1023000084F8380070BD10B5040003D094F839008B
:1023100010B107E0012010BD002084F838002046ED
:1023200000F00CF8022084F83900211D206801F02B
:102330009FFE012084F83900002010BD08B50C4A2A
:1023400001680C48914207D1016841F00201016027
:10235000006800F0020009E0074A914207D10168D5
:1023600041F004010160006800F00400009008BD25
:102370000004004040380240000800407047000060
:1023800010B504460068012201F0D2FE0849206819
:10239000884202D00749884203D1416C41F4004190
:1023A00041642068016841F001010160002010BD16
:1023B000000001400004014000680349884201D147
:1023C000FFF7E6B970470000001000407047704703
:1023D00070B5026804461068D168536910F00F0F99
:1023E00050D003F0010501F4907635435DD0C2076B
:1023F00005D0CA0503D5E26B42F00102E263420751
:1024000005D5DA0703D0E26B42F00202E2638207ED
:1024100005D5DA0703D0E26B42F00402E26302075B
:1024200005D5DA0703D0E26B42F00802E263E26B03
:10243000002A33D0800604D5880602D5204601F054
:10244000E0FF20684069E16BC0F38010090700D409
:1024500028B3204601F0BEFF2068416949061AD51D
:10246000416921F040014161606BA0B11B490165E8
:10247000606BFEF7FDFE002810D0606B016DBDE8BB
:1024800070400847830610D58B060ED52046BDE860
:10249000704001F0B6BF2046FFF799FF70BD20469F
:1024A000FFF795FF0020E06370BD030606D50B061D
:1024B00004D52046BDE8704002F040B94006F3D58F
:1024C0004806F1D5D168204621F04001D160202195
:1024D00084F8391000F02EFB70BD0000FD420008AA
:1024E00070B5040004D094F83900002510B106E05E
:1024F000012070BD84F83850204600F023F82420D5
:1025000084F839002068C16821F40051C160204678
:1025100001F0BEFF2068016921F49041016120684B
:10252000416921F02A0141612068C16841F40051EC
:10253000C160E563202084F8390084F83A00002067
:1025400070BD00002DE9F04F04460268CF4B01201A
:10255000CF490025860287B04FF002084FF00309EB
:102560004FF0080C9A4224D10A6842F400220A6013
:102570000968CDF8008001F40021CDE904C10546C9
:10258000CDF80C90CDE9018564466946C148FFF756
:1025900017F80096CDE90394CDE901856946BE4858
:1025A000FFF70EF8002205213420FFF79BF93420B5
:1025B00065E0BA4B40274FF0006A9A4264D10A683E
:1025C000002542F480120A600968834601F48011F4
:1025D0000591991400910221CDE90110CDE9039CE8
:1025E000E0466946AC48FEF7EBFF0420009002206D
:1025F000CDE9010BCDE903986946A948FEF7E0FF54
:10260000DFF8A482A7494046C8F80010C0E901A538
:10261000C0E903568915C8F81450C0E90651C8F836
:102620002050C8F82450FEF705FF20B140F2831176
:102630009EA002F0CEF89C4DC4F8348099486035D5
:10264000C8F83840A830AF60C5E9000A0020C5E9E5
:1026500003066861A861E861286268622846FEF79F
:10266000E9FE20B140F2951190A002F0B2F8256386
:10267000002205213520AC63FFF734F93520FFF740
:1026800025F907B0BDE8F08F8D4B4FF0070E4FF4E2
:10269000003B9A423CD17E49091D0A6842F0100273
:1026A0000A60096802AA01F0100105914FF4C061A7
:1026B000CDE9001882E8014269467648FEF780FFBE
:1026C000DFF8E4817F49A8F1C0084046C8F80870E7
:1026D000C0E90356C8F81450C0E9001A8915C8F8B3
:1026E00020B0C8E90651C8F82450FEF7A3FE20B177
:1026F0004FF4E1716DA002F06CF8C4F83080002254
:1027000005212520C8F83840FFF7ECF82520B6E76A
:102710006D4B9A423AD10A6842F400320A60096865
:1027200002AA01F4003105910C21CDE9001882E8DC
:10273000014269465748FEF743FFDFF86C8159496B
:10274000A8F160084046C8F80870C0E90356903107
:10275000C8F81450C0E9001A8915C8F820B0C8E9B3
:102760000651C8F82450FEF765FE20B140F2EF1183
:102770004EA002F02EF8C4F8308000220521262059
:10278000C8F83840FFF7AEF8262078E74F4B9A425A
:102790003BD10A6842F480220A60096802AA01F467
:1027A000802105914FF44061CDE9001882E8014293
:1027B00069464748FEF704FFDFF8EC80394908F125
:1027C000C0084046C8F80870C0E903564831C8F848
:1027D0001450C0E9001A8915C8F820B0C8E906519C
:1027E000C8F82450FEF726FE20B14FF407712FA041
:1027F00001F0EFFFC4F83080002205212720C8F83F
:102800003840FFF76FF8272039E732498A427FF4D2
:1028100038AF1F49091D0A6842F020020A600968A2
:1028200002AA01F020010591C021CDE9001882E83B
:10283000011269461848FEF7C3FE2249DFF8988066
:1028400018394046C8F80010C0E90356C8F81450BB
:102850004FF02061C8F81850C0E90117C8E9075BBC
:10286000C8F82450FEF7E6FD20B140F249210FA040
:1028700001F0AFFFC4F83080002205214720C8F8DE
:102880003840FFF72FF84720F9E60000004C0040E1
:102890004038024000000240000802400050004062
:1028A000000C024010600240B46700202E2E2F431F
:1028B0006F72652F5372632F75736172742E63008C
:1028C00000100140B864024000440040004800404D
:1028D0000004024000140140D4680020F8B504460A
:1028E00090F83A0020283CD1C1B3BAB394F838002C
:1028F000012836D0012084F83800A162A285002585
:10290000E563222084F83A00636B1748D863636B51
:1029100016481864636B1648D864606B13460565E7
:102920000846666B216802463046091DFEF7ECFD3D
:10293000206801684168009184F83850C16841F40A
:102940008071C1602068416941F0010141612068E6
:10295000416941F0400141610020F8BDFFE70120DD
:10296000FBE70220F9E70000574300089343000803
:102970000D43000890F83A30202B1DD1D1B1CAB1D7
:1029800090F83830012B17D081628285C2850021F2
:10299000C163222280F83A2080F8381001684A6921
:1029A00042F001024A610068C16841F49071C1605F
:1029B00000207047012070470220704770B5314AEF
:1029C0000168914209D102222F493048FFF786FF62
:1029D000BDE870402C4802F069BE2D4A91420BD1EF
:1029E00029490222891C2B48FFF778FFBDE8704077
:1029F0002548801C02F07EBE274A91420BD1224915
:102A00000222091D2548FFF769FFBDE870401E48F6
:102A1000001D02F093BE224A914206D1BDE87040EB
:102A200019490122891EFFF7A5BF1E4A91421AD1FA
:102A30001D48002100F21A424FF480650C464318ED
:102A4000B0F81C681B7CB354B0F81C385B1C9BB2FC
:102A5000A0F81C38AB4201D3A0F81C48491C89B22D
:102A60000A29ECD370BD114A9142FBD106490122DB
:102A7000491EFFF77FFF0448801E4078BDE8704084
:102A800003F0D8B9001001407A000020F46500205E
:102A90000044004034660020004800407466002076
:102AA000004C004000500040B802002000140140DB
:102AB0007047000070B5044690F83900202830D1E6
:102AC00069B362B394F8380001282AD0012084F851
:102AD00038002162A284E2840025E563212084F885
:102AE0003900236B1048D863236B10481864236B9C
:102AF0000F48D864206B134605652668206B321D8D
:102B0000FEF702FD21686FF04000086084F838503D
:102B10002068416941F080014161002070BD0120C1
:102B200070BD022070BD00009D430008CB4300082B
:102B30000D43000800680649884205D005498842CF
:102B400002D00549884201D101F0A5B870470000C4
:102B50000010014000440040004800407047FEE77C
:102B600070B501001048114E4FF4005505D00129F1
:102B700014D0022915D0032909D0012220210446AE
:102B8000FEF7FAFD012240212046FEF7F5FD012265
:102B900029463046BDE87040FEF7EEBD01222021F7
:102BA000F8E701224021F5E700100240000802404A
:102BB00070B501001048114E4FF4005505D00129A1
:102BC00014D0022915D0032909D00022202104465F
:102BD000FEF7D2FD002240212046FEF7CDFD002267
:102BE00029463046BDE87040FEF7C6BD00222021D0
:102BF000F8E700224021F5E70010024000080240FB
:102C000070B501000E480F4E4FF4005505D0012954
:102C100011D0022911D0032907D020210446FEF744
:102C2000A7FD40212046FEF7A3FD29463046BDE81A
:102C30007040FEF79DBD2021F9E74021F7E7000035
:102C40000010024000080240214808B5016841F424
:102C500080010160016801F480010091016841F484
:102C6000001101600068002200F4001000900521AE
:102C70000B20FEF737FE0B20FEF728FE0022052171
:102C80000E20FEF72FFE0E20FEF720FE002205216B
:102C90001120FEF727FE1120FEF718FE0022052165
:102CA0002F20FEF71FFE2F20FEF710FE0022052129
:102CB0004520FEF717FE4520FEF708FE00220521FD
:102CC0004620FEF70FFEBDE808404620FEF7FEBD99
:102CD0003038024010B58AB014220B496846FDF71F
:102CE000FEFA0021684602F096FD084C06491422BF
:102CF0002060143105A8FDF7F2FA002105A802F0C2
:102D00008AFD60600AB010BD506500080000002018
:102D10002DE9F04F5A4887B00024016841F01001B6
:102D20000160016801F010010591016841F00401A2
:102D30000160016801F004010591016841F0800122
:102D40000160016801F080010591016841F0010115
:102D50000160016801F001010591016841F0020183
:102D60000160016801F002010591016841F008016C
:102D700001600068002200F00800059060214148D1
:102D8000FEF7FAFCDFF800914FF4005700223946B5
:102D90004846FEF7F1FCDFF8F4A001224FF4417140
:102DA0005046FEF7E9FC012280213648FEF7E4FC9C
:102DB000DFF8DCB04FF44076002231465846FEF78B
:102DC000DBFC4FF44068012241465846FEF7D4FC34
:102DD0000125E020CDE90005CDE9025469462948E6
:102DE000FEF7EEFB0097CDE901546946484603948F
:102DF000FEF7E6FBCDE90054694626480294FEF74B
:102E0000DFFB0420022703948DE8A10069465046A9
:102E1000FEF7D6FBCDE90274CDE900656946584658
:102E2000FEF7CEFBCDF80080CDE901546946584647
:102E30000394FEF7C5FB0096CDE901546946504660
:102E40000394FEF7BDFB032000901348CDE9010574
:102E500069460C48FEF7B4FB002205210620FEF768
:102E600041FD0620FEF732FD002205210720FEF776
:102E700039FD0720FEF72AFD07B0BDE8F08F0000FE
:102E800030380240001002400008024000040240B6
:102E9000000C0240000002400000111010B518485C
:102EA0008CB01649016001210024C0E9011441F2EF
:102EB0008832C0E903244461CDE900140320029163
:102EC000CDE90340CDE90541079469460C480894D3
:102ED000FFF748F818B156210AA001F07AFC0994CE
:102EE00009A907480A94FEF7EDFF002803D05D21E9
:102EF00004A001F06EFC0CB010BD00000000014009
:102F0000C06400202E2E2F436F72652F5372632FE3
:102F100074696D2E6300000010B528488AB02649F8
:102F20000160A7210024C0E901146421C0E9031451
:102F3000FFF7E9F918B16E2121A001F04AFC0794CE
:102F400007A91E480894FEF7BDFF18B175211CA003
:102F500001F03FFC6020CDE90004029400226946A4
:102F600016480494FFF767F918B17E2114A001F008
:102F700030FC042269461148FFF75DF918B183213E
:102F80000FA001F026FC082269460C48FFF753F910
:102F900018B188210AA001F01CFC0C2269460748E0
:102FA000FFF749F918B18D2105A001F012FC034883
:102FB000FFF70CF90AB010BD00040040FC640020CB
:102FC0002E2E2F436F72652F5372632F74696D2EEF
:102FD0006300000010B529488AB0274901605321D9
:102FE0000024C0E9011440F2E731C0E90314FFF7FF
:102FF0008AF918B1A02122A001F0EBFB079407A9E0
:103000001E480894FEF75EFF18B1A7211CA001F02E
:10301000E0FB6020CDE900040294002269461748D5
:103020000494FFF708F918B1B02115A001F0D1FB05
:10303000042269461148FFF7FEF818B1B52110A027
:1030400001F0C7FB082269460C48FFF7F4F818B1F5
:10305000BA210BA001F0BDFB0C2269460748FFF71F
:10306000EAF818B1BF2106A001F0B3FB0348FFF74F
:10307000ADF80AB010BD000000080040386500201F
:103080002E2E2F436F72652F5372632F74696D2E2E
:10309000630000000D4810B50B4901604FF4E131A9
:1030A0004160002181600C22C160C0E9041281618D
:1030B000C161FFF715FA002805D0BDE81040D32103
:1030C00003A001F086BB10BD004C004074650020D9
:1030D0002E2E2F436F72652F5372632F757361729B
:1030E000742E63000D4810B50B4901604FF4E131B7
:1030F0004160002181600C22C160C0E9041281613D
:10310000C161FFF7EDF9002805D0BDE81040E521C9
:1031100003A001F05EBB10BD00500040B46500206C
:103120002E2E2F436F72652F5372632F757361724A
:10313000742E63000D4810B50B4901604FF4165111
:103140004160002181600C22C160C0E904128161EC
:10315000C161FFF7C5F9002805D0BDE81040F8218E
:1031600003A001F036BB10BD00100140F465002043
:103170002E2E2F436F72652F5372632F75736172FA
:10318000742E63000E4810B50C4901604FF41651BF
:103190004160002181600C22C160C0E9041281619C
:1031A000C161FFF79DF9002806D0BDE8104040F24C
:1031B0000B1104A001F00DBB10BD00000044004045
:1031C000346600202E2E2F436F72652F5372632FAB
:1031D00075736172742E63000E4810B50C4901605E
:1031E0004FF416514160002181600C22C160C0E99A
:1031F00004128161C161FFF773F9002806D0BDE8B0
:1032000010404FF48F7104A001F0E3BA10BD00002C
:1032100000480040746600202E2E2F436F72652FE9
:103220005372632F75736172742E63000E4810B56C
:103230000C4901604FF416514160002181600C225D
:10324000C160C0E904128161C161FFF749F900283A
:1032500006D0BDE8104040F2311104A001F0B9BA27
:1032600010BD000000140140B46600202E2E2F4334
:103270006F72652F5372632F75736172742E6300C2
:10328000FEE770470907090E002806DA00F00F0074
:1032900000F1E02080F8141D704700F1E02080F874
:1032A0000014704710B52DED068BB0EE609AF0EE6D
:1032B000618A71EE400ADFED211A31EE000A20EE3C
:1032C000A18AF6EE000A20EE200ADFED1D0A20EEAC
:1032D000200A10EE100AFDF7D3F941EC100B01F0B3
:1032E000FFFCB0EE40AA38EEC90AF0EE60AA10EE7C
:1032F000100AFDF7C5F953EC1A2BFDF7A9F89FED5D
:10330000111B53EC112BFDF7A3F8FDF7FDF968EE47
:10331000080A00EE100A40EE000A10EE900AFDF7CF
:10332000AFF941EC100B01F049FD51EC100BFDF72A
:10333000EBF9BDEC068B00EE100A10BD00B1D847CA
:1033400035FA8E3C00000000602DFB4010B52DEDDD
:10335000068B31EE409A31EE000AF0EE608AF6EE0E
:10336000000AB0EE618A20EE200ADFED260A20EE88
:10337000200A10EE100AFDF783F941EC100B01F062
:10338000AFFCB0EE40AA38EE680AF0EE60AA10EE8C
:10339000100AFDF775F953EC1A2BFDF759F8FDF7F4
:1033A000B3F9FDF76DF941EC180BB1EE490A10EED7
:1033B000100AFDF765F941EC100BB0EE481AF0EE7B
:1033C000681A01F095FB9FED101B51EC100B53ECAC
:1033D000112BFDF73DF89FED0E1B53EC112BFCF765
:1033E00090FFFDF791F900EE100AB5EEC00AF1EE7C
:1033F00010FA03D2DFED080A30EE200ABDEC068B8E
:1034000010BD000035FA8E3C00000020DCA54C40C9
:1034100000000000008056400000B443F0B50D4AA3
:10342000002302F11A044FF4806C1D460FE0B2F83D
:103430001E78C65C3E55B2F81E68761CB6B2A2F87D
:103440001E68664501D3A2F81E585B1C9BB28B42D6
:10345000EDD3F0BDB80200202DE9F0410446444E02
:1034600014F8060F60F30705607860F30F25A07865
:1034700060F31745E07860F31F653560207960F3ED
:103480000705607960F30F25A07960F31745E079AF
:1034900060F31F6528467560FDF7BBF89FED351B8F
:1034A00053EC112BFCF7D4FF344FC7E90201207A0B
:1034B00060F30705607A60F30F25A07A60F3174583
:1034C000E07A60F31F652846B560FDF7A2F89FED2E
:1034D000291B53EC112BFCF7BBFFC7E90001207B34
:1034E00060F30705607B60F30F25A07B60F3174551
:1034F000E07B60F31F652846F560FDF78AF89FEDD5
:10350000201B53EC112BFCF7A3FFC7E90401207C1F
:1035100060F30705607C60F30F25A07C60F317451E
:10352000E07C60F31F6500EE105A17483561B8EE75
:10353000C00A80ED020A207D60F30705607D60F31C
:103540000F25A07D60F31745E07D60F31F65756171
:10355000207E60F30705607E60F30F25A07E60F398
:103560001745E07E60F31F65B561BDE8F08100009E
:10357000A0A8002048AFBC9AF2D77A3E3064002061
:10358000FCA9F1D24D62503F8000002010B5827935
:103590001C4C62F30701C27962F30F21027A62F3D5
:1035A0001741427A62F31F61154A1160837A5360B2
:1035B00084F87031C37A9360037BD360437B1361DB
:1035C000827B62F30701C27B62F30F21027C62F30C
:1035D0001741427C62F31F61094A243A5161827C9F
:1035E00062F30701C27C62F30F21027D407D62F32A
:1035F000174160F31F6102482438816110BD00004B
:1036000084A80020B86200202DE9F04104462DED89
:10361000028B14F8061F5D4D61F30700617861F3BA
:103620000F20A17861F31740E17861F31F605849DA
:1036300028604860217961F30700617961F30F2008
:10364000A17961F31740E17961F31F6000EE100A80
:10365000B8EEC00ADFED4F0A4F4E20EE200ABDEE55
:10366000C00A85ED010AB8EEC00A86ED020A14F818
:10367000081F61F30700617861F30F20A17861F3FF
:103680001740E17861F31F600746A860FCF7C1FFAF
:103690009FED428B53EC182BFCF7DAFEFDF734F864
:1036A000F0602079E17960F30707607960F30F2714
:1036B000A07960F31747384661F31F600746E8605A
:1036C000FCF7A7FF53EC182BFCF7C2FEFDF71CF824
:1036D000F060217A384661F30700617A61F30F20C8
:1036E000A17A61F31740E17A61F31F600746286110
:1036F000FCF78FFF53EC182BFCF7AAFEFDF704F83C
:103700003060207B60F30707607B60F30F27A07BAE
:1037100060F31747E07B60F31F676F61217C3846D9
:1037200061F30700617C61F30F20A17C61F3174016
:10373000E17C61F31F600746A861FCF76AFF9FED1B
:10374000191B53EC112BFCF783FEFCF7DDFF7060B7
:10375000207D60F30707607D60F30F27A07D60F395
:103760001747E07D60F31F67EF61207E60F3070776
:10377000607E60F30F27A07E60F31747E07E60F362
:103780001F672F62BDEC028BBDE8F08160A80020AE
:10379000800000200AD7233C486400207B14AE47F9
:1037A000E17A843FF168E388B5F8E43E2DE9F04121
:1037B000314C32490025227842B1012A0DD0022A2B
:1037C00011D0032A13D0042A18D04DE0EB284BD196
:1037D000012222700870BDE8F081902844D10222B5
:1037E00022704870F7E7032222708870F3E7421CCA
:1037F000A2700422E2702270C870ECE7A2786AB36B
:10380000521E12F0FF03A370E278885402F1010205
:10381000D7B2E770DFD18B78412B29D0DFF85CC0BD
:10382000002630469CF80320121D05E01CF800E03D
:10383000401C7644B6B2C0B28242F7D8CA19F0B280
:1038400012F8012C904211D1082B0CD2DFE803F0C2
:1038500004070707070707074879207104E00748AE
:1038600000F00EF800E025702570B4E7412BB2D1CE
:10387000024800F019F8F7E7A40000204CA401204A
:1038800082784179042A0CD10648CA0706D0012261
:10389000027749084177C18B491C01E0002101777B
:1038A000C1837047C0A201202DE9F04704462DEDE9
:1038B000068B82B0FDF71CFCE178E21C8A5C8DF877
:1038C0000020221D895C8DF80110BDF80010814296
:1038D0007ED114F8050F94F801A0A1788DF800109E
:1038E000E1788DF80110BDF8008021798DF8001085
:1038F00061798DF80110BDF80050A1798DF80010A4
:10390000E1798DF80110217A8DF80210617A8DF835
:103910000310A17A8DF80410E17A8DF80510217B4F
:103920008DF80610617B8DF807109DED00ABA17B33
:103930008DF80010E17B8DF80110217C8DF80210CC
:10394000617C8DF80310A17C8DF80410E17C8DF86A
:103950000510217D8DF80610617D8DF807109DED15
:10396000009BA17D8DF80010E17D8DF80110BDF95F
:10397000001000EE101AB8EEC00ADFED3B0A217EFF
:103980008DF80010617E8DF80110BDF80070A17EE9
:103990008DF80010E17E8DF80110BDF80060217FE8
:1039A0008DF80010617F8DF8011020EE208ABDF89F
:1039B0000090FCF73FFE0AEBCA032C4A03EB0A1304
:1039C00002EB432202EB8514C4E90001404600E00B
:1039D00044E0FCF72FFEC4E9020184ED04AB84ED62
:1039E000069B18EE100AFCF74BFEC4E908013846A6
:1039F000FCF720FEC4E90A013046FCF71BFEC4E9CF
:103A00000C014846FCF716FEC4E90E011848C5EB48
:103A1000C501C0F83081A0F5C04000EBC10418EE2C
:103A2000100AC4F8B05904F5006484ED70AB84ED5D
:103A30006E9BFCF725FE00EE107AC4E972010D487A
:103A4000B8EE400A012184ED740A00EE106AB8EE67
:103A5000400A84ED750A80F82410C58402B0BDECDC
:103A6000068BBDE8F0870000CDCCCC3DC0A800207F
:103A7000B8620020C0A2012010B50C4600230C49FA
:103A800003E0C25CCA545B1C9BB2A342F9D322463A
:103A900007490848FFF70EF8224605490648FFF790
:103AA00009F82246BDE8104001490448FFF702B872
:103AB00060A60020F46500203466002074660020B3
:103AC000F0B58DB012AF97E87000AA278DF8087096
:103AD0008DF8097041278DF80A7000278DF80C7059
:103AE0008DF80D00ADF800208DF80E109DF8000047
:103AF0008DF80F009DF801008DF81000ADF8003032
:103B00009DF800008DF811009DF801008DF80B70F4
:103B10008DF812008DED000B9DF800008DF813005C
:103B20009DF801008DF814009DF802008DF8150035
:103B30009DF803008DF816009DF804008DF817001D
:103B40009DF805008DF818009DF806008DF8190005
:103B50009DF807008DF81A008DED001B9DF8000000
:103B60008DF81B009DF801008DF81C009DF80200E7
:103B70008DF81D009DF803008DF81E00B2EE040ABA
:103B80009DF804008DF81F0022EE000A9DF8050044
:103B90008DF820009DF806008DF82100BDEEC00ACA
:103BA0009DF807008DF8220010EE100AADF8000015
:103BB0009DF800008DF823009DF801008DF8240089
:103BC000ADF800409DF800008DF825009DF801003B
:103BD0008DF82600ADF800509DF800008DF8270004
:103BE0009DF801008DF82800ADF800609DF80000F8
:103BF0008DF829009DF801008DF82A0020208DF80D
:103C00000B0002A8FDF774FAADF800009DF8000063
:103C10008DF82B009DF801008DF82C00252102A8BD
:103C2000FFF7FCFB0DB0F0BD2DE9F0438DB014ACF7
:103C30004FF0AA0894E8E0128DF800808DF801801A
:103C40008DF8020000208DF804008DF805108DF825
:103C500006208DF8085009208DF809600D218DF897
:103C60000A708DF8030000226C468DF807308DF83D
:103C70000B908DF80CC01046235C401C1A44C0B257
:103C8000D2B28842F8D362542046491CFFF7C6FBE3
:103C90000DB0BDE8F08308B555208DF80000012176
:103CA0006846FFF7E9FE08BD2DE9F04F5248534D35
:103CB0002DED048B85B0D0ED020A70EE800AC0EDC8
:103CC000020A287F00287FD0D5ED080A30EE800A4E
:103CD00010EE100A85ED080A9FED498AA5F57A4491
:103CE0009FED489BB0F17C5F6EDB85ED088A687FB5
:103CF00053EC192B00EBC00101EB0010E98B04EB36
:103D0000402000EB811090ED020B51EC100BFCF702
:103D1000CBFC11D10020B0EE490AF0EE690A009008
:103D20000190B0EE482AB0EE401AF0EE601A034659
:103D300002460146029043E0687F834600EBC001E3
:103D400001EB001004EB4021E88B01EB801482466C
:103D500094ED0E0B51EC100BFCF779FC94ED0C0B71
:103D60001FFA80F951EC100BFCF771FC94ED0A0B73
:103D70001FFA80F851EC100BFCF769FC94ED080B6E
:103D800087B251EC100BFCF7BFFC94ED020B08EE70
:103D9000100A51EC100BFCF75AFC94ED000B86B2A4
:103DA00051EC100BFCF753FC8DE88003C0B294ED8E
:103DB000061B94ED040BB0EE482A53463246594692
:103DC00000E001E0FFF77CFE95F8240000280ED00B
:103DD000E98C002085F82400019002900390049063
:103DE0000B0ACAB2009007210420FFF71DFF05B09F
:103DF000BDEC048BBDE8F08FA4000020C0A2012020
:103E00000000000000000000000000002DED028B0B
:103E10000A2217491748FEF761FD154C9FED168AD7
:103E2000103C04F21A454FF480670026642001F02C
:103E3000DCFC0020FEF7E4FEB0EE480AFFF734FF9A
:103E40000CE0405DFFF7B2FCB4F81A08401C80B2E9
:103E5000A4F81A08B84201D3A4F81A68B4F81A08EA
:103E6000B4F81C188842ECD101F0ECFCDEE700004D
:103E7000C8020020B4650020CDCCCC3D2DED028BD6
:103E800000212B48FEF7E1F804212948FEF7DDF870
:103E900008212748FEF7D9F80C212548FEF7D5F868
:103EA00000212448FEF76CFA04212248FEF768FA44
:103EB00008212048FEF764FA0C211E48FEF760FA3C
:103EC00000211D48FEF75CFA04211B48FEF758FA52
:103ED00008211948FEF754FA0C211748FEF750FA4A
:103EE0001648FEF76BFD1548FEF724FE1448FEF752
:103EF00065FD1348FEF71EFE1248FEF75FFD1148F0
:103F0000FEF718FE4FF41650FDF78AF901F0C6FED1
:103F10000D4C9FED0E8A142001F067FCB0EE480AAC
:103F2000D4F82008FDF736F801F08CFCF3E7000028
:103F3000C0640020FC64002038650020F465002087
:103F40003466002074660020B80200200AD7A33C23
:103F500001F057BC30B5274893B00025016841F007
:103F600080510160006800F0805011902248016883
:103F700041F4804101600068022400F48040119007
:103F800001200090000401908001CDE9064004204A
:103F90000890A820CDE9090407200B906846FDF79A
:103FA000E1FD08B1B0210FE00CA90F2081E831003C
:103FB0004FF4A0500F904FF48050109005210CA8A2
:103FC000FDF7C2FC18B1BE210CA000F002FCFDF709
:103FD00073FD4FF47A71B0FBF1F0FDF75DFF042043
:103FE000FDF74EFF00220F21501EFDF77BFC13B0A2
:103FF00030BD000040380240007000402E2E2F439C
:104000006F72652F5372632F6D61696E2E630000AE
:104010001048016841F4700101600F48016841F0E7
:10402000010101600C4A00210832116002680B4B4B
:104030001A400260031D0A4A1A60026822F48022B4
:10404000026005480C30016002495806803908605A
:104050007047000088ED00E000380240FFFFF6FEE8
:10406000103000240148FDF7FDBF00003469002036
:10407000F0B50268234B244D244E254F254C4FF0BC
:10408000804C984209D0604507D0A84205D0B04284
:1040900003D0B84201D0A04204D122F0700E4A6889
:1040A00042EA0E0298421BD0604519D0A84217D0B0
:1040B000B04215D0B84213D0A04211D0164DA8423C
:1040C0000ED0164DA8420BD0154DA84208D0154D64
:1040D000A84205D0144DA84202D0144DA84203D1E5
:1040E00022F44075CA682A4302608A68C2620A687C
:1040F0008262984201D0A04201D109690163012185
:104100004161F0BD00000140000400400008004093
:10411000000C004000040140004001400044014008
:104120000048014000180040001C004000200040F2
:1041300010B50123046A8B409C430462036A8A40E1
:104140001343036210BD000030B5026A22F0010281
:104150000262026A436884690D6824F0730425438F
:1041600022F002048A6822430B4CA04202D00B4C7E
:10417000A0420BD122F00804CA6823F44073224302
:104180004C6922F004021C438B6923434360856120
:1041900049684163026230BD0000014000040140F3
:1041A00030B5026A22F010020262026A4368846932
:1041B0000D6824F4E64444EA05248D6822F02002C8
:1041C00042EA05120D4DA84202D00D4DA8420ED173
:1041D000CD6822F0800242EA05124D6923F4406363
:1041E00043EA85038D6922F0400243EA8503436078
:1041F000846149688163026230BD000000000140B3
:104200000004014030B5026A22F480720262036A3F
:104210004268C46923F4007324F073050C682C43CE
:104220008D6843EA05230D4DA84202D00C4DA842EB
:104230000ED1CD6823F4006343EA05234D6922F4CF
:10424000405242EA05128D6923F4806342EA051266
:104250004260C4614968C163036230BD000001402F
:104260000004014030B5026A22F480520262046AFE
:104270004268C3690D6823F4E64343EA05238D6869
:1042800024F4005444EA0534084DA84202D0084DF5
:10429000A84204D14D6922F4804242EA851242606C
:1042A000C36149680164046230BD00000000014040
:1042B0000004014010EE100A0749DFED080A8842A9
:1042C00002DD30EE600A704710EE100A04498842A1
:1042D000F9D930EE200A7047000034430000B4439F
:1042E000000034C30148FEF773B800007465002075
:1042F0000148FEF76DB80000B465002010B5806B72
:104300000021C185C184FEF762F810BD70B5846BD1
:104310002068406994F83910C0F3C01000252129A5
:1043200004D118B1E584204600F062F820684069A5
:1043300094F83A10C0F38010222904D118B1E58511
:10434000204600F047F8E06B40F01000E0632046A4
:10435000FEF73DF870BD10B50146806B096809682D
:10436000C90513D40021C1850168CA6822F480728E
:10437000CA6001684A6922F001024A6101684A691B
:1043800022F040024A61202180F83A10FEF716FB25
:1043900010BD10B5806BFEF78BFB10BD10B501464C
:1043A000806B09680968C9050CD40021C1840168C3
:1043B0004A6922F080024A610068C16841F0400108
:1043C000C16010BDFEF7B6FB10BD10B5806BFEF7E7
:1043D000C5FB10BD0168CA6822F49072CA6001680A
:1043E0004A6922F001024A61202180F83A107047A0
:1043F0000168CA6822F0C002CA60202180F8391022
:10440000704710B590F83A10222901D0022010BD53
:104410008168B1F5805F11D00169002901681FD062
:10442000496801F07F03816A4A1C82620B70C18D6A
:10443000491E0904090CC18518D026E00269816A69
:10444000002A0268526805D0D2B20A80816A491CEB
:104450008162ECE7C2F308020A80816A891CF7E7EF
:104460004A68816A4B1C83620A70E0E70168CA6887
:1044700022F49072CA6001684A6922F001024A611E
:10448000202180F83A10FEF799FA002010BD0000B4
:104490002DE9F04104460068016921F44052E168C9
:1044A000114301612168C86849F20C629043236995
:1044B000A268E5691A4363692B431A430243CA6041
:1044C0002168486920F44072A06910434861E1699D
:1044D0006425B1F5004F9748974A21684FF032089C
:1044E0003FD0914201D081427CD1FDF7FBFA00EB35
:1044F000C00101EB001061688900B0FBF1F6FDF727
:10450000F1FA00EBC00101EB001061688900B0FB1B
:10451000F1F0B0FBF5F06FF01801484306EB8001B5
:1045200008EB0110B0FBF5F000F0F006FDF7DAFA49
:1045300000EBC00101EB001061688900B0FBF1F0F5
:10454000B0FBF5F006EB0016FDF7CCFA00EBC0016E
:1045500001EB001061688900B0FBF1F7FDF7C2FACA
:10456000D2E0914201D081423DD1FDF7BBFA00EB90
:10457000C00101EB001061684900B0FBF1F0B0FB35
:10458000F5F00601FDF7AEFA00EBC00101EB0010FB
:1045900061684900B0FBF1F7FDF7A4FA00EBC00138
:1045A00001EB001061684900B0FBF1F0B0FBF5F0E1
:1045B0006FF01801484307EB800108EBC100B0FB26
:1045C000F5F000F0F80006EB4006FDF78BFA00EB83
:1045D000C00101EB001061684900B0FBF1F7FDF785
:1045E00081FA3CE055E0FDF76DFA00EBC00101EB0C
:1045F000001061684900B0FBF1F0B0FBF5F0060176
:10460000FDF760FA00EBC00101EB001061684900A2
:10461000B0FBF1F7FDF756FA00EBC00101EB00101B
:1046200061684900B0FBF1F0B0FBF5F06FF01801E4
:10463000484307EB800108EBC100B0FBF5F000F048
:10464000F80006EB4006FDF73DFA00EBC00101EB78
:10465000001061684900B0FBF1F7FDF733FA00EB99
:10466000C00101EB001061684900B0FBF1F0B0FB44
:10467000F5F06FF01801484307EB800108EBC1002B
:10468000B0FBF5F000F00700216830448860BDE819
:10469000F081FDF717FA00EBC00101EB0010616833
:1046A0008900B0FBF1F6FDF70DFA00EBC00101EB5C
:1046B000001061688900B0FBF1F0B0FBF5F06FF01D
:1046C0001801484306EB800108EB0110B0FBF5F040
:1046D00000F0F006FDF7F6F900EBC00101EB001069
:1046E00061688900B0FBF1F0B0FBF5F006EB001655
:1046F000FDF7E8F900EBC00101EB001061688900EB
:10470000B0FBF1F7FDF7DEF900EBC00101EB0010A3
:1047100061688900B0FBF1F0B0FBF5F06FF01801B3
:10472000484307EB800108EB0110B0FBF5F000F007
:104730000F00A9E7001401400010014090F8391063
:10474000212901D0022070478168B1F5805F016A9C
:104750000BD04A1C0262026809785160C18C491E64
:104760000904090CC1840ED017E009880268C1F35E
:104770000801516001690029016A02D0491C0162E7
:10478000ECE7891CFBE70168CA6822F08002CA6076
:104790000068C16841F04001C1600020704700001E
:1047A0000148FDF715BE0000F46500200148FDF743
:1047B0000FBE0000346600200148FDF709BE00006E
:1047C000746600200148FDF703BE0000B4660020B7
:1047D000FEE70120FEF7C4F90220FEF7E9F9032005
:1047E000FEF7BEF9F5E703B401984100009850EADE
:1047F000C12018BF04204A0D18BF40F0010040F24C
:10480000FF72B2EB515F08BF40F00200012808BF01
:10481000052002B07047000070B59B482DED020BDB
:104820002DED068B079D25F00044A04218DC97482B
:10483000844202DC0AD1069840B19DED060BBDEC26
:10484000068B02B0BDE8704000F0DEBE002DCCBF8C
:104850009FED8F0B9FED900BBDEC068B02B070BDF2
:104860008F48A04215DD8F48A042D8BF4FF0FF34DB
:1048700058DD9DED060B51EC100BFFF7B4FF04283B
:1048800008BF00F0E5FE9DED060BBDEC068B02B007
:1048900070BD9DED060B51EC100B00F075FFCDE9DE
:1048A000060181489FED828BA0423CDD8248A042F8
:1048B0001FDD00249FED82AB9DED060B53EC1A2B00
:1048C00051EC100BFBF71DFD9DED060B41EC190B98
:1048D00053EC1A2B51EC100BFBF7BAFD53EC182BD1
:1048E000FBF7B0FD53EC192BFBF724FECDE90601D5
:1048F00049E09DED060B012453EC182B51EC100BF5
:10490000FBF7FFFC9DED060B41EC190B53EC182B4C
:1049100051EC100BFBF796FD53EC192BFBF70AFE3D
:10492000CDE906012FE06848A0421FDD02249FED7B
:10493000689B9DED060B53EC192B51EC100BFBF70C
:1049400087FD53EC182BFBF7DCFC9DED060B41ECCF
:10495000180B53EC192B51EC100BFBF773FD53ECB8
:10496000182BFBF7E7FDCDE906010CE09DED060BEA
:10497000032453EC102B9FED580B51EC100BFBF75D
:10498000D9FDCDE906019DED060B53EC102B51EC42
:10499000100BFBF75DFD41EC180B53EC182BFBF7EC
:1049A00057FD41EC190B4E480621B0EE490AF0EED6
:1049B000690A784400F014FD53EC182B51EC100BED
:1049C000FBF746FD41EC180B4648B0EE490AF0EE05
:1049D000690A0521784400F003FD53EC192B51ECD2
:1049E000100BFBF735FD41EC100B51EC180B53ECA1
:1049F000102B002C0EDAFBF784FC9DED061B53EC0C
:104A0000112BFBF725FD9DED061B53EC112BFBF73E
:104A10001CFD35E0FBF775FC9DED061B53EC112BDF
:104A2000FBF716FD41EC100B2F48784400EBC40057
:104A300090ED001B51EC100B53EC112BFBF702FD1A
:104A40009DED061B53EC112BFBF7FCFC41EC100B0E
:104A50002648784400EBC40090ED001B51EC100B8D
:104A600053EC112BFBF7F1FC41EC100B002DA2BF16
:104A7000BDEC068B02B070BD51EC100B81F0004113
:104A800041EC100B01E70000000010440000F07F33
:104A9000182D4454FB21F93F182D4454FB21F9BF34
:104AA0000000DC3F0000203E0000F33F000000005B
:104AB000000000000000F03F0000E63F00000000A2
:104AC00000000000000000400080034000000000E3
:104AD000000000000000F83F000000000000F0BFF0
:104AE0004A1C0000001C00008A1B0000421B000042
:104AF00070B56B4E2DED040B2DED028B82B0DDF801
:104B00001CC0DDE905235C422CF000411C4341EA56
:104B1000D474049D22F00040B44205D86C422C436A
:104B200040EAD474B4420BD99DED061B9DED040BF5
:104B300002B0BDEC028B04B0BDE8704000F06EBD69
:104B4000ACF14054A4F17F641C430BD0022404EA6E
:104B5000AC7444EAD27405439FED538B9FED542B04
:104B600007D015E09DED040B51EC100B00F096FD05
:104B700042E0002C11BF012C9DED040B02B0BDECF6
:104B8000028B04BF04B070BD022C38D0032C3BD084
:104B90000B439FED491B9FED4A0B0AD0B14218D140
:104BA000B04209D121F0804120F08040079105906A
:104BB0000FE0002A15DA10E0434B7B44002C08BFBD
:104BC00093ED000B0DD0012C10D0022C17D0032C2C
:104BD0001AD0B0421DD1002A03DAB0EE410AF0EE3D
:104BE000610A02B0BDEC028B04B070BD93ED000B06
:104BF00051EC100B81F0004141EC100BF1E7B0EEED
:104C0000480AF0EE680AECE7B0EE420AF0EE620AFB
:104C1000E7E7401A00153C28C8BF8DED000B19DCF2
:104C2000BCF1000FBEBF10F13C0F9FED290B8DEDC5
:104C3000000B0FDB9DED060B53EC102B9DED040BD1
:104C400051EC100BFBF776FC00F09EFD00F026FD0A
:104C5000CDE90001002C08BF9DED000BC1D0012C57
:104C600010D0022C9FED1C0B53EC102B9DED000B74
:104C700051EC100B0DD0FBF7E5FB53EC182BFBF7B9
:104C8000E1FBB9E7019880F0004001909DED000B39
:104C9000A7E7FBF7D7FB53EC182BFBF7D6FBABE7EB
:104CA0000000F07F00000000182D4454FB21094053
:104CB000182D4454FB2109C0182D4454FB21F9BF81
:104CC000182D4454FB21F93FA21A000000000000F7
:104CD0000000000000000000075C143326A6A13C81
:104CE00010B52F499FED2C1B2DED020B84B00598BC
:104CF00020F000408842D8BF9DED040B2DDD2949EE
:104D0000884209D1049840B94FF0010000F0C0FC7E
:104D100000F08EFC06B010BD05DB9DED040B00F02D
:104D200073FC06B010BD68469DED040B00F084F8DE
:104D300010F0030004BF9DED021B9DED000B0CD095
:104D400001280ED09DED021B9DED000B022817D00F
:104D5000012000F0C1FB06B010BD00F089FA06B0DA
:104D600010BD9DED021B9DED000B012000F0B4FB7A
:104D700051EC100B81F0004106B041EC100B10BD5E
:104D800000F076FA51EC100B81F0004106B041ECD6
:104D9000100B10BD0000000000000000000000002B
:104DA000FB21E93F0000F07F2DED020B019820F080
:104DB000004001909DED000B02B0704700B52DED55
:104DC000048BB0EE409AF0EE609A83B051EC190B70
:104DD000FBF77BFD41EC180B18EE100A18EE901A49
:104DE0008DED008B002818BF0120084320F0004003
:104DF000C0F17F6000F1E040C00F14D019EE101A2E
:104E000019EE900A8DED009B002918BF012108437F
:104E100020F00040C0F17F6000F1E040C00F04BF0F
:104E2000012000F035FCB0EE480A03B0F0EE680A4D
:104E3000BDEC048B00BD00002DE9F14F04462DEDC3
:104E4000020B2DED088B8AB09FEDE70B80ED020B76
:104E5000139EE74826F0004585420ADC9DED120BC3
:104E6000002084ED000B0AB0BDEC088B03B0BDE858
:104E7000F08FE0489FEDE0AB9FEDE1BBA84247DD3E
:104E8000E14F9FEDE39B9FEDE48B9DED120B53EC07
:104E90001A2B51EC100B002E1CDDFBF7D3FA41EC62
:104EA000100BBD4208D053EC1B2B51EC100BFBF741
:104EB000C9FAC4E900010BE053EC192B51EC100BBB
:104EC000FBF7C0FA53EC182BFBF7BCFAC4E900015E
:104ED0000120C8E7FBF715FA41EC100BBD4208D0E2
:104EE00053EC1B2B51EC100BFBF70BFAC4E9000140
:104EF0000BE053EC192B51EC100BFBF702FA53ECBF
:104F0000182BFBF7FEF9C4E900014FF0FF30AAE7C8
:104F1000C348A84279DB9DED120B51EC100B00F059
:104F200033FC41EC180B9FEDC00B53EC102BFBF73F
:104F30008FFA9FEDBF1B53EC112BFBF7E2F9FBF748
:104F400027FD0746FBF765FB41EC190B53EC1A2BC9
:104F5000FBF77EFA53EC182BFBF777FA41EC180BB2
:104F600053EC1B2B51EC190BFBF772FADFF8C8A2BC
:104F700041EC100B4FEA15580125FA4453EC102B65
:104F800051EC180BFBF75EFA032DC4E900013DD08C
:104F9000C1F30A5005EB4511A8EB0000113981421D
:104FA00034DA0AEB051BB0EE48AA9BED000BF0EEDD
:104FB00068AA53EC102B51EC190BFBF749FA41ECA2
:104FC0001B0B51EC1A0B53EC1B2BFBF73BFA41EC80
:104FD000180B51EC1A0B53EC182BFBF733FA53EC6C
:104FE0001B2BFBF72FFA9BED020B41EC1A0B53EC3A
:104FF000102B51EC190BFBF72BFA53EC1A2BFBF788
:1050000021FA41EC100B6D1CB8E70EE0002EA8BF92
:105010003846BFF628AF94ED000B51EC100B81F031
:105020000041C4E9000178421DE7C6F3130040F4D3
:10503000801EC6F30A50A0F2F530471100F01F059C
:10504000C5F12000DDF848B00890002006900790D8
:105050000520EC467949002D07EB0002794408BF92
:1050600051F8221009D051F8223001EB8201AB40F7
:105070004A68089922FA01F11943A1FB0E26A1FB07
:105080000B131A449A4234BF0123002303EB060892
:105090000CEB8003D3E901A60E448E4234BF0121FC
:1050A000002192448A4411B1924502D903E092450D
:1050B00001D2012100E00021C3E901A641444CF8DE
:1050C0002010011EA0F10100C4DC029800F1005084
:1050D000850F0298DDE903678000DDF81480FBF797
:1050E00098FA41EC1A0B3046FBF7A4FA9FED541BDB
:1050F00053EC112BFBF7ACF941EC1B0B3846FBF7DB
:1051000099FA9FED511B53EC112BFBF7A1F941ECE0
:10511000180B4046FBF78EFA9FED4D1B53EC112BFD
:10512000FBF796F941EC190B51EC180B53EC192BCA
:10513000FBF7E7F853EC1B2BFBF7E3F853EC1A2BC8
:10514000FBF7DFF8CDE90801002008909DED080B82
:1051500053EC1A2B51EC100BFBF774F953EC1B2B8F
:10516000FBF770F953EC182BFBF76CF953EC192B88
:10517000FBF76BF99FED381B53EC112BFBF768F92C
:105180009FED370B41EC180B53EC102B9DED080BEA
:1051900051EC100BFBF75CF953EC182BFBF7B1F853
:1051A0009FED310B41EC180B53EC102B9DED080BD0
:1051B00051EC100BFBF74CF953EC182BFBF7A1F853
:1051C00041EC100B139810F0004F06D06D4251ECDB
:1051D000100B81F0004141EC100B284684ED000BD0
:1051E00041E6000000000000000000000000000098
:1051F000FB21E93F7CD9024000004054FB21F93FEC
:105200003163621A61B4D03DFB21F93F0000000018
:105210000000601A61B4D03D7370032E8A19A33B5D
:10522000FB2139410000000083C8C96D305FE43FB5
:10523000000000000000E03FEA1600003816000001
:10524000000000000000103E000000000000103CC4
:10525000000000000000103A182D4454FB21F93DD5
:105260003326A611460B113C00000054FB21F93DEA
:1052700010B52DED040B2DED088B82B0B0EE419AE8
:10528000F0EE619A0B9820F000449FED4BABB4F127
:10529000795F11DA9DED0A0B51EC100BFBF778FBEF
:1052A000002801BFB0EE4A0AF0EE6A0A02B0BDEC77
:1052B000088B04BF04B010BD9DED0A0B53EC102BFE
:1052C00051EC100BFBF7C4F841EC180B3C480621DD
:1052D000B0EE480AF0EE680A784400F081F853EC2A
:1052E000182B51EC100BFBF7B3F89DED0A0B41ECBA
:1052F0001B0B53EC192B51EC100BFBF7A9F841ECED
:10530000190B53EC1B2B51EC180BFBF7A1F853ECCA
:10531000192BFBF797F89FED2C0B41EC190B53EC75
:10532000102B51EC180BFBF793F841EC100B2848AD
:10533000844210DA53EC192B51EC100BFBF782F876
:1053400053EC1A2BFBF781F841EC100B02B0BDECCB
:10535000088B04B010BD1F48A042BCBF9FED1E1BB0
:105360008DED001B06DBA4F50010019000200090DD
:105370009DED001B51EC100B53EC112BFBF762F869
:105380009DED000B41EC180B53EC102B51EC1A0B5C
:10539000FBF758F841EC1A0B53EC192B51EC180B96
:1053A000FBF750F853EC1A2BFBF74FF841EC100BBE
:1053B000CCE7000000000000000000000000F03F0B
:1053C0005413000000000000000000000000E03F57
:1053D0003333D33F0000E93F000000000000D23F1C
:1053E00070B504462DED028B4D1E00EBC500B0EEEE
:1053F000408AF0EE608A90ED000B35F0060017D081
:1054000053EC182B51EC100BFBF722F841EC100B6E
:105410006D1E04EBC50090ED001B51EC100B53EC1E
:10542000112BFAF76EFF41EC100B35F00600E7D1B7
:10543000022D36D0042D1CD0062D1CBFBDEC028BD6
:1054400070BD53EC182B51EC100BFBF701F894EDE9
:105450000A1B53EC112BFAF754FF53EC182BFAF7F5
:10546000F7FF94ED081B53EC112BFAF74AFF41ECC0
:10547000100B53EC182B51EC100BFAF7E9FF94EDDD
:10548000061B53EC112BFAF73CFF53EC182BFAF7E1
:10549000DFFF94ED040B53EC102BFAF732FF41ECD5
:1054A000100B53EC182B51EC100BFAF7D1FF94EDC5
:1054B000021B53EC112BFAF724FF53EC182BFAF7CD
:1054C000C7FF94ED001B53EC112BFAF71AFFBDEC4C
:1054D000028B41EC100B70BD31B504462DED040B71
:1054E0002DED0A8BB0EE41BAF0EE61BA0B989DED4E
:1054F0000A0B20F00040B0F1795F0DDA51EC100B8F
:10550000FFF771F9042808BF00F0A2F89DED0A0B1F
:10551000BDEC0A8B05B030BD53EC102B51EC100BD9
:10552000FAF796FF41EC180B9DED0A0B53EC182B84
:1055300051EC100BFAF78CFF41EC190B2C48B0EE34
:10554000480AF0EE680A05217844FFF749FF9FED0D
:105550002ACBB0EE40AAF0EE60AA9CB353EC1C2B11
:1055600051EC190BFAF774FF41EC1C0B53EC1A2B9E
:1055700051EC190BFAF76CFF9FED210B41EC190B65
:1055800053EC102B51EC1B0BFAF762FF53EC192B69
:10559000FAF758FF53EC182BFAF75AFF53EC1B2B72
:1055A000FAF750FF53EC1C2BFAF74CFF9DED0A1B4A
:1055B00053EC112BFAF749FFBDEC0A8B05B041EC17
:1055C000100B30BDFFE753EC1A2B51EC180BFAF718
:1055D0003FFF53EC1C2BFAF794FE53EC192BFAF710
:1055E00037FF9DED0A1B53EC112BFAF78AFEE3E718
:1055F000E411000000000000495555555555C5BF40
:10560000000000000000E03F10B553EC102B51ECFF
:10561000100BFAF776FE41EC100B10BD10B553ECF1
:10562000112B51EC100BFAF76CFE41EC100B10BD76
:105630009FED050B10B553EC102B51EC100BFAF746
:1056400079FF41EC100B10BD0000000000000000CD
:105650009FED050B10B553EC102B51EC100BFAF726
:10566000F7FE41EC100B10BD000000000000001020
:1056700002E008C8121F08C1002AFAD1704770471B
:10568000002001E001C1121F002AFBD17047000079
:105690000149086070470000B002002010B541ECDD
:1056A000100BFFF7B9F851EC100B10BD02784178E0
:1056B0000E4842F20E730270417001EB022189B272
:1056C0008A1E41819A4202D20182012101E0002119
:1056D00001828171018A00EE101A0549B8EE400A74
:1056E00081ED6D0A807981F8B00170478C0000204F
:1056F000B8620020027841780E4842F20E73827040
:10570000C17001EB022189B28A1E81819A4202D2C4
:105710004182012101E000214182C171418A00EEF4
:10572000101A0549B8EE400A81ED6B0AC07981F87C
:10573000A80170478C000020B862002001784278F0
:105740000F4842F20E73017102EB0121427189B2DE
:10575000C1814289921E9A4202D28182012101E0D6
:10576000002181820172818A00EE101A0549B8EE8B
:10577000400A81ED6F0A007A81F8B8017047000095
:105780008C000020B862002082B0CDE9000121F039
:10579000004001909DED000B02B051EC100B7047E2
:1057A000FBF7FEFFFEF7D6FBFDF7B2FAFDF74CFA6A
:1057B000FDF7C0FCFDF7E6FCFDF76CFCFDF792FC85
:1057C000FDF70AFDFDF76AFBFDF7A6FBFDF702FCFE
:1057D000FDF72CFDFDF77EFA00F00EF8FEE701461E
:1057E0000020842900D0C81C704710B500B90120E2
:1057F00000F098FC002010BD10B500F0B9FC0020AE
:1058000010BD10B500F0D0FD012803D0BDE8104058
:1058100000F088BD10BD3EB504460D46B0F9080045
:10582000FFF7DDFF02A9CDE90001208A2B4682B2F5
:10583000D4E9001000F08CFD012801D000203EBD0D
:1058400002983EBD04494FF080500860BFF34F8F6F
:10585000BFF36F8F0020704704ED00E02DE9F041A9
:10586000184C0F460546E6682068001D00F0A4FBB2
:1058700038B9206890F82C100120884021698143B4
:105880002161681C07D137B12168BDE8F0410E489D
:10589000091D00F0C9BB20683544B5424560216848
:1058A00005D2A06BBDE8F041091D00F0A5BB606BFF
:1058B000091D00F0A1FBA06A854200D2A562BDE8E7
:1058C000F08100002C0000204CA600202DE9F041C2
:1058D000054600F0B5FB2E4CA068401CA060206877
:1058E0002C4F10B1606940B32DE02560A0680128FD
:1058F00029D1002606EB860007EB800000F06EFB46
:10590000761C072EF6D323488C3000F067FB214825
:10591000A03000F063FB1F48B43000F05FFB1D486F
:10592000C83000F05BFB1B48DC3000F057FB194827
:105930008C3060631430A06305E02068E96AC06AB7
:10594000884200D82560606A401C6062E96A0120D4
:10595000226988401043206101EB810007EB800041
:10596000291D00F061FB00F08BFB606900280CD062
:105970002068E96AC06A884207D207494FF0805020
:105980000860BFF34F8FBFF36F8FBDE8F081000059
:105990002C00002070A5002004ED00E070B5114E31
:1059A000114C17E000F018FC3068B8B100F06EFD43
:1059B00000F046FBF068C568281D00F0FDFAA068FD
:1059C000401EA0606068401E606000F059FB2846E1
:1059D00000F00CF860680028E4D170BD00F056FDBE
:1059E000F8E7000038A600202C00002010B504467F
:1059F000006B00F059FB2046BDE8104000F054BB9E
:105A000010484FF47051420706D0C01D0D4920F0D8
:105A10000700411AC1F570510B4A00230144C2E945
:105A200000030839103A21F0070111604B600B6048
:105A30000B1AC0E9001393604FF000405360D06030
:105A4000704700007069002018000020074C4FF0DC
:105A50008056074DFFF7A2FF20680128FAD92E6073
:105A6000BFF34F8FBFF36F8FF4E7000070A50020E6
:105A700004ED00E02DE9F0479A46DDE9098481460E
:105A80006FF00303206B03EB82021044089D20F0AB
:105A90000706700707D0502080F31188BFF34F8F9F
:105AA000BFF36F8FFEE723180A5C83F834200A5C8B
:105AB00012B1401C1028F6D3002784F84370072D3C
:105AC00000D30625E562C4E91157201D00F091FAC4
:105AD00004F1180000F08DFA2461C5F1070064623A
